{
  "_format": "hh-sol-artifact-1",
  "contractName": "VotingBoothUpdated",
  "sourceName": "contracts/Voting_Booth_Updated.sol",
  "abi": [
    {
      "anonymous": false,
      "inputs": [
        {
          "indexed": true,
          "internalType": "address",
          "name": "previousOwner",
          "type": "address"
        },
        {
          "indexed": true,
          "internalType": "address",
          "name": "newOwner",
          "type": "address"
        }
      ],
      "name": "OwnershipTransferred",
      "type": "event"
    },
    {
      "anonymous": false,
      "inputs": [
        {
          "indexed": false,
          "internalType": "address",
          "name": "account",
          "type": "address"
        }
      ],
      "name": "Paused",
      "type": "event"
    },
    {
      "anonymous": false,
      "inputs": [
        {
          "indexed": false,
          "internalType": "address",
          "name": "account",
          "type": "address"
        }
      ],
      "name": "Unpaused",
      "type": "event"
    },
    {
      "anonymous": false,
      "inputs": [
        {
          "indexed": false,
          "internalType": "bytes32",
          "name": "_func",
          "type": "bytes32"
        },
        {
          "indexed": false,
          "internalType": "bytes32",
          "name": "_categoryName",
          "type": "bytes32"
        },
        {
          "indexed": false,
          "internalType": "bytes32[]",
          "name": "_candidateNames",
          "type": "bytes32[]"
        },
        {
          "indexed": false,
          "internalType": "address",
          "name": "_from",
          "type": "address"
        }
      ],
      "name": "categorySet",
      "type": "event"
    },
    {
      "anonymous": false,
      "inputs": [
        {
          "indexed": false,
          "internalType": "bytes32",
          "name": "_func",
          "type": "bytes32"
        },
        {
          "indexed": false,
          "internalType": "bytes32",
          "name": "_categoryName",
          "type": "bytes32"
        },
        {
          "indexed": false,
          "internalType": "bytes32",
          "name": "_winner",
          "type": "bytes32"
        },
        {
          "indexed": false,
          "internalType": "address",
          "name": "_from",
          "type": "address"
        }
      ],
      "name": "categoryStatusChange",
      "type": "event"
    },
    {
      "anonymous": false,
      "inputs": [
        {
          "indexed": false,
          "internalType": "address",
          "name": "_donator",
          "type": "address"
        },
        {
          "indexed": false,
          "internalType": "uint256",
          "name": "_amount",
          "type": "uint256"
        }
      ],
      "name": "donationReceived",
      "type": "event"
    },
    {
      "inputs": [
        {
          "internalType": "address",
          "name": "",
          "type": "address"
        },
        {
          "internalType": "uint256",
          "name": "",
          "type": "uint256"
        }
      ],
      "name": "_boolVoter",
      "outputs": [
        {
          "internalType": "bool",
          "name": "",
          "type": "bool"
        }
      ],
      "stateMutability": "view",
      "type": "function"
    },
    {
      "inputs": [
        {
          "internalType": "uint64",
          "name": "",
          "type": "uint64"
        }
      ],
      "name": "_openedOnce",
      "outputs": [
        {
          "internalType": "bool",
          "name": "",
          "type": "bool"
        }
      ],
      "stateMutability": "view",
      "type": "function"
    },
    {
      "inputs": [
        {
          "internalType": "address",
          "name": "",
          "type": "address"
        }
      ],
      "name": "_registry",
      "outputs": [
        {
          "internalType": "bool",
          "name": "",
          "type": "bool"
        }
      ],
      "stateMutability": "view",
      "type": "function"
    },
    {
      "inputs": [],
      "name": "_totalVotes",
      "outputs": [
        {
          "internalType": "uint256",
          "name": "",
          "type": "uint256"
        }
      ],
      "stateMutability": "view",
      "type": "function"
    },
    {
      "inputs": [],
      "name": "_voterCount",
      "outputs": [
        {
          "internalType": "uint64",
          "name": "",
          "type": "uint64"
        }
      ],
      "stateMutability": "view",
      "type": "function"
    },
    {
      "inputs": [
        {
          "internalType": "uint64",
          "name": "_catId",
          "type": "uint64"
        },
        {
          "internalType": "uint8",
          "name": "_canId",
          "type": "uint8"
        }
      ],
      "name": "castVote",
      "outputs": [],
      "stateMutability": "nonpayable",
      "type": "function"
    },
    {
      "inputs": [
        {
          "internalType": "uint256",
          "name": "",
          "type": "uint256"
        }
      ],
      "name": "categories",
      "outputs": [
        {
          "internalType": "bytes32",
          "name": "name",
          "type": "bytes32"
        },
        {
          "internalType": "bool",
          "name": "open",
          "type": "bool"
        },
        {
          "internalType": "uint64",
          "name": "catId",
          "type": "uint64"
        }
      ],
      "stateMutability": "view",
      "type": "function"
    },
    {
      "inputs": [
        {
          "internalType": "uint64",
          "name": "_catId",
          "type": "uint64"
        }
      ],
      "name": "closeCategory",
      "outputs": [
        {
          "internalType": "bytes32",
          "name": "",
          "type": "bytes32"
        }
      ],
      "stateMutability": "nonpayable",
      "type": "function"
    },
    {
      "inputs": [],
      "name": "currentFuncAddress",
      "outputs": [
        {
          "internalType": "address",
          "name": "",
          "type": "address"
        }
      ],
      "stateMutability": "view",
      "type": "function"
    },
    {
      "inputs": [
        {
          "internalType": "uint64",
          "name": "_catId",
          "type": "uint64"
        },
        {
          "internalType": "uint8",
          "name": "_canId",
          "type": "uint8"
        }
      ],
      "name": "getCandidate",
      "outputs": [
        {
          "internalType": "bytes32",
          "name": "",
          "type": "bytes32"
        }
      ],
      "stateMutability": "view",
      "type": "function"
    },
    {
      "inputs": [
        {
          "internalType": "uint64",
          "name": "_catId",
          "type": "uint64"
        },
        {
          "internalType": "uint8",
          "name": "_canId",
          "type": "uint8"
        }
      ],
      "name": "getCandidateVotes",
      "outputs": [
        {
          "internalType": "uint256",
          "name": "",
          "type": "uint256"
        }
      ],
      "stateMutability": "view",
      "type": "function"
    },
    {
      "inputs": [
        {
          "internalType": "uint64",
          "name": "_catId",
          "type": "uint64"
        }
      ],
      "name": "getCategoryName",
      "outputs": [
        {
          "internalType": "bytes32",
          "name": "",
          "type": "bytes32"
        }
      ],
      "stateMutability": "view",
      "type": "function"
    },
    {
      "inputs": [
        {
          "internalType": "uint64",
          "name": "_catId",
          "type": "uint64"
        }
      ],
      "name": "getCategoryOpen",
      "outputs": [
        {
          "internalType": "bool",
          "name": "",
          "type": "bool"
        }
      ],
      "stateMutability": "view",
      "type": "function"
    },
    {
      "inputs": [
        {
          "internalType": "uint64",
          "name": "_catId",
          "type": "uint64"
        }
      ],
      "name": "getCategoryVotes",
      "outputs": [
        {
          "internalType": "uint256",
          "name": "",
          "type": "uint256"
        }
      ],
      "stateMutability": "view",
      "type": "function"
    },
    {
      "inputs": [
        {
          "internalType": "uint64",
          "name": "_catId",
          "type": "uint64"
        }
      ],
      "name": "openCategory",
      "outputs": [],
      "stateMutability": "nonpayable",
      "type": "function"
    },
    {
      "inputs": [],
      "name": "owner",
      "outputs": [
        {
          "internalType": "address",
          "name": "",
          "type": "address"
        }
      ],
      "stateMutability": "view",
      "type": "function"
    },
    {
      "inputs": [],
      "name": "pause",
      "outputs": [],
      "stateMutability": "nonpayable",
      "type": "function"
    },
    {
      "inputs": [],
      "name": "paused",
      "outputs": [
        {
          "internalType": "bool",
          "name": "",
          "type": "bool"
        }
      ],
      "stateMutability": "view",
      "type": "function"
    },
    {
      "inputs": [],
      "name": "register",
      "outputs": [],
      "stateMutability": "nonpayable",
      "type": "function"
    },
    {
      "inputs": [],
      "name": "renounceOwnership",
      "outputs": [],
      "stateMutability": "nonpayable",
      "type": "function"
    },
    {
      "inputs": [
        {
          "internalType": "bytes32",
          "name": "_category",
          "type": "bytes32"
        },
        {
          "internalType": "bytes32[]",
          "name": "_candidates",
          "type": "bytes32[]"
        }
      ],
      "name": "setCategory",
      "outputs": [
        {
          "internalType": "uint64",
          "name": "",
          "type": "uint64"
        }
      ],
      "stateMutability": "nonpayable",
      "type": "function"
    },
    {
      "inputs": [
        {
          "internalType": "address",
          "name": "newOwner",
          "type": "address"
        }
      ],
      "name": "transferOwnership",
      "outputs": [],
      "stateMutability": "nonpayable",
      "type": "function"
    },
    {
      "inputs": [],
      "name": "unpause",
      "outputs": [],
      "stateMutability": "nonpayable",
      "type": "function"
    },
    {
      "inputs": [],
      "name": "withdraw",
      "outputs": [],
      "stateMutability": "nonpayable",
      "type": "function"
    },
    {
      "stateMutability": "payable",
      "type": "receive"
    }
  ],
  "bytecode": "0x60806040523480156200001157600080fd5b5062000032620000266200005260201b60201c565b6200005a60201b60201c565b60008060146101000a81548160ff0219169083151502179055506200011e565b600033905090565b60008060009054906101000a900473ffffffffffffffffffffffffffffffffffffffff169050816000806101000a81548173ffffffffffffffffffffffffffffffffffffffff021916908373ffffffffffffffffffffffffffffffffffffffff1602179055508173ffffffffffffffffffffffffffffffffffffffff168173ffffffffffffffffffffffffffffffffffffffff167f8be0079c531659141344cd1fd0a4f28419497f9722a3daafe3b4186f6b6457e060405160405180910390a35050565b612e7a806200012e6000396000f3fe60806040526004361061014e5760003560e01c80636bda58f9116100b657806399ef6ccb1161006f57806399ef6ccb146104c3578063aa89921414610500578063c6cdbe5e14610529578063ce4ec04814610568578063eb77c40f14610593578063f2fde38b146105d05761018e565b80636bda58f9146103b35780636d93d0d8146103f0578063715018a61461042d57806380417bfb146104445780638456cb59146104815780638da5cb5b146104985761018e565b8063317cc82d11610108578063317cc82d146102b55780633ccfd60b146102e05780633f4ba83a146102f75780635133342b1461030e5780635c975abb1461034b578063662efa43146103765761018e565b80624554691461019357806302c3307d146101d057806308e67038146101f95780631aa3a008146102365780631af5fd021461024d5780631ddbcbb1146102785761018e565b3661018e577fe2639ef551ad89950da1145fe1fd600e818336d6e8aa88426efe387c49accebb3334604051610184929190612845565b60405180910390a1005b600080fd5b34801561019f57600080fd5b506101ba60048036038101906101b5919061229b565b6105f9565b6040516101c79190612889565b60405180910390f35b3480156101dc57600080fd5b506101f760048036038101906101f29190612272565b6106a5565b005b34801561020557600080fd5b50610220600480360381019061021b9190612190565b610986565b60405161022d919061286e565b60405180910390f35b34801561024257600080fd5b5061024b6109a6565b005b34801561025957600080fd5b50610262610b29565b60405161026f919061282a565b60405180910390f35b34801561028457600080fd5b5061029f600480360381019061029a9190612272565b610b4f565b6040516102ac919061286e565b60405180910390f35b3480156102c157600080fd5b506102ca610b6f565b6040516102d79190612b44565b60405180910390f35b3480156102ec57600080fd5b506102f5610b89565b005b34801561030357600080fd5b5061030c610c91565b005b34801561031a57600080fd5b5061033560048036038101906103309190612272565b610d17565b6040516103429190612889565b60405180910390f35b34801561035757600080fd5b50610360610d76565b60405161036d919061286e565b60405180910390f35b34801561038257600080fd5b5061039d60048036038101906103989190612272565b610d8c565b6040516103aa919061286e565b60405180910390f35b3480156103bf57600080fd5b506103da60048036038101906103d5919061229b565b610df8565b6040516103e79190612b29565b60405180910390f35b3480156103fc57600080fd5b5061041760048036038101906104129190612272565b610f4f565b6040516104249190612889565b60405180910390f35b34801561043957600080fd5b5061044261118c565b005b34801561045057600080fd5b5061046b60048036038101906104669190612272565b611214565b6040516104789190612b29565b60405180910390f35b34801561048d57600080fd5b5061049661134d565b005b3480156104a457600080fd5b506104ad6113d3565b6040516104ba919061282a565b60405180910390f35b3480156104cf57600080fd5b506104ea60048036038101906104e591906121f5565b6113fc565b6040516104f79190612b44565b60405180910390f35b34801561050c57600080fd5b506105276004803603810190610522919061229b565b61179a565b005b34801561053557600080fd5b50610550600480360381019061054b9190612249565b611b14565b60405161055f939291906128a4565b60405180910390f35b34801561057457600080fd5b5061057d611b6f565b60405161058a9190612b29565b60405180910390f35b34801561059f57600080fd5b506105ba60048036038101906105b591906121b9565b611b75565b6040516105c7919061286e565b60405180910390f35b3480156105dc57600080fd5b506105f760048036038101906105f29190612190565b611ba4565b005b600060028367ffffffffffffffff168154811061063f577f4e487b7100000000000000000000000000000000000000000000000000000000600052603260045260246000fd5b90600052602060002090600302016001018260ff168154811061068b577f4e487b7100000000000000000000000000000000000000000000000000000000600052603260045260246000fd5b906000526020600020906003020160000154905092915050565b6106ad611c9c565b73ffffffffffffffffffffffffffffffffffffffff166106cb6113d3565b73ffffffffffffffffffffffffffffffffffffffff1614610721576040517f08c379a000000000000000000000000000000000000000000000000000000000815260040161071890612a89565b60405180910390fd5b806000151560028267ffffffffffffffff168154811061076a577f4e487b7100000000000000000000000000000000000000000000000000000000600052603260045260246000fd5b906000526020600020906003020160020160009054906101000a900460ff161515146107cb576040517f08c379a00000000000000000000000000000000000000000000000000000000081526004016107c290612aa9565b60405180910390fd5b60001515600660008467ffffffffffffffff1667ffffffffffffffff16815260200190815260200160002060009054906101000a900460ff16151514610846576040517f08c379a000000000000000000000000000000000000000000000000000000000815260040161083d906129a8565b60405180910390fd5b6001600660008467ffffffffffffffff1667ffffffffffffffff16815260200190815260200160002060006101000a81548160ff021916908315150217905550600160028367ffffffffffffffff16815481106108cc577f4e487b7100000000000000000000000000000000000000000000000000000000600052603260045260246000fd5b906000526020600020906003020160020160006101000a81548160ff0219169083151502179055507f638b96e82cfc7a197bd6be5c176bc949aba7a20600a5d03c74c59cb51355f47a60028367ffffffffffffffff1681548110610959577f4e487b7100000000000000000000000000000000000000000000000000000000600052603260045260246000fd5b9060005260206000209060030201600001543360405161097a929190612a28565b60405180910390a15050565b60046020528060005260406000206000915054906101000a900460ff1681565b6109ae610d76565b156109ee576040517f08c379a00000000000000000000000000000000000000000000000000000000081526004016109e590612a69565b60405180910390fd5b60011515600460003373ffffffffffffffffffffffffffffffffffffffff1673ffffffffffffffffffffffffffffffffffffffff16815260200190815260200160002060009054906101000a900460ff1615151415610a82576040517f08c379a0000000000000000000000000000000000000000000000000000000008152600401610a79906129e8565b60405180910390fd5b6001600460003373ffffffffffffffffffffffffffffffffffffffff1673ffffffffffffffffffffffffffffffffffffffff16815260200190815260200160002060006101000a81548160ff0219169083151502179055506007600081819054906101000a900467ffffffffffffffff1680929190610b0090612d18565b91906101000a81548167ffffffffffffffff021916908367ffffffffffffffff16021790555050565b600160009054906101000a900473ffffffffffffffffffffffffffffffffffffffff1681565b60066020528060005260406000206000915054906101000a900460ff1681565b600760009054906101000a900467ffffffffffffffff1681565b610b91611c9c565b73ffffffffffffffffffffffffffffffffffffffff16610baf6113d3565b73ffffffffffffffffffffffffffffffffffffffff1614610c05576040517f08c379a0000000000000000000000000000000000000000000000000000000008152600401610bfc90612a89565b60405180910390fd5b60004711610c48576040517f08c379a0000000000000000000000000000000000000000000000000000000008152600401610c3f90612b09565b60405180910390fd5b3373ffffffffffffffffffffffffffffffffffffffff166108fc479081150290604051600060405180830381858888f19350505050158015610c8e573d6000803e3d6000fd5b50565b610c99611c9c565b73ffffffffffffffffffffffffffffffffffffffff16610cb76113d3565b73ffffffffffffffffffffffffffffffffffffffff1614610d0d576040517f08c379a0000000000000000000000000000000000000000000000000000000008152600401610d0490612a89565b60405180910390fd5b610d15611ca4565b565b600060028267ffffffffffffffff1681548110610d5d577f4e487b7100000000000000000000000000000000000000000000000000000000600052603260045260246000fd5b9060005260206000209060030201600001549050919050565b60008060149054906101000a900460ff16905090565b600060028267ffffffffffffffff1681548110610dd2577f4e487b7100000000000000000000000000000000000000000000000000000000600052603260045260246000fd5b906000526020600020906003020160020160009054906101000a900460ff169050919050565b6000826000151560028267ffffffffffffffff1681548110610e43577f4e487b7100000000000000000000000000000000000000000000000000000000600052603260045260246000fd5b906000526020600020906003020160020160009054906101000a900460ff16151514610ea4576040517f08c379a0000000000000000000000000000000000000000000000000000000008152600401610e9b90612aa9565b60405180910390fd5b60028467ffffffffffffffff1681548110610ee8577f4e487b7100000000000000000000000000000000000000000000000000000000600052603260045260246000fd5b90600052602060002090600302016001018360ff1681548110610f34577f4e487b7100000000000000000000000000000000000000000000000000000000600052603260045260246000fd5b90600052602060002090600302016001015491505092915050565b6000610f59611c9c565b73ffffffffffffffffffffffffffffffffffffffff16610f776113d3565b73ffffffffffffffffffffffffffffffffffffffff1614610fcd576040517f08c379a0000000000000000000000000000000000000000000000000000000008152600401610fc490612a89565b60405180910390fd5b816001151560028267ffffffffffffffff1681548110611016577f4e487b7100000000000000000000000000000000000000000000000000000000600052603260045260246000fd5b906000526020600020906003020160020160009054906101000a900460ff16151514611077576040517f08c379a000000000000000000000000000000000000000000000000000000000815260040161106e90612a08565b60405180910390fd5b600060028467ffffffffffffffff16815481106110bd577f4e487b7100000000000000000000000000000000000000000000000000000000600052603260045260246000fd5b906000526020600020906003020160020160006101000a81548160ff02191690831515021790555060006110f084611d45565b90507f638b96e82cfc7a197bd6be5c176bc949aba7a20600a5d03c74c59cb51355f47a60028567ffffffffffffffff1681548110611157577f4e487b7100000000000000000000000000000000000000000000000000000000600052603260045260246000fd5b906000526020600020906003020160000154823360405161117a93929190612945565b60405180910390a18092505050919050565b611194611c9c565b73ffffffffffffffffffffffffffffffffffffffff166111b26113d3565b73ffffffffffffffffffffffffffffffffffffffff1614611208576040517f08c379a00000000000000000000000000000000000000000000000000000000081526004016111ff90612a89565b60405180910390fd5b6112126000611f2a565b565b6000806000905060005b60028467ffffffffffffffff1681548110611262577f4e487b7100000000000000000000000000000000000000000000000000000000600052603260045260246000fd5b9060005260206000209060030201600101805490508160ff1610156113435760028467ffffffffffffffff16815481106112c5577f4e487b7100000000000000000000000000000000000000000000000000000000600052603260045260246000fd5b90600052602060002090600302016001018160ff1681548110611311577f4e487b7100000000000000000000000000000000000000000000000000000000600052603260045260246000fd5b9060005260206000209060030201600101548261132e9190612c06565b9150808061133b90612d49565b91505061121e565b5080915050919050565b611355611c9c565b73ffffffffffffffffffffffffffffffffffffffff166113736113d3565b73ffffffffffffffffffffffffffffffffffffffff16146113c9576040517f08c379a00000000000000000000000000000000000000000000000000000000081526004016113c090612a89565b60405180910390fd5b6113d1611fee565b565b60008060009054906101000a900473ffffffffffffffffffffffffffffffffffffffff16905090565b6000611406611c9c565b73ffffffffffffffffffffffffffffffffffffffff166114246113d3565b73ffffffffffffffffffffffffffffffffffffffff161461147a576040517f08c379a000000000000000000000000000000000000000000000000000000000815260040161147190612a89565b60405180910390fd5b6101008251106114bf576040517f08c379a00000000000000000000000000000000000000000000000000000000081526004016114b690612ac9565b60405180910390fd5b6000600360009054906101000a900467ffffffffffffffff1690506003600081819054906101000a900467ffffffffffffffff168092919061150090612d18565b91906101000a81548167ffffffffffffffff021916908367ffffffffffffffff160217905550506002600181600181540180825580915050039060005260206000209050508360028267ffffffffffffffff168154811061158a577f4e487b7100000000000000000000000000000000000000000000000000000000600052603260045260246000fd5b9060005260206000209060030201600001819055508060028267ffffffffffffffff16815481106115e4577f4e487b7100000000000000000000000000000000000000000000000000000000600052603260045260246000fd5b906000526020600020906003020160020160016101000a81548167ffffffffffffffff021916908367ffffffffffffffff16021790555060005b83518160ff1610156117545760028267ffffffffffffffff168154811061166e577f4e487b7100000000000000000000000000000000000000000000000000000000600052603260045260246000fd5b90600052602060002090600302016001016040518060600160405280868460ff16815181106116c6577f4e487b7100000000000000000000000000000000000000000000000000000000600052603260045260246000fd5b60200260200101518152602001600081526020018360ff168152509080600181540180825580915050600190039060005260206000209060030201600090919091909150600082015181600001556020820151816001015560408201518160020160006101000a81548160ff021916908360ff1602179055505050808061174c90612d49565b91505061161e565b507fdfb27e2960411d7056c80fb74fb8d21b563bad1e11dd0ce71150ec5c28efcefa848433604051611788939291906128db565b60405180910390a18091505092915050565b60011515600460003373ffffffffffffffffffffffffffffffffffffffff1673ffffffffffffffffffffffffffffffffffffffff16815260200190815260200160002060009054906101000a900460ff1615151461182d576040517f08c379a000000000000000000000000000000000000000000000000000000000815260040161182490612ae9565b60405180910390fd5b611835610d76565b15611875576040517f08c379a000000000000000000000000000000000000000000000000000000000815260040161186c90612a69565b60405180910390fd5b816001151560028267ffffffffffffffff16815481106118be577f4e487b7100000000000000000000000000000000000000000000000000000000600052603260045260246000fd5b906000526020600020906003020160020160009054906101000a900460ff1615151461191f576040517f08c379a000000000000000000000000000000000000000000000000000000000815260040161191690612a08565b60405180910390fd5b60001515600560003373ffffffffffffffffffffffffffffffffffffffff1673ffffffffffffffffffffffffffffffffffffffff16815260200190815260200160002060008567ffffffffffffffff16815260200190815260200160002060009054906101000a900460ff161515146119cd576040517f08c379a00000000000000000000000000000000000000000000000000000000081526004016119c4906129c8565b60405180910390fd5b6001600560003373ffffffffffffffffffffffffffffffffffffffff1673ffffffffffffffffffffffffffffffffffffffff16815260200190815260200160002060008567ffffffffffffffff16815260200190815260200160002060006101000a81548160ff02191690831515021790555060028367ffffffffffffffff1681548110611a84577f4e487b7100000000000000000000000000000000000000000000000000000000600052603260045260246000fd5b90600052602060002090600302016001018260ff1681548110611ad0577f4e487b7100000000000000000000000000000000000000000000000000000000600052603260045260246000fd5b90600052602060002090600302016001016000815480929190611af290612ccf565b919050555060086000815480929190611b0a90612ccf565b9190505550505050565b60028181548110611b2457600080fd5b90600052602060002090600302016000915090508060000154908060020160009054906101000a900460ff16908060020160019054906101000a900467ffffffffffffffff16905083565b60085481565b60056020528160005260406000206020528060005260406000206000915091509054906101000a900460ff1681565b611bac611c9c565b73ffffffffffffffffffffffffffffffffffffffff16611bca6113d3565b73ffffffffffffffffffffffffffffffffffffffff1614611c20576040517f08c379a0000000000000000000000000000000000000000000000000000000008152600401611c1790612a89565b60405180910390fd5b600073ffffffffffffffffffffffffffffffffffffffff168173ffffffffffffffffffffffffffffffffffffffff161415611c90576040517f08c379a0000000000000000000000000000000000000000000000000000000008152600401611c8790612988565b60405180910390fd5b611c9981611f2a565b50565b600033905090565b611cac610d76565b611ceb576040517f08c379a0000000000000000000000000000000000000000000000000000000008152600401611ce290612925565b60405180910390fd5b60008060146101000a81548160ff0219169083151502179055507f5db9ee0a495bf2e6ff9c91a7834c1ba4fdd244a5e8aa4e537bd38aeae4b073aa611d2e611c9c565b604051611d3b919061282a565b60405180910390a1565b6000806000801b90506000805b60028567ffffffffffffffff1681548110611d96577f4e487b7100000000000000000000000000000000000000000000000000000000600052603260045260246000fd5b9060005260206000209060030201600101805490508160ff161015611f1f57600060028667ffffffffffffffff1681548110611dfb577f4e487b7100000000000000000000000000000000000000000000000000000000600052603260045260246000fd5b90600052602060002090600302016001018260ff1681548110611e47577f4e487b7100000000000000000000000000000000000000000000000000000000600052603260045260246000fd5b906000526020600020906003020160010154905082811115611f0b5760028667ffffffffffffffff1681548110611ea7577f4e487b7100000000000000000000000000000000000000000000000000000000600052603260045260246000fd5b90600052602060002090600302016001018260ff1681548110611ef3577f4e487b7100000000000000000000000000000000000000000000000000000000600052603260045260246000fd5b90600052602060002090600302016000015493508092505b508080611f1790612d49565b915050611d52565b508192505050919050565b60008060009054906101000a900473ffffffffffffffffffffffffffffffffffffffff169050816000806101000a81548173ffffffffffffffffffffffffffffffffffffffff021916908373ffffffffffffffffffffffffffffffffffffffff1602179055508173ffffffffffffffffffffffffffffffffffffffff168173ffffffffffffffffffffffffffffffffffffffff167f8be0079c531659141344cd1fd0a4f28419497f9722a3daafe3b4186f6b6457e060405160405180910390a35050565b611ff6610d76565b15612036576040517f08c379a000000000000000000000000000000000000000000000000000000000815260040161202d90612a69565b60405180910390fd5b6001600060146101000a81548160ff0219169083151502179055507f62e78cea01bee320cd4e420270b5ea74000d11b0c9f74754ebdbfc544b05a25861207a611c9c565b604051612087919061282a565b60405180910390a1565b60006120a461209f84612b90565b612b5f565b905080838252602082019050828560208602820111156120c357600080fd5b60005b858110156120f357816120d9888261213c565b8452602084019350602083019250506001810190506120c6565b5050509392505050565b60008135905061210c81612dd1565b92915050565b600082601f83011261212357600080fd5b8135612133848260208601612091565b91505092915050565b60008135905061214b81612de8565b92915050565b60008135905061216081612dff565b92915050565b60008135905061217581612e16565b92915050565b60008135905061218a81612e2d565b92915050565b6000602082840312156121a257600080fd5b60006121b0848285016120fd565b91505092915050565b600080604083850312156121cc57600080fd5b60006121da858286016120fd565b92505060206121eb85828601612151565b9150509250929050565b6000806040838503121561220857600080fd5b60006122168582860161213c565b925050602083013567ffffffffffffffff81111561223357600080fd5b61223f85828601612112565b9150509250929050565b60006020828403121561225b57600080fd5b600061226984828501612151565b91505092915050565b60006020828403121561228457600080fd5b600061229284828501612166565b91505092915050565b600080604083850312156122ae57600080fd5b60006122bc85828601612166565b92505060206122cd8582860161217b565b9150509250929050565b60006122e3838361236b565b60208301905092915050565b6122f881612c5c565b82525050565b600061230982612bcc565b6123138185612be4565b935061231e83612bbc565b8060005b8381101561234f57815161233688826122d7565b975061234183612bd7565b925050600181019050612322565b5085935050505092915050565b61236581612c6e565b82525050565b61237481612c7a565b82525050565b61238381612c7a565b82525050565b7f4e65772043617465676f72790000000000000000000000000000000000000000815250565b60006123bc601483612bf5565b91507f5061757361626c653a206e6f74207061757365640000000000000000000000006000830152602082019050919050565b7f43617465676f727920436c6f7365640000000000000000000000000000000000815250565b6000612422602683612bf5565b91507f4f776e61626c653a206e6577206f776e657220697320746865207a65726f206160008301527f64647265737300000000000000000000000000000000000000000000000000006020830152604082019050919050565b6000612488602483612bf5565b91507f546869732063617465676f72792063616e6e6f74206265206f70656e6564206160008301527f6761696e000000000000000000000000000000000000000000000000000000006020830152604082019050919050565b60006124ee602783612bf5565b91507f596f75206861766520616c726561647920766f74656420696e2074686973206360008301527f617465676f7279000000000000000000000000000000000000000000000000006020830152604082019050919050565b6000612554602283612bf5565b91507f54686973206164647265737320697320616c726561647920726567697374657260008301527f65640000000000000000000000000000000000000000000000000000000000006020830152604082019050919050565b60006125ba603b83612bf5565b91507f5468697320616374696f6e2063616e6e6f7420626520706572666f726d65642060008301527f7768656e207468652063617465676f727920697320636c6f73656400000000006020830152604082019050919050565b7f43617465676f7279204f70656e65640000000000000000000000000000000000815250565b6000612646601083612bf5565b91507f5061757361626c653a20706175736564000000000000000000000000000000006000830152602082019050919050565b6000612686602083612bf5565b91507f4f776e61626c653a2063616c6c6572206973206e6f7420746865206f776e65726000830152602082019050919050565b60006126c6603983612bf5565b91507f5468697320616374696f6e2063616e6e6f7420626520706572666f726d65642060008301527f7768656e207468652063617465676f7279206973206f70656e000000000000006020830152604082019050919050565b600061272c601e83612bf5565b91507f54686572652061726520746f6f206d616e792063616e646964617465732e00006000830152602082019050919050565b600061276c602983612bf5565b91507f546869732077616c6c65742061646472657373206973206e6f7420796574207260008301527f65676973746572656400000000000000000000000000000000000000000000006020830152604082019050919050565b6000815250565b60006127d9601483612bf5565b91507f4e6f2066756e647320696e20636f6e74726163740000000000000000000000006000830152602082019050919050565b61281581612ca4565b82525050565b61282481612cae565b82525050565b600060208201905061283f60008301846122ef565b92915050565b600060408201905061285a60008301856122ef565b612867602083018461280c565b9392505050565b6000602082019050612883600083018461235c565b92915050565b600060208201905061289e600083018461237a565b92915050565b60006060820190506128b9600083018661237a565b6128c6602083018561235c565b6128d3604083018461281b565b949350505050565b60006080820190506128ef60008301612389565b6128fc602083018661237a565b818103604083015261290e81856122fe565b905061291d60608301846122ef565b949350505050565b6000602082019050818103600083015261293e816123af565b9050919050565b6000608082019050612959600083016123ef565b612966602083018661237a565b612973604083018561237a565b61298060608301846122ef565b949350505050565b600060208201905081810360008301526129a181612415565b9050919050565b600060208201905081810360008301526129c18161247b565b9050919050565b600060208201905081810360008301526129e1816124e1565b9050919050565b60006020820190508181036000830152612a0181612547565b9050919050565b60006020820190508181036000830152612a21816125ad565b9050919050565b6000608082019050612a3c60008301612613565b612a49602083018561237a565b612a55604083016127c5565b612a6260608301846122ef565b9392505050565b60006020820190508181036000830152612a8281612639565b9050919050565b60006020820190508181036000830152612aa281612679565b9050919050565b60006020820190508181036000830152612ac2816126b9565b9050919050565b60006020820190508181036000830152612ae28161271f565b9050919050565b60006020820190508181036000830152612b028161275f565b9050919050565b60006020820190508181036000830152612b22816127cc565b9050919050565b6000602082019050612b3e600083018461280c565b92915050565b6000602082019050612b59600083018461281b565b92915050565b6000604051905081810181811067ffffffffffffffff82111715612b8657612b85612da2565b5b8060405250919050565b600067ffffffffffffffff821115612bab57612baa612da2565b5b602082029050602081019050919050565b6000819050602082019050919050565b600081519050919050565b6000602082019050919050565b600082825260208201905092915050565b600082825260208201905092915050565b6000612c1182612ca4565b9150612c1c83612ca4565b9250827fffffffffffffffffffffffffffffffffffffffffffffffffffffffffffffffff03821115612c5157612c50612d73565b5b828201905092915050565b6000612c6782612c84565b9050919050565b60008115159050919050565b6000819050919050565b600073ffffffffffffffffffffffffffffffffffffffff82169050919050565b6000819050919050565b600067ffffffffffffffff82169050919050565b600060ff82169050919050565b6000612cda82612ca4565b91507fffffffffffffffffffffffffffffffffffffffffffffffffffffffffffffffff821415612d0d57612d0c612d73565b5b600182019050919050565b6000612d2382612cae565b915067ffffffffffffffff821415612d3e57612d3d612d73565b5b600182019050919050565b6000612d5482612cc2565b915060ff821415612d6857612d67612d73565b5b600182019050919050565b7f4e487b7100000000000000000000000000000000000000000000000000000000600052601160045260246000fd5b7f4e487b7100000000000000000000000000000000000000000000000000000000600052604160045260246000fd5b612dda81612c5c565b8114612de557600080fd5b50565b612df181612c7a565b8114612dfc57600080fd5b50565b612e0881612ca4565b8114612e1357600080fd5b50565b612e1f81612cae565b8114612e2a57600080fd5b50565b612e3681612cc2565b8114612e4157600080fd5b5056fea2646970667358221220cfeb6986e4a2960e84f67f410bf0848b0146fd4ee874209730643d562d29bbb164736f6c63430008000033",
  "linkReferences": {},
  "deployedLinkReferences": {}
}