{
  "_format": "hh-sol-artifact-1",
  "contractName": "VotingBoothUpdated",
  "sourceName": "contracts/Voting_Booth_Updated.sol",
  "abi": [
    {
      "anonymous": false,
      "inputs": [
        {
          "indexed": true,
          "internalType": "address",
          "name": "previousOwner",
          "type": "address"
        },
        {
          "indexed": true,
          "internalType": "address",
          "name": "newOwner",
          "type": "address"
        }
      ],
      "name": "OwnershipTransferred",
      "type": "event"
    },
    {
      "anonymous": false,
      "inputs": [
        {
          "indexed": false,
          "internalType": "address",
          "name": "account",
          "type": "address"
        }
      ],
      "name": "Paused",
      "type": "event"
    },
    {
      "anonymous": false,
      "inputs": [
        {
          "indexed": false,
          "internalType": "address",
          "name": "account",
          "type": "address"
        }
      ],
      "name": "Unpaused",
      "type": "event"
    },
    {
      "anonymous": false,
      "inputs": [
        {
          "indexed": false,
          "internalType": "bytes32",
          "name": "_func",
          "type": "bytes32"
        },
        {
          "indexed": false,
          "internalType": "bytes32",
          "name": "_categoryName",
          "type": "bytes32"
        },
        {
          "indexed": false,
          "internalType": "bytes32[]",
          "name": "_candidateNames",
          "type": "bytes32[]"
        },
        {
          "indexed": false,
          "internalType": "address",
          "name": "_from",
          "type": "address"
        }
      ],
      "name": "categorySet",
      "type": "event"
    },
    {
      "anonymous": false,
      "inputs": [
        {
          "indexed": false,
          "internalType": "bytes32",
          "name": "_func",
          "type": "bytes32"
        },
        {
          "indexed": false,
          "internalType": "bytes32",
          "name": "_categoryName",
          "type": "bytes32"
        },
        {
          "indexed": false,
          "internalType": "bytes32",
          "name": "_winner",
          "type": "bytes32"
        },
        {
          "indexed": false,
          "internalType": "address",
          "name": "_from",
          "type": "address"
        }
      ],
      "name": "categoryStatusChange",
      "type": "event"
    },
    {
      "anonymous": false,
      "inputs": [
        {
          "indexed": false,
          "internalType": "address",
          "name": "_donator",
          "type": "address"
        },
        {
          "indexed": false,
          "internalType": "uint256",
          "name": "_amount",
          "type": "uint256"
        }
      ],
      "name": "donationReceived",
      "type": "event"
    },
    {
      "inputs": [
        {
          "internalType": "address",
          "name": "",
          "type": "address"
        }
      ],
      "name": "_addressboolStorage",
      "outputs": [
        {
          "internalType": "bool",
          "name": "",
          "type": "bool"
        }
      ],
      "stateMutability": "view",
      "type": "function"
    },
    {
      "inputs": [
        {
          "internalType": "address",
          "name": "",
          "type": "address"
        }
      ],
      "name": "_addressuintStorage",
      "outputs": [
        {
          "internalType": "uint64",
          "name": "",
          "type": "uint64"
        }
      ],
      "stateMutability": "view",
      "type": "function"
    },
    {
      "inputs": [
        {
          "internalType": "address",
          "name": "",
          "type": "address"
        },
        {
          "internalType": "uint256",
          "name": "",
          "type": "uint256"
        }
      ],
      "name": "_boolVoter",
      "outputs": [
        {
          "internalType": "bool",
          "name": "",
          "type": "bool"
        }
      ],
      "stateMutability": "view",
      "type": "function"
    },
    {
      "inputs": [],
      "name": "_catCounter",
      "outputs": [
        {
          "internalType": "uint64",
          "name": "",
          "type": "uint64"
        }
      ],
      "stateMutability": "view",
      "type": "function"
    },
    {
      "inputs": [
        {
          "internalType": "uint64",
          "name": "",
          "type": "uint64"
        }
      ],
      "name": "_openedOnce",
      "outputs": [
        {
          "internalType": "bool",
          "name": "",
          "type": "bool"
        }
      ],
      "stateMutability": "view",
      "type": "function"
    },
    {
      "inputs": [
        {
          "internalType": "address",
          "name": "",
          "type": "address"
        }
      ],
      "name": "_registry",
      "outputs": [
        {
          "internalType": "bool",
          "name": "",
          "type": "bool"
        }
      ],
      "stateMutability": "view",
      "type": "function"
    },
    {
      "inputs": [],
      "name": "_totalVotes",
      "outputs": [
        {
          "internalType": "uint256",
          "name": "",
          "type": "uint256"
        }
      ],
      "stateMutability": "view",
      "type": "function"
    },
    {
      "inputs": [
        {
          "internalType": "uint64",
          "name": "",
          "type": "uint64"
        }
      ],
      "name": "_uintboolStorage",
      "outputs": [
        {
          "internalType": "bool",
          "name": "",
          "type": "bool"
        }
      ],
      "stateMutability": "view",
      "type": "function"
    },
    {
      "inputs": [],
      "name": "_voterCount",
      "outputs": [
        {
          "internalType": "uint64",
          "name": "",
          "type": "uint64"
        }
      ],
      "stateMutability": "view",
      "type": "function"
    },
    {
      "inputs": [
        {
          "internalType": "uint64",
          "name": "_catId",
          "type": "uint64"
        },
        {
          "internalType": "uint8",
          "name": "_canId",
          "type": "uint8"
        }
      ],
      "name": "castVote",
      "outputs": [],
      "stateMutability": "nonpayable",
      "type": "function"
    },
    {
      "inputs": [
        {
          "internalType": "uint256",
          "name": "",
          "type": "uint256"
        }
      ],
      "name": "categories",
      "outputs": [
        {
          "internalType": "bytes32",
          "name": "name",
          "type": "bytes32"
        },
        {
          "internalType": "bool",
          "name": "open",
          "type": "bool"
        },
        {
          "internalType": "uint64",
          "name": "catId",
          "type": "uint64"
        }
      ],
      "stateMutability": "view",
      "type": "function"
    },
    {
      "inputs": [
        {
          "internalType": "uint64",
          "name": "_catId",
          "type": "uint64"
        }
      ],
      "name": "closeCategory",
      "outputs": [
        {
          "internalType": "bytes32",
          "name": "",
          "type": "bytes32"
        }
      ],
      "stateMutability": "nonpayable",
      "type": "function"
    },
    {
      "inputs": [],
      "name": "currentFuncAddress",
      "outputs": [
        {
          "internalType": "address",
          "name": "",
          "type": "address"
        }
      ],
      "stateMutability": "view",
      "type": "function"
    },
    {
      "inputs": [
        {
          "internalType": "uint64",
          "name": "_catId",
          "type": "uint64"
        },
        {
          "internalType": "uint8",
          "name": "_canId",
          "type": "uint8"
        }
      ],
      "name": "getCandidate",
      "outputs": [
        {
          "internalType": "bytes32",
          "name": "",
          "type": "bytes32"
        }
      ],
      "stateMutability": "view",
      "type": "function"
    },
    {
      "inputs": [
        {
          "internalType": "uint64",
          "name": "_catId",
          "type": "uint64"
        },
        {
          "internalType": "uint8",
          "name": "_canId",
          "type": "uint8"
        }
      ],
      "name": "getCandidateVotes",
      "outputs": [
        {
          "internalType": "uint256",
          "name": "",
          "type": "uint256"
        }
      ],
      "stateMutability": "view",
      "type": "function"
    },
    {
      "inputs": [
        {
          "internalType": "uint64",
          "name": "_catId",
          "type": "uint64"
        }
      ],
      "name": "getCategoryName",
      "outputs": [
        {
          "internalType": "bytes32",
          "name": "",
          "type": "bytes32"
        }
      ],
      "stateMutability": "view",
      "type": "function"
    },
    {
      "inputs": [
        {
          "internalType": "uint64",
          "name": "_catId",
          "type": "uint64"
        }
      ],
      "name": "getCategoryOpen",
      "outputs": [
        {
          "internalType": "bool",
          "name": "",
          "type": "bool"
        }
      ],
      "stateMutability": "view",
      "type": "function"
    },
    {
      "inputs": [
        {
          "internalType": "uint64",
          "name": "_catId",
          "type": "uint64"
        }
      ],
      "name": "getCategoryVotes",
      "outputs": [
        {
          "internalType": "uint256",
          "name": "",
          "type": "uint256"
        }
      ],
      "stateMutability": "view",
      "type": "function"
    },
    {
      "inputs": [
        {
          "internalType": "uint64",
          "name": "_catId",
          "type": "uint64"
        }
      ],
      "name": "getCategoryWinner",
      "outputs": [
        {
          "internalType": "bytes32",
          "name": "",
          "type": "bytes32"
        }
      ],
      "stateMutability": "view",
      "type": "function"
    },
    {
      "inputs": [],
      "name": "getMaxCandidates",
      "outputs": [
        {
          "internalType": "uint256",
          "name": "",
          "type": "uint256"
        }
      ],
      "stateMutability": "view",
      "type": "function"
    },
    {
      "inputs": [
        {
          "internalType": "uint64",
          "name": "_catId",
          "type": "uint64"
        }
      ],
      "name": "openCategory",
      "outputs": [],
      "stateMutability": "nonpayable",
      "type": "function"
    },
    {
      "inputs": [],
      "name": "owner",
      "outputs": [
        {
          "internalType": "address",
          "name": "",
          "type": "address"
        }
      ],
      "stateMutability": "view",
      "type": "function"
    },
    {
      "inputs": [],
      "name": "pause",
      "outputs": [],
      "stateMutability": "nonpayable",
      "type": "function"
    },
    {
      "inputs": [],
      "name": "paused",
      "outputs": [
        {
          "internalType": "bool",
          "name": "",
          "type": "bool"
        }
      ],
      "stateMutability": "view",
      "type": "function"
    },
    {
      "inputs": [],
      "name": "register",
      "outputs": [],
      "stateMutability": "nonpayable",
      "type": "function"
    },
    {
      "inputs": [],
      "name": "renounceOwnership",
      "outputs": [],
      "stateMutability": "nonpayable",
      "type": "function"
    },
    {
      "inputs": [
        {
          "internalType": "bytes32",
          "name": "_category",
          "type": "bytes32"
        },
        {
          "internalType": "bytes32[]",
          "name": "_candidates",
          "type": "bytes32[]"
        }
      ],
      "name": "setCategory",
      "outputs": [
        {
          "internalType": "uint64",
          "name": "",
          "type": "uint64"
        }
      ],
      "stateMutability": "nonpayable",
      "type": "function"
    },
    {
      "inputs": [
        {
          "internalType": "address",
          "name": "newOwner",
          "type": "address"
        }
      ],
      "name": "transferOwnership",
      "outputs": [],
      "stateMutability": "nonpayable",
      "type": "function"
    },
    {
      "inputs": [],
      "name": "uintStorage1",
      "outputs": [
        {
          "internalType": "uint256",
          "name": "",
          "type": "uint256"
        }
      ],
      "stateMutability": "view",
      "type": "function"
    },
    {
      "inputs": [],
      "name": "uintStorage2",
      "outputs": [
        {
          "internalType": "uint256",
          "name": "",
          "type": "uint256"
        }
      ],
      "stateMutability": "view",
      "type": "function"
    },
    {
      "inputs": [],
      "name": "uintStorage3",
      "outputs": [
        {
          "internalType": "uint256",
          "name": "",
          "type": "uint256"
        }
      ],
      "stateMutability": "view",
      "type": "function"
    },
    {
      "inputs": [],
      "name": "unpause",
      "outputs": [],
      "stateMutability": "nonpayable",
      "type": "function"
    },
    {
      "inputs": [],
      "name": "withdraw",
      "outputs": [],
      "stateMutability": "nonpayable",
      "type": "function"
    },
    {
      "stateMutability": "payable",
      "type": "receive"
    }
  ],
  "bytecode": "0x60806040523480156200001157600080fd5b5062000032620000266200005260201b60201c565b6200005a60201b60201c565b60008060146101000a81548160ff0219169083151502179055506200011e565b600033905090565b60008060009054906101000a900473ffffffffffffffffffffffffffffffffffffffff169050816000806101000a81548173ffffffffffffffffffffffffffffffffffffffff021916908373ffffffffffffffffffffffffffffffffffffffff1602179055508173ffffffffffffffffffffffffffffffffffffffff168173ffffffffffffffffffffffffffffffffffffffff167f8be0079c531659141344cd1fd0a4f28419497f9722a3daafe3b4186f6b6457e060405160405180910390a35050565b613319806200012e6000396000f3fe6080604052600436106101f15760003560e01c80636d93d0d81161010d578063aa899214116100a0578063d42f3fbc1161006f578063d42f3fbc1461076e578063eb77c40f146107ab578063f2de6699146107e8578063f2fde38b14610813578063f3e672eb1461083c57610231565b8063aa899214146106b0578063c6cdbe5e146106d9578063cb0a821114610718578063ce4ec0481461074357610231565b80638456cb59116100dc5780638456cb59146106065780638da5cb5b1461061d57806396875a3c1461064857806399ef6ccb1461067357610231565b80636d93d0d814610538578063715018a6146105755780637c8fee461461058c57806380417bfb146105c957610231565b80633ccfd60b116101855780635c8acc5f116101545780635c8acc5f146104565780635c975abb14610493578063662efa43146104be5780636bda58f9146104fb57610231565b80633ccfd60b146103ae5780633f4ba83a146103c55780635133342b146103dc578063519e22fb1461041957610231565b80631af5fd02116101c15780631af5fd02146102f05780631ddbcbb11461031b5780632e0d757314610358578063317cc82d1461038357610231565b80624554691461023657806302c3307d1461027357806308e670381461029c5780631aa3a008146102d957610231565b36610231577fe2639ef551ad89950da1145fe1fd600e818336d6e8aa88426efe387c49accebb3334604051610227929190612ce4565b60405180910390a1005b600080fd5b34801561024257600080fd5b5061025d6004803603810190610258919061273a565b610867565b60405161026a9190612d28565b60405180910390f35b34801561027f57600080fd5b5061029a60048036038101906102959190612711565b610913565b005b3480156102a857600080fd5b506102c360048036038101906102be919061262f565b610bf4565b6040516102d09190612d0d565b60405180910390f35b3480156102e557600080fd5b506102ee610c14565b005b3480156102fc57600080fd5b50610305610d97565b6040516103129190612cc9565b60405180910390f35b34801561032757600080fd5b50610342600480360381019061033d9190612711565b610dbd565b60405161034f9190612d0d565b60405180910390f35b34801561036457600080fd5b5061036d610ddd565b60405161037a9190612fe3565b60405180910390f35b34801561038f57600080fd5b50610398610df7565b6040516103a59190612fe3565b60405180910390f35b3480156103ba57600080fd5b506103c3610e11565b005b3480156103d157600080fd5b506103da610f19565b005b3480156103e857600080fd5b5061040360048036038101906103fe9190612711565b610f9f565b6040516104109190612d28565b60405180910390f35b34801561042557600080fd5b50610440600480360381019061043b919061262f565b610ffe565b60405161044d9190612fe3565b60405180910390f35b34801561046257600080fd5b5061047d60048036038101906104789190612711565b611025565b60405161048a9190612d28565b60405180910390f35b34801561049f57600080fd5b506104a86112b0565b6040516104b59190612d0d565b60405180910390f35b3480156104ca57600080fd5b506104e560048036038101906104e09190612711565b6112c6565b6040516104f29190612d0d565b60405180910390f35b34801561050757600080fd5b50610522600480360381019061051d919061273a565b611332565b60405161052f9190612fc8565b60405180910390f35b34801561054457600080fd5b5061055f600480360381019061055a9190612711565b611489565b60405161056c9190612d28565b60405180910390f35b34801561058157600080fd5b5061058a6116c6565b005b34801561059857600080fd5b506105b360048036038101906105ae9190612711565b61174e565b6040516105c09190612d0d565b60405180910390f35b3480156105d557600080fd5b506105f060048036038101906105eb9190612711565b61176e565b6040516105fd9190612fc8565b60405180910390f35b34801561061257600080fd5b5061061b6118a7565b005b34801561062957600080fd5b5061063261192d565b60405161063f9190612cc9565b60405180910390f35b34801561065457600080fd5b5061065d611956565b60405161066a9190612fc8565b60405180910390f35b34801561067f57600080fd5b5061069a60048036038101906106959190612694565b61195c565b6040516106a79190612fe3565b60405180910390f35b3480156106bc57600080fd5b506106d760048036038101906106d2919061273a565b611cfa565b005b3480156106e557600080fd5b5061070060048036038101906106fb91906126e8565b612074565b60405161070f93929190612d43565b60405180910390f35b34801561072457600080fd5b5061072d6120cf565b60405161073a9190612fc8565b60405180910390f35b34801561074f57600080fd5b506107586120d5565b6040516107659190612fc8565b60405180910390f35b34801561077a57600080fd5b506107956004803603810190610790919061262f565b6120db565b6040516107a29190612d0d565b60405180910390f35b3480156107b757600080fd5b506107d260048036038101906107cd9190612658565b6120fb565b6040516107df9190612d0d565b60405180910390f35b3480156107f457600080fd5b506107fd61212a565b60405161080a9190612fc8565b60405180910390f35b34801561081f57600080fd5b5061083a6004803603810190610835919061262f565b612222565b005b34801561084857600080fd5b5061085161231a565b60405161085e9190612fc8565b60405180910390f35b600060028367ffffffffffffffff16815481106108ad577f4e487b7100000000000000000000000000000000000000000000000000000000600052603260045260246000fd5b90600052602060002090600302016001018260ff16815481106108f9577f4e487b7100000000000000000000000000000000000000000000000000000000600052603260045260246000fd5b906000526020600020906003020160000154905092915050565b61091b612320565b73ffffffffffffffffffffffffffffffffffffffff1661093961192d565b73ffffffffffffffffffffffffffffffffffffffff161461098f576040517f08c379a000000000000000000000000000000000000000000000000000000000815260040161098690612f28565b60405180910390fd5b806000151560028267ffffffffffffffff16815481106109d8577f4e487b7100000000000000000000000000000000000000000000000000000000600052603260045260246000fd5b906000526020600020906003020160020160009054906101000a900460ff16151514610a39576040517f08c379a0000000000000000000000000000000000000000000000000000000008152600401610a3090612f48565b60405180910390fd5b60001515600660008467ffffffffffffffff1667ffffffffffffffff16815260200190815260200160002060009054906101000a900460ff16151514610ab4576040517f08c379a0000000000000000000000000000000000000000000000000000000008152600401610aab90612e47565b60405180910390fd5b6001600660008467ffffffffffffffff1667ffffffffffffffff16815260200190815260200160002060006101000a81548160ff021916908315150217905550600160028367ffffffffffffffff1681548110610b3a577f4e487b7100000000000000000000000000000000000000000000000000000000600052603260045260246000fd5b906000526020600020906003020160020160006101000a81548160ff0219169083151502179055507f638b96e82cfc7a197bd6be5c176bc949aba7a20600a5d03c74c59cb51355f47a60028367ffffffffffffffff1681548110610bc7577f4e487b7100000000000000000000000000000000000000000000000000000000600052603260045260246000fd5b90600052602060002090600302016000015433604051610be8929190612ec7565b60405180910390a15050565b60046020528060005260406000206000915054906101000a900460ff1681565b610c1c6112b0565b15610c5c576040517f08c379a0000000000000000000000000000000000000000000000000000000008152600401610c5390612f08565b60405180910390fd5b60011515600460003373ffffffffffffffffffffffffffffffffffffffff1673ffffffffffffffffffffffffffffffffffffffff16815260200190815260200160002060009054906101000a900460ff1615151415610cf0576040517f08c379a0000000000000000000000000000000000000000000000000000000008152600401610ce790612e87565b60405180910390fd5b6001600460003373ffffffffffffffffffffffffffffffffffffffff1673ffffffffffffffffffffffffffffffffffffffff16815260200190815260200160002060006101000a81548160ff0219169083151502179055506007600081819054906101000a900467ffffffffffffffff1680929190610d6e906131b7565b91906101000a81548167ffffffffffffffff021916908367ffffffffffffffff16021790555050565b600160009054906101000a900473ffffffffffffffffffffffffffffffffffffffff1681565b60066020528060005260406000206000915054906101000a900460ff1681565b600360009054906101000a900467ffffffffffffffff1681565b600760009054906101000a900467ffffffffffffffff1681565b610e19612320565b73ffffffffffffffffffffffffffffffffffffffff16610e3761192d565b73ffffffffffffffffffffffffffffffffffffffff1614610e8d576040517f08c379a0000000000000000000000000000000000000000000000000000000008152600401610e8490612f28565b60405180910390fd5b60004711610ed0576040517f08c379a0000000000000000000000000000000000000000000000000000000008152600401610ec790612fa8565b60405180910390fd5b3373ffffffffffffffffffffffffffffffffffffffff166108fc479081150290604051600060405180830381858888f19350505050158015610f16573d6000803e3d6000fd5b50565b610f21612320565b73ffffffffffffffffffffffffffffffffffffffff16610f3f61192d565b73ffffffffffffffffffffffffffffffffffffffff1614610f95576040517f08c379a0000000000000000000000000000000000000000000000000000000008152600401610f8c90612f28565b60405180910390fd5b610f9d612328565b565b600060028267ffffffffffffffff1681548110610fe5577f4e487b7100000000000000000000000000000000000000000000000000000000600052603260045260246000fd5b9060005260206000209060030201600001549050919050565b600b6020528060005260406000206000915054906101000a900467ffffffffffffffff1681565b6000816000151560028267ffffffffffffffff1681548110611070577f4e487b7100000000000000000000000000000000000000000000000000000000600052603260045260246000fd5b906000526020600020906003020160020160009054906101000a900460ff161515146110d1576040517f08c379a00000000000000000000000000000000000000000000000000000000081526004016110c890612f48565b60405180910390fd5b60008060005b60028667ffffffffffffffff168154811061111b577f4e487b7100000000000000000000000000000000000000000000000000000000600052603260045260246000fd5b9060005260206000209060030201600101805490508160ff1610156112a457600060028767ffffffffffffffff1681548110611180577f4e487b7100000000000000000000000000000000000000000000000000000000600052603260045260246000fd5b90600052602060002090600302016001018260ff16815481106111cc577f4e487b7100000000000000000000000000000000000000000000000000000000600052603260045260246000fd5b9060005260206000209060030201600101549050828111156112905760028767ffffffffffffffff168154811061122c577f4e487b7100000000000000000000000000000000000000000000000000000000600052603260045260246000fd5b90600052602060002090600302016001018260ff1681548110611278577f4e487b7100000000000000000000000000000000000000000000000000000000600052603260045260246000fd5b90600052602060002090600302016000015493508092505b50808061129c906131e8565b9150506110d7565b50819350505050919050565b60008060149054906101000a900460ff16905090565b600060028267ffffffffffffffff168154811061130c577f4e487b7100000000000000000000000000000000000000000000000000000000600052603260045260246000fd5b906000526020600020906003020160020160009054906101000a900460ff169050919050565b6000826000151560028267ffffffffffffffff168154811061137d577f4e487b7100000000000000000000000000000000000000000000000000000000600052603260045260246000fd5b906000526020600020906003020160020160009054906101000a900460ff161515146113de576040517f08c379a00000000000000000000000000000000000000000000000000000000081526004016113d590612f48565b60405180910390fd5b60028467ffffffffffffffff1681548110611422577f4e487b7100000000000000000000000000000000000000000000000000000000600052603260045260246000fd5b90600052602060002090600302016001018360ff168154811061146e577f4e487b7100000000000000000000000000000000000000000000000000000000600052603260045260246000fd5b90600052602060002090600302016001015491505092915050565b6000611493612320565b73ffffffffffffffffffffffffffffffffffffffff166114b161192d565b73ffffffffffffffffffffffffffffffffffffffff1614611507576040517f08c379a00000000000000000000000000000000000000000000000000000000081526004016114fe90612f28565b60405180910390fd5b816001151560028267ffffffffffffffff1681548110611550577f4e487b7100000000000000000000000000000000000000000000000000000000600052603260045260246000fd5b906000526020600020906003020160020160009054906101000a900460ff161515146115b1576040517f08c379a00000000000000000000000000000000000000000000000000000000081526004016115a890612ea7565b60405180910390fd5b600060028467ffffffffffffffff16815481106115f7577f4e487b7100000000000000000000000000000000000000000000000000000000600052603260045260246000fd5b906000526020600020906003020160020160006101000a81548160ff021916908315150217905550600061162a84611025565b90507f638b96e82cfc7a197bd6be5c176bc949aba7a20600a5d03c74c59cb51355f47a60028567ffffffffffffffff1681548110611691577f4e487b7100000000000000000000000000000000000000000000000000000000600052603260045260246000fd5b90600052602060002090600302016000015482336040516116b493929190612de4565b60405180910390a18092505050919050565b6116ce612320565b73ffffffffffffffffffffffffffffffffffffffff166116ec61192d565b73ffffffffffffffffffffffffffffffffffffffff1614611742576040517f08c379a000000000000000000000000000000000000000000000000000000000815260040161173990612f28565b60405180910390fd5b61174c60006123c9565b565b60096020528060005260406000206000915054906101000a900460ff1681565b6000806000905060005b60028467ffffffffffffffff16815481106117bc577f4e487b7100000000000000000000000000000000000000000000000000000000600052603260045260246000fd5b9060005260206000209060030201600101805490508160ff16101561189d5760028467ffffffffffffffff168154811061181f577f4e487b7100000000000000000000000000000000000000000000000000000000600052603260045260246000fd5b90600052602060002090600302016001018160ff168154811061186b577f4e487b7100000000000000000000000000000000000000000000000000000000600052603260045260246000fd5b9060005260206000209060030201600101548261188891906130a5565b91508080611895906131e8565b915050611778565b5080915050919050565b6118af612320565b73ffffffffffffffffffffffffffffffffffffffff166118cd61192d565b73ffffffffffffffffffffffffffffffffffffffff1614611923576040517f08c379a000000000000000000000000000000000000000000000000000000000815260040161191a90612f28565b60405180910390fd5b61192b61248d565b565b60008060009054906101000a900473ffffffffffffffffffffffffffffffffffffffff16905090565b600c5481565b6000611966612320565b73ffffffffffffffffffffffffffffffffffffffff1661198461192d565b73ffffffffffffffffffffffffffffffffffffffff16146119da576040517f08c379a00000000000000000000000000000000000000000000000000000000081526004016119d190612f28565b60405180910390fd5b610100825110611a1f576040517f08c379a0000000000000000000000000000000000000000000000000000000008152600401611a1690612f68565b60405180910390fd5b6000600360009054906101000a900467ffffffffffffffff1690506003600081819054906101000a900467ffffffffffffffff1680929190611a60906131b7565b91906101000a81548167ffffffffffffffff021916908367ffffffffffffffff160217905550506002600181600181540180825580915050039060005260206000209050508360028267ffffffffffffffff1681548110611aea577f4e487b7100000000000000000000000000000000000000000000000000000000600052603260045260246000fd5b9060005260206000209060030201600001819055508060028267ffffffffffffffff1681548110611b44577f4e487b7100000000000000000000000000000000000000000000000000000000600052603260045260246000fd5b906000526020600020906003020160020160016101000a81548167ffffffffffffffff021916908367ffffffffffffffff16021790555060005b83518160ff161015611cb45760028267ffffffffffffffff1681548110611bce577f4e487b7100000000000000000000000000000000000000000000000000000000600052603260045260246000fd5b90600052602060002090600302016001016040518060600160405280868460ff1681518110611c26577f4e487b7100000000000000000000000000000000000000000000000000000000600052603260045260246000fd5b60200260200101518152602001600081526020018360ff168152509080600181540180825580915050600190039060005260206000209060030201600090919091909150600082015181600001556020820151816001015560408201518160020160006101000a81548160ff021916908360ff16021790555050508080611cac906131e8565b915050611b7e565b507fdfb27e2960411d7056c80fb74fb8d21b563bad1e11dd0ce71150ec5c28efcefa848433604051611ce893929190612d7a565b60405180910390a18091505092915050565b60011515600460003373ffffffffffffffffffffffffffffffffffffffff1673ffffffffffffffffffffffffffffffffffffffff16815260200190815260200160002060009054906101000a900460ff16151514611d8d576040517f08c379a0000000000000000000000000000000000000000000000000000000008152600401611d8490612f88565b60405180910390fd5b611d956112b0565b15611dd5576040517f08c379a0000000000000000000000000000000000000000000000000000000008152600401611dcc90612f08565b60405180910390fd5b816001151560028267ffffffffffffffff1681548110611e1e577f4e487b7100000000000000000000000000000000000000000000000000000000600052603260045260246000fd5b906000526020600020906003020160020160009054906101000a900460ff16151514611e7f576040517f08c379a0000000000000000000000000000000000000000000000000000000008152600401611e7690612ea7565b60405180910390fd5b60001515600560003373ffffffffffffffffffffffffffffffffffffffff1673ffffffffffffffffffffffffffffffffffffffff16815260200190815260200160002060008567ffffffffffffffff16815260200190815260200160002060009054906101000a900460ff16151514611f2d576040517f08c379a0000000000000000000000000000000000000000000000000000000008152600401611f2490612e67565b60405180910390fd5b6001600560003373ffffffffffffffffffffffffffffffffffffffff1673ffffffffffffffffffffffffffffffffffffffff16815260200190815260200160002060008567ffffffffffffffff16815260200190815260200160002060006101000a81548160ff02191690831515021790555060028367ffffffffffffffff1681548110611fe4577f4e487b7100000000000000000000000000000000000000000000000000000000600052603260045260246000fd5b90600052602060002090600302016001018260ff1681548110612030577f4e487b7100000000000000000000000000000000000000000000000000000000600052603260045260246000fd5b906000526020600020906003020160010160008154809291906120529061316e565b91905055506008600081548092919061206a9061316e565b9190505550505050565b6002818154811061208457600080fd5b90600052602060002090600302016000915090508060000154908060020160009054906101000a900460ff16908060020160019054906101000a900467ffffffffffffffff16905083565b600d5481565b60085481565b600a6020528060005260406000206000915054906101000a900460ff1681565b60056020528160005260406000206020528060005260406000206000915091509054906101000a900460ff1681565b6000806000905060005b6002805490508167ffffffffffffffff16101561221a578160028267ffffffffffffffff1681548110612190577f4e487b7100000000000000000000000000000000000000000000000000000000600052603260045260246000fd5b90600052602060002090600302016001018054905011156122075760028167ffffffffffffffff16815481106121ef577f4e487b7100000000000000000000000000000000000000000000000000000000600052603260045260246000fd5b90600052602060002090600302016001018054905091505b8080612212906131b7565b915050612134565b508091505090565b61222a612320565b73ffffffffffffffffffffffffffffffffffffffff1661224861192d565b73ffffffffffffffffffffffffffffffffffffffff161461229e576040517f08c379a000000000000000000000000000000000000000000000000000000000815260040161229590612f28565b60405180910390fd5b600073ffffffffffffffffffffffffffffffffffffffff168173ffffffffffffffffffffffffffffffffffffffff16141561230e576040517f08c379a000000000000000000000000000000000000000000000000000000000815260040161230590612e27565b60405180910390fd5b612317816123c9565b50565b600e5481565b600033905090565b6123306112b0565b61236f576040517f08c379a000000000000000000000000000000000000000000000000000000000815260040161236690612dc4565b60405180910390fd5b60008060146101000a81548160ff0219169083151502179055507f5db9ee0a495bf2e6ff9c91a7834c1ba4fdd244a5e8aa4e537bd38aeae4b073aa6123b2612320565b6040516123bf9190612cc9565b60405180910390a1565b60008060009054906101000a900473ffffffffffffffffffffffffffffffffffffffff169050816000806101000a81548173ffffffffffffffffffffffffffffffffffffffff021916908373ffffffffffffffffffffffffffffffffffffffff1602179055508173ffffffffffffffffffffffffffffffffffffffff168173ffffffffffffffffffffffffffffffffffffffff167f8be0079c531659141344cd1fd0a4f28419497f9722a3daafe3b4186f6b6457e060405160405180910390a35050565b6124956112b0565b156124d5576040517f08c379a00000000000000000000000000000000000000000000000000000000081526004016124cc90612f08565b60405180910390fd5b6001600060146101000a81548160ff0219169083151502179055507f62e78cea01bee320cd4e420270b5ea74000d11b0c9f74754ebdbfc544b05a258612519612320565b6040516125269190612cc9565b60405180910390a1565b600061254361253e8461302f565b612ffe565b9050808382526020820190508285602086028201111561256257600080fd5b60005b85811015612592578161257888826125db565b845260208401935060208301925050600181019050612565565b5050509392505050565b6000813590506125ab81613270565b92915050565b600082601f8301126125c257600080fd5b81356125d2848260208601612530565b91505092915050565b6000813590506125ea81613287565b92915050565b6000813590506125ff8161329e565b92915050565b600081359050612614816132b5565b92915050565b600081359050612629816132cc565b92915050565b60006020828403121561264157600080fd5b600061264f8482850161259c565b91505092915050565b6000806040838503121561266b57600080fd5b60006126798582860161259c565b925050602061268a858286016125f0565b9150509250929050565b600080604083850312156126a757600080fd5b60006126b5858286016125db565b925050602083013567ffffffffffffffff8111156126d257600080fd5b6126de858286016125b1565b9150509250929050565b6000602082840312156126fa57600080fd5b6000612708848285016125f0565b91505092915050565b60006020828403121561272357600080fd5b600061273184828501612605565b91505092915050565b6000806040838503121561274d57600080fd5b600061275b85828601612605565b925050602061276c8582860161261a565b9150509250929050565b6000612782838361280a565b60208301905092915050565b612797816130fb565b82525050565b60006127a88261306b565b6127b28185613083565b93506127bd8361305b565b8060005b838110156127ee5781516127d58882612776565b97506127e083613076565b9250506001810190506127c1565b5085935050505092915050565b6128048161310d565b82525050565b61281381613119565b82525050565b61282281613119565b82525050565b7f4e65772043617465676f72790000000000000000000000000000000000000000815250565b600061285b601483613094565b91507f5061757361626c653a206e6f74207061757365640000000000000000000000006000830152602082019050919050565b7f43617465676f727920436c6f7365640000000000000000000000000000000000815250565b60006128c1602683613094565b91507f4f776e61626c653a206e6577206f776e657220697320746865207a65726f206160008301527f64647265737300000000000000000000000000000000000000000000000000006020830152604082019050919050565b6000612927602483613094565b91507f546869732063617465676f72792063616e6e6f74206265206f70656e6564206160008301527f6761696e000000000000000000000000000000000000000000000000000000006020830152604082019050919050565b600061298d602783613094565b91507f596f75206861766520616c726561647920766f74656420696e2074686973206360008301527f617465676f7279000000000000000000000000000000000000000000000000006020830152604082019050919050565b60006129f3602283613094565b91507f54686973206164647265737320697320616c726561647920726567697374657260008301527f65640000000000000000000000000000000000000000000000000000000000006020830152604082019050919050565b6000612a59603b83613094565b91507f5468697320616374696f6e2063616e6e6f7420626520706572666f726d65642060008301527f7768656e207468652063617465676f727920697320636c6f73656400000000006020830152604082019050919050565b7f43617465676f7279204f70656e65640000000000000000000000000000000000815250565b6000612ae5601083613094565b91507f5061757361626c653a20706175736564000000000000000000000000000000006000830152602082019050919050565b6000612b25602083613094565b91507f4f776e61626c653a2063616c6c6572206973206e6f7420746865206f776e65726000830152602082019050919050565b6000612b65603983613094565b91507f5468697320616374696f6e2063616e6e6f7420626520706572666f726d65642060008301527f7768656e207468652063617465676f7279206973206f70656e000000000000006020830152604082019050919050565b6000612bcb601e83613094565b91507f54686572652061726520746f6f206d616e792063616e646964617465732e00006000830152602082019050919050565b6000612c0b602983613094565b91507f546869732077616c6c65742061646472657373206973206e6f7420796574207260008301527f65676973746572656400000000000000000000000000000000000000000000006020830152604082019050919050565b6000815250565b6000612c78601483613094565b91507f4e6f2066756e647320696e20636f6e74726163740000000000000000000000006000830152602082019050919050565b612cb481613143565b82525050565b612cc38161314d565b82525050565b6000602082019050612cde600083018461278e565b92915050565b6000604082019050612cf9600083018561278e565b612d066020830184612cab565b9392505050565b6000602082019050612d2260008301846127fb565b92915050565b6000602082019050612d3d6000830184612819565b92915050565b6000606082019050612d586000830186612819565b612d6560208301856127fb565b612d726040830184612cba565b949350505050565b6000608082019050612d8e60008301612828565b612d9b6020830186612819565b8181036040830152612dad818561279d565b9050612dbc606083018461278e565b949350505050565b60006020820190508181036000830152612ddd8161284e565b9050919050565b6000608082019050612df86000830161288e565b612e056020830186612819565b612e126040830185612819565b612e1f606083018461278e565b949350505050565b60006020820190508181036000830152612e40816128b4565b9050919050565b60006020820190508181036000830152612e608161291a565b9050919050565b60006020820190508181036000830152612e8081612980565b9050919050565b60006020820190508181036000830152612ea0816129e6565b9050919050565b60006020820190508181036000830152612ec081612a4c565b9050919050565b6000608082019050612edb60008301612ab2565b612ee86020830185612819565b612ef460408301612c64565b612f01606083018461278e565b9392505050565b60006020820190508181036000830152612f2181612ad8565b9050919050565b60006020820190508181036000830152612f4181612b18565b9050919050565b60006020820190508181036000830152612f6181612b58565b9050919050565b60006020820190508181036000830152612f8181612bbe565b9050919050565b60006020820190508181036000830152612fa181612bfe565b9050919050565b60006020820190508181036000830152612fc181612c6b565b9050919050565b6000602082019050612fdd6000830184612cab565b92915050565b6000602082019050612ff86000830184612cba565b92915050565b6000604051905081810181811067ffffffffffffffff8211171561302557613024613241565b5b8060405250919050565b600067ffffffffffffffff82111561304a57613049613241565b5b602082029050602081019050919050565b6000819050602082019050919050565b600081519050919050565b6000602082019050919050565b600082825260208201905092915050565b600082825260208201905092915050565b60006130b082613143565b91506130bb83613143565b9250827fffffffffffffffffffffffffffffffffffffffffffffffffffffffffffffffff038211156130f0576130ef613212565b5b828201905092915050565b600061310682613123565b9050919050565b60008115159050919050565b6000819050919050565b600073ffffffffffffffffffffffffffffffffffffffff82169050919050565b6000819050919050565b600067ffffffffffffffff82169050919050565b600060ff82169050919050565b600061317982613143565b91507fffffffffffffffffffffffffffffffffffffffffffffffffffffffffffffffff8214156131ac576131ab613212565b5b600182019050919050565b60006131c28261314d565b915067ffffffffffffffff8214156131dd576131dc613212565b5b600182019050919050565b60006131f382613161565b915060ff82141561320757613206613212565b5b600182019050919050565b7f4e487b7100000000000000000000000000000000000000000000000000000000600052601160045260246000fd5b7f4e487b7100000000000000000000000000000000000000000000000000000000600052604160045260246000fd5b613279816130fb565b811461328457600080fd5b50565b61329081613119565b811461329b57600080fd5b50565b6132a781613143565b81146132b257600080fd5b50565b6132be8161314d565b81146132c957600080fd5b50565b6132d581613161565b81146132e057600080fd5b5056fea26469706673582212201c8ec2a27197fc1eed6ebba16f5767540b459f2d0211056a3a55832252ce7af464736f6c63430008000033",
  "linkReferences": {},
  "deployedLinkReferences": {}
}