{
  "_format": "hh-sol-artifact-1",
  "contractName": "VotingBoothUpdated",
  "sourceName": "contracts/Voting_Booth_Updated.sol",
  "abi": [
    {
      "anonymous": false,
      "inputs": [
        {
          "indexed": true,
          "internalType": "address",
          "name": "previousOwner",
          "type": "address"
        },
        {
          "indexed": true,
          "internalType": "address",
          "name": "newOwner",
          "type": "address"
        }
      ],
      "name": "OwnershipTransferred",
      "type": "event"
    },
    {
      "anonymous": false,
      "inputs": [
        {
          "indexed": false,
          "internalType": "address",
          "name": "account",
          "type": "address"
        }
      ],
      "name": "Paused",
      "type": "event"
    },
    {
      "anonymous": false,
      "inputs": [
        {
          "indexed": false,
          "internalType": "address",
          "name": "account",
          "type": "address"
        }
      ],
      "name": "Unpaused",
      "type": "event"
    },
    {
      "anonymous": false,
      "inputs": [
        {
          "indexed": false,
          "internalType": "bytes32",
          "name": "_func",
          "type": "bytes32"
        },
        {
          "indexed": false,
          "internalType": "bytes32",
          "name": "_categoryName",
          "type": "bytes32"
        },
        {
          "indexed": false,
          "internalType": "bytes32[]",
          "name": "_candidateNames",
          "type": "bytes32[]"
        },
        {
          "indexed": false,
          "internalType": "address",
          "name": "_from",
          "type": "address"
        }
      ],
      "name": "categorySet",
      "type": "event"
    },
    {
      "anonymous": false,
      "inputs": [
        {
          "indexed": false,
          "internalType": "bytes32",
          "name": "_func",
          "type": "bytes32"
        },
        {
          "indexed": false,
          "internalType": "bytes32",
          "name": "_categoryName",
          "type": "bytes32"
        },
        {
          "indexed": false,
          "internalType": "bytes32",
          "name": "_winner",
          "type": "bytes32"
        },
        {
          "indexed": false,
          "internalType": "address",
          "name": "_from",
          "type": "address"
        }
      ],
      "name": "categoryStatusChange",
      "type": "event"
    },
    {
      "anonymous": false,
      "inputs": [
        {
          "indexed": false,
          "internalType": "address",
          "name": "_donator",
          "type": "address"
        },
        {
          "indexed": false,
          "internalType": "uint256",
          "name": "_amount",
          "type": "uint256"
        }
      ],
      "name": "donationReceived",
      "type": "event"
    },
    {
      "inputs": [
        {
          "internalType": "address",
          "name": "",
          "type": "address"
        },
        {
          "internalType": "uint256",
          "name": "",
          "type": "uint256"
        }
      ],
      "name": "_boolVoter",
      "outputs": [
        {
          "internalType": "bool",
          "name": "",
          "type": "bool"
        }
      ],
      "stateMutability": "view",
      "type": "function"
    },
    {
      "inputs": [],
      "name": "_catCounter",
      "outputs": [
        {
          "internalType": "uint128",
          "name": "",
          "type": "uint128"
        }
      ],
      "stateMutability": "view",
      "type": "function"
    },
    {
      "inputs": [
        {
          "internalType": "uint256",
          "name": "",
          "type": "uint256"
        }
      ],
      "name": "_openedOnce",
      "outputs": [
        {
          "internalType": "bool",
          "name": "",
          "type": "bool"
        }
      ],
      "stateMutability": "view",
      "type": "function"
    },
    {
      "inputs": [
        {
          "internalType": "address",
          "name": "",
          "type": "address"
        }
      ],
      "name": "_registry",
      "outputs": [
        {
          "internalType": "bool",
          "name": "",
          "type": "bool"
        }
      ],
      "stateMutability": "view",
      "type": "function"
    },
    {
      "inputs": [],
      "name": "_totalVotes",
      "outputs": [
        {
          "internalType": "uint256",
          "name": "",
          "type": "uint256"
        }
      ],
      "stateMutability": "view",
      "type": "function"
    },
    {
      "inputs": [],
      "name": "_voterCount",
      "outputs": [
        {
          "internalType": "uint128",
          "name": "",
          "type": "uint128"
        }
      ],
      "stateMutability": "view",
      "type": "function"
    },
    {
      "inputs": [
        {
          "internalType": "uint256",
          "name": "_catId",
          "type": "uint256"
        },
        {
          "internalType": "uint8",
          "name": "_canId",
          "type": "uint8"
        }
      ],
      "name": "castVote",
      "outputs": [],
      "stateMutability": "nonpayable",
      "type": "function"
    },
    {
      "inputs": [
        {
          "internalType": "uint256",
          "name": "",
          "type": "uint256"
        }
      ],
      "name": "categories",
      "outputs": [
        {
          "internalType": "bytes32",
          "name": "name",
          "type": "bytes32"
        },
        {
          "internalType": "bool",
          "name": "open",
          "type": "bool"
        },
        {
          "internalType": "uint256",
          "name": "catId",
          "type": "uint256"
        }
      ],
      "stateMutability": "view",
      "type": "function"
    },
    {
      "inputs": [
        {
          "internalType": "uint256",
          "name": "_catId",
          "type": "uint256"
        }
      ],
      "name": "closeCategory",
      "outputs": [
        {
          "internalType": "bytes32",
          "name": "",
          "type": "bytes32"
        }
      ],
      "stateMutability": "nonpayable",
      "type": "function"
    },
    {
      "inputs": [],
      "name": "currentFuncAddress",
      "outputs": [
        {
          "internalType": "address",
          "name": "",
          "type": "address"
        }
      ],
      "stateMutability": "view",
      "type": "function"
    },
    {
      "inputs": [
        {
          "internalType": "uint256",
          "name": "_catId",
          "type": "uint256"
        },
        {
          "internalType": "uint8",
          "name": "_canId",
          "type": "uint8"
        }
      ],
      "name": "getCandidate",
      "outputs": [
        {
          "internalType": "bytes32",
          "name": "",
          "type": "bytes32"
        }
      ],
      "stateMutability": "view",
      "type": "function"
    },
    {
      "inputs": [
        {
          "internalType": "uint256",
          "name": "_catId",
          "type": "uint256"
        },
        {
          "internalType": "uint8",
          "name": "_canId",
          "type": "uint8"
        }
      ],
      "name": "getCandidateVotes",
      "outputs": [
        {
          "internalType": "uint256",
          "name": "",
          "type": "uint256"
        }
      ],
      "stateMutability": "view",
      "type": "function"
    },
    {
      "inputs": [
        {
          "internalType": "uint256",
          "name": "_catId",
          "type": "uint256"
        }
      ],
      "name": "getCategoryName",
      "outputs": [
        {
          "internalType": "bytes32",
          "name": "",
          "type": "bytes32"
        }
      ],
      "stateMutability": "view",
      "type": "function"
    },
    {
      "inputs": [
        {
          "internalType": "uint256",
          "name": "_catId",
          "type": "uint256"
        }
      ],
      "name": "getCategoryOpen",
      "outputs": [
        {
          "internalType": "bool",
          "name": "",
          "type": "bool"
        }
      ],
      "stateMutability": "view",
      "type": "function"
    },
    {
      "inputs": [
        {
          "internalType": "uint256",
          "name": "_catId",
          "type": "uint256"
        }
      ],
      "name": "getCategoryVotes",
      "outputs": [
        {
          "internalType": "uint256",
          "name": "",
          "type": "uint256"
        }
      ],
      "stateMutability": "view",
      "type": "function"
    },
    {
      "inputs": [
        {
          "internalType": "uint256",
          "name": "_catId",
          "type": "uint256"
        }
      ],
      "name": "getCategoryWinner",
      "outputs": [
        {
          "internalType": "bytes32",
          "name": "",
          "type": "bytes32"
        }
      ],
      "stateMutability": "view",
      "type": "function"
    },
    {
      "inputs": [],
      "name": "getMaxCandidates",
      "outputs": [
        {
          "internalType": "uint256",
          "name": "",
          "type": "uint256"
        }
      ],
      "stateMutability": "view",
      "type": "function"
    },
    {
      "inputs": [
        {
          "internalType": "uint256",
          "name": "_catId",
          "type": "uint256"
        }
      ],
      "name": "openCategory",
      "outputs": [],
      "stateMutability": "nonpayable",
      "type": "function"
    },
    {
      "inputs": [],
      "name": "owner",
      "outputs": [
        {
          "internalType": "address",
          "name": "",
          "type": "address"
        }
      ],
      "stateMutability": "view",
      "type": "function"
    },
    {
      "inputs": [],
      "name": "pause",
      "outputs": [],
      "stateMutability": "nonpayable",
      "type": "function"
    },
    {
      "inputs": [],
      "name": "paused",
      "outputs": [
        {
          "internalType": "bool",
          "name": "",
          "type": "bool"
        }
      ],
      "stateMutability": "view",
      "type": "function"
    },
    {
      "inputs": [],
      "name": "register",
      "outputs": [],
      "stateMutability": "nonpayable",
      "type": "function"
    },
    {
      "inputs": [],
      "name": "renounceOwnership",
      "outputs": [],
      "stateMutability": "nonpayable",
      "type": "function"
    },
    {
      "inputs": [
        {
          "internalType": "bytes32",
          "name": "_category",
          "type": "bytes32"
        },
        {
          "internalType": "bytes32[]",
          "name": "_candidates",
          "type": "bytes32[]"
        }
      ],
      "name": "setCategory",
      "outputs": [
        {
          "internalType": "uint128",
          "name": "",
          "type": "uint128"
        }
      ],
      "stateMutability": "nonpayable",
      "type": "function"
    },
    {
      "inputs": [
        {
          "internalType": "address",
          "name": "newOwner",
          "type": "address"
        }
      ],
      "name": "transferOwnership",
      "outputs": [],
      "stateMutability": "nonpayable",
      "type": "function"
    },
    {
      "inputs": [],
      "name": "unpause",
      "outputs": [],
      "stateMutability": "nonpayable",
      "type": "function"
    },
    {
      "inputs": [],
      "name": "withdraw",
      "outputs": [],
      "stateMutability": "nonpayable",
      "type": "function"
    },
    {
      "stateMutability": "payable",
      "type": "receive"
    }
  ],
  "bytecode": "0x60806040523480156200001157600080fd5b5062000032620000266200005260201b60201c565b6200005a60201b60201c565b60008060146101000a81548160ff0219169083151502179055506200011e565b600033905090565b60008060009054906101000a900473ffffffffffffffffffffffffffffffffffffffff169050816000806101000a81548173ffffffffffffffffffffffffffffffffffffffff021916908373ffffffffffffffffffffffffffffffffffffffff1602179055508173ffffffffffffffffffffffffffffffffffffffff168173ffffffffffffffffffffffffffffffffffffffff167f8be0079c531659141344cd1fd0a4f28419497f9722a3daafe3b4186f6b6457e060405160405180910390a35050565b613301806200012e6000396000f3fe6080604052600436106101a05760003560e01c806356781388116100ec578063bada24641161008a578063d1656c1711610064578063d1656c1714610610578063eb77c40f1461064d578063f2de66991461068a578063f2fde38b146106b5576101e0565b8063bada246414610569578063c6cdbe5e146105a6578063ce4ec048146105e5576101e0565b80638456cb59116100c65780638456cb59146104ad5780638da5cb5b146104c457806399ef6ccb146104ef578063b312a7c11461052c576101e0565b806356781388146104425780635c975abb1461046b578063715018a614610496576101e0565b806327d0e5df11610159578063358644c711610133578063358644c71461039a5780633ccfd60b146103d75780633f4ba83a146103ee578063560a0a5b14610405576101e0565b806327d0e5df146103075780632e0d757314610344578063317cc82d1461036f576101e0565b8063038eef63146101e557806308e67038146102225780630de38c311461025f578063161c6f19146102885780631aa3a008146102c55780631af5fd02146102dc576101e0565b366101e0577fe2639ef551ad89950da1145fe1fd600e818336d6e8aa88426efe387c49accebb33346040516101d6929190612934565b60405180910390a1005b600080fd5b3480156101f157600080fd5b5061020c600480360381019061020791906125c7565b6106de565b604051610219919061295d565b60405180910390f35b34801561022e57600080fd5b506102496004803603810190610244919061250e565b6106fe565b604051610256919061295d565b60405180910390f35b34801561026b57600080fd5b50610286600480360381019061028191906125c7565b61071e565b005b34801561029457600080fd5b506102af60048036038101906102aa91906125c7565b6109b9565b6040516102bc919061295d565b60405180910390f35b3480156102d157600080fd5b506102da610a1b565b005b3480156102e857600080fd5b506102f1610bb6565b6040516102fe9190612919565b60405180910390f35b34801561031357600080fd5b5061032e600480360381019061032991906125c7565b610bdc565b60405161033b9190612c33565b60405180910390f35b34801561035057600080fd5b50610359610d4d565b6040516103669190612c18565b60405180910390f35b34801561037b57600080fd5b50610384610d6f565b6040516103919190612c18565b60405180910390f35b3480156103a657600080fd5b506103c160048036038101906103bc91906125c7565b610d91565b6040516103ce9190612978565b60405180910390f35b3480156103e357600080fd5b506103ec611040565b005b3480156103fa57600080fd5b50610403611148565b005b34801561041157600080fd5b5061042c600480360381019061042791906125f0565b6111ce565b6040516104399190612978565b60405180910390f35b34801561044e57600080fd5b50610469600480360381019061046491906125f0565b611270565b005b34801561047757600080fd5b5061048061163c565b60405161048d919061295d565b60405180910390f35b3480156104a257600080fd5b506104ab611652565b005b3480156104b957600080fd5b506104c26116da565b005b3480156104d057600080fd5b506104d9611760565b6040516104e69190612919565b60405180910390f35b3480156104fb57600080fd5b5061051660048036038101906105119190612573565b611789565b6040516105239190612c18565b60405180910390f35b34801561053857600080fd5b50610553600480360381019061054e91906125f0565b611bc3565b6040516105609190612c33565b60405180910390f35b34801561057557600080fd5b50610590600480360381019061058b91906125c7565b611d52565b60405161059d9190612978565b60405180910390f35b3480156105b257600080fd5b506105cd60048036038101906105c891906125c7565b611f71565b6040516105dc93929190612993565b60405180910390f35b3480156105f157600080fd5b506105fa611fb8565b6040516106079190612c33565b60405180910390f35b34801561061c57600080fd5b50610637600480360381019061063291906125c7565b611fbe565b6040516106449190612978565b60405180910390f35b34801561065957600080fd5b50610674600480360381019061066f9190612537565b612013565b604051610681919061295d565b60405180910390f35b34801561069657600080fd5b5061069f612042565b6040516106ac9190612c33565b60405180910390f35b3480156106c157600080fd5b506106dc60048036038101906106d7919061250e565b61211c565b005b60076020528060005260406000206000915054906101000a900460ff1681565b60056020528060005260406000206000915054906101000a900460ff1681565b610726612214565b73ffffffffffffffffffffffffffffffffffffffff16610744611760565b73ffffffffffffffffffffffffffffffffffffffff161461079a576040517f08c379a000000000000000000000000000000000000000000000000000000000815260040161079190612b78565b60405180910390fd5b8060001515600282815481106107d9577f4e487b7100000000000000000000000000000000000000000000000000000000600052603260045260246000fd5b906000526020600020906004020160020160009054906101000a900460ff1615151461083a576040517f08c379a000000000000000000000000000000000000000000000000000000000815260040161083190612b98565b60405180910390fd5b600015156007600084815260200190815260200160002060009054906101000a900460ff161515146108a1576040517f08c379a000000000000000000000000000000000000000000000000000000000815260040161089890612a97565b60405180910390fd5b60016007600084815260200190815260200160002060006101000a81548160ff021916908315150217905550600160028381548110610909577f4e487b7100000000000000000000000000000000000000000000000000000000600052603260045260246000fd5b906000526020600020906004020160020160006101000a81548160ff0219169083151502179055507f638b96e82cfc7a197bd6be5c176bc949aba7a20600a5d03c74c59cb51355f47a6002838154811061098c577f4e487b7100000000000000000000000000000000000000000000000000000000600052603260045260246000fd5b906000526020600020906004020160000154336040516109ad929190612b17565b60405180910390a15050565b6000600282815481106109f5577f4e487b7100000000000000000000000000000000000000000000000000000000600052603260045260246000fd5b906000526020600020906004020160020160009054906101000a900460ff169050919050565b610a2361163c565b15610a63576040517f08c379a0000000000000000000000000000000000000000000000000000000008152600401610a5a90612b58565b60405180910390fd5b60011515600560003373ffffffffffffffffffffffffffffffffffffffff1673ffffffffffffffffffffffffffffffffffffffff16815260200190815260200160002060009054906101000a900460ff1615151415610af7576040517f08c379a0000000000000000000000000000000000000000000000000000000008152600401610aee90612ad7565b60405180910390fd5b6001600560003373ffffffffffffffffffffffffffffffffffffffff1673ffffffffffffffffffffffffffffffffffffffff16815260200190815260200160002060006101000a81548160ff0219169083151502179055506003601081819054906101000a90046fffffffffffffffffffffffffffffffff1680929190610b7d90612e16565b91906101000a8154816fffffffffffffffffffffffffffffffff02191690836fffffffffffffffffffffffffffffffff16021790555050565b600160009054906101000a900473ffffffffffffffffffffffffffffffffffffffff1681565b6000806000905060005b60028481548110610c20577f4e487b7100000000000000000000000000000000000000000000000000000000600052603260045260246000fd5b9060005260206000209060040201600101805490508160ff161015610d435760028481548110610c79577f4e487b7100000000000000000000000000000000000000000000000000000000600052603260045260246000fd5b90600052602060002090600402016001018160ff1681548110610cc5577f4e487b7100000000000000000000000000000000000000000000000000000000600052603260045260246000fd5b906000526020600020906002020160010160009054906101000a90047effffffffffffffffffffffffffffffffffffffffffffffffffffffffffffff167effffffffffffffffffffffffffffffffffffffffffffffffffffffffffffff1682610d2e9190612ce9565b91508080610d3b90612ee0565b915050610be6565b5080915050919050565b600360009054906101000a90046fffffffffffffffffffffffffffffffff1681565b600360109054906101000a90046fffffffffffffffffffffffffffffffff1681565b6000816000151560028281548110610dd2577f4e487b7100000000000000000000000000000000000000000000000000000000600052603260045260246000fd5b906000526020600020906004020160020160009054906101000a900460ff16151514610e33576040517f08c379a0000000000000000000000000000000000000000000000000000000008152600401610e2a90612b98565b60405180910390fd5b60008060005b60028681548110610e73577f4e487b7100000000000000000000000000000000000000000000000000000000600052603260045260246000fd5b9060005260206000209060040201600101805490508160ff16101561103457600060028781548110610ece577f4e487b7100000000000000000000000000000000000000000000000000000000600052603260045260246000fd5b90600052602060002090600402016001018260ff1681548110610f1a577f4e487b7100000000000000000000000000000000000000000000000000000000600052603260045260246000fd5b906000526020600020906002020160010160009054906101000a90047effffffffffffffffffffffffffffffffffffffffffffffffffffffffffffff167effffffffffffffffffffffffffffffffffffffffffffffffffffffffffffff169050828111156110205760028781548110610fbc577f4e487b7100000000000000000000000000000000000000000000000000000000600052603260045260246000fd5b90600052602060002090600402016001018260ff1681548110611008577f4e487b7100000000000000000000000000000000000000000000000000000000600052603260045260246000fd5b90600052602060002090600202016000015493508092505b50808061102c90612ee0565b915050610e39565b50819350505050919050565b611048612214565b73ffffffffffffffffffffffffffffffffffffffff16611066611760565b73ffffffffffffffffffffffffffffffffffffffff16146110bc576040517f08c379a00000000000000000000000000000000000000000000000000000000081526004016110b390612b78565b60405180910390fd5b600047116110ff576040517f08c379a00000000000000000000000000000000000000000000000000000000081526004016110f690612bf8565b60405180910390fd5b3373ffffffffffffffffffffffffffffffffffffffff166108fc479081150290604051600060405180830381858888f19350505050158015611145573d6000803e3d6000fd5b50565b611150612214565b73ffffffffffffffffffffffffffffffffffffffff1661116e611760565b73ffffffffffffffffffffffffffffffffffffffff16146111c4576040517f08c379a00000000000000000000000000000000000000000000000000000000081526004016111bb90612b78565b60405180910390fd5b6111cc61221c565b565b60006002838154811061120a577f4e487b7100000000000000000000000000000000000000000000000000000000600052603260045260246000fd5b90600052602060002090600402016001018260ff1681548110611256577f4e487b7100000000000000000000000000000000000000000000000000000000600052603260045260246000fd5b906000526020600020906002020160000154905092915050565b60011515600560003373ffffffffffffffffffffffffffffffffffffffff1673ffffffffffffffffffffffffffffffffffffffff16815260200190815260200160002060009054906101000a900460ff16151514611303576040517f08c379a00000000000000000000000000000000000000000000000000000000081526004016112fa90612bd8565b60405180910390fd5b61130b61163c565b1561134b576040517f08c379a000000000000000000000000000000000000000000000000000000000815260040161134290612b58565b60405180910390fd5b81600115156002828154811061138a577f4e487b7100000000000000000000000000000000000000000000000000000000600052603260045260246000fd5b906000526020600020906004020160020160009054906101000a900460ff161515146113eb576040517f08c379a00000000000000000000000000000000000000000000000000000000081526004016113e290612af7565b60405180910390fd5b60001515600660003373ffffffffffffffffffffffffffffffffffffffff1673ffffffffffffffffffffffffffffffffffffffff168152602001908152602001600020600085815260200190815260200160002060009054906101000a900460ff1615151461148f576040517f08c379a000000000000000000000000000000000000000000000000000000000815260040161148690612ab7565b60405180910390fd5b6001600660003373ffffffffffffffffffffffffffffffffffffffff1673ffffffffffffffffffffffffffffffffffffffff168152602001908152602001600020600085815260200190815260200160002060006101000a81548160ff02191690831515021790555060028381548110611532577f4e487b7100000000000000000000000000000000000000000000000000000000600052603260045260246000fd5b90600052602060002090600402016001018260ff168154811061157e577f4e487b7100000000000000000000000000000000000000000000000000000000600052603260045260246000fd5b9060005260206000209060020201600101600081819054906101000a90047effffffffffffffffffffffffffffffffffffffffffffffffffffffffffffff16809291906115ca90612e4f565b91906101000a8154817effffffffffffffffffffffffffffffffffffffffffffffffffffffffffffff02191690837effffffffffffffffffffffffffffffffffffffffffffffffffffffffffffff160217905550506004600081548092919061163290612e97565b9190505550505050565b60008060149054906101000a900460ff16905090565b61165a612214565b73ffffffffffffffffffffffffffffffffffffffff16611678611760565b73ffffffffffffffffffffffffffffffffffffffff16146116ce576040517f08c379a00000000000000000000000000000000000000000000000000000000081526004016116c590612b78565b60405180910390fd5b6116d860006122bd565b565b6116e2612214565b73ffffffffffffffffffffffffffffffffffffffff16611700611760565b73ffffffffffffffffffffffffffffffffffffffff1614611756576040517f08c379a000000000000000000000000000000000000000000000000000000000815260040161174d90612b78565b60405180910390fd5b61175e612381565b565b60008060009054906101000a900473ffffffffffffffffffffffffffffffffffffffff16905090565b6000611793612214565b73ffffffffffffffffffffffffffffffffffffffff166117b1611760565b73ffffffffffffffffffffffffffffffffffffffff1614611807576040517f08c379a00000000000000000000000000000000000000000000000000000000081526004016117fe90612b78565b60405180910390fd5b61010082511061184c576040517f08c379a000000000000000000000000000000000000000000000000000000000815260040161184390612bb8565b60405180910390fd5b6000600360009054906101000a90046fffffffffffffffffffffffffffffffff1690506003600081819054906101000a90046fffffffffffffffffffffffffffffffff168092919061189d90612e16565b91906101000a8154816fffffffffffffffffffffffffffffffff02191690836fffffffffffffffffffffffffffffffff16021790555050600260018160018154018082558091505003906000526020600020905050836002826fffffffffffffffffffffffffffffffff168154811061193f577f4e487b7100000000000000000000000000000000000000000000000000000000600052603260045260246000fd5b906000526020600020906004020160000181905550806fffffffffffffffffffffffffffffffff166002826fffffffffffffffffffffffffffffffff16815481106119b3577f4e487b7100000000000000000000000000000000000000000000000000000000600052603260045260246000fd5b90600052602060002090600402016003018190555060005b83518160ff161015611b7d576002826fffffffffffffffffffffffffffffffff1681548110611a23577f4e487b7100000000000000000000000000000000000000000000000000000000600052603260045260246000fd5b90600052602060002090600402016001016040518060600160405280868460ff1681518110611a7b577f4e487b7100000000000000000000000000000000000000000000000000000000600052603260045260246000fd5b6020026020010151815260200160007effffffffffffffffffffffffffffffffffffffffffffffffffffffffffffff1681526020018360ff1681525090806001815401808255809150506001900390600052602060002090600202016000909190919091506000820151816000015560208201518160010160006101000a8154817effffffffffffffffffffffffffffffffffffffffffffffffffffffffffffff02191690837effffffffffffffffffffffffffffffffffffffffffffffffffffffffffffff160217905550604082015181600101601f6101000a81548160ff021916908360ff16021790555050508080611b7590612ee0565b9150506119cb565b507fdfb27e2960411d7056c80fb74fb8d21b563bad1e11dd0ce71150ec5c28efcefa848433604051611bb1939291906129ca565b60405180910390a18091505092915050565b6000826000151560028281548110611c04577f4e487b7100000000000000000000000000000000000000000000000000000000600052603260045260246000fd5b906000526020600020906004020160020160009054906101000a900460ff16151514611c65576040517f08c379a0000000000000000000000000000000000000000000000000000000008152600401611c5c90612b98565b60405180910390fd5b60028481548110611c9f577f4e487b7100000000000000000000000000000000000000000000000000000000600052603260045260246000fd5b90600052602060002090600402016001018360ff1681548110611ceb577f4e487b7100000000000000000000000000000000000000000000000000000000600052603260045260246000fd5b906000526020600020906002020160010160009054906101000a90047effffffffffffffffffffffffffffffffffffffffffffffffffffffffffffff167effffffffffffffffffffffffffffffffffffffffffffffffffffffffffffff1691505092915050565b6000611d5c612214565b73ffffffffffffffffffffffffffffffffffffffff16611d7a611760565b73ffffffffffffffffffffffffffffffffffffffff1614611dd0576040517f08c379a0000000000000000000000000000000000000000000000000000000008152600401611dc790612b78565b60405180910390fd5b816001151560028281548110611e0f577f4e487b7100000000000000000000000000000000000000000000000000000000600052603260045260246000fd5b906000526020600020906004020160020160009054906101000a900460ff16151514611e70576040517f08c379a0000000000000000000000000000000000000000000000000000000008152600401611e6790612af7565b60405180910390fd5b600060028481548110611eac577f4e487b7100000000000000000000000000000000000000000000000000000000600052603260045260246000fd5b906000526020600020906004020160020160006101000a81548160ff0219169083151502179055506000611edf84610d91565b90507f638b96e82cfc7a197bd6be5c176bc949aba7a20600a5d03c74c59cb51355f47a60028581548110611f3c577f4e487b7100000000000000000000000000000000000000000000000000000000600052603260045260246000fd5b9060005260206000209060040201600001548233604051611f5f93929190612a34565b60405180910390a18092505050919050565b60028181548110611f8157600080fd5b90600052602060002090600402016000915090508060000154908060020160009054906101000a900460ff16908060030154905083565b60045481565b600060028281548110611ffa577f4e487b7100000000000000000000000000000000000000000000000000000000600052603260045260246000fd5b9060005260206000209060040201600001549050919050565b60066020528160005260406000206020528060005260406000206000915091509054906101000a900460ff1681565b6000806000905060005b600280549050811015612114578160028281548110612094577f4e487b7100000000000000000000000000000000000000000000000000000000600052603260045260246000fd5b906000526020600020906004020160010180549050111561210157600281815481106120e9577f4e487b7100000000000000000000000000000000000000000000000000000000600052603260045260246000fd5b90600052602060002090600402016001018054905091505b808061210c90612e97565b91505061204c565b508091505090565b612124612214565b73ffffffffffffffffffffffffffffffffffffffff16612142611760565b73ffffffffffffffffffffffffffffffffffffffff1614612198576040517f08c379a000000000000000000000000000000000000000000000000000000000815260040161218f90612b78565b60405180910390fd5b600073ffffffffffffffffffffffffffffffffffffffff168173ffffffffffffffffffffffffffffffffffffffff161415612208576040517f08c379a00000000000000000000000000000000000000000000000000000000081526004016121ff90612a77565b60405180910390fd5b612211816122bd565b50565b600033905090565b61222461163c565b612263576040517f08c379a000000000000000000000000000000000000000000000000000000000815260040161225a90612a14565b60405180910390fd5b60008060146101000a81548160ff0219169083151502179055507f5db9ee0a495bf2e6ff9c91a7834c1ba4fdd244a5e8aa4e537bd38aeae4b073aa6122a6612214565b6040516122b39190612919565b60405180910390a1565b60008060009054906101000a900473ffffffffffffffffffffffffffffffffffffffff169050816000806101000a81548173ffffffffffffffffffffffffffffffffffffffff021916908373ffffffffffffffffffffffffffffffffffffffff1602179055508173ffffffffffffffffffffffffffffffffffffffff168173ffffffffffffffffffffffffffffffffffffffff167f8be0079c531659141344cd1fd0a4f28419497f9722a3daafe3b4186f6b6457e060405160405180910390a35050565b61238961163c565b156123c9576040517f08c379a00000000000000000000000000000000000000000000000000000000081526004016123c090612b58565b60405180910390fd5b6001600060146101000a81548160ff0219169083151502179055507f62e78cea01bee320cd4e420270b5ea74000d11b0c9f74754ebdbfc544b05a25861240d612214565b60405161241a9190612919565b60405180910390a1565b600061243761243284612c73565b612c4e565b9050808382526020820190508285602086028201111561245657600080fd5b60005b85811015612486578161246c88826124cf565b845260208401935060208301925050600181019050612459565b5050509392505050565b60008135905061249f8161326f565b92915050565b600082601f8301126124b657600080fd5b81356124c6848260208601612424565b91505092915050565b6000813590506124de81613286565b92915050565b6000813590506124f38161329d565b92915050565b600081359050612508816132b4565b92915050565b60006020828403121561252057600080fd5b600061252e84828501612490565b91505092915050565b6000806040838503121561254a57600080fd5b600061255885828601612490565b9250506020612569858286016124e4565b9150509250929050565b6000806040838503121561258657600080fd5b6000612594858286016124cf565b925050602083013567ffffffffffffffff8111156125b157600080fd5b6125bd858286016124a5565b9150509250929050565b6000602082840312156125d957600080fd5b60006125e7848285016124e4565b91505092915050565b6000806040838503121561260357600080fd5b6000612611858286016124e4565b9250506020612622858286016124f9565b9150509250929050565b600061263883836126c0565b60208301905092915050565b61264d81612d3f565b82525050565b600061265e82612caf565b6126688185612cc7565b935061267383612c9f565b8060005b838110156126a457815161268b888261262c565b975061269683612cba565b925050600181019050612677565b5085935050505092915050565b6126ba81612d51565b82525050565b6126c981612d5d565b82525050565b6126d881612d5d565b82525050565b7f4e65772043617465676f72790000000000000000000000000000000000000000815250565b6000612711601483612cd8565b915061271c82612f79565b602082019050919050565b7f43617465676f727920436c6f7365640000000000000000000000000000000000815250565b600061275a602683612cd8565b915061276582612fa2565b604082019050919050565b600061277d602483612cd8565b915061278882612ff1565b604082019050919050565b60006127a0602783612cd8565b91506127ab82613040565b604082019050919050565b60006127c3602283612cd8565b91506127ce8261308f565b604082019050919050565b60006127e6603b83612cd8565b91506127f1826130de565b604082019050919050565b7f43617465676f7279204f70656e65640000000000000000000000000000000000815250565b600061282f601083612cd8565b915061283a8261312d565b602082019050919050565b6000612852602083612cd8565b915061285d82613156565b602082019050919050565b6000612875603983612cd8565b91506128808261317f565b604082019050919050565b6000612898601e83612cd8565b91506128a3826131ce565b602082019050919050565b60006128bb602983612cd8565b91506128c6826131f7565b604082019050919050565b6000815250565b60006128e5601483612cd8565b91506128f082613246565b602082019050919050565b61290481612d67565b82525050565b61291381612dce565b82525050565b600060208201905061292e6000830184612644565b92915050565b60006040820190506129496000830185612644565b612956602083018461290a565b9392505050565b600060208201905061297260008301846126b1565b92915050565b600060208201905061298d60008301846126cf565b92915050565b60006060820190506129a860008301866126cf565b6129b560208301856126b1565b6129c2604083018461290a565b949350505050565b60006080820190506129de600083016126de565b6129eb60208301866126cf565b81810360408301526129fd8185612653565b9050612a0c6060830184612644565b949350505050565b60006020820190508181036000830152612a2d81612704565b9050919050565b6000608082019050612a4860008301612727565b612a5560208301866126cf565b612a6260408301856126cf565b612a6f6060830184612644565b949350505050565b60006020820190508181036000830152612a908161274d565b9050919050565b60006020820190508181036000830152612ab081612770565b9050919050565b60006020820190508181036000830152612ad081612793565b9050919050565b60006020820190508181036000830152612af0816127b6565b9050919050565b60006020820190508181036000830152612b10816127d9565b9050919050565b6000608082019050612b2b600083016127fc565b612b3860208301856126cf565b612b44604083016128d1565b612b516060830184612644565b9392505050565b60006020820190508181036000830152612b7181612822565b9050919050565b60006020820190508181036000830152612b9181612845565b9050919050565b60006020820190508181036000830152612bb181612868565b9050919050565b60006020820190508181036000830152612bd18161288b565b9050919050565b60006020820190508181036000830152612bf1816128ae565b9050919050565b60006020820190508181036000830152612c11816128d8565b9050919050565b6000602082019050612c2d60008301846128fb565b92915050565b6000602082019050612c48600083018461290a565b92915050565b6000612c58612c69565b9050612c648282612de5565b919050565b6000604051905090565b600067ffffffffffffffff821115612c8e57612c8d612f39565b5b602082029050602081019050919050565b6000819050602082019050919050565b600081519050919050565b6000602082019050919050565b600082825260208201905092915050565b600082825260208201905092915050565b6000612cf482612dce565b9150612cff83612dce565b9250827fffffffffffffffffffffffffffffffffffffffffffffffffffffffffffffffff03821115612d3457612d33612f0a565b5b828201905092915050565b6000612d4a82612d83565b9050919050565b60008115159050919050565b6000819050919050565b60006fffffffffffffffffffffffffffffffff82169050919050565b600073ffffffffffffffffffffffffffffffffffffffff82169050919050565b60007effffffffffffffffffffffffffffffffffffffffffffffffffffffffffffff82169050919050565b6000819050919050565b600060ff82169050919050565b612dee82612f68565b810181811067ffffffffffffffff82111715612e0d57612e0c612f39565b5b80604052505050565b6000612e2182612d67565b91506fffffffffffffffffffffffffffffffff821415612e4457612e43612f0a565b5b600182019050919050565b6000612e5a82612da3565b91507effffffffffffffffffffffffffffffffffffffffffffffffffffffffffffff821415612e8c57612e8b612f0a565b5b600182019050919050565b6000612ea282612dce565b91507fffffffffffffffffffffffffffffffffffffffffffffffffffffffffffffffff821415612ed557612ed4612f0a565b5b600182019050919050565b6000612eeb82612dd8565b915060ff821415612eff57612efe612f0a565b5b600182019050919050565b7f4e487b7100000000000000000000000000000000000000000000000000000000600052601160045260246000fd5b7f4e487b7100000000000000000000000000000000000000000000000000000000600052604160045260246000fd5b6000601f19601f8301169050919050565b7f5061757361626c653a206e6f7420706175736564000000000000000000000000600082015250565b7f4f776e61626c653a206e6577206f776e657220697320746865207a65726f206160008201527f6464726573730000000000000000000000000000000000000000000000000000602082015250565b7f546869732063617465676f72792063616e6e6f74206265206f70656e6564206160008201527f6761696e00000000000000000000000000000000000000000000000000000000602082015250565b7f596f75206861766520616c726561647920766f74656420696e2074686973206360008201527f617465676f727900000000000000000000000000000000000000000000000000602082015250565b7f54686973206164647265737320697320616c726561647920726567697374657260008201527f6564000000000000000000000000000000000000000000000000000000000000602082015250565b7f5468697320616374696f6e2063616e6e6f7420626520706572666f726d65642060008201527f7768656e207468652063617465676f727920697320636c6f7365640000000000602082015250565b7f5061757361626c653a2070617573656400000000000000000000000000000000600082015250565b7f4f776e61626c653a2063616c6c6572206973206e6f7420746865206f776e6572600082015250565b7f5468697320616374696f6e2063616e6e6f7420626520706572666f726d65642060008201527f7768656e207468652063617465676f7279206973206f70656e00000000000000602082015250565b7f54686572652061726520746f6f206d616e792063616e646964617465732e0000600082015250565b7f546869732077616c6c65742061646472657373206973206e6f7420796574207260008201527f6567697374657265640000000000000000000000000000000000000000000000602082015250565b7f4e6f2066756e647320696e20636f6e7472616374000000000000000000000000600082015250565b61327881612d3f565b811461328357600080fd5b50565b61328f81612d5d565b811461329a57600080fd5b50565b6132a681612dce565b81146132b157600080fd5b50565b6132bd81612dd8565b81146132c857600080fd5b5056fea2646970667358221220308e766a794e8047998617d477fcb5e1adc7edc184f71e7052a5c1afa5a821d964736f6c63430008040033",
  "linkReferences": {},
  "deployedLinkReferences": {}
}