{
  "_format": "hh-sol-artifact-1",
  "contractName": "VotingBoothUpdated",
  "sourceName": "contracts/Voting_Booth_Updated.sol",
  "abi": [
    {
      "anonymous": false,
      "inputs": [
        {
          "indexed": true,
          "internalType": "address",
          "name": "previousOwner",
          "type": "address"
        },
        {
          "indexed": true,
          "internalType": "address",
          "name": "newOwner",
          "type": "address"
        }
      ],
      "name": "OwnershipTransferred",
      "type": "event"
    },
    {
      "anonymous": false,
      "inputs": [
        {
          "indexed": false,
          "internalType": "address",
          "name": "account",
          "type": "address"
        }
      ],
      "name": "Paused",
      "type": "event"
    },
    {
      "anonymous": false,
      "inputs": [
        {
          "indexed": false,
          "internalType": "address",
          "name": "account",
          "type": "address"
        }
      ],
      "name": "Unpaused",
      "type": "event"
    },
    {
      "anonymous": false,
      "inputs": [
        {
          "indexed": false,
          "internalType": "bytes32",
          "name": "_func",
          "type": "bytes32"
        },
        {
          "indexed": false,
          "internalType": "bytes32",
          "name": "_categoryName",
          "type": "bytes32"
        },
        {
          "indexed": false,
          "internalType": "bytes32[]",
          "name": "_candidateNames",
          "type": "bytes32[]"
        },
        {
          "indexed": false,
          "internalType": "address",
          "name": "_from",
          "type": "address"
        }
      ],
      "name": "categorySet",
      "type": "event"
    },
    {
      "anonymous": false,
      "inputs": [
        {
          "indexed": false,
          "internalType": "bytes32",
          "name": "_func",
          "type": "bytes32"
        },
        {
          "indexed": false,
          "internalType": "bytes32",
          "name": "_categoryName",
          "type": "bytes32"
        },
        {
          "indexed": false,
          "internalType": "bytes32",
          "name": "_winner",
          "type": "bytes32"
        },
        {
          "indexed": false,
          "internalType": "address",
          "name": "_from",
          "type": "address"
        }
      ],
      "name": "categoryStatusChange",
      "type": "event"
    },
    {
      "anonymous": false,
      "inputs": [
        {
          "indexed": false,
          "internalType": "address",
          "name": "_donator",
          "type": "address"
        },
        {
          "indexed": false,
          "internalType": "uint256",
          "name": "_amount",
          "type": "uint256"
        }
      ],
      "name": "donationReceived",
      "type": "event"
    },
    {
      "inputs": [
        {
          "internalType": "address",
          "name": "",
          "type": "address"
        },
        {
          "internalType": "uint256",
          "name": "",
          "type": "uint256"
        }
      ],
      "name": "_boolVoter",
      "outputs": [
        {
          "internalType": "bool",
          "name": "",
          "type": "bool"
        }
      ],
      "stateMutability": "view",
      "type": "function"
    },
    {
      "inputs": [
        {
          "internalType": "uint64",
          "name": "",
          "type": "uint64"
        }
      ],
      "name": "_openedOnce",
      "outputs": [
        {
          "internalType": "bool",
          "name": "",
          "type": "bool"
        }
      ],
      "stateMutability": "view",
      "type": "function"
    },
    {
      "inputs": [
        {
          "internalType": "address",
          "name": "",
          "type": "address"
        }
      ],
      "name": "_registry",
      "outputs": [
        {
          "internalType": "bool",
          "name": "",
          "type": "bool"
        }
      ],
      "stateMutability": "view",
      "type": "function"
    },
    {
      "inputs": [],
      "name": "_totalVotes",
      "outputs": [
        {
          "internalType": "uint256",
          "name": "",
          "type": "uint256"
        }
      ],
      "stateMutability": "view",
      "type": "function"
    },
    {
      "inputs": [],
      "name": "_voterCount",
      "outputs": [
        {
          "internalType": "uint64",
          "name": "",
          "type": "uint64"
        }
      ],
      "stateMutability": "view",
      "type": "function"
    },
    {
      "inputs": [
        {
          "internalType": "uint64",
          "name": "_catId",
          "type": "uint64"
        },
        {
          "internalType": "uint8",
          "name": "_canId",
          "type": "uint8"
        }
      ],
      "name": "castVote",
      "outputs": [],
      "stateMutability": "nonpayable",
      "type": "function"
    },
    {
      "inputs": [
        {
          "internalType": "uint256",
          "name": "",
          "type": "uint256"
        }
      ],
      "name": "categories",
      "outputs": [
        {
          "internalType": "bytes32",
          "name": "name",
          "type": "bytes32"
        },
        {
          "internalType": "bool",
          "name": "open",
          "type": "bool"
        },
        {
          "internalType": "uint64",
          "name": "catId",
          "type": "uint64"
        }
      ],
      "stateMutability": "view",
      "type": "function"
    },
    {
      "inputs": [
        {
          "internalType": "uint64",
          "name": "_catId",
          "type": "uint64"
        }
      ],
      "name": "closeCategory",
      "outputs": [
        {
          "internalType": "bytes32",
          "name": "",
          "type": "bytes32"
        }
      ],
      "stateMutability": "nonpayable",
      "type": "function"
    },
    {
      "inputs": [],
      "name": "currentFuncAddress",
      "outputs": [
        {
          "internalType": "address",
          "name": "",
          "type": "address"
        }
      ],
      "stateMutability": "view",
      "type": "function"
    },
    {
      "inputs": [
        {
          "internalType": "uint64",
          "name": "_catId",
          "type": "uint64"
        },
        {
          "internalType": "uint8",
          "name": "_canId",
          "type": "uint8"
        }
      ],
      "name": "getCandidate",
      "outputs": [
        {
          "internalType": "bytes32",
          "name": "",
          "type": "bytes32"
        }
      ],
      "stateMutability": "view",
      "type": "function"
    },
    {
      "inputs": [
        {
          "internalType": "uint64",
          "name": "_catId",
          "type": "uint64"
        },
        {
          "internalType": "uint8",
          "name": "_canId",
          "type": "uint8"
        }
      ],
      "name": "getCandidateVotes",
      "outputs": [
        {
          "internalType": "uint256",
          "name": "",
          "type": "uint256"
        }
      ],
      "stateMutability": "view",
      "type": "function"
    },
    {
      "inputs": [
        {
          "internalType": "uint64",
          "name": "_catId",
          "type": "uint64"
        }
      ],
      "name": "getCategoryName",
      "outputs": [
        {
          "internalType": "bytes32",
          "name": "",
          "type": "bytes32"
        }
      ],
      "stateMutability": "view",
      "type": "function"
    },
    {
      "inputs": [
        {
          "internalType": "uint64",
          "name": "_catId",
          "type": "uint64"
        }
      ],
      "name": "getCategoryOpen",
      "outputs": [
        {
          "internalType": "bool",
          "name": "",
          "type": "bool"
        }
      ],
      "stateMutability": "view",
      "type": "function"
    },
    {
      "inputs": [
        {
          "internalType": "uint64",
          "name": "_catId",
          "type": "uint64"
        }
      ],
      "name": "getCategoryVotes",
      "outputs": [
        {
          "internalType": "uint256",
          "name": "",
          "type": "uint256"
        }
      ],
      "stateMutability": "view",
      "type": "function"
    },
    {
      "inputs": [
        {
          "internalType": "uint64",
          "name": "_catId",
          "type": "uint64"
        }
      ],
      "name": "openCategory",
      "outputs": [],
      "stateMutability": "nonpayable",
      "type": "function"
    },
    {
      "inputs": [],
      "name": "owner",
      "outputs": [
        {
          "internalType": "address",
          "name": "",
          "type": "address"
        }
      ],
      "stateMutability": "view",
      "type": "function"
    },
    {
      "inputs": [],
      "name": "pause",
      "outputs": [],
      "stateMutability": "nonpayable",
      "type": "function"
    },
    {
      "inputs": [],
      "name": "paused",
      "outputs": [
        {
          "internalType": "bool",
          "name": "",
          "type": "bool"
        }
      ],
      "stateMutability": "view",
      "type": "function"
    },
    {
      "inputs": [],
      "name": "register",
      "outputs": [],
      "stateMutability": "nonpayable",
      "type": "function"
    },
    {
      "inputs": [],
      "name": "renounceOwnership",
      "outputs": [],
      "stateMutability": "nonpayable",
      "type": "function"
    },
    {
      "inputs": [],
      "name": "sayHello",
      "outputs": [
        {
          "internalType": "string",
          "name": "",
          "type": "string"
        }
      ],
      "stateMutability": "pure",
      "type": "function"
    },
    {
      "inputs": [
        {
          "internalType": "bytes32",
          "name": "_category",
          "type": "bytes32"
        },
        {
          "internalType": "bytes32[]",
          "name": "_candidates",
          "type": "bytes32[]"
        }
      ],
      "name": "setCategory",
      "outputs": [
        {
          "internalType": "uint64",
          "name": "",
          "type": "uint64"
        }
      ],
      "stateMutability": "nonpayable",
      "type": "function"
    },
    {
      "inputs": [
        {
          "internalType": "address",
          "name": "newOwner",
          "type": "address"
        }
      ],
      "name": "transferOwnership",
      "outputs": [],
      "stateMutability": "nonpayable",
      "type": "function"
    },
    {
      "inputs": [],
      "name": "unpause",
      "outputs": [],
      "stateMutability": "nonpayable",
      "type": "function"
    },
    {
      "inputs": [],
      "name": "withdraw",
      "outputs": [],
      "stateMutability": "nonpayable",
      "type": "function"
    },
    {
      "stateMutability": "payable",
      "type": "receive"
    }
  ],
  "bytecode": "0x60806040523480156200001157600080fd5b5062000032620000266200005260201b60201c565b6200005a60201b60201c565b60008060146101000a81548160ff0219169083151502179055506200011e565b600033905090565b60008060009054906101000a900473ffffffffffffffffffffffffffffffffffffffff169050816000806101000a81548173ffffffffffffffffffffffffffffffffffffffff021916908373ffffffffffffffffffffffffffffffffffffffff1602179055508173ffffffffffffffffffffffffffffffffffffffff168173ffffffffffffffffffffffffffffffffffffffff167f8be0079c531659141344cd1fd0a4f28419497f9722a3daafe3b4186f6b6457e060405160405180910390a35050565b612fb6806200012e6000396000f3fe6080604052600436106101695760003560e01c80636bda58f9116100d157806399ef6ccb1161008a578063ce4ec04811610064578063ce4ec04814610583578063eb77c40f146105ae578063ef5fb05b146105eb578063f2fde38b14610616576101a9565b806399ef6ccb146104de578063aa8992141461051b578063c6cdbe5e14610544576101a9565b80636bda58f9146103ce5780636d93d0d81461040b578063715018a61461044857806380417bfb1461045f5780638456cb591461049c5780638da5cb5b146104b3576101a9565b8063317cc82d11610123578063317cc82d146102d05780633ccfd60b146102fb5780633f4ba83a146103125780635133342b146103295780635c975abb14610366578063662efa4314610391576101a9565b8062455469146101ae57806302c3307d146101eb57806308e67038146102145780631aa3a008146102515780631af5fd02146102685780631ddbcbb114610293576101a9565b366101a9577fe2639ef551ad89950da1145fe1fd600e818336d6e8aa88426efe387c49accebb333460405161019f9291906128e4565b60405180910390a1005b600080fd5b3480156101ba57600080fd5b506101d560048036038101906101d09190612301565b61063f565b6040516101e29190612928565b60405180910390f35b3480156101f757600080fd5b50610212600480360381019061020d91906122d8565b6106eb565b005b34801561022057600080fd5b5061023b600480360381019061023691906121f6565b6109cc565b604051610248919061290d565b60405180910390f35b34801561025d57600080fd5b506102666109ec565b005b34801561027457600080fd5b5061027d610b6f565b60405161028a91906128c9565b60405180910390f35b34801561029f57600080fd5b506102ba60048036038101906102b591906122d8565b610b95565b6040516102c7919061290d565b60405180910390f35b3480156102dc57600080fd5b506102e5610bb5565b6040516102f29190612c05565b60405180910390f35b34801561030757600080fd5b50610310610bcf565b005b34801561031e57600080fd5b50610327610cd7565b005b34801561033557600080fd5b50610350600480360381019061034b91906122d8565b610d5d565b60405161035d9190612928565b60405180910390f35b34801561037257600080fd5b5061037b610dbc565b604051610388919061290d565b60405180910390f35b34801561039d57600080fd5b506103b860048036038101906103b391906122d8565b610dd2565b6040516103c5919061290d565b60405180910390f35b3480156103da57600080fd5b506103f560048036038101906103f09190612301565b610e3e565b6040516104029190612bea565b60405180910390f35b34801561041757600080fd5b50610432600480360381019061042d91906122d8565b610f95565b60405161043f9190612928565b60405180910390f35b34801561045457600080fd5b5061045d6111d2565b005b34801561046b57600080fd5b50610486600480360381019061048191906122d8565b61125a565b6040516104939190612bea565b60405180910390f35b3480156104a857600080fd5b506104b1611393565b005b3480156104bf57600080fd5b506104c8611419565b6040516104d591906128c9565b60405180910390f35b3480156104ea57600080fd5b506105056004803603810190610500919061225b565b611442565b6040516105129190612c05565b60405180910390f35b34801561052757600080fd5b50610542600480360381019061053d9190612301565b6117e0565b005b34801561055057600080fd5b5061056b600480360381019061056691906122af565b611b5a565b60405161057a93929190612943565b60405180910390f35b34801561058f57600080fd5b50610598611bb5565b6040516105a59190612bea565b60405180910390f35b3480156105ba57600080fd5b506105d560048036038101906105d0919061221f565b611bbb565b6040516105e2919061290d565b60405180910390f35b3480156105f757600080fd5b50610600611bea565b60405161060d919061297a565b60405180910390f35b34801561062257600080fd5b5061063d600480360381019061063891906121f6565b611c0a565b005b600060028367ffffffffffffffff1681548110610685577f4e487b7100000000000000000000000000000000000000000000000000000000600052603260045260246000fd5b90600052602060002090600302016001018260ff16815481106106d1577f4e487b7100000000000000000000000000000000000000000000000000000000600052603260045260246000fd5b906000526020600020906003020160000154905092915050565b6106f3611d02565b73ffffffffffffffffffffffffffffffffffffffff16610711611419565b73ffffffffffffffffffffffffffffffffffffffff1614610767576040517f08c379a000000000000000000000000000000000000000000000000000000000815260040161075e90612b4a565b60405180910390fd5b806000151560028267ffffffffffffffff16815481106107b0577f4e487b7100000000000000000000000000000000000000000000000000000000600052603260045260246000fd5b906000526020600020906003020160020160009054906101000a900460ff16151514610811576040517f08c379a000000000000000000000000000000000000000000000000000000000815260040161080890612b6a565b60405180910390fd5b60001515600660008467ffffffffffffffff1667ffffffffffffffff16815260200190815260200160002060009054906101000a900460ff1615151461088c576040517f08c379a000000000000000000000000000000000000000000000000000000000815260040161088390612a69565b60405180910390fd5b6001600660008467ffffffffffffffff1667ffffffffffffffff16815260200190815260200160002060006101000a81548160ff021916908315150217905550600160028367ffffffffffffffff1681548110610912577f4e487b7100000000000000000000000000000000000000000000000000000000600052603260045260246000fd5b906000526020600020906003020160020160006101000a81548160ff0219169083151502179055507f638b96e82cfc7a197bd6be5c176bc949aba7a20600a5d03c74c59cb51355f47a60028367ffffffffffffffff168154811061099f577f4e487b7100000000000000000000000000000000000000000000000000000000600052603260045260246000fd5b906000526020600020906003020160000154336040516109c0929190612ae9565b60405180910390a15050565b60046020528060005260406000206000915054906101000a900460ff1681565b6109f4610dbc565b15610a34576040517f08c379a0000000000000000000000000000000000000000000000000000000008152600401610a2b90612b2a565b60405180910390fd5b60011515600460003373ffffffffffffffffffffffffffffffffffffffff1673ffffffffffffffffffffffffffffffffffffffff16815260200190815260200160002060009054906101000a900460ff1615151415610ac8576040517f08c379a0000000000000000000000000000000000000000000000000000000008152600401610abf90612aa9565b60405180910390fd5b6001600460003373ffffffffffffffffffffffffffffffffffffffff1673ffffffffffffffffffffffffffffffffffffffff16815260200190815260200160002060006101000a81548160ff0219169083151502179055506007600081819054906101000a900467ffffffffffffffff1680929190610b4690612e17565b91906101000a81548167ffffffffffffffff021916908367ffffffffffffffff16021790555050565b600160009054906101000a900473ffffffffffffffffffffffffffffffffffffffff1681565b60066020528060005260406000206000915054906101000a900460ff1681565b600760009054906101000a900467ffffffffffffffff1681565b610bd7611d02565b73ffffffffffffffffffffffffffffffffffffffff16610bf5611419565b73ffffffffffffffffffffffffffffffffffffffff1614610c4b576040517f08c379a0000000000000000000000000000000000000000000000000000000008152600401610c4290612b4a565b60405180910390fd5b60004711610c8e576040517f08c379a0000000000000000000000000000000000000000000000000000000008152600401610c8590612bca565b60405180910390fd5b3373ffffffffffffffffffffffffffffffffffffffff166108fc479081150290604051600060405180830381858888f19350505050158015610cd4573d6000803e3d6000fd5b50565b610cdf611d02565b73ffffffffffffffffffffffffffffffffffffffff16610cfd611419565b73ffffffffffffffffffffffffffffffffffffffff1614610d53576040517f08c379a0000000000000000000000000000000000000000000000000000000008152600401610d4a90612b4a565b60405180910390fd5b610d5b611d0a565b565b600060028267ffffffffffffffff1681548110610da3577f4e487b7100000000000000000000000000000000000000000000000000000000600052603260045260246000fd5b9060005260206000209060030201600001549050919050565b60008060149054906101000a900460ff16905090565b600060028267ffffffffffffffff1681548110610e18577f4e487b7100000000000000000000000000000000000000000000000000000000600052603260045260246000fd5b906000526020600020906003020160020160009054906101000a900460ff169050919050565b6000826000151560028267ffffffffffffffff1681548110610e89577f4e487b7100000000000000000000000000000000000000000000000000000000600052603260045260246000fd5b906000526020600020906003020160020160009054906101000a900460ff16151514610eea576040517f08c379a0000000000000000000000000000000000000000000000000000000008152600401610ee190612b6a565b60405180910390fd5b60028467ffffffffffffffff1681548110610f2e577f4e487b7100000000000000000000000000000000000000000000000000000000600052603260045260246000fd5b90600052602060002090600302016001018360ff1681548110610f7a577f4e487b7100000000000000000000000000000000000000000000000000000000600052603260045260246000fd5b90600052602060002090600302016001015491505092915050565b6000610f9f611d02565b73ffffffffffffffffffffffffffffffffffffffff16610fbd611419565b73ffffffffffffffffffffffffffffffffffffffff1614611013576040517f08c379a000000000000000000000000000000000000000000000000000000000815260040161100a90612b4a565b60405180910390fd5b816001151560028267ffffffffffffffff168154811061105c577f4e487b7100000000000000000000000000000000000000000000000000000000600052603260045260246000fd5b906000526020600020906003020160020160009054906101000a900460ff161515146110bd576040517f08c379a00000000000000000000000000000000000000000000000000000000081526004016110b490612ac9565b60405180910390fd5b600060028467ffffffffffffffff1681548110611103577f4e487b7100000000000000000000000000000000000000000000000000000000600052603260045260246000fd5b906000526020600020906003020160020160006101000a81548160ff021916908315150217905550600061113684611dab565b90507f638b96e82cfc7a197bd6be5c176bc949aba7a20600a5d03c74c59cb51355f47a60028567ffffffffffffffff168154811061119d577f4e487b7100000000000000000000000000000000000000000000000000000000600052603260045260246000fd5b90600052602060002090600302016000015482336040516111c093929190612a06565b60405180910390a18092505050919050565b6111da611d02565b73ffffffffffffffffffffffffffffffffffffffff166111f8611419565b73ffffffffffffffffffffffffffffffffffffffff161461124e576040517f08c379a000000000000000000000000000000000000000000000000000000000815260040161124590612b4a565b60405180910390fd5b6112586000611f90565b565b6000806000905060005b60028467ffffffffffffffff16815481106112a8577f4e487b7100000000000000000000000000000000000000000000000000000000600052603260045260246000fd5b9060005260206000209060030201600101805490508160ff1610156113895760028467ffffffffffffffff168154811061130b577f4e487b7100000000000000000000000000000000000000000000000000000000600052603260045260246000fd5b90600052602060002090600302016001018160ff1681548110611357577f4e487b7100000000000000000000000000000000000000000000000000000000600052603260045260246000fd5b906000526020600020906003020160010154826113749190612cd2565b9150808061138190612e48565b915050611264565b5080915050919050565b61139b611d02565b73ffffffffffffffffffffffffffffffffffffffff166113b9611419565b73ffffffffffffffffffffffffffffffffffffffff161461140f576040517f08c379a000000000000000000000000000000000000000000000000000000000815260040161140690612b4a565b60405180910390fd5b611417612054565b565b60008060009054906101000a900473ffffffffffffffffffffffffffffffffffffffff16905090565b600061144c611d02565b73ffffffffffffffffffffffffffffffffffffffff1661146a611419565b73ffffffffffffffffffffffffffffffffffffffff16146114c0576040517f08c379a00000000000000000000000000000000000000000000000000000000081526004016114b790612b4a565b60405180910390fd5b610100825110611505576040517f08c379a00000000000000000000000000000000000000000000000000000000081526004016114fc90612b8a565b60405180910390fd5b6000600360009054906101000a900467ffffffffffffffff1690506003600081819054906101000a900467ffffffffffffffff168092919061154690612e17565b91906101000a81548167ffffffffffffffff021916908367ffffffffffffffff160217905550506002600181600181540180825580915050039060005260206000209050508360028267ffffffffffffffff16815481106115d0577f4e487b7100000000000000000000000000000000000000000000000000000000600052603260045260246000fd5b9060005260206000209060030201600001819055508060028267ffffffffffffffff168154811061162a577f4e487b7100000000000000000000000000000000000000000000000000000000600052603260045260246000fd5b906000526020600020906003020160020160016101000a81548167ffffffffffffffff021916908367ffffffffffffffff16021790555060005b83518160ff16101561179a5760028267ffffffffffffffff16815481106116b4577f4e487b7100000000000000000000000000000000000000000000000000000000600052603260045260246000fd5b90600052602060002090600302016001016040518060600160405280868460ff168151811061170c577f4e487b7100000000000000000000000000000000000000000000000000000000600052603260045260246000fd5b60200260200101518152602001600081526020018360ff168152509080600181540180825580915050600190039060005260206000209060030201600090919091909150600082015181600001556020820151816001015560408201518160020160006101000a81548160ff021916908360ff1602179055505050808061179290612e48565b915050611664565b507fdfb27e2960411d7056c80fb74fb8d21b563bad1e11dd0ce71150ec5c28efcefa8484336040516117ce9392919061299c565b60405180910390a18091505092915050565b60011515600460003373ffffffffffffffffffffffffffffffffffffffff1673ffffffffffffffffffffffffffffffffffffffff16815260200190815260200160002060009054906101000a900460ff16151514611873576040517f08c379a000000000000000000000000000000000000000000000000000000000815260040161186a90612baa565b60405180910390fd5b61187b610dbc565b156118bb576040517f08c379a00000000000000000000000000000000000000000000000000000000081526004016118b290612b2a565b60405180910390fd5b816001151560028267ffffffffffffffff1681548110611904577f4e487b7100000000000000000000000000000000000000000000000000000000600052603260045260246000fd5b906000526020600020906003020160020160009054906101000a900460ff16151514611965576040517f08c379a000000000000000000000000000000000000000000000000000000000815260040161195c90612ac9565b60405180910390fd5b60001515600560003373ffffffffffffffffffffffffffffffffffffffff1673ffffffffffffffffffffffffffffffffffffffff16815260200190815260200160002060008567ffffffffffffffff16815260200190815260200160002060009054906101000a900460ff16151514611a13576040517f08c379a0000000000000000000000000000000000000000000000000000000008152600401611a0a90612a89565b60405180910390fd5b6001600560003373ffffffffffffffffffffffffffffffffffffffff1673ffffffffffffffffffffffffffffffffffffffff16815260200190815260200160002060008567ffffffffffffffff16815260200190815260200160002060006101000a81548160ff02191690831515021790555060028367ffffffffffffffff1681548110611aca577f4e487b7100000000000000000000000000000000000000000000000000000000600052603260045260246000fd5b90600052602060002090600302016001018260ff1681548110611b16577f4e487b7100000000000000000000000000000000000000000000000000000000600052603260045260246000fd5b90600052602060002090600302016001016000815480929190611b3890612dce565b919050555060086000815480929190611b5090612dce565b9190505550505050565b60028181548110611b6a57600080fd5b90600052602060002090600302016000915090508060000154908060020160009054906101000a900460ff16908060020160019054906101000a900467ffffffffffffffff16905083565b60085481565b60056020528160005260406000206020528060005260406000206000915091509054906101000a900460ff1681565b60606040518060600160405280602c8152602001612f55602c9139905090565b611c12611d02565b73ffffffffffffffffffffffffffffffffffffffff16611c30611419565b73ffffffffffffffffffffffffffffffffffffffff1614611c86576040517f08c379a0000000000000000000000000000000000000000000000000000000008152600401611c7d90612b4a565b60405180910390fd5b600073ffffffffffffffffffffffffffffffffffffffff168173ffffffffffffffffffffffffffffffffffffffff161415611cf6576040517f08c379a0000000000000000000000000000000000000000000000000000000008152600401611ced90612a49565b60405180910390fd5b611cff81611f90565b50565b600033905090565b611d12610dbc565b611d51576040517f08c379a0000000000000000000000000000000000000000000000000000000008152600401611d48906129e6565b60405180910390fd5b60008060146101000a81548160ff0219169083151502179055507f5db9ee0a495bf2e6ff9c91a7834c1ba4fdd244a5e8aa4e537bd38aeae4b073aa611d94611d02565b604051611da191906128c9565b60405180910390a1565b6000806000801b90506000805b60028567ffffffffffffffff1681548110611dfc577f4e487b7100000000000000000000000000000000000000000000000000000000600052603260045260246000fd5b9060005260206000209060030201600101805490508160ff161015611f8557600060028667ffffffffffffffff1681548110611e61577f4e487b7100000000000000000000000000000000000000000000000000000000600052603260045260246000fd5b90600052602060002090600302016001018260ff1681548110611ead577f4e487b7100000000000000000000000000000000000000000000000000000000600052603260045260246000fd5b906000526020600020906003020160010154905082811115611f715760028667ffffffffffffffff1681548110611f0d577f4e487b7100000000000000000000000000000000000000000000000000000000600052603260045260246000fd5b90600052602060002090600302016001018260ff1681548110611f59577f4e487b7100000000000000000000000000000000000000000000000000000000600052603260045260246000fd5b90600052602060002090600302016000015493508092505b508080611f7d90612e48565b915050611db8565b508192505050919050565b60008060009054906101000a900473ffffffffffffffffffffffffffffffffffffffff169050816000806101000a81548173ffffffffffffffffffffffffffffffffffffffff021916908373ffffffffffffffffffffffffffffffffffffffff1602179055508173ffffffffffffffffffffffffffffffffffffffff168173ffffffffffffffffffffffffffffffffffffffff167f8be0079c531659141344cd1fd0a4f28419497f9722a3daafe3b4186f6b6457e060405160405180910390a35050565b61205c610dbc565b1561209c576040517f08c379a000000000000000000000000000000000000000000000000000000000815260040161209390612b2a565b60405180910390fd5b6001600060146101000a81548160ff0219169083151502179055507f62e78cea01bee320cd4e420270b5ea74000d11b0c9f74754ebdbfc544b05a2586120e0611d02565b6040516120ed91906128c9565b60405180910390a1565b600061210a61210584612c51565b612c20565b9050808382526020820190508285602086028201111561212957600080fd5b60005b85811015612159578161213f88826121a2565b84526020840193506020830192505060018101905061212c565b5050509392505050565b60008135905061217281612ee1565b92915050565b600082601f83011261218957600080fd5b81356121998482602086016120f7565b91505092915050565b6000813590506121b181612ef8565b92915050565b6000813590506121c681612f0f565b92915050565b6000813590506121db81612f26565b92915050565b6000813590506121f081612f3d565b92915050565b60006020828403121561220857600080fd5b600061221684828501612163565b91505092915050565b6000806040838503121561223257600080fd5b600061224085828601612163565b9250506020612251858286016121b7565b9150509250929050565b6000806040838503121561226e57600080fd5b600061227c858286016121a2565b925050602083013567ffffffffffffffff81111561229957600080fd5b6122a585828601612178565b9150509250929050565b6000602082840312156122c157600080fd5b60006122cf848285016121b7565b91505092915050565b6000602082840312156122ea57600080fd5b60006122f8848285016121cc565b91505092915050565b6000806040838503121561231457600080fd5b6000612322858286016121cc565b9250506020612333858286016121e1565b9150509250929050565b600061234983836123d1565b60208301905092915050565b61235e81612d28565b82525050565b600061236f82612c8d565b6123798185612cb0565b935061238483612c7d565b8060005b838110156123b557815161239c888261233d565b97506123a783612ca3565b925050600181019050612388565b5085935050505092915050565b6123cb81612d3a565b82525050565b6123da81612d46565b82525050565b6123e981612d46565b82525050565b60006123fa82612c98565b6124048185612cc1565b9350612414818560208601612d9b565b61241d81612ed0565b840191505092915050565b7f4e65772043617465676f72790000000000000000000000000000000000000000815250565b600061245b601483612cc1565b91507f5061757361626c653a206e6f74207061757365640000000000000000000000006000830152602082019050919050565b7f43617465676f727920436c6f7365640000000000000000000000000000000000815250565b60006124c1602683612cc1565b91507f4f776e61626c653a206e6577206f776e657220697320746865207a65726f206160008301527f64647265737300000000000000000000000000000000000000000000000000006020830152604082019050919050565b6000612527602483612cc1565b91507f546869732063617465676f72792063616e6e6f74206265206f70656e6564206160008301527f6761696e000000000000000000000000000000000000000000000000000000006020830152604082019050919050565b600061258d602783612cc1565b91507f596f75206861766520616c726561647920766f74656420696e2074686973206360008301527f617465676f7279000000000000000000000000000000000000000000000000006020830152604082019050919050565b60006125f3602283612cc1565b91507f54686973206164647265737320697320616c726561647920726567697374657260008301527f65640000000000000000000000000000000000000000000000000000000000006020830152604082019050919050565b6000612659603b83612cc1565b91507f5468697320616374696f6e2063616e6e6f7420626520706572666f726d65642060008301527f7768656e207468652063617465676f727920697320636c6f73656400000000006020830152604082019050919050565b7f43617465676f7279204f70656e65640000000000000000000000000000000000815250565b60006126e5601083612cc1565b91507f5061757361626c653a20706175736564000000000000000000000000000000006000830152602082019050919050565b6000612725602083612cc1565b91507f4f776e61626c653a2063616c6c6572206973206e6f7420746865206f776e65726000830152602082019050919050565b6000612765603983612cc1565b91507f5468697320616374696f6e2063616e6e6f7420626520706572666f726d65642060008301527f7768656e207468652063617465676f7279206973206f70656e000000000000006020830152604082019050919050565b60006127cb601e83612cc1565b91507f54686572652061726520746f6f206d616e792063616e646964617465732e00006000830152602082019050919050565b600061280b602983612cc1565b91507f546869732077616c6c65742061646472657373206973206e6f7420796574207260008301527f65676973746572656400000000000000000000000000000000000000000000006020830152604082019050919050565b6000815250565b6000612878601483612cc1565b91507f4e6f2066756e647320696e20636f6e74726163740000000000000000000000006000830152602082019050919050565b6128b481612d70565b82525050565b6128c381612d7a565b82525050565b60006020820190506128de6000830184612355565b92915050565b60006040820190506128f96000830185612355565b61290660208301846128ab565b9392505050565b600060208201905061292260008301846123c2565b92915050565b600060208201905061293d60008301846123e0565b92915050565b600060608201905061295860008301866123e0565b61296560208301856123c2565b61297260408301846128ba565b949350505050565b6000602082019050818103600083015261299481846123ef565b905092915050565b60006080820190506129b060008301612428565b6129bd60208301866123e0565b81810360408301526129cf8185612364565b90506129de6060830184612355565b949350505050565b600060208201905081810360008301526129ff8161244e565b9050919050565b6000608082019050612a1a6000830161248e565b612a2760208301866123e0565b612a3460408301856123e0565b612a416060830184612355565b949350505050565b60006020820190508181036000830152612a62816124b4565b9050919050565b60006020820190508181036000830152612a828161251a565b9050919050565b60006020820190508181036000830152612aa281612580565b9050919050565b60006020820190508181036000830152612ac2816125e6565b9050919050565b60006020820190508181036000830152612ae28161264c565b9050919050565b6000608082019050612afd600083016126b2565b612b0a60208301856123e0565b612b1660408301612864565b612b236060830184612355565b9392505050565b60006020820190508181036000830152612b43816126d8565b9050919050565b60006020820190508181036000830152612b6381612718565b9050919050565b60006020820190508181036000830152612b8381612758565b9050919050565b60006020820190508181036000830152612ba3816127be565b9050919050565b60006020820190508181036000830152612bc3816127fe565b9050919050565b60006020820190508181036000830152612be38161286b565b9050919050565b6000602082019050612bff60008301846128ab565b92915050565b6000602082019050612c1a60008301846128ba565b92915050565b6000604051905081810181811067ffffffffffffffff82111715612c4757612c46612ea1565b5b8060405250919050565b600067ffffffffffffffff821115612c6c57612c6b612ea1565b5b602082029050602081019050919050565b6000819050602082019050919050565b600081519050919050565b600081519050919050565b6000602082019050919050565b600082825260208201905092915050565b600082825260208201905092915050565b6000612cdd82612d70565b9150612ce883612d70565b9250827fffffffffffffffffffffffffffffffffffffffffffffffffffffffffffffffff03821115612d1d57612d1c612e72565b5b828201905092915050565b6000612d3382612d50565b9050919050565b60008115159050919050565b6000819050919050565b600073ffffffffffffffffffffffffffffffffffffffff82169050919050565b6000819050919050565b600067ffffffffffffffff82169050919050565b600060ff82169050919050565b60005b83811015612db9578082015181840152602081019050612d9e565b83811115612dc8576000848401525b50505050565b6000612dd982612d70565b91507fffffffffffffffffffffffffffffffffffffffffffffffffffffffffffffffff821415612e0c57612e0b612e72565b5b600182019050919050565b6000612e2282612d7a565b915067ffffffffffffffff821415612e3d57612e3c612e72565b5b600182019050919050565b6000612e5382612d8e565b915060ff821415612e6757612e66612e72565b5b600182019050919050565b7f4e487b7100000000000000000000000000000000000000000000000000000000600052601160045260246000fd5b7f4e487b7100000000000000000000000000000000000000000000000000000000600052604160045260246000fd5b6000601f19601f8301169050919050565b612eea81612d28565b8114612ef557600080fd5b50565b612f0181612d46565b8114612f0c57600080fd5b50565b612f1881612d70565b8114612f2357600080fd5b50565b612f2f81612d7a565b8114612f3a57600080fd5b50565b612f4681612d8e565b8114612f5157600080fd5b5056fe68656c6c6f2c2074686520636f6e747261637420776173207375636365737366756c6c792075706461746564a264697066735822122015df404abd0b0c6e686b9ce231a9029d4055fe2a89391bc46bf8227476480f3564736f6c63430008000033",
  "linkReferences": {},
  "deployedLinkReferences": {}
}