{
  "_format": "hh-sol-artifact-1",
  "contractName": "VotingBoothUpdated",
  "sourceName": "contracts/Voting_Booth_Updated.sol",
  "abi": [
    {
      "anonymous": false,
      "inputs": [
        {
          "indexed": true,
          "internalType": "address",
          "name": "previousOwner",
          "type": "address"
        },
        {
          "indexed": true,
          "internalType": "address",
          "name": "newOwner",
          "type": "address"
        }
      ],
      "name": "OwnershipTransferred",
      "type": "event"
    },
    {
      "anonymous": false,
      "inputs": [
        {
          "indexed": false,
          "internalType": "address",
          "name": "account",
          "type": "address"
        }
      ],
      "name": "Paused",
      "type": "event"
    },
    {
      "anonymous": false,
      "inputs": [
        {
          "indexed": false,
          "internalType": "address",
          "name": "account",
          "type": "address"
        }
      ],
      "name": "Unpaused",
      "type": "event"
    },
    {
      "anonymous": false,
      "inputs": [
        {
          "indexed": false,
          "internalType": "bytes32",
          "name": "_func",
          "type": "bytes32"
        },
        {
          "indexed": false,
          "internalType": "bytes32",
          "name": "_categoryName",
          "type": "bytes32"
        },
        {
          "indexed": false,
          "internalType": "bytes32[]",
          "name": "_candidateNames",
          "type": "bytes32[]"
        },
        {
          "indexed": false,
          "internalType": "address",
          "name": "_from",
          "type": "address"
        }
      ],
      "name": "categorySet",
      "type": "event"
    },
    {
      "anonymous": false,
      "inputs": [
        {
          "indexed": false,
          "internalType": "bytes32",
          "name": "_func",
          "type": "bytes32"
        },
        {
          "indexed": false,
          "internalType": "bytes32",
          "name": "_categoryName",
          "type": "bytes32"
        },
        {
          "indexed": false,
          "internalType": "bytes32",
          "name": "_winner",
          "type": "bytes32"
        },
        {
          "indexed": false,
          "internalType": "address",
          "name": "_from",
          "type": "address"
        }
      ],
      "name": "categoryStatusChange",
      "type": "event"
    },
    {
      "anonymous": false,
      "inputs": [
        {
          "indexed": false,
          "internalType": "address",
          "name": "_donator",
          "type": "address"
        },
        {
          "indexed": false,
          "internalType": "uint256",
          "name": "_amount",
          "type": "uint256"
        }
      ],
      "name": "donationReceived",
      "type": "event"
    },
    {
      "inputs": [
        {
          "internalType": "address",
          "name": "",
          "type": "address"
        }
      ],
      "name": "_addressboolStorage",
      "outputs": [
        {
          "internalType": "bool",
          "name": "",
          "type": "bool"
        }
      ],
      "stateMutability": "view",
      "type": "function"
    },
    {
      "inputs": [
        {
          "internalType": "address",
          "name": "",
          "type": "address"
        }
      ],
      "name": "_addressuintStorage",
      "outputs": [
        {
          "internalType": "uint64",
          "name": "",
          "type": "uint64"
        }
      ],
      "stateMutability": "view",
      "type": "function"
    },
    {
      "inputs": [
        {
          "internalType": "address",
          "name": "",
          "type": "address"
        },
        {
          "internalType": "uint256",
          "name": "",
          "type": "uint256"
        }
      ],
      "name": "_boolVoter",
      "outputs": [
        {
          "internalType": "bool",
          "name": "",
          "type": "bool"
        }
      ],
      "stateMutability": "view",
      "type": "function"
    },
    {
      "inputs": [],
      "name": "_catCounter",
      "outputs": [
        {
          "internalType": "uint64",
          "name": "",
          "type": "uint64"
        }
      ],
      "stateMutability": "view",
      "type": "function"
    },
    {
      "inputs": [
        {
          "internalType": "uint64",
          "name": "",
          "type": "uint64"
        }
      ],
      "name": "_openedOnce",
      "outputs": [
        {
          "internalType": "bool",
          "name": "",
          "type": "bool"
        }
      ],
      "stateMutability": "view",
      "type": "function"
    },
    {
      "inputs": [
        {
          "internalType": "address",
          "name": "",
          "type": "address"
        }
      ],
      "name": "_registry",
      "outputs": [
        {
          "internalType": "bool",
          "name": "",
          "type": "bool"
        }
      ],
      "stateMutability": "view",
      "type": "function"
    },
    {
      "inputs": [],
      "name": "_totalVotes",
      "outputs": [
        {
          "internalType": "uint256",
          "name": "",
          "type": "uint256"
        }
      ],
      "stateMutability": "view",
      "type": "function"
    },
    {
      "inputs": [
        {
          "internalType": "uint64",
          "name": "",
          "type": "uint64"
        }
      ],
      "name": "_uintboolStorage",
      "outputs": [
        {
          "internalType": "bool",
          "name": "",
          "type": "bool"
        }
      ],
      "stateMutability": "view",
      "type": "function"
    },
    {
      "inputs": [],
      "name": "_voterCount",
      "outputs": [
        {
          "internalType": "uint64",
          "name": "",
          "type": "uint64"
        }
      ],
      "stateMutability": "view",
      "type": "function"
    },
    {
      "inputs": [
        {
          "internalType": "uint64",
          "name": "_catId",
          "type": "uint64"
        },
        {
          "internalType": "uint8",
          "name": "_canId",
          "type": "uint8"
        }
      ],
      "name": "castVote",
      "outputs": [],
      "stateMutability": "nonpayable",
      "type": "function"
    },
    {
      "inputs": [
        {
          "internalType": "uint256",
          "name": "",
          "type": "uint256"
        }
      ],
      "name": "categories",
      "outputs": [
        {
          "internalType": "bytes32",
          "name": "name",
          "type": "bytes32"
        },
        {
          "internalType": "bool",
          "name": "open",
          "type": "bool"
        },
        {
          "internalType": "uint64",
          "name": "catId",
          "type": "uint64"
        }
      ],
      "stateMutability": "view",
      "type": "function"
    },
    {
      "inputs": [
        {
          "internalType": "uint64",
          "name": "_catId",
          "type": "uint64"
        }
      ],
      "name": "closeCategory",
      "outputs": [
        {
          "internalType": "bytes32",
          "name": "",
          "type": "bytes32"
        }
      ],
      "stateMutability": "nonpayable",
      "type": "function"
    },
    {
      "inputs": [],
      "name": "currentFuncAddress",
      "outputs": [
        {
          "internalType": "address",
          "name": "",
          "type": "address"
        }
      ],
      "stateMutability": "view",
      "type": "function"
    },
    {
      "inputs": [
        {
          "internalType": "uint64",
          "name": "_catId",
          "type": "uint64"
        },
        {
          "internalType": "uint8",
          "name": "_canId",
          "type": "uint8"
        }
      ],
      "name": "getCandidate",
      "outputs": [
        {
          "internalType": "bytes32",
          "name": "",
          "type": "bytes32"
        }
      ],
      "stateMutability": "view",
      "type": "function"
    },
    {
      "inputs": [
        {
          "internalType": "uint64",
          "name": "_catId",
          "type": "uint64"
        },
        {
          "internalType": "uint8",
          "name": "_canId",
          "type": "uint8"
        }
      ],
      "name": "getCandidateVotes",
      "outputs": [
        {
          "internalType": "uint256",
          "name": "",
          "type": "uint256"
        }
      ],
      "stateMutability": "view",
      "type": "function"
    },
    {
      "inputs": [
        {
          "internalType": "uint64",
          "name": "_catId",
          "type": "uint64"
        }
      ],
      "name": "getCategoryName",
      "outputs": [
        {
          "internalType": "bytes32",
          "name": "",
          "type": "bytes32"
        }
      ],
      "stateMutability": "view",
      "type": "function"
    },
    {
      "inputs": [
        {
          "internalType": "uint64",
          "name": "_catId",
          "type": "uint64"
        }
      ],
      "name": "getCategoryOpen",
      "outputs": [
        {
          "internalType": "bool",
          "name": "",
          "type": "bool"
        }
      ],
      "stateMutability": "view",
      "type": "function"
    },
    {
      "inputs": [
        {
          "internalType": "uint64",
          "name": "_catId",
          "type": "uint64"
        }
      ],
      "name": "getCategoryVotes",
      "outputs": [
        {
          "internalType": "uint256",
          "name": "",
          "type": "uint256"
        }
      ],
      "stateMutability": "view",
      "type": "function"
    },
    {
      "inputs": [
        {
          "internalType": "uint64",
          "name": "_catId",
          "type": "uint64"
        }
      ],
      "name": "openCategory",
      "outputs": [],
      "stateMutability": "nonpayable",
      "type": "function"
    },
    {
      "inputs": [],
      "name": "owner",
      "outputs": [
        {
          "internalType": "address",
          "name": "",
          "type": "address"
        }
      ],
      "stateMutability": "view",
      "type": "function"
    },
    {
      "inputs": [],
      "name": "pause",
      "outputs": [],
      "stateMutability": "nonpayable",
      "type": "function"
    },
    {
      "inputs": [],
      "name": "paused",
      "outputs": [
        {
          "internalType": "bool",
          "name": "",
          "type": "bool"
        }
      ],
      "stateMutability": "view",
      "type": "function"
    },
    {
      "inputs": [],
      "name": "register",
      "outputs": [],
      "stateMutability": "nonpayable",
      "type": "function"
    },
    {
      "inputs": [],
      "name": "renounceOwnership",
      "outputs": [],
      "stateMutability": "nonpayable",
      "type": "function"
    },
    {
      "inputs": [],
      "name": "sayHello",
      "outputs": [
        {
          "internalType": "string",
          "name": "",
          "type": "string"
        }
      ],
      "stateMutability": "pure",
      "type": "function"
    },
    {
      "inputs": [
        {
          "internalType": "bytes32",
          "name": "_category",
          "type": "bytes32"
        },
        {
          "internalType": "bytes32[]",
          "name": "_candidates",
          "type": "bytes32[]"
        }
      ],
      "name": "setCategory",
      "outputs": [
        {
          "internalType": "uint64",
          "name": "",
          "type": "uint64"
        }
      ],
      "stateMutability": "nonpayable",
      "type": "function"
    },
    {
      "inputs": [
        {
          "internalType": "address",
          "name": "newOwner",
          "type": "address"
        }
      ],
      "name": "transferOwnership",
      "outputs": [],
      "stateMutability": "nonpayable",
      "type": "function"
    },
    {
      "inputs": [],
      "name": "uintStorage1",
      "outputs": [
        {
          "internalType": "uint256",
          "name": "",
          "type": "uint256"
        }
      ],
      "stateMutability": "view",
      "type": "function"
    },
    {
      "inputs": [],
      "name": "uintStorage2",
      "outputs": [
        {
          "internalType": "uint256",
          "name": "",
          "type": "uint256"
        }
      ],
      "stateMutability": "view",
      "type": "function"
    },
    {
      "inputs": [],
      "name": "uintStorage3",
      "outputs": [
        {
          "internalType": "uint256",
          "name": "",
          "type": "uint256"
        }
      ],
      "stateMutability": "view",
      "type": "function"
    },
    {
      "inputs": [],
      "name": "unpause",
      "outputs": [],
      "stateMutability": "nonpayable",
      "type": "function"
    },
    {
      "inputs": [],
      "name": "withdraw",
      "outputs": [],
      "stateMutability": "nonpayable",
      "type": "function"
    },
    {
      "stateMutability": "payable",
      "type": "receive"
    }
  ],
  "bytecode": "0x60806040523480156200001157600080fd5b5062000032620000266200005260201b60201c565b6200005a60201b60201c565b60008060146101000a81548160ff0219169083151502179055506200011e565b600033905090565b60008060009054906101000a900473ffffffffffffffffffffffffffffffffffffffff169050816000806101000a81548173ffffffffffffffffffffffffffffffffffffffff021916908373ffffffffffffffffffffffffffffffffffffffff1602179055508173ffffffffffffffffffffffffffffffffffffffff168173ffffffffffffffffffffffffffffffffffffffff167f8be0079c531659141344cd1fd0a4f28419497f9722a3daafe3b4186f6b6457e060405160405180910390a35050565b613229806200012e6000396000f3fe6080604052600436106101e65760003560e01c8063715018a611610102578063c6cdbe5e11610095578063eb77c40f11610064578063eb77c40f14610763578063ef5fb05b146107a0578063f2fde38b146107cb578063f3e672eb146107f457610226565b8063c6cdbe5e14610691578063cb0a8211146106d0578063ce4ec048146106fb578063d42f3fbc1461072657610226565b80638da5cb5b116100d15780638da5cb5b146105d557806396875a3c1461060057806399ef6ccb1461062b578063aa8992141461066857610226565b8063715018a61461052d5780637c8fee461461054457806380417bfb146105815780638456cb59146105be57610226565b80633ccfd60b1161017a5780635c975abb116101495780635c975abb1461044b578063662efa43146104765780636bda58f9146104b35780636d93d0d8146104f057610226565b80633ccfd60b146103a35780633f4ba83a146103ba5780635133342b146103d1578063519e22fb1461040e57610226565b80631af5fd02116101b65780631af5fd02146102e55780631ddbcbb1146103105780632e0d75731461034d578063317cc82d1461037857610226565b80624554691461022b57806302c3307d1461026857806308e67038146102915780631aa3a008146102ce57610226565b36610226577fe2639ef551ad89950da1145fe1fd600e818336d6e8aa88426efe387c49accebb333460405161021c929190612b57565b60405180910390a1005b600080fd5b34801561023757600080fd5b50610252600480360381019061024d9190612574565b61081f565b60405161025f9190612b9b565b60405180910390f35b34801561027457600080fd5b5061028f600480360381019061028a919061254b565b6108cb565b005b34801561029d57600080fd5b506102b860048036038101906102b39190612469565b610bac565b6040516102c59190612b80565b60405180910390f35b3480156102da57600080fd5b506102e3610bcc565b005b3480156102f157600080fd5b506102fa610d4f565b6040516103079190612b3c565b60405180910390f35b34801561031c57600080fd5b506103376004803603810190610332919061254b565b610d75565b6040516103449190612b80565b60405180910390f35b34801561035957600080fd5b50610362610d95565b60405161036f9190612e78565b60405180910390f35b34801561038457600080fd5b5061038d610daf565b60405161039a9190612e78565b60405180910390f35b3480156103af57600080fd5b506103b8610dc9565b005b3480156103c657600080fd5b506103cf610ed1565b005b3480156103dd57600080fd5b506103f860048036038101906103f3919061254b565b610f57565b6040516104059190612b9b565b60405180910390f35b34801561041a57600080fd5b5061043560048036038101906104309190612469565b610fb6565b6040516104429190612e78565b60405180910390f35b34801561045757600080fd5b50610460610fdd565b60405161046d9190612b80565b60405180910390f35b34801561048257600080fd5b5061049d6004803603810190610498919061254b565b610ff3565b6040516104aa9190612b80565b60405180910390f35b3480156104bf57600080fd5b506104da60048036038101906104d59190612574565b61105f565b6040516104e79190612e5d565b60405180910390f35b3480156104fc57600080fd5b506105176004803603810190610512919061254b565b6111b6565b6040516105249190612b9b565b60405180910390f35b34801561053957600080fd5b506105426113f3565b005b34801561055057600080fd5b5061056b6004803603810190610566919061254b565b61147b565b6040516105789190612b80565b60405180910390f35b34801561058d57600080fd5b506105a860048036038101906105a3919061254b565b61149b565b6040516105b59190612e5d565b60405180910390f35b3480156105ca57600080fd5b506105d36115d4565b005b3480156105e157600080fd5b506105ea61165a565b6040516105f79190612b3c565b60405180910390f35b34801561060c57600080fd5b50610615611683565b6040516106229190612e5d565b60405180910390f35b34801561063757600080fd5b50610652600480360381019061064d91906124ce565b611689565b60405161065f9190612e78565b60405180910390f35b34801561067457600080fd5b5061068f600480360381019061068a9190612574565b611a27565b005b34801561069d57600080fd5b506106b860048036038101906106b39190612522565b611da1565b6040516106c793929190612bb6565b60405180910390f35b3480156106dc57600080fd5b506106e5611dfc565b6040516106f29190612e5d565b60405180910390f35b34801561070757600080fd5b50610710611e02565b60405161071d9190612e5d565b60405180910390f35b34801561073257600080fd5b5061074d60048036038101906107489190612469565b611e08565b60405161075a9190612b80565b60405180910390f35b34801561076f57600080fd5b5061078a60048036038101906107859190612492565b611e28565b6040516107979190612b80565b60405180910390f35b3480156107ac57600080fd5b506107b5611e57565b6040516107c29190612bed565b60405180910390f35b3480156107d757600080fd5b506107f260048036038101906107ed9190612469565b611e77565b005b34801561080057600080fd5b50610809611f6f565b6040516108169190612e5d565b60405180910390f35b600060028367ffffffffffffffff1681548110610865577f4e487b7100000000000000000000000000000000000000000000000000000000600052603260045260246000fd5b90600052602060002090600302016001018260ff16815481106108b1577f4e487b7100000000000000000000000000000000000000000000000000000000600052603260045260246000fd5b906000526020600020906003020160000154905092915050565b6108d3611f75565b73ffffffffffffffffffffffffffffffffffffffff166108f161165a565b73ffffffffffffffffffffffffffffffffffffffff1614610947576040517f08c379a000000000000000000000000000000000000000000000000000000000815260040161093e90612dbd565b60405180910390fd5b806000151560028267ffffffffffffffff1681548110610990577f4e487b7100000000000000000000000000000000000000000000000000000000600052603260045260246000fd5b906000526020600020906003020160020160009054906101000a900460ff161515146109f1576040517f08c379a00000000000000000000000000000000000000000000000000000000081526004016109e890612ddd565b60405180910390fd5b60001515600660008467ffffffffffffffff1667ffffffffffffffff16815260200190815260200160002060009054906101000a900460ff16151514610a6c576040517f08c379a0000000000000000000000000000000000000000000000000000000008152600401610a6390612cdc565b60405180910390fd5b6001600660008467ffffffffffffffff1667ffffffffffffffff16815260200190815260200160002060006101000a81548160ff021916908315150217905550600160028367ffffffffffffffff1681548110610af2577f4e487b7100000000000000000000000000000000000000000000000000000000600052603260045260246000fd5b906000526020600020906003020160020160006101000a81548160ff0219169083151502179055507f638b96e82cfc7a197bd6be5c176bc949aba7a20600a5d03c74c59cb51355f47a60028367ffffffffffffffff1681548110610b7f577f4e487b7100000000000000000000000000000000000000000000000000000000600052603260045260246000fd5b90600052602060002090600302016000015433604051610ba0929190612d5c565b60405180910390a15050565b60046020528060005260406000206000915054906101000a900460ff1681565b610bd4610fdd565b15610c14576040517f08c379a0000000000000000000000000000000000000000000000000000000008152600401610c0b90612d9d565b60405180910390fd5b60011515600460003373ffffffffffffffffffffffffffffffffffffffff1673ffffffffffffffffffffffffffffffffffffffff16815260200190815260200160002060009054906101000a900460ff1615151415610ca8576040517f08c379a0000000000000000000000000000000000000000000000000000000008152600401610c9f90612d1c565b60405180910390fd5b6001600460003373ffffffffffffffffffffffffffffffffffffffff1673ffffffffffffffffffffffffffffffffffffffff16815260200190815260200160002060006101000a81548160ff0219169083151502179055506007600081819054906101000a900467ffffffffffffffff1680929190610d269061308a565b91906101000a81548167ffffffffffffffff021916908367ffffffffffffffff16021790555050565b600160009054906101000a900473ffffffffffffffffffffffffffffffffffffffff1681565b60066020528060005260406000206000915054906101000a900460ff1681565b600360009054906101000a900467ffffffffffffffff1681565b600760009054906101000a900467ffffffffffffffff1681565b610dd1611f75565b73ffffffffffffffffffffffffffffffffffffffff16610def61165a565b73ffffffffffffffffffffffffffffffffffffffff1614610e45576040517f08c379a0000000000000000000000000000000000000000000000000000000008152600401610e3c90612dbd565b60405180910390fd5b60004711610e88576040517f08c379a0000000000000000000000000000000000000000000000000000000008152600401610e7f90612e3d565b60405180910390fd5b3373ffffffffffffffffffffffffffffffffffffffff166108fc479081150290604051600060405180830381858888f19350505050158015610ece573d6000803e3d6000fd5b50565b610ed9611f75565b73ffffffffffffffffffffffffffffffffffffffff16610ef761165a565b73ffffffffffffffffffffffffffffffffffffffff1614610f4d576040517f08c379a0000000000000000000000000000000000000000000000000000000008152600401610f4490612dbd565b60405180910390fd5b610f55611f7d565b565b600060028267ffffffffffffffff1681548110610f9d577f4e487b7100000000000000000000000000000000000000000000000000000000600052603260045260246000fd5b9060005260206000209060030201600001549050919050565b600b6020528060005260406000206000915054906101000a900467ffffffffffffffff1681565b60008060149054906101000a900460ff16905090565b600060028267ffffffffffffffff1681548110611039577f4e487b7100000000000000000000000000000000000000000000000000000000600052603260045260246000fd5b906000526020600020906003020160020160009054906101000a900460ff169050919050565b6000826000151560028267ffffffffffffffff16815481106110aa577f4e487b7100000000000000000000000000000000000000000000000000000000600052603260045260246000fd5b906000526020600020906003020160020160009054906101000a900460ff1615151461110b576040517f08c379a000000000000000000000000000000000000000000000000000000000815260040161110290612ddd565b60405180910390fd5b60028467ffffffffffffffff168154811061114f577f4e487b7100000000000000000000000000000000000000000000000000000000600052603260045260246000fd5b90600052602060002090600302016001018360ff168154811061119b577f4e487b7100000000000000000000000000000000000000000000000000000000600052603260045260246000fd5b90600052602060002090600302016001015491505092915050565b60006111c0611f75565b73ffffffffffffffffffffffffffffffffffffffff166111de61165a565b73ffffffffffffffffffffffffffffffffffffffff1614611234576040517f08c379a000000000000000000000000000000000000000000000000000000000815260040161122b90612dbd565b60405180910390fd5b816001151560028267ffffffffffffffff168154811061127d577f4e487b7100000000000000000000000000000000000000000000000000000000600052603260045260246000fd5b906000526020600020906003020160020160009054906101000a900460ff161515146112de576040517f08c379a00000000000000000000000000000000000000000000000000000000081526004016112d590612d3c565b60405180910390fd5b600060028467ffffffffffffffff1681548110611324577f4e487b7100000000000000000000000000000000000000000000000000000000600052603260045260246000fd5b906000526020600020906003020160020160006101000a81548160ff02191690831515021790555060006113578461201e565b90507f638b96e82cfc7a197bd6be5c176bc949aba7a20600a5d03c74c59cb51355f47a60028567ffffffffffffffff16815481106113be577f4e487b7100000000000000000000000000000000000000000000000000000000600052603260045260246000fd5b90600052602060002090600302016000015482336040516113e193929190612c79565b60405180910390a18092505050919050565b6113fb611f75565b73ffffffffffffffffffffffffffffffffffffffff1661141961165a565b73ffffffffffffffffffffffffffffffffffffffff161461146f576040517f08c379a000000000000000000000000000000000000000000000000000000000815260040161146690612dbd565b60405180910390fd5b6114796000612203565b565b60096020528060005260406000206000915054906101000a900460ff1681565b6000806000905060005b60028467ffffffffffffffff16815481106114e9577f4e487b7100000000000000000000000000000000000000000000000000000000600052603260045260246000fd5b9060005260206000209060030201600101805490508160ff1610156115ca5760028467ffffffffffffffff168154811061154c577f4e487b7100000000000000000000000000000000000000000000000000000000600052603260045260246000fd5b90600052602060002090600302016001018160ff1681548110611598577f4e487b7100000000000000000000000000000000000000000000000000000000600052603260045260246000fd5b906000526020600020906003020160010154826115b59190612f45565b915080806115c2906130bb565b9150506114a5565b5080915050919050565b6115dc611f75565b73ffffffffffffffffffffffffffffffffffffffff166115fa61165a565b73ffffffffffffffffffffffffffffffffffffffff1614611650576040517f08c379a000000000000000000000000000000000000000000000000000000000815260040161164790612dbd565b60405180910390fd5b6116586122c7565b565b60008060009054906101000a900473ffffffffffffffffffffffffffffffffffffffff16905090565b600c5481565b6000611693611f75565b73ffffffffffffffffffffffffffffffffffffffff166116b161165a565b73ffffffffffffffffffffffffffffffffffffffff1614611707576040517f08c379a00000000000000000000000000000000000000000000000000000000081526004016116fe90612dbd565b60405180910390fd5b61010082511061174c576040517f08c379a000000000000000000000000000000000000000000000000000000000815260040161174390612dfd565b60405180910390fd5b6000600360009054906101000a900467ffffffffffffffff1690506003600081819054906101000a900467ffffffffffffffff168092919061178d9061308a565b91906101000a81548167ffffffffffffffff021916908367ffffffffffffffff160217905550506002600181600181540180825580915050039060005260206000209050508360028267ffffffffffffffff1681548110611817577f4e487b7100000000000000000000000000000000000000000000000000000000600052603260045260246000fd5b9060005260206000209060030201600001819055508060028267ffffffffffffffff1681548110611871577f4e487b7100000000000000000000000000000000000000000000000000000000600052603260045260246000fd5b906000526020600020906003020160020160016101000a81548167ffffffffffffffff021916908367ffffffffffffffff16021790555060005b83518160ff1610156119e15760028267ffffffffffffffff16815481106118fb577f4e487b7100000000000000000000000000000000000000000000000000000000600052603260045260246000fd5b90600052602060002090600302016001016040518060600160405280868460ff1681518110611953577f4e487b7100000000000000000000000000000000000000000000000000000000600052603260045260246000fd5b60200260200101518152602001600081526020018360ff168152509080600181540180825580915050600190039060005260206000209060030201600090919091909150600082015181600001556020820151816001015560408201518160020160006101000a81548160ff021916908360ff160217905550505080806119d9906130bb565b9150506118ab565b507fdfb27e2960411d7056c80fb74fb8d21b563bad1e11dd0ce71150ec5c28efcefa848433604051611a1593929190612c0f565b60405180910390a18091505092915050565b60011515600460003373ffffffffffffffffffffffffffffffffffffffff1673ffffffffffffffffffffffffffffffffffffffff16815260200190815260200160002060009054906101000a900460ff16151514611aba576040517f08c379a0000000000000000000000000000000000000000000000000000000008152600401611ab190612e1d565b60405180910390fd5b611ac2610fdd565b15611b02576040517f08c379a0000000000000000000000000000000000000000000000000000000008152600401611af990612d9d565b60405180910390fd5b816001151560028267ffffffffffffffff1681548110611b4b577f4e487b7100000000000000000000000000000000000000000000000000000000600052603260045260246000fd5b906000526020600020906003020160020160009054906101000a900460ff16151514611bac576040517f08c379a0000000000000000000000000000000000000000000000000000000008152600401611ba390612d3c565b60405180910390fd5b60001515600560003373ffffffffffffffffffffffffffffffffffffffff1673ffffffffffffffffffffffffffffffffffffffff16815260200190815260200160002060008567ffffffffffffffff16815260200190815260200160002060009054906101000a900460ff16151514611c5a576040517f08c379a0000000000000000000000000000000000000000000000000000000008152600401611c5190612cfc565b60405180910390fd5b6001600560003373ffffffffffffffffffffffffffffffffffffffff1673ffffffffffffffffffffffffffffffffffffffff16815260200190815260200160002060008567ffffffffffffffff16815260200190815260200160002060006101000a81548160ff02191690831515021790555060028367ffffffffffffffff1681548110611d11577f4e487b7100000000000000000000000000000000000000000000000000000000600052603260045260246000fd5b90600052602060002090600302016001018260ff1681548110611d5d577f4e487b7100000000000000000000000000000000000000000000000000000000600052603260045260246000fd5b90600052602060002090600302016001016000815480929190611d7f90613041565b919050555060086000815480929190611d9790613041565b9190505550505050565b60028181548110611db157600080fd5b90600052602060002090600302016000915090508060000154908060020160009054906101000a900460ff16908060020160019054906101000a900467ffffffffffffffff16905083565b600d5481565b60085481565b600a6020528060005260406000206000915054906101000a900460ff1681565b60056020528160005260406000206020528060005260406000206000915091509054906101000a900460ff1681565b60606040518060600160405280602c81526020016131c8602c9139905090565b611e7f611f75565b73ffffffffffffffffffffffffffffffffffffffff16611e9d61165a565b73ffffffffffffffffffffffffffffffffffffffff1614611ef3576040517f08c379a0000000000000000000000000000000000000000000000000000000008152600401611eea90612dbd565b60405180910390fd5b600073ffffffffffffffffffffffffffffffffffffffff168173ffffffffffffffffffffffffffffffffffffffff161415611f63576040517f08c379a0000000000000000000000000000000000000000000000000000000008152600401611f5a90612cbc565b60405180910390fd5b611f6c81612203565b50565b600e5481565b600033905090565b611f85610fdd565b611fc4576040517f08c379a0000000000000000000000000000000000000000000000000000000008152600401611fbb90612c59565b60405180910390fd5b60008060146101000a81548160ff0219169083151502179055507f5db9ee0a495bf2e6ff9c91a7834c1ba4fdd244a5e8aa4e537bd38aeae4b073aa612007611f75565b6040516120149190612b3c565b60405180910390a1565b6000806000801b90506000805b60028567ffffffffffffffff168154811061206f577f4e487b7100000000000000000000000000000000000000000000000000000000600052603260045260246000fd5b9060005260206000209060030201600101805490508160ff1610156121f857600060028667ffffffffffffffff16815481106120d4577f4e487b7100000000000000000000000000000000000000000000000000000000600052603260045260246000fd5b90600052602060002090600302016001018260ff1681548110612120577f4e487b7100000000000000000000000000000000000000000000000000000000600052603260045260246000fd5b9060005260206000209060030201600101549050828111156121e45760028667ffffffffffffffff1681548110612180577f4e487b7100000000000000000000000000000000000000000000000000000000600052603260045260246000fd5b90600052602060002090600302016001018260ff16815481106121cc577f4e487b7100000000000000000000000000000000000000000000000000000000600052603260045260246000fd5b90600052602060002090600302016000015493508092505b5080806121f0906130bb565b91505061202b565b508192505050919050565b60008060009054906101000a900473ffffffffffffffffffffffffffffffffffffffff169050816000806101000a81548173ffffffffffffffffffffffffffffffffffffffff021916908373ffffffffffffffffffffffffffffffffffffffff1602179055508173ffffffffffffffffffffffffffffffffffffffff168173ffffffffffffffffffffffffffffffffffffffff167f8be0079c531659141344cd1fd0a4f28419497f9722a3daafe3b4186f6b6457e060405160405180910390a35050565b6122cf610fdd565b1561230f576040517f08c379a000000000000000000000000000000000000000000000000000000000815260040161230690612d9d565b60405180910390fd5b6001600060146101000a81548160ff0219169083151502179055507f62e78cea01bee320cd4e420270b5ea74000d11b0c9f74754ebdbfc544b05a258612353611f75565b6040516123609190612b3c565b60405180910390a1565b600061237d61237884612ec4565b612e93565b9050808382526020820190508285602086028201111561239c57600080fd5b60005b858110156123cc57816123b28882612415565b84526020840193506020830192505060018101905061239f565b5050509392505050565b6000813590506123e581613154565b92915050565b600082601f8301126123fc57600080fd5b813561240c84826020860161236a565b91505092915050565b6000813590506124248161316b565b92915050565b60008135905061243981613182565b92915050565b60008135905061244e81613199565b92915050565b600081359050612463816131b0565b92915050565b60006020828403121561247b57600080fd5b6000612489848285016123d6565b91505092915050565b600080604083850312156124a557600080fd5b60006124b3858286016123d6565b92505060206124c48582860161242a565b9150509250929050565b600080604083850312156124e157600080fd5b60006124ef85828601612415565b925050602083013567ffffffffffffffff81111561250c57600080fd5b612518858286016123eb565b9150509250929050565b60006020828403121561253457600080fd5b60006125428482850161242a565b91505092915050565b60006020828403121561255d57600080fd5b600061256b8482850161243f565b91505092915050565b6000806040838503121561258757600080fd5b60006125958582860161243f565b92505060206125a685828601612454565b9150509250929050565b60006125bc8383612644565b60208301905092915050565b6125d181612f9b565b82525050565b60006125e282612f00565b6125ec8185612f23565b93506125f783612ef0565b8060005b8381101561262857815161260f88826125b0565b975061261a83612f16565b9250506001810190506125fb565b5085935050505092915050565b61263e81612fad565b82525050565b61264d81612fb9565b82525050565b61265c81612fb9565b82525050565b600061266d82612f0b565b6126778185612f34565b935061268781856020860161300e565b61269081613143565b840191505092915050565b7f4e65772043617465676f72790000000000000000000000000000000000000000815250565b60006126ce601483612f34565b91507f5061757361626c653a206e6f74207061757365640000000000000000000000006000830152602082019050919050565b7f43617465676f727920436c6f7365640000000000000000000000000000000000815250565b6000612734602683612f34565b91507f4f776e61626c653a206e6577206f776e657220697320746865207a65726f206160008301527f64647265737300000000000000000000000000000000000000000000000000006020830152604082019050919050565b600061279a602483612f34565b91507f546869732063617465676f72792063616e6e6f74206265206f70656e6564206160008301527f6761696e000000000000000000000000000000000000000000000000000000006020830152604082019050919050565b6000612800602783612f34565b91507f596f75206861766520616c726561647920766f74656420696e2074686973206360008301527f617465676f7279000000000000000000000000000000000000000000000000006020830152604082019050919050565b6000612866602283612f34565b91507f54686973206164647265737320697320616c726561647920726567697374657260008301527f65640000000000000000000000000000000000000000000000000000000000006020830152604082019050919050565b60006128cc603b83612f34565b91507f5468697320616374696f6e2063616e6e6f7420626520706572666f726d65642060008301527f7768656e207468652063617465676f727920697320636c6f73656400000000006020830152604082019050919050565b7f43617465676f7279204f70656e65640000000000000000000000000000000000815250565b6000612958601083612f34565b91507f5061757361626c653a20706175736564000000000000000000000000000000006000830152602082019050919050565b6000612998602083612f34565b91507f4f776e61626c653a2063616c6c6572206973206e6f7420746865206f776e65726000830152602082019050919050565b60006129d8603983612f34565b91507f5468697320616374696f6e2063616e6e6f7420626520706572666f726d65642060008301527f7768656e207468652063617465676f7279206973206f70656e000000000000006020830152604082019050919050565b6000612a3e601e83612f34565b91507f54686572652061726520746f6f206d616e792063616e646964617465732e00006000830152602082019050919050565b6000612a7e602983612f34565b91507f546869732077616c6c65742061646472657373206973206e6f7420796574207260008301527f65676973746572656400000000000000000000000000000000000000000000006020830152604082019050919050565b6000815250565b6000612aeb601483612f34565b91507f4e6f2066756e647320696e20636f6e74726163740000000000000000000000006000830152602082019050919050565b612b2781612fe3565b82525050565b612b3681612fed565b82525050565b6000602082019050612b5160008301846125c8565b92915050565b6000604082019050612b6c60008301856125c8565b612b796020830184612b1e565b9392505050565b6000602082019050612b956000830184612635565b92915050565b6000602082019050612bb06000830184612653565b92915050565b6000606082019050612bcb6000830186612653565b612bd86020830185612635565b612be56040830184612b2d565b949350505050565b60006020820190508181036000830152612c078184612662565b905092915050565b6000608082019050612c236000830161269b565b612c306020830186612653565b8181036040830152612c4281856125d7565b9050612c5160608301846125c8565b949350505050565b60006020820190508181036000830152612c72816126c1565b9050919050565b6000608082019050612c8d60008301612701565b612c9a6020830186612653565b612ca76040830185612653565b612cb460608301846125c8565b949350505050565b60006020820190508181036000830152612cd581612727565b9050919050565b60006020820190508181036000830152612cf58161278d565b9050919050565b60006020820190508181036000830152612d15816127f3565b9050919050565b60006020820190508181036000830152612d3581612859565b9050919050565b60006020820190508181036000830152612d55816128bf565b9050919050565b6000608082019050612d7060008301612925565b612d7d6020830185612653565b612d8960408301612ad7565b612d9660608301846125c8565b9392505050565b60006020820190508181036000830152612db68161294b565b9050919050565b60006020820190508181036000830152612dd68161298b565b9050919050565b60006020820190508181036000830152612df6816129cb565b9050919050565b60006020820190508181036000830152612e1681612a31565b9050919050565b60006020820190508181036000830152612e3681612a71565b9050919050565b60006020820190508181036000830152612e5681612ade565b9050919050565b6000602082019050612e726000830184612b1e565b92915050565b6000602082019050612e8d6000830184612b2d565b92915050565b6000604051905081810181811067ffffffffffffffff82111715612eba57612eb9613114565b5b8060405250919050565b600067ffffffffffffffff821115612edf57612ede613114565b5b602082029050602081019050919050565b6000819050602082019050919050565b600081519050919050565b600081519050919050565b6000602082019050919050565b600082825260208201905092915050565b600082825260208201905092915050565b6000612f5082612fe3565b9150612f5b83612fe3565b9250827fffffffffffffffffffffffffffffffffffffffffffffffffffffffffffffffff03821115612f9057612f8f6130e5565b5b828201905092915050565b6000612fa682612fc3565b9050919050565b60008115159050919050565b6000819050919050565b600073ffffffffffffffffffffffffffffffffffffffff82169050919050565b6000819050919050565b600067ffffffffffffffff82169050919050565b600060ff82169050919050565b60005b8381101561302c578082015181840152602081019050613011565b8381111561303b576000848401525b50505050565b600061304c82612fe3565b91507fffffffffffffffffffffffffffffffffffffffffffffffffffffffffffffffff82141561307f5761307e6130e5565b5b600182019050919050565b600061309582612fed565b915067ffffffffffffffff8214156130b0576130af6130e5565b5b600182019050919050565b60006130c682613001565b915060ff8214156130da576130d96130e5565b5b600182019050919050565b7f4e487b7100000000000000000000000000000000000000000000000000000000600052601160045260246000fd5b7f4e487b7100000000000000000000000000000000000000000000000000000000600052604160045260246000fd5b6000601f19601f8301169050919050565b61315d81612f9b565b811461316857600080fd5b50565b61317481612fb9565b811461317f57600080fd5b50565b61318b81612fe3565b811461319657600080fd5b50565b6131a281612fed565b81146131ad57600080fd5b50565b6131b981613001565b81146131c457600080fd5b5056fe68656c6c6f2c2074686520636f6e747261637420776173207375636365737366756c6c792075706461746564a26469706673582212207558d7d0499cfe6e73ff39907814dc08426a0e1f724a5f238fed7a7c96134a7964736f6c63430008000033",
  "linkReferences": {},
  "deployedLinkReferences": {}
}