{
  "_format": "hh-sol-artifact-1",
  "contractName": "VotingStorage",
  "sourceName": "contracts/Voting_Storage.sol",
  "abi": [
    {
      "anonymous": false,
      "inputs": [
        {
          "indexed": true,
          "internalType": "address",
          "name": "previousOwner",
          "type": "address"
        },
        {
          "indexed": true,
          "internalType": "address",
          "name": "newOwner",
          "type": "address"
        }
      ],
      "name": "OwnershipTransferred",
      "type": "event"
    },
    {
      "anonymous": false,
      "inputs": [
        {
          "indexed": false,
          "internalType": "address",
          "name": "account",
          "type": "address"
        }
      ],
      "name": "Paused",
      "type": "event"
    },
    {
      "anonymous": false,
      "inputs": [
        {
          "indexed": false,
          "internalType": "address",
          "name": "account",
          "type": "address"
        }
      ],
      "name": "Unpaused",
      "type": "event"
    },
    {
      "inputs": [
        {
          "internalType": "address",
          "name": "",
          "type": "address"
        },
        {
          "internalType": "uint256",
          "name": "",
          "type": "uint256"
        }
      ],
      "name": "_boolVoter",
      "outputs": [
        {
          "internalType": "bool",
          "name": "",
          "type": "bool"
        }
      ],
      "stateMutability": "view",
      "type": "function"
    },
    {
      "inputs": [],
      "name": "_catCounter",
      "outputs": [
        {
          "internalType": "uint128",
          "name": "",
          "type": "uint128"
        }
      ],
      "stateMutability": "view",
      "type": "function"
    },
    {
      "inputs": [
        {
          "internalType": "uint256",
          "name": "",
          "type": "uint256"
        }
      ],
      "name": "_openedOnce",
      "outputs": [
        {
          "internalType": "bool",
          "name": "",
          "type": "bool"
        }
      ],
      "stateMutability": "view",
      "type": "function"
    },
    {
      "inputs": [
        {
          "internalType": "address",
          "name": "",
          "type": "address"
        }
      ],
      "name": "_registry",
      "outputs": [
        {
          "internalType": "bool",
          "name": "",
          "type": "bool"
        }
      ],
      "stateMutability": "view",
      "type": "function"
    },
    {
      "inputs": [],
      "name": "_totalVotes",
      "outputs": [
        {
          "internalType": "uint256",
          "name": "",
          "type": "uint256"
        }
      ],
      "stateMutability": "view",
      "type": "function"
    },
    {
      "inputs": [],
      "name": "_voterCount",
      "outputs": [
        {
          "internalType": "uint128",
          "name": "",
          "type": "uint128"
        }
      ],
      "stateMutability": "view",
      "type": "function"
    },
    {
      "inputs": [
        {
          "internalType": "uint256",
          "name": "",
          "type": "uint256"
        }
      ],
      "name": "categories",
      "outputs": [
        {
          "internalType": "bytes32",
          "name": "name",
          "type": "bytes32"
        },
        {
          "internalType": "bool",
          "name": "open",
          "type": "bool"
        },
        {
          "internalType": "uint256",
          "name": "catId",
          "type": "uint256"
        }
      ],
      "stateMutability": "view",
      "type": "function"
    },
    {
      "inputs": [],
      "name": "currentFuncAddress",
      "outputs": [
        {
          "internalType": "address",
          "name": "",
          "type": "address"
        }
      ],
      "stateMutability": "view",
      "type": "function"
    },
    {
      "inputs": [],
      "name": "owner",
      "outputs": [
        {
          "internalType": "address",
          "name": "",
          "type": "address"
        }
      ],
      "stateMutability": "view",
      "type": "function"
    },
    {
      "inputs": [],
      "name": "paused",
      "outputs": [
        {
          "internalType": "bool",
          "name": "",
          "type": "bool"
        }
      ],
      "stateMutability": "view",
      "type": "function"
    },
    {
      "inputs": [],
      "name": "renounceOwnership",
      "outputs": [],
      "stateMutability": "nonpayable",
      "type": "function"
    },
    {
      "inputs": [
        {
          "internalType": "address",
          "name": "newOwner",
          "type": "address"
        }
      ],
      "name": "transferOwnership",
      "outputs": [],
      "stateMutability": "nonpayable",
      "type": "function"
    }
  ],
  "bytecode": "0x608060405234801561001057600080fd5b5061002d61002261004c60201b60201c565b61005460201b60201c565b60008060146101000a81548160ff021916908315150217905550610118565b600033905090565b60008060009054906101000a900473ffffffffffffffffffffffffffffffffffffffff169050816000806101000a81548173ffffffffffffffffffffffffffffffffffffffff021916908373ffffffffffffffffffffffffffffffffffffffff1602179055508173ffffffffffffffffffffffffffffffffffffffff168173ffffffffffffffffffffffffffffffffffffffff167f8be0079c531659141344cd1fd0a4f28419497f9722a3daafe3b4186f6b6457e060405160405180910390a35050565b61098d806101276000396000f3fe608060405234801561001057600080fd5b50600436106100b45760003560e01c8063715018a611610071578063715018a6146101915780638da5cb5b1461019b578063c6cdbe5e146101b9578063ce4ec048146101eb578063eb77c40f14610209578063f2fde38b14610239576100b4565b8063038eef63146100b957806308e67038146100e95780631af5fd02146101195780632e0d757314610137578063317cc82d146101555780635c975abb14610173575b600080fd5b6100d360048036038101906100ce9190610695565b610255565b6040516100e0919061076a565b60405180910390f35b61010360048036038101906100fe9190610630565b610275565b604051610110919061076a565b60405180910390f35b610121610295565b60405161012e919061074f565b60405180910390f35b61013f6102bb565b60405161014c91906107fc565b60405180910390f35b61015d6102dd565b60405161016a91906107fc565b60405180910390f35b61017b6102ff565b604051610188919061076a565b60405180910390f35b610199610315565b005b6101a361039d565b6040516101b0919061074f565b60405180910390f35b6101d360048036038101906101ce9190610695565b6103c6565b6040516101e293929190610785565b60405180910390f35b6101f361040d565b6040516102009190610817565b60405180910390f35b610223600480360381019061021e9190610659565b610413565b604051610230919061076a565b60405180910390f35b610253600480360381019061024e9190610630565b610442565b005b60076020528060005260406000206000915054906101000a900460ff1681565b60056020528060005260406000206000915054906101000a900460ff1681565b600160009054906101000a900473ffffffffffffffffffffffffffffffffffffffff1681565b600360009054906101000a90046fffffffffffffffffffffffffffffffff1681565b600360109054906101000a90046fffffffffffffffffffffffffffffffff1681565b60008060149054906101000a900460ff16905090565b61031d61053a565b73ffffffffffffffffffffffffffffffffffffffff1661033b61039d565b73ffffffffffffffffffffffffffffffffffffffff1614610391576040517f08c379a0000000000000000000000000000000000000000000000000000000008152600401610388906107dc565b60405180910390fd5b61039b6000610542565b565b60008060009054906101000a900473ffffffffffffffffffffffffffffffffffffffff16905090565b600281815481106103d657600080fd5b90600052602060002090600402016000915090508060000154908060020160009054906101000a900460ff16908060030154905083565b60045481565b60066020528160005260406000206020528060005260406000206000915091509054906101000a900460ff1681565b61044a61053a565b73ffffffffffffffffffffffffffffffffffffffff1661046861039d565b73ffffffffffffffffffffffffffffffffffffffff16146104be576040517f08c379a00000000000000000000000000000000000000000000000000000000081526004016104b5906107dc565b60405180910390fd5b600073ffffffffffffffffffffffffffffffffffffffff168173ffffffffffffffffffffffffffffffffffffffff16141561052e576040517f08c379a0000000000000000000000000000000000000000000000000000000008152600401610525906107bc565b60405180910390fd5b61053781610542565b50565b600033905090565b60008060009054906101000a900473ffffffffffffffffffffffffffffffffffffffff169050816000806101000a81548173ffffffffffffffffffffffffffffffffffffffff021916908373ffffffffffffffffffffffffffffffffffffffff1602179055508173ffffffffffffffffffffffffffffffffffffffff168173ffffffffffffffffffffffffffffffffffffffff167f8be0079c531659141344cd1fd0a4f28419497f9722a3daafe3b4186f6b6457e060405160405180910390a35050565b60008135905061061581610929565b92915050565b60008135905061062a81610940565b92915050565b60006020828403121561064257600080fd5b600061065084828501610606565b91505092915050565b6000806040838503121561066c57600080fd5b600061067a85828601610606565b925050602061068b8582860161061b565b9150509250929050565b6000602082840312156106a757600080fd5b60006106b58482850161061b565b91505092915050565b6106c781610843565b82525050565b6106d681610855565b82525050565b6106e581610861565b82525050565b60006106f8602683610832565b9150610703826108b1565b604082019050919050565b600061071b602083610832565b915061072682610900565b602082019050919050565b61073a8161086b565b82525050565b610749816108a7565b82525050565b600060208201905061076460008301846106be565b92915050565b600060208201905061077f60008301846106cd565b92915050565b600060608201905061079a60008301866106dc565b6107a760208301856106cd565b6107b46040830184610740565b949350505050565b600060208201905081810360008301526107d5816106eb565b9050919050565b600060208201905081810360008301526107f58161070e565b9050919050565b60006020820190506108116000830184610731565b92915050565b600060208201905061082c6000830184610740565b92915050565b600082825260208201905092915050565b600061084e82610887565b9050919050565b60008115159050919050565b6000819050919050565b60006fffffffffffffffffffffffffffffffff82169050919050565b600073ffffffffffffffffffffffffffffffffffffffff82169050919050565b6000819050919050565b7f4f776e61626c653a206e6577206f776e657220697320746865207a65726f206160008201527f6464726573730000000000000000000000000000000000000000000000000000602082015250565b7f4f776e61626c653a2063616c6c6572206973206e6f7420746865206f776e6572600082015250565b61093281610843565b811461093d57600080fd5b50565b610949816108a7565b811461095457600080fd5b5056fea2646970667358221220affb0a8d5882b57d65d5563042481f5c58b4d3aa931bcad1493f991f98f4bdba64736f6c63430008040033",
  "linkReferences": {},
  "deployedLinkReferences": {}
}