{
  "_format": "hh-sol-artifact-1",
  "contractName": "VotingStorage",
  "sourceName": "contracts/Voting_Storage.sol",
  "abi": [
    {
      "anonymous": false,
      "inputs": [
        {
          "indexed": true,
          "internalType": "address",
          "name": "previousOwner",
          "type": "address"
        },
        {
          "indexed": true,
          "internalType": "address",
          "name": "newOwner",
          "type": "address"
        }
      ],
      "name": "OwnershipTransferred",
      "type": "event"
    },
    {
      "inputs": [
        {
          "internalType": "uint256",
          "name": "",
          "type": "uint256"
        }
      ],
      "name": "Categories",
      "outputs": [
        {
          "internalType": "string",
          "name": "category",
          "type": "string"
        },
        {
          "internalType": "bool",
          "name": "open",
          "type": "bool"
        },
        {
          "internalType": "uint64",
          "name": "catId",
          "type": "uint64"
        }
      ],
      "stateMutability": "view",
      "type": "function"
    },
    {
      "inputs": [
        {
          "internalType": "address",
          "name": "",
          "type": "address"
        },
        {
          "internalType": "uint256",
          "name": "",
          "type": "uint256"
        }
      ],
      "name": "_boolVoter",
      "outputs": [
        {
          "internalType": "bool",
          "name": "",
          "type": "bool"
        }
      ],
      "stateMutability": "view",
      "type": "function"
    },
    {
      "inputs": [
        {
          "internalType": "uint64",
          "name": "",
          "type": "uint64"
        }
      ],
      "name": "_openedOnce",
      "outputs": [
        {
          "internalType": "bool",
          "name": "",
          "type": "bool"
        }
      ],
      "stateMutability": "view",
      "type": "function"
    },
    {
      "inputs": [
        {
          "internalType": "address",
          "name": "",
          "type": "address"
        }
      ],
      "name": "_registry",
      "outputs": [
        {
          "internalType": "bool",
          "name": "",
          "type": "bool"
        }
      ],
      "stateMutability": "view",
      "type": "function"
    },
    {
      "inputs": [],
      "name": "_totalVotes",
      "outputs": [
        {
          "internalType": "uint64",
          "name": "",
          "type": "uint64"
        }
      ],
      "stateMutability": "view",
      "type": "function"
    },
    {
      "inputs": [],
      "name": "_voterCount",
      "outputs": [
        {
          "internalType": "uint64",
          "name": "",
          "type": "uint64"
        }
      ],
      "stateMutability": "view",
      "type": "function"
    },
    {
      "inputs": [],
      "name": "owner",
      "outputs": [
        {
          "internalType": "address",
          "name": "",
          "type": "address"
        }
      ],
      "stateMutability": "view",
      "type": "function"
    },
    {
      "inputs": [],
      "name": "renounceOwnership",
      "outputs": [],
      "stateMutability": "nonpayable",
      "type": "function"
    },
    {
      "inputs": [
        {
          "internalType": "address",
          "name": "newOwner",
          "type": "address"
        }
      ],
      "name": "transferOwnership",
      "outputs": [],
      "stateMutability": "nonpayable",
      "type": "function"
    }
  ],
  "bytecode": "0x60806040526000600260006101000a81548167ffffffffffffffff021916908367ffffffffffffffff16021790555034801561003a57600080fd5b5061005761004c61005c60201b60201c565b61006460201b60201c565b610128565b600033905090565b60008060009054906101000a900473ffffffffffffffffffffffffffffffffffffffff169050816000806101000a81548173ffffffffffffffffffffffffffffffffffffffff021916908373ffffffffffffffffffffffffffffffffffffffff1602179055508173ffffffffffffffffffffffffffffffffffffffff168173ffffffffffffffffffffffffffffffffffffffff167f8be0079c531659141344cd1fd0a4f28419497f9722a3daafe3b4186f6b6457e060405160405180910390a35050565b610a3e806101376000396000f3fe608060405234801561001057600080fd5b50600436106100935760003560e01c8063715018a611610066578063715018a6146101485780638da5cb5b14610152578063ce4ec04814610170578063eb77c40f1461018e578063f2fde38b146101be57610093565b806308e67038146100985780631ddbcbb1146100c8578063317cc82d146100f857806369677af314610116575b600080fd5b6100b260048036038101906100ad9190610614565b6101da565b6040516100bf91906107f2565b60405180910390f35b6100e260048036038101906100dd91906106a2565b6101fa565b6040516100ef91906107f2565b60405180910390f35b61010061021a565b60405161010d919061088b565b60405180910390f35b610130600480360381019061012b9190610679565b610234565b60405161013f9392919061080d565b60405180910390f35b610150610317565b005b61015a61039f565b60405161016791906107d7565b60405180910390f35b6101786103c8565b604051610185919061088b565b60405180910390f35b6101a860048036038101906101a3919061063d565b6103e2565b6040516101b591906107f2565b60405180910390f35b6101d860048036038101906101d39190610614565b610411565b005b60036020528060005260406000206000915054906101000a900460ff1681565b60056020528060005260406000206000915054906101000a900460ff1681565b600660009054906101000a900467ffffffffffffffff1681565b6001818154811061024457600080fd5b906000526020600020906003020160009150905080600001805461026790610951565b80601f016020809104026020016040519081016040528092919081815260200182805461029390610951565b80156102e05780601f106102b5576101008083540402835291602001916102e0565b820191906000526020600020905b8154815290600101906020018083116102c357829003601f168201915b5050505050908060020160009054906101000a900460ff16908060020160019054906101000a900467ffffffffffffffff16905083565b61031f610509565b73ffffffffffffffffffffffffffffffffffffffff1661033d61039f565b73ffffffffffffffffffffffffffffffffffffffff1614610393576040517f08c379a000000000000000000000000000000000000000000000000000000000815260040161038a9061086b565b60405180910390fd5b61039d6000610511565b565b60008060009054906101000a900473ffffffffffffffffffffffffffffffffffffffff16905090565b600660089054906101000a900467ffffffffffffffff1681565b60046020528160005260406000206020528060005260406000206000915091509054906101000a900460ff1681565b610419610509565b73ffffffffffffffffffffffffffffffffffffffff1661043761039f565b73ffffffffffffffffffffffffffffffffffffffff161461048d576040517f08c379a00000000000000000000000000000000000000000000000000000000081526004016104849061086b565b60405180910390fd5b600073ffffffffffffffffffffffffffffffffffffffff168173ffffffffffffffffffffffffffffffffffffffff1614156104fd576040517f08c379a00000000000000000000000000000000000000000000000000000000081526004016104f49061084b565b60405180910390fd5b61050681610511565b50565b600033905090565b60008060009054906101000a900473ffffffffffffffffffffffffffffffffffffffff169050816000806101000a81548173ffffffffffffffffffffffffffffffffffffffff021916908373ffffffffffffffffffffffffffffffffffffffff1602179055508173ffffffffffffffffffffffffffffffffffffffff168173ffffffffffffffffffffffffffffffffffffffff167f8be0079c531659141344cd1fd0a4f28419497f9722a3daafe3b4186f6b6457e060405160405180910390a35050565b6000813590506105e4816109c3565b92915050565b6000813590506105f9816109da565b92915050565b60008135905061060e816109f1565b92915050565b60006020828403121561062657600080fd5b6000610634848285016105d5565b91505092915050565b6000806040838503121561065057600080fd5b600061065e858286016105d5565b925050602061066f858286016105ea565b9150509250929050565b60006020828403121561068b57600080fd5b6000610699848285016105ea565b91505092915050565b6000602082840312156106b457600080fd5b60006106c2848285016105ff565b91505092915050565b6106d4816108c2565b82525050565b6106e3816108d4565b82525050565b60006106f4826108a6565b6106fe81856108b1565b935061070e81856020860161091e565b610717816109b2565b840191505092915050565b600061072f6026836108b1565b91507f4f776e61626c653a206e6577206f776e657220697320746865207a65726f206160008301527f64647265737300000000000000000000000000000000000000000000000000006020830152604082019050919050565b60006107956020836108b1565b91507f4f776e61626c653a2063616c6c6572206973206e6f7420746865206f776e65726000830152602082019050919050565b6107d18161090a565b82525050565b60006020820190506107ec60008301846106cb565b92915050565b600060208201905061080760008301846106da565b92915050565b6000606082019050818103600083015261082781866106e9565b905061083660208301856106da565b61084360408301846107c8565b949350505050565b6000602082019050818103600083015261086481610722565b9050919050565b6000602082019050818103600083015261088481610788565b9050919050565b60006020820190506108a060008301846107c8565b92915050565b600081519050919050565b600082825260208201905092915050565b60006108cd826108e0565b9050919050565b60008115159050919050565b600073ffffffffffffffffffffffffffffffffffffffff82169050919050565b6000819050919050565b600067ffffffffffffffff82169050919050565b60005b8381101561093c578082015181840152602081019050610921565b8381111561094b576000848401525b50505050565b6000600282049050600182168061096957607f821691505b6020821081141561097d5761097c610983565b5b50919050565b7f4e487b7100000000000000000000000000000000000000000000000000000000600052602260045260246000fd5b6000601f19601f8301169050919050565b6109cc816108c2565b81146109d757600080fd5b50565b6109e381610900565b81146109ee57600080fd5b50565b6109fa8161090a565b8114610a0557600080fd5b5056fea2646970667358221220d26d7866d666897b21a32b4ec72dd1e1d383eab897029279bcfe2dff21f6d2ec64736f6c63430008000033",
  "linkReferences": {},
  "deployedLinkReferences": {}
}