{
  "_format": "hh-sol-artifact-1",
  "contractName": "VotingStorage",
  "sourceName": "contracts/Voting_Storage.sol",
  "abi": [
    {
      "anonymous": false,
      "inputs": [
        {
          "indexed": true,
          "internalType": "address",
          "name": "previousOwner",
          "type": "address"
        },
        {
          "indexed": true,
          "internalType": "address",
          "name": "newOwner",
          "type": "address"
        }
      ],
      "name": "OwnershipTransferred",
      "type": "event"
    },
    {
      "anonymous": false,
      "inputs": [
        {
          "indexed": false,
          "internalType": "address",
          "name": "account",
          "type": "address"
        }
      ],
      "name": "Paused",
      "type": "event"
    },
    {
      "anonymous": false,
      "inputs": [
        {
          "indexed": false,
          "internalType": "address",
          "name": "account",
          "type": "address"
        }
      ],
      "name": "Unpaused",
      "type": "event"
    },
    {
      "inputs": [
        {
          "internalType": "address",
          "name": "",
          "type": "address"
        },
        {
          "internalType": "uint256",
          "name": "",
          "type": "uint256"
        }
      ],
      "name": "_boolVoter",
      "outputs": [
        {
          "internalType": "bool",
          "name": "",
          "type": "bool"
        }
      ],
      "stateMutability": "view",
      "type": "function"
    },
    {
      "inputs": [
        {
          "internalType": "uint64",
          "name": "",
          "type": "uint64"
        }
      ],
      "name": "_openedOnce",
      "outputs": [
        {
          "internalType": "bool",
          "name": "",
          "type": "bool"
        }
      ],
      "stateMutability": "view",
      "type": "function"
    },
    {
      "inputs": [
        {
          "internalType": "address",
          "name": "",
          "type": "address"
        }
      ],
      "name": "_registry",
      "outputs": [
        {
          "internalType": "bool",
          "name": "",
          "type": "bool"
        }
      ],
      "stateMutability": "view",
      "type": "function"
    },
    {
      "inputs": [],
      "name": "_totalVotes",
      "outputs": [
        {
          "internalType": "uint256",
          "name": "",
          "type": "uint256"
        }
      ],
      "stateMutability": "view",
      "type": "function"
    },
    {
      "inputs": [],
      "name": "_voterCount",
      "outputs": [
        {
          "internalType": "uint64",
          "name": "",
          "type": "uint64"
        }
      ],
      "stateMutability": "view",
      "type": "function"
    },
    {
      "inputs": [
        {
          "internalType": "uint256",
          "name": "",
          "type": "uint256"
        }
      ],
      "name": "categories",
      "outputs": [
        {
          "internalType": "bytes32",
          "name": "name",
          "type": "bytes32"
        },
        {
          "internalType": "bool",
          "name": "open",
          "type": "bool"
        },
        {
          "internalType": "uint64",
          "name": "catId",
          "type": "uint64"
        }
      ],
      "stateMutability": "view",
      "type": "function"
    },
    {
      "inputs": [],
      "name": "currentFuncAddress",
      "outputs": [
        {
          "internalType": "address",
          "name": "",
          "type": "address"
        }
      ],
      "stateMutability": "view",
      "type": "function"
    },
    {
      "inputs": [],
      "name": "owner",
      "outputs": [
        {
          "internalType": "address",
          "name": "",
          "type": "address"
        }
      ],
      "stateMutability": "view",
      "type": "function"
    },
    {
      "inputs": [],
      "name": "paused",
      "outputs": [
        {
          "internalType": "bool",
          "name": "",
          "type": "bool"
        }
      ],
      "stateMutability": "view",
      "type": "function"
    },
    {
      "inputs": [],
      "name": "renounceOwnership",
      "outputs": [],
      "stateMutability": "nonpayable",
      "type": "function"
    },
    {
      "inputs": [
        {
          "internalType": "address",
          "name": "newOwner",
          "type": "address"
        }
      ],
      "name": "transferOwnership",
      "outputs": [],
      "stateMutability": "nonpayable",
      "type": "function"
    }
  ],
  "bytecode": "0x608060405234801561001057600080fd5b5061002d61002261004c60201b60201c565b61005460201b60201c565b60008060146101000a81548160ff021916908315150217905550610118565b600033905090565b60008060009054906101000a900473ffffffffffffffffffffffffffffffffffffffff169050816000806101000a81548173ffffffffffffffffffffffffffffffffffffffff021916908373ffffffffffffffffffffffffffffffffffffffff1602179055508173ffffffffffffffffffffffffffffffffffffffff168173ffffffffffffffffffffffffffffffffffffffff167f8be0079c531659141344cd1fd0a4f28419497f9722a3daafe3b4186f6b6457e060405160405180910390a35050565b610983806101276000396000f3fe608060405234801561001057600080fd5b50600436106100a95760003560e01c8063715018a611610071578063715018a6146101685780638da5cb5b14610172578063c6cdbe5e14610190578063ce4ec048146101c2578063eb77c40f146101e0578063f2fde38b14610210576100a9565b806308e67038146100ae5780631af5fd02146100de5780631ddbcbb1146100fc578063317cc82d1461012c5780635c975abb1461014a575b600080fd5b6100c860048036038101906100c39190610606565b61022c565b6040516100d591906107c9565b60405180910390f35b6100e661024c565b6040516100f391906107ae565b60405180910390f35b61011660048036038101906101119190610694565b610272565b60405161012391906107c9565b60405180910390f35b610134610292565b6040516101419190610876565b60405180910390f35b6101526102ac565b60405161015f91906107c9565b60405180910390f35b6101706102c2565b005b61017a61034a565b60405161018791906107ae565b60405180910390f35b6101aa60048036038101906101a5919061066b565b610373565b6040516101b9939291906107e4565b60405180910390f35b6101ca6103ce565b6040516101d7919061085b565b60405180910390f35b6101fa60048036038101906101f5919061062f565b6103d4565b60405161020791906107c9565b60405180910390f35b61022a60048036038101906102259190610606565b610403565b005b60046020528060005260406000206000915054906101000a900460ff1681565b600160009054906101000a900473ffffffffffffffffffffffffffffffffffffffff1681565b60066020528060005260406000206000915054906101000a900460ff1681565b600760009054906101000a900467ffffffffffffffff1681565b60008060149054906101000a900460ff16905090565b6102ca6104fb565b73ffffffffffffffffffffffffffffffffffffffff166102e861034a565b73ffffffffffffffffffffffffffffffffffffffff161461033e576040517f08c379a00000000000000000000000000000000000000000000000000000000081526004016103359061083b565b60405180910390fd5b6103486000610503565b565b60008060009054906101000a900473ffffffffffffffffffffffffffffffffffffffff16905090565b6002818154811061038357600080fd5b90600052602060002090600302016000915090508060000154908060020160009054906101000a900460ff16908060020160019054906101000a900467ffffffffffffffff16905083565b60085481565b60056020528160005260406000206020528060005260406000206000915091509054906101000a900460ff1681565b61040b6104fb565b73ffffffffffffffffffffffffffffffffffffffff1661042961034a565b73ffffffffffffffffffffffffffffffffffffffff161461047f576040517f08c379a00000000000000000000000000000000000000000000000000000000081526004016104769061083b565b60405180910390fd5b600073ffffffffffffffffffffffffffffffffffffffff168173ffffffffffffffffffffffffffffffffffffffff1614156104ef576040517f08c379a00000000000000000000000000000000000000000000000000000000081526004016104e69061081b565b60405180910390fd5b6104f881610503565b50565b600033905090565b60008060009054906101000a900473ffffffffffffffffffffffffffffffffffffffff169050816000806101000a81548173ffffffffffffffffffffffffffffffffffffffff021916908373ffffffffffffffffffffffffffffffffffffffff1602179055508173ffffffffffffffffffffffffffffffffffffffff168173ffffffffffffffffffffffffffffffffffffffff167f8be0079c531659141344cd1fd0a4f28419497f9722a3daafe3b4186f6b6457e060405160405180910390a35050565b6000813590506105d681610908565b92915050565b6000813590506105eb8161091f565b92915050565b60008135905061060081610936565b92915050565b60006020828403121561061857600080fd5b6000610626848285016105c7565b91505092915050565b6000806040838503121561064257600080fd5b6000610650858286016105c7565b9250506020610661858286016105dc565b9150509250929050565b60006020828403121561067d57600080fd5b600061068b848285016105dc565b91505092915050565b6000602082840312156106a657600080fd5b60006106b4848285016105f1565b91505092915050565b6106c6816108a2565b82525050565b6106d5816108b4565b82525050565b6106e4816108c0565b82525050565b60006106f7602683610891565b91507f4f776e61626c653a206e6577206f776e657220697320746865207a65726f206160008301527f64647265737300000000000000000000000000000000000000000000000000006020830152604082019050919050565b600061075d602083610891565b91507f4f776e61626c653a2063616c6c6572206973206e6f7420746865206f776e65726000830152602082019050919050565b610799816108ea565b82525050565b6107a8816108f4565b82525050565b60006020820190506107c360008301846106bd565b92915050565b60006020820190506107de60008301846106cc565b92915050565b60006060820190506107f960008301866106db565b61080660208301856106cc565b610813604083018461079f565b949350505050565b60006020820190508181036000830152610834816106ea565b9050919050565b6000602082019050818103600083015261085481610750565b9050919050565b60006020820190506108706000830184610790565b92915050565b600060208201905061088b600083018461079f565b92915050565b600082825260208201905092915050565b60006108ad826108ca565b9050919050565b60008115159050919050565b6000819050919050565b600073ffffffffffffffffffffffffffffffffffffffff82169050919050565b6000819050919050565b600067ffffffffffffffff82169050919050565b610911816108a2565b811461091c57600080fd5b50565b610928816108ea565b811461093357600080fd5b50565b61093f816108f4565b811461094a57600080fd5b5056fea264697066735822122008fda340c312531607398fcd3969484c313c331e5b7462f52b367184bcec109c64736f6c63430008000033",
  "linkReferences": {},
  "deployedLinkReferences": {}
}