{
  "_format": "hh-sol-artifact-1",
  "contractName": "VotingStorage",
  "sourceName": "contracts/Voting_Storage.sol",
  "abi": [
    {
      "anonymous": false,
      "inputs": [
        {
          "indexed": true,
          "internalType": "address",
          "name": "previousOwner",
          "type": "address"
        },
        {
          "indexed": true,
          "internalType": "address",
          "name": "newOwner",
          "type": "address"
        }
      ],
      "name": "OwnershipTransferred",
      "type": "event"
    },
    {
      "anonymous": false,
      "inputs": [
        {
          "indexed": false,
          "internalType": "address",
          "name": "account",
          "type": "address"
        }
      ],
      "name": "Paused",
      "type": "event"
    },
    {
      "anonymous": false,
      "inputs": [
        {
          "indexed": false,
          "internalType": "address",
          "name": "account",
          "type": "address"
        }
      ],
      "name": "Unpaused",
      "type": "event"
    },
    {
      "inputs": [
        {
          "internalType": "address",
          "name": "",
          "type": "address"
        },
        {
          "internalType": "uint256",
          "name": "",
          "type": "uint256"
        }
      ],
      "name": "_boolVoter",
      "outputs": [
        {
          "internalType": "bool",
          "name": "",
          "type": "bool"
        }
      ],
      "stateMutability": "view",
      "type": "function"
    },
    {
      "inputs": [
        {
          "internalType": "address",
          "name": "",
          "type": "address"
        }
      ],
      "name": "_registry",
      "outputs": [
        {
          "internalType": "bool",
          "name": "",
          "type": "bool"
        }
      ],
      "stateMutability": "view",
      "type": "function"
    },
    {
      "inputs": [],
      "name": "_totalVotes",
      "outputs": [
        {
          "internalType": "uint256",
          "name": "",
          "type": "uint256"
        }
      ],
      "stateMutability": "view",
      "type": "function"
    },
    {
      "inputs": [],
      "name": "_voterCount",
      "outputs": [
        {
          "internalType": "uint64",
          "name": "",
          "type": "uint64"
        }
      ],
      "stateMutability": "view",
      "type": "function"
    },
    {
      "inputs": [
        {
          "internalType": "uint256",
          "name": "",
          "type": "uint256"
        }
      ],
      "name": "categories",
      "outputs": [
        {
          "internalType": "string",
          "name": "name",
          "type": "string"
        },
        {
          "internalType": "bool",
          "name": "open",
          "type": "bool"
        },
        {
          "internalType": "uint64",
          "name": "catId",
          "type": "uint64"
        }
      ],
      "stateMutability": "view",
      "type": "function"
    },
    {
      "inputs": [],
      "name": "owner",
      "outputs": [
        {
          "internalType": "address",
          "name": "",
          "type": "address"
        }
      ],
      "stateMutability": "view",
      "type": "function"
    },
    {
      "inputs": [],
      "name": "paused",
      "outputs": [
        {
          "internalType": "bool",
          "name": "",
          "type": "bool"
        }
      ],
      "stateMutability": "view",
      "type": "function"
    },
    {
      "inputs": [],
      "name": "renounceOwnership",
      "outputs": [],
      "stateMutability": "nonpayable",
      "type": "function"
    },
    {
      "inputs": [
        {
          "internalType": "address",
          "name": "newOwner",
          "type": "address"
        }
      ],
      "name": "transferOwnership",
      "outputs": [],
      "stateMutability": "nonpayable",
      "type": "function"
    }
  ],
  "bytecode": "0x608060405234801561001057600080fd5b5061002d61002261004c60201b60201c565b61005460201b60201c565b60008060146101000a81548160ff021916908315150217905550610118565b600033905090565b60008060009054906101000a900473ffffffffffffffffffffffffffffffffffffffff169050816000806101000a81548173ffffffffffffffffffffffffffffffffffffffff021916908373ffffffffffffffffffffffffffffffffffffffff1602179055508173ffffffffffffffffffffffffffffffffffffffff168173ffffffffffffffffffffffffffffffffffffffff167f8be0079c531659141344cd1fd0a4f28419497f9722a3daafe3b4186f6b6457e060405160405180910390a35050565b6109e3806101276000396000f3fe608060405234801561001057600080fd5b50600436106100935760003560e01c80638da5cb5b116100665780638da5cb5b1461010e578063c6cdbe5e1461012c578063ce4ec0481461015e578063eb77c40f1461017c578063f2fde38b146101ac57610093565b806308e6703814610098578063317cc82d146100c85780635c975abb146100e6578063715018a614610104575b600080fd5b6100b260048036038101906100ad91906105cf565b6101c8565b6040516100bf9190610793565b60405180910390f35b6100d06101e8565b6040516100dd9190610847565b60405180910390f35b6100ee610202565b6040516100fb9190610793565b60405180910390f35b61010c610218565b005b6101166102a0565b6040516101239190610778565b60405180910390f35b61014660048036038101906101419190610634565b6102c9565b604051610155939291906107ae565b60405180910390f35b6101666103ac565b604051610173919061082c565b60405180910390f35b610196600480360381019061019191906105f8565b6103b2565b6040516101a39190610793565b60405180910390f35b6101c660048036038101906101c191906105cf565b6103e1565b005b60036020528060005260406000206000915054906101000a900460ff1681565b600560009054906101000a900467ffffffffffffffff1681565b60008060149054906101000a900460ff16905090565b6102206104d9565b73ffffffffffffffffffffffffffffffffffffffff1661023e6102a0565b73ffffffffffffffffffffffffffffffffffffffff1614610294576040517f08c379a000000000000000000000000000000000000000000000000000000000815260040161028b9061080c565b60405180910390fd5b61029e60006104e1565b565b60008060009054906101000a900473ffffffffffffffffffffffffffffffffffffffff16905090565b600181815481106102d957600080fd5b90600052602060002090600302016000915090508060000180546102fc9061090d565b80601f01602080910402602001604051908101604052809291908181526020018280546103289061090d565b80156103755780601f1061034a57610100808354040283529160200191610375565b820191906000526020600020905b81548152906001019060200180831161035857829003601f168201915b5050505050908060020160009054906101000a900460ff16908060020160019054906101000a900467ffffffffffffffff16905083565b60065481565b60046020528160005260406000206020528060005260406000206000915091509054906101000a900460ff1681565b6103e96104d9565b73ffffffffffffffffffffffffffffffffffffffff166104076102a0565b73ffffffffffffffffffffffffffffffffffffffff161461045d576040517f08c379a00000000000000000000000000000000000000000000000000000000081526004016104549061080c565b60405180910390fd5b600073ffffffffffffffffffffffffffffffffffffffff168173ffffffffffffffffffffffffffffffffffffffff1614156104cd576040517f08c379a00000000000000000000000000000000000000000000000000000000081526004016104c4906107ec565b60405180910390fd5b6104d6816104e1565b50565b600033905090565b60008060009054906101000a900473ffffffffffffffffffffffffffffffffffffffff169050816000806101000a81548173ffffffffffffffffffffffffffffffffffffffff021916908373ffffffffffffffffffffffffffffffffffffffff1602179055508173ffffffffffffffffffffffffffffffffffffffff168173ffffffffffffffffffffffffffffffffffffffff167f8be0079c531659141344cd1fd0a4f28419497f9722a3daafe3b4186f6b6457e060405160405180910390a35050565b6000813590506105b48161097f565b92915050565b6000813590506105c981610996565b92915050565b6000602082840312156105e157600080fd5b60006105ef848285016105a5565b91505092915050565b6000806040838503121561060b57600080fd5b6000610619858286016105a5565b925050602061062a858286016105ba565b9150509250929050565b60006020828403121561064657600080fd5b6000610654848285016105ba565b91505092915050565b6106668161087e565b82525050565b61067581610890565b82525050565b600061068682610862565b610690818561086d565b93506106a08185602086016108da565b6106a98161096e565b840191505092915050565b60006106c160268361086d565b91507f4f776e61626c653a206e6577206f776e657220697320746865207a65726f206160008301527f64647265737300000000000000000000000000000000000000000000000000006020830152604082019050919050565b600061072760208361086d565b91507f4f776e61626c653a2063616c6c6572206973206e6f7420746865206f776e65726000830152602082019050919050565b610763816108bc565b82525050565b610772816108c6565b82525050565b600060208201905061078d600083018461065d565b92915050565b60006020820190506107a8600083018461066c565b92915050565b600060608201905081810360008301526107c8818661067b565b90506107d7602083018561066c565b6107e46040830184610769565b949350505050565b60006020820190508181036000830152610805816106b4565b9050919050565b600060208201905081810360008301526108258161071a565b9050919050565b6000602082019050610841600083018461075a565b92915050565b600060208201905061085c6000830184610769565b92915050565b600081519050919050565b600082825260208201905092915050565b60006108898261089c565b9050919050565b60008115159050919050565b600073ffffffffffffffffffffffffffffffffffffffff82169050919050565b6000819050919050565b600067ffffffffffffffff82169050919050565b60005b838110156108f85780820151818401526020810190506108dd565b83811115610907576000848401525b50505050565b6000600282049050600182168061092557607f821691505b602082108114156109395761093861093f565b5b50919050565b7f4e487b7100000000000000000000000000000000000000000000000000000000600052602260045260246000fd5b6000601f19601f8301169050919050565b6109888161087e565b811461099357600080fd5b50565b61099f816108bc565b81146109aa57600080fd5b5056fea26469706673582212201b8dc9c74eb4cc85f25c5596a886d8214d789ef895a6458e1a0e5c4dce64907b64736f6c63430008000033",
  "linkReferences": {},
  "deployedLinkReferences": {}
}