{
  "_format": "hh-sol-artifact-1",
  "contractName": "VotingStorage",
  "sourceName": "contracts/Voting_Storage.sol",
  "abi": [
    {
      "anonymous": false,
      "inputs": [
        {
          "indexed": true,
          "internalType": "address",
          "name": "previousOwner",
          "type": "address"
        },
        {
          "indexed": true,
          "internalType": "address",
          "name": "newOwner",
          "type": "address"
        }
      ],
      "name": "OwnershipTransferred",
      "type": "event"
    },
    {
      "anonymous": false,
      "inputs": [
        {
          "indexed": false,
          "internalType": "address",
          "name": "account",
          "type": "address"
        }
      ],
      "name": "Paused",
      "type": "event"
    },
    {
      "anonymous": false,
      "inputs": [
        {
          "indexed": false,
          "internalType": "address",
          "name": "account",
          "type": "address"
        }
      ],
      "name": "Unpaused",
      "type": "event"
    },
    {
      "inputs": [
        {
          "internalType": "address",
          "name": "",
          "type": "address"
        },
        {
          "internalType": "uint256",
          "name": "",
          "type": "uint256"
        }
      ],
      "name": "_boolVoter",
      "outputs": [
        {
          "internalType": "bool",
          "name": "",
          "type": "bool"
        }
      ],
      "stateMutability": "view",
      "type": "function"
    },
    {
      "inputs": [
        {
          "internalType": "uint64",
          "name": "",
          "type": "uint64"
        }
      ],
      "name": "_openedOnce",
      "outputs": [
        {
          "internalType": "bool",
          "name": "",
          "type": "bool"
        }
      ],
      "stateMutability": "view",
      "type": "function"
    },
    {
      "inputs": [
        {
          "internalType": "address",
          "name": "",
          "type": "address"
        }
      ],
      "name": "_registry",
      "outputs": [
        {
          "internalType": "bool",
          "name": "",
          "type": "bool"
        }
      ],
      "stateMutability": "view",
      "type": "function"
    },
    {
      "inputs": [],
      "name": "_totalVotes",
      "outputs": [
        {
          "internalType": "uint256",
          "name": "",
          "type": "uint256"
        }
      ],
      "stateMutability": "view",
      "type": "function"
    },
    {
      "inputs": [],
      "name": "_voterCount",
      "outputs": [
        {
          "internalType": "uint64",
          "name": "",
          "type": "uint64"
        }
      ],
      "stateMutability": "view",
      "type": "function"
    },
    {
      "inputs": [
        {
          "internalType": "uint256",
          "name": "",
          "type": "uint256"
        }
      ],
      "name": "categories",
      "outputs": [
        {
          "internalType": "string",
          "name": "name",
          "type": "string"
        },
        {
          "internalType": "bool",
          "name": "open",
          "type": "bool"
        },
        {
          "internalType": "uint64",
          "name": "catId",
          "type": "uint64"
        }
      ],
      "stateMutability": "view",
      "type": "function"
    },
    {
      "inputs": [],
      "name": "owner",
      "outputs": [
        {
          "internalType": "address",
          "name": "",
          "type": "address"
        }
      ],
      "stateMutability": "view",
      "type": "function"
    },
    {
      "inputs": [],
      "name": "paused",
      "outputs": [
        {
          "internalType": "bool",
          "name": "",
          "type": "bool"
        }
      ],
      "stateMutability": "view",
      "type": "function"
    },
    {
      "inputs": [],
      "name": "renounceOwnership",
      "outputs": [],
      "stateMutability": "nonpayable",
      "type": "function"
    },
    {
      "inputs": [
        {
          "internalType": "address",
          "name": "newOwner",
          "type": "address"
        }
      ],
      "name": "transferOwnership",
      "outputs": [],
      "stateMutability": "nonpayable",
      "type": "function"
    }
  ],
  "bytecode": "0x608060405234801561001057600080fd5b5061002d61002261004c60201b60201c565b61005460201b60201c565b60008060146101000a81548160ff021916908315150217905550610118565b600033905090565b60008060009054906101000a900473ffffffffffffffffffffffffffffffffffffffff169050816000806101000a81548173ffffffffffffffffffffffffffffffffffffffff021916908373ffffffffffffffffffffffffffffffffffffffff1602179055508173ffffffffffffffffffffffffffffffffffffffff168173ffffffffffffffffffffffffffffffffffffffff167f8be0079c531659141344cd1fd0a4f28419497f9722a3daafe3b4186f6b6457e060405160405180910390a35050565b610a93806101276000396000f3fe608060405234801561001057600080fd5b506004361061009e5760003560e01c80638da5cb5b116100665780638da5cb5b14610149578063c6cdbe5e14610167578063ce4ec04814610199578063eb77c40f146101b7578063f2fde38b146101e75761009e565b806308e67038146100a35780631ddbcbb1146100d3578063317cc82d146101035780635c975abb14610121578063715018a61461013f575b600080fd5b6100bd60048036038101906100b8919061063f565b610203565b6040516100ca919061082c565b60405180910390f35b6100ed60048036038101906100e891906106cd565b610223565b6040516100fa919061082c565b60405180910390f35b61010b610243565b60405161011891906108e0565b60405180910390f35b61012961025d565b604051610136919061082c565b60405180910390f35b610147610273565b005b6101516102fb565b60405161015e9190610811565b60405180910390f35b610181600480360381019061017c91906106a4565b610324565b60405161019093929190610847565b60405180910390f35b6101a1610407565b6040516101ae91906108c5565b60405180910390f35b6101d160048036038101906101cc9190610668565b61040d565b6040516101de919061082c565b60405180910390f35b61020160048036038101906101fc919061063f565b61043c565b005b60046020528060005260406000206000915054906101000a900460ff1681565b60066020528060005260406000206000915054906101000a900460ff1681565b600760009054906101000a900467ffffffffffffffff1681565b60008060149054906101000a900460ff16905090565b61027b610534565b73ffffffffffffffffffffffffffffffffffffffff166102996102fb565b73ffffffffffffffffffffffffffffffffffffffff16146102ef576040517f08c379a00000000000000000000000000000000000000000000000000000000081526004016102e6906108a5565b60405180910390fd5b6102f9600061053c565b565b60008060009054906101000a900473ffffffffffffffffffffffffffffffffffffffff16905090565b6002818154811061033457600080fd5b9060005260206000209060030201600091509050806000018054610357906109a6565b80601f0160208091040260200160405190810160405280929190818152602001828054610383906109a6565b80156103d05780601f106103a5576101008083540402835291602001916103d0565b820191906000526020600020905b8154815290600101906020018083116103b357829003601f168201915b5050505050908060020160009054906101000a900460ff16908060020160019054906101000a900467ffffffffffffffff16905083565b60085481565b60056020528160005260406000206020528060005260406000206000915091509054906101000a900460ff1681565b610444610534565b73ffffffffffffffffffffffffffffffffffffffff166104626102fb565b73ffffffffffffffffffffffffffffffffffffffff16146104b8576040517f08c379a00000000000000000000000000000000000000000000000000000000081526004016104af906108a5565b60405180910390fd5b600073ffffffffffffffffffffffffffffffffffffffff168173ffffffffffffffffffffffffffffffffffffffff161415610528576040517f08c379a000000000000000000000000000000000000000000000000000000000815260040161051f90610885565b60405180910390fd5b6105318161053c565b50565b600033905090565b60008060009054906101000a900473ffffffffffffffffffffffffffffffffffffffff169050816000806101000a81548173ffffffffffffffffffffffffffffffffffffffff021916908373ffffffffffffffffffffffffffffffffffffffff1602179055508173ffffffffffffffffffffffffffffffffffffffff168173ffffffffffffffffffffffffffffffffffffffff167f8be0079c531659141344cd1fd0a4f28419497f9722a3daafe3b4186f6b6457e060405160405180910390a35050565b60008135905061060f81610a18565b92915050565b60008135905061062481610a2f565b92915050565b60008135905061063981610a46565b92915050565b60006020828403121561065157600080fd5b600061065f84828501610600565b91505092915050565b6000806040838503121561067b57600080fd5b600061068985828601610600565b925050602061069a85828601610615565b9150509250929050565b6000602082840312156106b657600080fd5b60006106c484828501610615565b91505092915050565b6000602082840312156106df57600080fd5b60006106ed8482850161062a565b91505092915050565b6106ff81610917565b82525050565b61070e81610929565b82525050565b600061071f826108fb565b6107298185610906565b9350610739818560208601610973565b61074281610a07565b840191505092915050565b600061075a602683610906565b91507f4f776e61626c653a206e6577206f776e657220697320746865207a65726f206160008301527f64647265737300000000000000000000000000000000000000000000000000006020830152604082019050919050565b60006107c0602083610906565b91507f4f776e61626c653a2063616c6c6572206973206e6f7420746865206f776e65726000830152602082019050919050565b6107fc81610955565b82525050565b61080b8161095f565b82525050565b600060208201905061082660008301846106f6565b92915050565b60006020820190506108416000830184610705565b92915050565b600060608201905081810360008301526108618186610714565b90506108706020830185610705565b61087d6040830184610802565b949350505050565b6000602082019050818103600083015261089e8161074d565b9050919050565b600060208201905081810360008301526108be816107b3565b9050919050565b60006020820190506108da60008301846107f3565b92915050565b60006020820190506108f56000830184610802565b92915050565b600081519050919050565b600082825260208201905092915050565b600061092282610935565b9050919050565b60008115159050919050565b600073ffffffffffffffffffffffffffffffffffffffff82169050919050565b6000819050919050565b600067ffffffffffffffff82169050919050565b60005b83811015610991578082015181840152602081019050610976565b838111156109a0576000848401525b50505050565b600060028204905060018216806109be57607f821691505b602082108114156109d2576109d16109d8565b5b50919050565b7f4e487b7100000000000000000000000000000000000000000000000000000000600052602260045260246000fd5b6000601f19601f8301169050919050565b610a2181610917565b8114610a2c57600080fd5b50565b610a3881610955565b8114610a4357600080fd5b50565b610a4f8161095f565b8114610a5a57600080fd5b5056fea264697066735822122033d8fb744c5ecd9ee8d6add01939d4722683e810fa2b9de72c0d682616dd54af64736f6c63430008000033",
  "linkReferences": {},
  "deployedLinkReferences": {}
}