{
  "_format": "hh-sol-artifact-1",
  "contractName": "VotingStorage",
  "sourceName": "contracts/Voting_Storage.sol",
  "abi": [
    {
      "anonymous": false,
      "inputs": [
        {
          "indexed": true,
          "internalType": "address",
          "name": "previousOwner",
          "type": "address"
        },
        {
          "indexed": true,
          "internalType": "address",
          "name": "newOwner",
          "type": "address"
        }
      ],
      "name": "OwnershipTransferred",
      "type": "event"
    },
    {
      "anonymous": false,
      "inputs": [
        {
          "indexed": false,
          "internalType": "address",
          "name": "account",
          "type": "address"
        }
      ],
      "name": "Paused",
      "type": "event"
    },
    {
      "anonymous": false,
      "inputs": [
        {
          "indexed": false,
          "internalType": "address",
          "name": "account",
          "type": "address"
        }
      ],
      "name": "Unpaused",
      "type": "event"
    },
    {
      "inputs": [
        {
          "internalType": "address",
          "name": "",
          "type": "address"
        }
      ],
      "name": "_addressboolStorage",
      "outputs": [
        {
          "internalType": "bool",
          "name": "",
          "type": "bool"
        }
      ],
      "stateMutability": "view",
      "type": "function"
    },
    {
      "inputs": [
        {
          "internalType": "address",
          "name": "",
          "type": "address"
        }
      ],
      "name": "_addressuintStorage",
      "outputs": [
        {
          "internalType": "uint64",
          "name": "",
          "type": "uint64"
        }
      ],
      "stateMutability": "view",
      "type": "function"
    },
    {
      "inputs": [
        {
          "internalType": "address",
          "name": "",
          "type": "address"
        },
        {
          "internalType": "uint256",
          "name": "",
          "type": "uint256"
        }
      ],
      "name": "_boolVoter",
      "outputs": [
        {
          "internalType": "bool",
          "name": "",
          "type": "bool"
        }
      ],
      "stateMutability": "view",
      "type": "function"
    },
    {
      "inputs": [],
      "name": "_catCounter",
      "outputs": [
        {
          "internalType": "uint64",
          "name": "",
          "type": "uint64"
        }
      ],
      "stateMutability": "view",
      "type": "function"
    },
    {
      "inputs": [
        {
          "internalType": "uint64",
          "name": "",
          "type": "uint64"
        }
      ],
      "name": "_openedOnce",
      "outputs": [
        {
          "internalType": "bool",
          "name": "",
          "type": "bool"
        }
      ],
      "stateMutability": "view",
      "type": "function"
    },
    {
      "inputs": [
        {
          "internalType": "address",
          "name": "",
          "type": "address"
        }
      ],
      "name": "_registry",
      "outputs": [
        {
          "internalType": "bool",
          "name": "",
          "type": "bool"
        }
      ],
      "stateMutability": "view",
      "type": "function"
    },
    {
      "inputs": [],
      "name": "_totalVotes",
      "outputs": [
        {
          "internalType": "uint256",
          "name": "",
          "type": "uint256"
        }
      ],
      "stateMutability": "view",
      "type": "function"
    },
    {
      "inputs": [
        {
          "internalType": "uint64",
          "name": "",
          "type": "uint64"
        }
      ],
      "name": "_uintboolStorage",
      "outputs": [
        {
          "internalType": "bool",
          "name": "",
          "type": "bool"
        }
      ],
      "stateMutability": "view",
      "type": "function"
    },
    {
      "inputs": [],
      "name": "_voterCount",
      "outputs": [
        {
          "internalType": "uint64",
          "name": "",
          "type": "uint64"
        }
      ],
      "stateMutability": "view",
      "type": "function"
    },
    {
      "inputs": [
        {
          "internalType": "uint256",
          "name": "",
          "type": "uint256"
        }
      ],
      "name": "categories",
      "outputs": [
        {
          "internalType": "bytes32",
          "name": "name",
          "type": "bytes32"
        },
        {
          "internalType": "bool",
          "name": "open",
          "type": "bool"
        },
        {
          "internalType": "uint64",
          "name": "catId",
          "type": "uint64"
        }
      ],
      "stateMutability": "view",
      "type": "function"
    },
    {
      "inputs": [],
      "name": "currentFuncAddress",
      "outputs": [
        {
          "internalType": "address",
          "name": "",
          "type": "address"
        }
      ],
      "stateMutability": "view",
      "type": "function"
    },
    {
      "inputs": [],
      "name": "owner",
      "outputs": [
        {
          "internalType": "address",
          "name": "",
          "type": "address"
        }
      ],
      "stateMutability": "view",
      "type": "function"
    },
    {
      "inputs": [],
      "name": "paused",
      "outputs": [
        {
          "internalType": "bool",
          "name": "",
          "type": "bool"
        }
      ],
      "stateMutability": "view",
      "type": "function"
    },
    {
      "inputs": [],
      "name": "renounceOwnership",
      "outputs": [],
      "stateMutability": "nonpayable",
      "type": "function"
    },
    {
      "inputs": [
        {
          "internalType": "address",
          "name": "newOwner",
          "type": "address"
        }
      ],
      "name": "transferOwnership",
      "outputs": [],
      "stateMutability": "nonpayable",
      "type": "function"
    },
    {
      "inputs": [],
      "name": "uintStorage1",
      "outputs": [
        {
          "internalType": "uint256",
          "name": "",
          "type": "uint256"
        }
      ],
      "stateMutability": "view",
      "type": "function"
    },
    {
      "inputs": [],
      "name": "uintStorage2",
      "outputs": [
        {
          "internalType": "uint256",
          "name": "",
          "type": "uint256"
        }
      ],
      "stateMutability": "view",
      "type": "function"
    },
    {
      "inputs": [],
      "name": "uintStorage3",
      "outputs": [
        {
          "internalType": "uint256",
          "name": "",
          "type": "uint256"
        }
      ],
      "stateMutability": "view",
      "type": "function"
    }
  ],
  "bytecode": "0x608060405234801561001057600080fd5b5061002d61002261004c60201b60201c565b61005460201b60201c565b60008060146101000a81548160ff021916908315150217905550610118565b600033905090565b60008060009054906101000a900473ffffffffffffffffffffffffffffffffffffffff169050816000806101000a81548173ffffffffffffffffffffffffffffffffffffffff021916908373ffffffffffffffffffffffffffffffffffffffff1602179055508173ffffffffffffffffffffffffffffffffffffffff168173ffffffffffffffffffffffffffffffffffffffff167f8be0079c531659141344cd1fd0a4f28419497f9722a3daafe3b4186f6b6457e060405160405180910390a35050565b610b8b806101276000396000f3fe608060405234801561001057600080fd5b50600436106101165760003560e01c80638da5cb5b116100a2578063ce4ec04811610071578063ce4ec048146102e9578063d42f3fbc14610307578063eb77c40f14610337578063f2fde38b14610367578063f3e672eb1461038357610116565b80638da5cb5b1461025d57806396875a3c1461027b578063c6cdbe5e14610299578063cb0a8211146102cb57610116565b8063317cc82d116100e9578063317cc82d146101b7578063519e22fb146101d55780635c975abb14610205578063715018a6146102235780637c8fee461461022d57610116565b806308e670381461011b5780631af5fd021461014b5780631ddbcbb1146101695780632e0d757314610199575b600080fd5b6101356004803603810190610130919061080e565b6103a1565b60405161014291906109d1565b60405180910390f35b6101536103c1565b60405161016091906109b6565b60405180910390f35b610183600480360381019061017e919061089c565b6103e7565b60405161019091906109d1565b60405180910390f35b6101a1610407565b6040516101ae9190610a7e565b60405180910390f35b6101bf610421565b6040516101cc9190610a7e565b60405180910390f35b6101ef60048036038101906101ea919061080e565b61043b565b6040516101fc9190610a7e565b60405180910390f35b61020d610462565b60405161021a91906109d1565b60405180910390f35b61022b610478565b005b6102476004803603810190610242919061089c565b610500565b60405161025491906109d1565b60405180910390f35b610265610520565b60405161027291906109b6565b60405180910390f35b610283610549565b6040516102909190610a63565b60405180910390f35b6102b360048036038101906102ae9190610873565b61054f565b6040516102c2939291906109ec565b60405180910390f35b6102d36105aa565b6040516102e09190610a63565b60405180910390f35b6102f16105b0565b6040516102fe9190610a63565b60405180910390f35b610321600480360381019061031c919061080e565b6105b6565b60405161032e91906109d1565b60405180910390f35b610351600480360381019061034c9190610837565b6105d6565b60405161035e91906109d1565b60405180910390f35b610381600480360381019061037c919061080e565b610605565b005b61038b6106fd565b6040516103989190610a63565b60405180910390f35b60046020528060005260406000206000915054906101000a900460ff1681565b600160009054906101000a900473ffffffffffffffffffffffffffffffffffffffff1681565b60066020528060005260406000206000915054906101000a900460ff1681565b600360009054906101000a900467ffffffffffffffff1681565b600760009054906101000a900467ffffffffffffffff1681565b600b6020528060005260406000206000915054906101000a900467ffffffffffffffff1681565b60008060149054906101000a900460ff16905090565b610480610703565b73ffffffffffffffffffffffffffffffffffffffff1661049e610520565b73ffffffffffffffffffffffffffffffffffffffff16146104f4576040517f08c379a00000000000000000000000000000000000000000000000000000000081526004016104eb90610a43565b60405180910390fd5b6104fe600061070b565b565b60096020528060005260406000206000915054906101000a900460ff1681565b60008060009054906101000a900473ffffffffffffffffffffffffffffffffffffffff16905090565b600c5481565b6002818154811061055f57600080fd5b90600052602060002090600302016000915090508060000154908060020160009054906101000a900460ff16908060020160019054906101000a900467ffffffffffffffff16905083565b600d5481565b60085481565b600a6020528060005260406000206000915054906101000a900460ff1681565b60056020528160005260406000206020528060005260406000206000915091509054906101000a900460ff1681565b61060d610703565b73ffffffffffffffffffffffffffffffffffffffff1661062b610520565b73ffffffffffffffffffffffffffffffffffffffff1614610681576040517f08c379a000000000000000000000000000000000000000000000000000000000815260040161067890610a43565b60405180910390fd5b600073ffffffffffffffffffffffffffffffffffffffff168173ffffffffffffffffffffffffffffffffffffffff1614156106f1576040517f08c379a00000000000000000000000000000000000000000000000000000000081526004016106e890610a23565b60405180910390fd5b6106fa8161070b565b50565b600e5481565b600033905090565b60008060009054906101000a900473ffffffffffffffffffffffffffffffffffffffff169050816000806101000a81548173ffffffffffffffffffffffffffffffffffffffff021916908373ffffffffffffffffffffffffffffffffffffffff1602179055508173ffffffffffffffffffffffffffffffffffffffff168173ffffffffffffffffffffffffffffffffffffffff167f8be0079c531659141344cd1fd0a4f28419497f9722a3daafe3b4186f6b6457e060405160405180910390a35050565b6000813590506107de81610b10565b92915050565b6000813590506107f381610b27565b92915050565b60008135905061080881610b3e565b92915050565b60006020828403121561082057600080fd5b600061082e848285016107cf565b91505092915050565b6000806040838503121561084a57600080fd5b6000610858858286016107cf565b9250506020610869858286016107e4565b9150509250929050565b60006020828403121561088557600080fd5b6000610893848285016107e4565b91505092915050565b6000602082840312156108ae57600080fd5b60006108bc848285016107f9565b91505092915050565b6108ce81610aaa565b82525050565b6108dd81610abc565b82525050565b6108ec81610ac8565b82525050565b60006108ff602683610a99565b91507f4f776e61626c653a206e6577206f776e657220697320746865207a65726f206160008301527f64647265737300000000000000000000000000000000000000000000000000006020830152604082019050919050565b6000610965602083610a99565b91507f4f776e61626c653a2063616c6c6572206973206e6f7420746865206f776e65726000830152602082019050919050565b6109a181610af2565b82525050565b6109b081610afc565b82525050565b60006020820190506109cb60008301846108c5565b92915050565b60006020820190506109e660008301846108d4565b92915050565b6000606082019050610a0160008301866108e3565b610a0e60208301856108d4565b610a1b60408301846109a7565b949350505050565b60006020820190508181036000830152610a3c816108f2565b9050919050565b60006020820190508181036000830152610a5c81610958565b9050919050565b6000602082019050610a786000830184610998565b92915050565b6000602082019050610a9360008301846109a7565b92915050565b600082825260208201905092915050565b6000610ab582610ad2565b9050919050565b60008115159050919050565b6000819050919050565b600073ffffffffffffffffffffffffffffffffffffffff82169050919050565b6000819050919050565b600067ffffffffffffffff82169050919050565b610b1981610aaa565b8114610b2457600080fd5b50565b610b3081610af2565b8114610b3b57600080fd5b50565b610b4781610afc565b8114610b5257600080fd5b5056fea2646970667358221220a317c24cc8124d8d0cb33ad75a94dbe77b240cae3f7d68c3be794bc0b3b7eb6064736f6c63430008000033",
  "linkReferences": {},
  "deployedLinkReferences": {}
}