{
  "_format": "hh-sol-artifact-1",
  "contractName": "VotingBooth",
  "sourceName": "contracts/Voting_Booth.sol",
  "abi": [
    {
      "anonymous": false,
      "inputs": [
        {
          "indexed": true,
          "internalType": "address",
          "name": "previousOwner",
          "type": "address"
        },
        {
          "indexed": true,
          "internalType": "address",
          "name": "newOwner",
          "type": "address"
        }
      ],
      "name": "OwnershipTransferred",
      "type": "event"
    },
    {
      "anonymous": false,
      "inputs": [
        {
          "indexed": false,
          "internalType": "address",
          "name": "account",
          "type": "address"
        }
      ],
      "name": "Paused",
      "type": "event"
    },
    {
      "anonymous": false,
      "inputs": [
        {
          "indexed": false,
          "internalType": "address",
          "name": "account",
          "type": "address"
        }
      ],
      "name": "Unpaused",
      "type": "event"
    },
    {
      "anonymous": false,
      "inputs": [
        {
          "indexed": false,
          "internalType": "string",
          "name": "_func",
          "type": "string"
        },
        {
          "indexed": false,
          "internalType": "string",
          "name": "_categoryName",
          "type": "string"
        },
        {
          "indexed": false,
          "internalType": "string[]",
          "name": "_candidateNames",
          "type": "string[]"
        },
        {
          "indexed": false,
          "internalType": "address",
          "name": "_from",
          "type": "address"
        }
      ],
      "name": "categorySet",
      "type": "event"
    },
    {
      "anonymous": false,
      "inputs": [
        {
          "indexed": false,
          "internalType": "string",
          "name": "_func",
          "type": "string"
        },
        {
          "indexed": false,
          "internalType": "string",
          "name": "_categoryName",
          "type": "string"
        },
        {
          "indexed": false,
          "internalType": "string",
          "name": "_winner",
          "type": "string"
        },
        {
          "indexed": false,
          "internalType": "address",
          "name": "_from",
          "type": "address"
        }
      ],
      "name": "categoryStatusChange",
      "type": "event"
    },
    {
      "anonymous": false,
      "inputs": [
        {
          "indexed": false,
          "internalType": "address",
          "name": "_donator",
          "type": "address"
        },
        {
          "indexed": false,
          "internalType": "uint256",
          "name": "_amount",
          "type": "uint256"
        },
        {
          "indexed": false,
          "internalType": "bytes",
          "name": "_message",
          "type": "bytes"
        }
      ],
      "name": "donationReceived",
      "type": "event"
    },
    {
      "stateMutability": "payable",
      "type": "fallback"
    },
    {
      "inputs": [
        {
          "internalType": "address",
          "name": "",
          "type": "address"
        },
        {
          "internalType": "uint256",
          "name": "",
          "type": "uint256"
        }
      ],
      "name": "_boolVoter",
      "outputs": [
        {
          "internalType": "bool",
          "name": "",
          "type": "bool"
        }
      ],
      "stateMutability": "view",
      "type": "function"
    },
    {
      "inputs": [
        {
          "internalType": "uint64",
          "name": "",
          "type": "uint64"
        }
      ],
      "name": "_openedOnce",
      "outputs": [
        {
          "internalType": "bool",
          "name": "",
          "type": "bool"
        }
      ],
      "stateMutability": "view",
      "type": "function"
    },
    {
      "inputs": [
        {
          "internalType": "address",
          "name": "",
          "type": "address"
        }
      ],
      "name": "_registry",
      "outputs": [
        {
          "internalType": "bool",
          "name": "",
          "type": "bool"
        }
      ],
      "stateMutability": "view",
      "type": "function"
    },
    {
      "inputs": [],
      "name": "_totalVotes",
      "outputs": [
        {
          "internalType": "uint256",
          "name": "",
          "type": "uint256"
        }
      ],
      "stateMutability": "view",
      "type": "function"
    },
    {
      "inputs": [],
      "name": "_voterCount",
      "outputs": [
        {
          "internalType": "uint64",
          "name": "",
          "type": "uint64"
        }
      ],
      "stateMutability": "view",
      "type": "function"
    },
    {
      "inputs": [
        {
          "internalType": "uint64",
          "name": "_catId",
          "type": "uint64"
        },
        {
          "internalType": "uint8",
          "name": "_canId",
          "type": "uint8"
        }
      ],
      "name": "castVote",
      "outputs": [
        {
          "internalType": "bool",
          "name": "",
          "type": "bool"
        }
      ],
      "stateMutability": "nonpayable",
      "type": "function"
    },
    {
      "inputs": [
        {
          "internalType": "uint256",
          "name": "",
          "type": "uint256"
        }
      ],
      "name": "categories",
      "outputs": [
        {
          "internalType": "string",
          "name": "name",
          "type": "string"
        },
        {
          "internalType": "bool",
          "name": "open",
          "type": "bool"
        },
        {
          "internalType": "uint64",
          "name": "catId",
          "type": "uint64"
        }
      ],
      "stateMutability": "view",
      "type": "function"
    },
    {
      "inputs": [
        {
          "internalType": "uint64",
          "name": "_catId",
          "type": "uint64"
        }
      ],
      "name": "closeCategory",
      "outputs": [
        {
          "internalType": "string",
          "name": "",
          "type": "string"
        }
      ],
      "stateMutability": "nonpayable",
      "type": "function"
    },
    {
      "inputs": [
        {
          "internalType": "uint64",
          "name": "_catId",
          "type": "uint64"
        },
        {
          "internalType": "uint8",
          "name": "_canId",
          "type": "uint8"
        }
      ],
      "name": "getCandidate",
      "outputs": [
        {
          "internalType": "string",
          "name": "",
          "type": "string"
        }
      ],
      "stateMutability": "view",
      "type": "function"
    },
    {
      "inputs": [
        {
          "internalType": "uint64",
          "name": "_catId",
          "type": "uint64"
        },
        {
          "internalType": "uint8",
          "name": "_canId",
          "type": "uint8"
        }
      ],
      "name": "getCandidateVotes",
      "outputs": [
        {
          "internalType": "uint256",
          "name": "",
          "type": "uint256"
        }
      ],
      "stateMutability": "view",
      "type": "function"
    },
    {
      "inputs": [
        {
          "internalType": "uint64",
          "name": "_catId",
          "type": "uint64"
        }
      ],
      "name": "getCategoryName",
      "outputs": [
        {
          "internalType": "string",
          "name": "",
          "type": "string"
        }
      ],
      "stateMutability": "view",
      "type": "function"
    },
    {
      "inputs": [
        {
          "internalType": "uint64",
          "name": "_catId",
          "type": "uint64"
        }
      ],
      "name": "getCategoryOpen",
      "outputs": [
        {
          "internalType": "bool",
          "name": "",
          "type": "bool"
        }
      ],
      "stateMutability": "view",
      "type": "function"
    },
    {
      "inputs": [
        {
          "internalType": "uint64",
          "name": "_catId",
          "type": "uint64"
        }
      ],
      "name": "openCategory",
      "outputs": [
        {
          "internalType": "bool",
          "name": "",
          "type": "bool"
        }
      ],
      "stateMutability": "nonpayable",
      "type": "function"
    },
    {
      "inputs": [],
      "name": "owner",
      "outputs": [
        {
          "internalType": "address",
          "name": "",
          "type": "address"
        }
      ],
      "stateMutability": "view",
      "type": "function"
    },
    {
      "inputs": [],
      "name": "pause",
      "outputs": [],
      "stateMutability": "nonpayable",
      "type": "function"
    },
    {
      "inputs": [],
      "name": "paused",
      "outputs": [
        {
          "internalType": "bool",
          "name": "",
          "type": "bool"
        }
      ],
      "stateMutability": "view",
      "type": "function"
    },
    {
      "inputs": [],
      "name": "register",
      "outputs": [],
      "stateMutability": "nonpayable",
      "type": "function"
    },
    {
      "inputs": [],
      "name": "renounceOwnership",
      "outputs": [],
      "stateMutability": "nonpayable",
      "type": "function"
    },
    {
      "inputs": [
        {
          "internalType": "string",
          "name": "_category",
          "type": "string"
        },
        {
          "internalType": "string[]",
          "name": "_candidates",
          "type": "string[]"
        }
      ],
      "name": "setCategory",
      "outputs": [
        {
          "internalType": "uint64",
          "name": "",
          "type": "uint64"
        }
      ],
      "stateMutability": "nonpayable",
      "type": "function"
    },
    {
      "inputs": [
        {
          "internalType": "address",
          "name": "newOwner",
          "type": "address"
        }
      ],
      "name": "transferOwnership",
      "outputs": [],
      "stateMutability": "nonpayable",
      "type": "function"
    },
    {
      "inputs": [],
      "name": "unpause",
      "outputs": [],
      "stateMutability": "nonpayable",
      "type": "function"
    },
    {
      "inputs": [],
      "name": "withdraw",
      "outputs": [],
      "stateMutability": "nonpayable",
      "type": "function"
    }
  ],
  "bytecode": "0x60806040523480156200001157600080fd5b5062000032620000266200005260201b60201c565b6200005a60201b60201c565b60008060146101000a81548160ff0219169083151502179055506200011e565b600033905090565b60008060009054906101000a900473ffffffffffffffffffffffffffffffffffffffff169050816000806101000a81548173ffffffffffffffffffffffffffffffffffffffff021916908373ffffffffffffffffffffffffffffffffffffffff1602179055508173ffffffffffffffffffffffffffffffffffffffff168173ffffffffffffffffffffffffffffffffffffffff167f8be0079c531659141344cd1fd0a4f28419497f9722a3daafe3b4186f6b6457e060405160405180910390a35050565b613209806200012e6000396000f3fe6080604052600436106101385760003560e01c8063662efa43116100ab5780638da5cb5b1161006f5780638da5cb5b14610467578063aa89921414610492578063c6cdbe5e146104cf578063ce4ec0481461050e578063eb77c40f14610539578063f2fde38b1461057657610139565b8063662efa43146103825780636bda58f9146103bf5780636d93d0d8146103fc578063715018a6146104395780638456cb591461045057610139565b8063317cc82d116100fd578063317cc82d14610284578063359af5ae146102af5780633ccfd60b146102ec5780633f4ba83a146103035780635133342b1461031a5780635c975abb1461035757610139565b80624554691461017957806302c3307d146101b657806308e67038146101f35780631aa3a008146102305780631ddbcbb11461024757610139565b5b7f5a2aceae61353e9c02ddfa394b7bdcd5d8470af09383135452a9db0888528d4e333460003660405161016f9493929190612ae8565b60405180910390a1005b34801561018557600080fd5b506101a0600480360381019061019b919061242f565b61059f565b6040516101ad9190612b43565b60405180910390f35b3480156101c257600080fd5b506101dd60048036038101906101d89190612406565b6106d3565b6040516101ea9190612b28565b60405180910390f35b3480156101ff57600080fd5b5061021a6004803603810190610215919061230c565b610985565b6040516102279190612b28565b60405180910390f35b34801561023c57600080fd5b506102456109a5565b005b34801561025357600080fd5b5061026e60048036038101906102699190612406565b610b28565b60405161027b9190612b28565b60405180910390f35b34801561029057600080fd5b50610299610b48565b6040516102a69190612e24565b60405180910390f35b3480156102bb57600080fd5b506102d660048036038101906102d19190612371565b610b62565b6040516102e39190612e24565b60405180910390f35b3480156102f857600080fd5b50610301610f23565b005b34801561030f57600080fd5b5061031861102b565b005b34801561032657600080fd5b50610341600480360381019061033c9190612406565b6110b1565b60405161034e9190612b43565b60405180910390f35b34801561036357600080fd5b5061036c611198565b6040516103799190612b28565b60405180910390f35b34801561038e57600080fd5b506103a960048036038101906103a49190612406565b6111ae565b6040516103b69190612b28565b60405180910390f35b3480156103cb57600080fd5b506103e660048036038101906103e1919061242f565b61121a565b6040516103f39190612e09565b60405180910390f35b34801561040857600080fd5b50610423600480360381019061041e9190612406565b6112c6565b6040516104309190612b43565b60405180910390f35b34801561044557600080fd5b5061044e611502565b005b34801561045c57600080fd5b5061046561158a565b005b34801561047357600080fd5b5061047c611610565b6040516104899190612acd565b60405180910390f35b34801561049e57600080fd5b506104b960048036038101906104b4919061242f565b611639565b6040516104c69190612b28565b60405180910390f35b3480156104db57600080fd5b506104f660048036038101906104f191906123dd565b6119bb565b60405161050593929190612b65565b60405180910390f35b34801561051a57600080fd5b50610523611a9e565b6040516105309190612e09565b60405180910390f35b34801561054557600080fd5b50610560600480360381019061055b9190612335565b611aa4565b60405161056d9190612b28565b60405180910390f35b34801561058257600080fd5b5061059d6004803603810190610598919061230c565b611ad3565b005b606060028367ffffffffffffffff16815481106105e5577f4e487b7100000000000000000000000000000000000000000000000000000000600052603260045260246000fd5b90600052602060002090600302016001018260ff1681548110610631577f4e487b7100000000000000000000000000000000000000000000000000000000600052603260045260246000fd5b9060005260206000209060030201600001805461064d90613003565b80601f016020809104026020016040519081016040528092919081815260200182805461067990613003565b80156106c65780601f1061069b576101008083540402835291602001916106c6565b820191906000526020600020905b8154815290600101906020018083116106a957829003601f168201915b5050505050905092915050565b60006106dd611bcb565b73ffffffffffffffffffffffffffffffffffffffff166106fb611610565b73ffffffffffffffffffffffffffffffffffffffff1614610751576040517f08c379a000000000000000000000000000000000000000000000000000000000815260040161074890612d69565b60405180910390fd5b816000151560028267ffffffffffffffff168154811061079a577f4e487b7100000000000000000000000000000000000000000000000000000000600052603260045260246000fd5b906000526020600020906003020160020160009054906101000a900460ff161515146107fb576040517f08c379a00000000000000000000000000000000000000000000000000000000081526004016107f290612d89565b60405180910390fd5b60001515600660008567ffffffffffffffff1667ffffffffffffffff16815260200190815260200160002060009054906101000a900460ff1615151461084057600080fd5b6001600660008567ffffffffffffffff1667ffffffffffffffff16815260200190815260200160002060006101000a81548160ff021916908315150217905550600160028467ffffffffffffffff16815481106108c6577f4e487b7100000000000000000000000000000000000000000000000000000000600052603260045260246000fd5b906000526020600020906003020160020160006101000a81548160ff0219169083151502179055507f4a8b947d4d93ed9ff4e2e725e22f540cb3ee6ddc0884ed548edf1c4039bd55ec60028467ffffffffffffffff1681548110610953577f4e487b7100000000000000000000000000000000000000000000000000000000600052603260045260246000fd5b906000526020600020906003020160000133604051610973929190612cf3565b60405180910390a16001915050919050565b60046020528060005260406000206000915054906101000a900460ff1681565b6109ad611198565b156109ed576040517f08c379a00000000000000000000000000000000000000000000000000000000081526004016109e490612d49565b60405180910390fd5b60011515600460003373ffffffffffffffffffffffffffffffffffffffff1673ffffffffffffffffffffffffffffffffffffffff16815260200190815260200160002060009054906101000a900460ff1615151415610a81576040517f08c379a0000000000000000000000000000000000000000000000000000000008152600401610a7890612cb3565b60405180910390fd5b6001600460003373ffffffffffffffffffffffffffffffffffffffff1673ffffffffffffffffffffffffffffffffffffffff16815260200190815260200160002060006101000a81548160ff0219169083151502179055506007600081819054906101000a900467ffffffffffffffff1680929190610aff9061307e565b91906101000a81548167ffffffffffffffff021916908367ffffffffffffffff16021790555050565b60066020528060005260406000206000915054906101000a900460ff1681565b600760009054906101000a900467ffffffffffffffff1681565b6000610b6c611bcb565b73ffffffffffffffffffffffffffffffffffffffff16610b8a611610565b73ffffffffffffffffffffffffffffffffffffffff1614610be0576040517f08c379a0000000000000000000000000000000000000000000000000000000008152600401610bd790612d69565b60405180910390fd5b610100825110610c25576040517f08c379a0000000000000000000000000000000000000000000000000000000008152600401610c1c90612da9565b60405180910390fd5b6000600360009054906101000a900467ffffffffffffffff1690506002600181600181540180825580915050039060005260206000209050508360028267ffffffffffffffff1681548110610ca3577f4e487b7100000000000000000000000000000000000000000000000000000000600052603260045260246000fd5b90600052602060002090600302016000019080519060200190610cc7929190612126565b508060028267ffffffffffffffff1681548110610d0d577f4e487b7100000000000000000000000000000000000000000000000000000000600052603260045260246000fd5b906000526020600020906003020160020160016101000a81548167ffffffffffffffff021916908367ffffffffffffffff16021790555060005b83518160ff161015610e905760028267ffffffffffffffff1681548110610d97577f4e487b7100000000000000000000000000000000000000000000000000000000600052603260045260246000fd5b90600052602060002090600302016001016040518060600160405280868460ff1681518110610def577f4e487b7100000000000000000000000000000000000000000000000000000000600052603260045260246000fd5b60200260200101518152602001600081526020018360ff1681525090806001815401808255809150506001900390600052602060002090600302016000909190919091506000820151816000019080519060200190610e4f929190612126565b506020820151816001015560408201518160020160006101000a81548160ff021916908360ff16021790555050508080610e88906130af565b915050610d47565b507f95709a98954762a4234e7456a42fa48279556f5ab3caf8c87a2413958be32855848433604051610ec493929190612ba3565b60405180910390a16003600081819054906101000a900467ffffffffffffffff1680929190610ef29061307e565b91906101000a81548167ffffffffffffffff021916908367ffffffffffffffff160217905550508091505092915050565b610f2b611bcb565b73ffffffffffffffffffffffffffffffffffffffff16610f49611610565b73ffffffffffffffffffffffffffffffffffffffff1614610f9f576040517f08c379a0000000000000000000000000000000000000000000000000000000008152600401610f9690612d69565b60405180910390fd5b60004711610fe2576040517f08c379a0000000000000000000000000000000000000000000000000000000008152600401610fd990612de9565b60405180910390fd5b3373ffffffffffffffffffffffffffffffffffffffff166108fc479081150290604051600060405180830381858888f19350505050158015611028573d6000803e3d6000fd5b50565b611033611bcb565b73ffffffffffffffffffffffffffffffffffffffff16611051611610565b73ffffffffffffffffffffffffffffffffffffffff16146110a7576040517f08c379a000000000000000000000000000000000000000000000000000000000815260040161109e90612d69565b60405180910390fd5b6110af611bd3565b565b606060028267ffffffffffffffff16815481106110f7577f4e487b7100000000000000000000000000000000000000000000000000000000600052603260045260246000fd5b9060005260206000209060030201600001805461111390613003565b80601f016020809104026020016040519081016040528092919081815260200182805461113f90613003565b801561118c5780601f106111615761010080835404028352916020019161118c565b820191906000526020600020905b81548152906001019060200180831161116f57829003601f168201915b50505050509050919050565b60008060149054906101000a900460ff16905090565b600060028267ffffffffffffffff16815481106111f4577f4e487b7100000000000000000000000000000000000000000000000000000000600052603260045260246000fd5b906000526020600020906003020160020160009054906101000a900460ff169050919050565b600060028367ffffffffffffffff1681548110611260577f4e487b7100000000000000000000000000000000000000000000000000000000600052603260045260246000fd5b90600052602060002090600302016001018260ff16815481106112ac577f4e487b7100000000000000000000000000000000000000000000000000000000600052603260045260246000fd5b906000526020600020906003020160010154905092915050565b60606112d0611bcb565b73ffffffffffffffffffffffffffffffffffffffff166112ee611610565b73ffffffffffffffffffffffffffffffffffffffff1614611344576040517f08c379a000000000000000000000000000000000000000000000000000000000815260040161133b90612d69565b60405180910390fd5b816001151560028267ffffffffffffffff168154811061138d577f4e487b7100000000000000000000000000000000000000000000000000000000600052603260045260246000fd5b906000526020600020906003020160020160009054906101000a900460ff161515146113ee576040517f08c379a00000000000000000000000000000000000000000000000000000000081526004016113e590612cd3565b60405180910390fd5b600060028467ffffffffffffffff1681548110611434577f4e487b7100000000000000000000000000000000000000000000000000000000600052603260045260246000fd5b906000526020600020906003020160020160006101000a81548160ff021916908315150217905550600061146784611c74565b90507f4a8b947d4d93ed9ff4e2e725e22f540cb3ee6ddc0884ed548edf1c4039bd55ec60028567ffffffffffffffff16815481106114ce577f4e487b7100000000000000000000000000000000000000000000000000000000600052603260045260246000fd5b906000526020600020906003020160000182336040516114f093929190612c1b565b60405180910390a18092505050919050565b61150a611bcb565b73ffffffffffffffffffffffffffffffffffffffff16611528611610565b73ffffffffffffffffffffffffffffffffffffffff161461157e576040517f08c379a000000000000000000000000000000000000000000000000000000000815260040161157590612d69565b60405180910390fd5b6115886000611fbf565b565b611592611bcb565b73ffffffffffffffffffffffffffffffffffffffff166115b0611610565b73ffffffffffffffffffffffffffffffffffffffff1614611606576040517f08c379a00000000000000000000000000000000000000000000000000000000081526004016115fd90612d69565b60405180910390fd5b61160e612083565b565b60008060009054906101000a900473ffffffffffffffffffffffffffffffffffffffff16905090565b600060011515600460003373ffffffffffffffffffffffffffffffffffffffff1673ffffffffffffffffffffffffffffffffffffffff16815260200190815260200160002060009054906101000a900460ff161515146116ce576040517f08c379a00000000000000000000000000000000000000000000000000000000081526004016116c590612dc9565b60405180910390fd5b6116d6611198565b15611716576040517f08c379a000000000000000000000000000000000000000000000000000000000815260040161170d90612d49565b60405180910390fd5b826001151560028267ffffffffffffffff168154811061175f577f4e487b7100000000000000000000000000000000000000000000000000000000600052603260045260246000fd5b906000526020600020906003020160020160009054906101000a900460ff161515146117c0576040517f08c379a00000000000000000000000000000000000000000000000000000000081526004016117b790612cd3565b60405180910390fd5b60001515600560003373ffffffffffffffffffffffffffffffffffffffff1673ffffffffffffffffffffffffffffffffffffffff16815260200190815260200160002060008667ffffffffffffffff16815260200190815260200160002060009054906101000a900460ff1615151461186e576040517f08c379a000000000000000000000000000000000000000000000000000000000815260040161186590612c93565b60405180910390fd5b6001600560003373ffffffffffffffffffffffffffffffffffffffff1673ffffffffffffffffffffffffffffffffffffffff16815260200190815260200160002060008667ffffffffffffffff16815260200190815260200160002060006101000a81548160ff02191690831515021790555060028467ffffffffffffffff1681548110611925577f4e487b7100000000000000000000000000000000000000000000000000000000600052603260045260246000fd5b90600052602060002090600302016001018360ff1681548110611971577f4e487b7100000000000000000000000000000000000000000000000000000000600052603260045260246000fd5b9060005260206000209060030201600101600081548092919061199390613035565b9190505550600860008154809291906119ab90613035565b9190505550600191505092915050565b600281815481106119cb57600080fd5b90600052602060002090600302016000915090508060000180546119ee90613003565b80601f0160208091040260200160405190810160405280929190818152602001828054611a1a90613003565b8015611a675780601f10611a3c57610100808354040283529160200191611a67565b820191906000526020600020905b815481529060010190602001808311611a4a57829003601f168201915b5050505050908060020160009054906101000a900460ff16908060020160019054906101000a900467ffffffffffffffff16905083565b60085481565b60056020528160005260406000206020528060005260406000206000915091509054906101000a900460ff1681565b611adb611bcb565b73ffffffffffffffffffffffffffffffffffffffff16611af9611610565b73ffffffffffffffffffffffffffffffffffffffff1614611b4f576040517f08c379a0000000000000000000000000000000000000000000000000000000008152600401611b4690612d69565b60405180910390fd5b600073ffffffffffffffffffffffffffffffffffffffff168173ffffffffffffffffffffffffffffffffffffffff161415611bbf576040517f08c379a0000000000000000000000000000000000000000000000000000000008152600401611bb690612c73565b60405180910390fd5b611bc881611fbf565b50565b600033905090565b611bdb611198565b611c1a576040517f08c379a0000000000000000000000000000000000000000000000000000000008152600401611c1190612bfb565b60405180910390fd5b60008060146101000a81548160ff0219169083151502179055507f5db9ee0a495bf2e6ff9c91a7834c1ba4fdd244a5e8aa4e537bd38aeae4b073aa611c5d611bcb565b604051611c6a9190612acd565b60405180910390a1565b6060816000151560028267ffffffffffffffff1681548110611cbf577f4e487b7100000000000000000000000000000000000000000000000000000000600052603260045260246000fd5b906000526020600020906003020160020160009054906101000a900460ff16151514611d20576040517f08c379a0000000000000000000000000000000000000000000000000000000008152600401611d1790612d89565b60405180910390fd5b60006040518060400160405280600981526020017f6e6f2077696e6e6572000000000000000000000000000000000000000000000081525090506000805b60028667ffffffffffffffff1681548110611da2577f4e487b7100000000000000000000000000000000000000000000000000000000600052603260045260246000fd5b9060005260206000209060030201600101805490508160ff161015611fb357600060028767ffffffffffffffff1681548110611e07577f4e487b7100000000000000000000000000000000000000000000000000000000600052603260045260246000fd5b90600052602060002090600302016001018260ff1681548110611e53577f4e487b7100000000000000000000000000000000000000000000000000000000600052603260045260246000fd5b906000526020600020906003020160010154905082811115611f9f5760028767ffffffffffffffff1681548110611eb3577f4e487b7100000000000000000000000000000000000000000000000000000000600052603260045260246000fd5b90600052602060002090600302016001018260ff1681548110611eff577f4e487b7100000000000000000000000000000000000000000000000000000000600052603260045260246000fd5b90600052602060002090600302016000018054611f1b90613003565b80601f0160208091040260200160405190810160405280929190818152602001828054611f4790613003565b8015611f945780601f10611f6957610100808354040283529160200191611f94565b820191906000526020600020905b815481529060010190602001808311611f7757829003601f168201915b505050505093508092505b508080611fab906130af565b915050611d5e565b50819350505050919050565b60008060009054906101000a900473ffffffffffffffffffffffffffffffffffffffff169050816000806101000a81548173ffffffffffffffffffffffffffffffffffffffff021916908373ffffffffffffffffffffffffffffffffffffffff1602179055508173ffffffffffffffffffffffffffffffffffffffff168173ffffffffffffffffffffffffffffffffffffffff167f8be0079c531659141344cd1fd0a4f28419497f9722a3daafe3b4186f6b6457e060405160405180910390a35050565b61208b611198565b156120cb576040517f08c379a00000000000000000000000000000000000000000000000000000000081526004016120c290612d49565b60405180910390fd5b6001600060146101000a81548160ff0219169083151502179055507f62e78cea01bee320cd4e420270b5ea74000d11b0c9f74754ebdbfc544b05a25861210f611bcb565b60405161211c9190612acd565b60405180910390a1565b82805461213290613003565b90600052602060002090601f016020900481019282612154576000855561219b565b82601f1061216d57805160ff191683800117855561219b565b8280016001018555821561219b579182015b8281111561219a57825182559160200191906001019061217f565b5b5090506121a891906121ac565b5090565b5b808211156121c55760008160009055506001016121ad565b5090565b60006121dc6121d784612e70565b612e3f565b9050808382526020820190508260005b8581101561221c578135850161220288826122a3565b8452602084019350602083019250506001810190506121ec565b5050509392505050565b600061223961223484612e9c565b612e3f565b90508281526020810184848401111561225157600080fd5b61225c848285612fc1565b509392505050565b60008135905061227381613177565b92915050565b600082601f83011261228a57600080fd5b813561229a8482602086016121c9565b91505092915050565b600082601f8301126122b457600080fd5b81356122c4848260208601612226565b91505092915050565b6000813590506122dc8161318e565b92915050565b6000813590506122f1816131a5565b92915050565b600081359050612306816131bc565b92915050565b60006020828403121561231e57600080fd5b600061232c84828501612264565b91505092915050565b6000806040838503121561234857600080fd5b600061235685828601612264565b9250506020612367858286016122cd565b9150509250929050565b6000806040838503121561238457600080fd5b600083013567ffffffffffffffff81111561239e57600080fd5b6123aa858286016122a3565b925050602083013567ffffffffffffffff8111156123c757600080fd5b6123d385828601612279565b9150509250929050565b6000602082840312156123ef57600080fd5b60006123fd848285016122cd565b91505092915050565b60006020828403121561241857600080fd5b6000612426848285016122e2565b91505092915050565b6000806040838503121561244257600080fd5b6000612450858286016122e2565b9250506020612461858286016122f7565b9150509250929050565b6000612477838361253f565b905092915050565b61248881612f58565b82525050565b600061249982612ef1565b6124a38185612f14565b9350836020820285016124b585612ecc565b8060005b858110156124f157848403895281516124d2858261246b565b94506124dd83612f07565b925060208a019950506001810190506124b9565b50829750879550505050505092915050565b61250c81612f6a565b82525050565b600061251e8385612f25565b935061252b838584612fc1565b61253483613166565b840190509392505050565b600061254a82612efc565b6125548185612f36565b9350612564818560208601612fd0565b61256d81613166565b840191505092915050565b600061258382612efc565b61258d8185612f47565b935061259d818560208601612fd0565b6125a681613166565b840191505092915050565b600081546125be81613003565b6125c88186612f47565b945060018216600081146125e357600181146125f557612628565b60ff1983168652602086019350612628565b6125fe85612edc565b60005b8381101561262057815481890152600182019150602081019050612601565b808801955050505b50505092915050565b600061263e600c83612f47565b91507f4e65772043617465676f727900000000000000000000000000000000000000006000830152602082019050919050565b600061267e601483612f47565b91507f5061757361626c653a206e6f74207061757365640000000000000000000000006000830152602082019050919050565b60006126be600f83612f47565b91507f43617465676f727920436c6f73656400000000000000000000000000000000006000830152602082019050919050565b60006126fe602683612f47565b91507f4f776e61626c653a206e6577206f776e657220697320746865207a65726f206160008301527f64647265737300000000000000000000000000000000000000000000000000006020830152604082019050919050565b6000612764602783612f47565b91507f596f75206861766520616c726561647920766f74656420696e2074686973206360008301527f617465676f7279000000000000000000000000000000000000000000000000006020830152604082019050919050565b60006127ca602283612f47565b91507f54686973206164647265737320697320616c726561647920726567697374657260008301527f65640000000000000000000000000000000000000000000000000000000000006020830152604082019050919050565b6000612830603b83612f47565b91507f5468697320616374696f6e2063616e6e6f7420626520706572666f726d65642060008301527f7768656e207468652063617465676f727920697320636c6f73656400000000006020830152604082019050919050565b6000612896600f83612f47565b91507f43617465676f7279204f70656e656400000000000000000000000000000000006000830152602082019050919050565b60006128d6601083612f47565b91507f5061757361626c653a20706175736564000000000000000000000000000000006000830152602082019050919050565b6000612916602083612f47565b91507f4f776e61626c653a2063616c6c6572206973206e6f7420746865206f776e65726000830152602082019050919050565b6000612956603983612f47565b91507f5468697320616374696f6e2063616e6e6f7420626520706572666f726d65642060008301527f7768656e207468652063617465676f7279206973206f70656e000000000000006020830152604082019050919050565b60006129bc601e83612f47565b91507f54686572652061726520746f6f206d616e792063616e646964617465732e00006000830152602082019050919050565b60006129fc602983612f47565b91507f546869732077616c6c65742061646472657373206973206e6f7420796574207260008301527f65676973746572656400000000000000000000000000000000000000000000006020830152604082019050919050565b6000612a62600083612f47565b9150600082019050919050565b6000612a7c601483612f47565b91507f4e6f2066756e647320696e20636f6e74726163740000000000000000000000006000830152602082019050919050565b612ab881612f96565b82525050565b612ac781612fa0565b82525050565b6000602082019050612ae2600083018461247f565b92915050565b6000606082019050612afd600083018761247f565b612b0a6020830186612aaf565b8181036040830152612b1d818486612512565b905095945050505050565b6000602082019050612b3d6000830184612503565b92915050565b60006020820190508181036000830152612b5d8184612578565b905092915050565b60006060820190508181036000830152612b7f8186612578565b9050612b8e6020830185612503565b612b9b6040830184612abe565b949350505050565b60006080820190508181036000830152612bbc81612631565b90508181036020830152612bd08186612578565b90508181036040830152612be4818561248e565b9050612bf3606083018461247f565b949350505050565b60006020820190508181036000830152612c1481612671565b9050919050565b60006080820190508181036000830152612c34816126b1565b90508181036020830152612c4881866125b1565b90508181036040830152612c5c8185612578565b9050612c6b606083018461247f565b949350505050565b60006020820190508181036000830152612c8c816126f1565b9050919050565b60006020820190508181036000830152612cac81612757565b9050919050565b60006020820190508181036000830152612ccc816127bd565b9050919050565b60006020820190508181036000830152612cec81612823565b9050919050565b60006080820190508181036000830152612d0c81612889565b90508181036020830152612d2081856125b1565b90508181036040830152612d3381612a55565b9050612d42606083018461247f565b9392505050565b60006020820190508181036000830152612d62816128c9565b9050919050565b60006020820190508181036000830152612d8281612909565b9050919050565b60006020820190508181036000830152612da281612949565b9050919050565b60006020820190508181036000830152612dc2816129af565b9050919050565b60006020820190508181036000830152612de2816129ef565b9050919050565b60006020820190508181036000830152612e0281612a6f565b9050919050565b6000602082019050612e1e6000830184612aaf565b92915050565b6000602082019050612e396000830184612abe565b92915050565b6000604051905081810181811067ffffffffffffffff82111715612e6657612e65613137565b5b8060405250919050565b600067ffffffffffffffff821115612e8b57612e8a613137565b5b602082029050602081019050919050565b600067ffffffffffffffff821115612eb757612eb6613137565b5b601f19601f8301169050602081019050919050565b6000819050602082019050919050565b60008190508160005260206000209050919050565b600081519050919050565b600081519050919050565b6000602082019050919050565b600082825260208201905092915050565b600082825260208201905092915050565b600082825260208201905092915050565b600082825260208201905092915050565b6000612f6382612f76565b9050919050565b60008115159050919050565b600073ffffffffffffffffffffffffffffffffffffffff82169050919050565b6000819050919050565b600067ffffffffffffffff82169050919050565b600060ff82169050919050565b82818337600083830152505050565b60005b83811015612fee578082015181840152602081019050612fd3565b83811115612ffd576000848401525b50505050565b6000600282049050600182168061301b57607f821691505b6020821081141561302f5761302e613108565b5b50919050565b600061304082612f96565b91507fffffffffffffffffffffffffffffffffffffffffffffffffffffffffffffffff821415613073576130726130d9565b5b600182019050919050565b600061308982612fa0565b915067ffffffffffffffff8214156130a4576130a36130d9565b5b600182019050919050565b60006130ba82612fb4565b915060ff8214156130ce576130cd6130d9565b5b600182019050919050565b7f4e487b7100000000000000000000000000000000000000000000000000000000600052601160045260246000fd5b7f4e487b7100000000000000000000000000000000000000000000000000000000600052602260045260246000fd5b7f4e487b7100000000000000000000000000000000000000000000000000000000600052604160045260246000fd5b6000601f19601f8301169050919050565b61318081612f58565b811461318b57600080fd5b50565b61319781612f96565b81146131a257600080fd5b50565b6131ae81612fa0565b81146131b957600080fd5b50565b6131c581612fb4565b81146131d057600080fd5b5056fea264697066735822122053507596af39b07ab77bd4c0a51d97a5a89eb51d37d3e98b89a0985b9b99457b64736f6c63430008000033",
  "linkReferences": {},
  "deployedLinkReferences": {}
}