{
  "_format": "hh-sol-artifact-1",
  "contractName": "VotingBooth",
  "sourceName": "contracts/Voting_Booth.sol",
  "abi": [
    {
      "anonymous": false,
      "inputs": [
        {
          "indexed": true,
          "internalType": "address",
          "name": "previousOwner",
          "type": "address"
        },
        {
          "indexed": true,
          "internalType": "address",
          "name": "newOwner",
          "type": "address"
        }
      ],
      "name": "OwnershipTransferred",
      "type": "event"
    },
    {
      "anonymous": false,
      "inputs": [
        {
          "indexed": false,
          "internalType": "address",
          "name": "account",
          "type": "address"
        }
      ],
      "name": "Paused",
      "type": "event"
    },
    {
      "anonymous": false,
      "inputs": [
        {
          "indexed": false,
          "internalType": "address",
          "name": "account",
          "type": "address"
        }
      ],
      "name": "Unpaused",
      "type": "event"
    },
    {
      "inputs": [
        {
          "internalType": "address",
          "name": "",
          "type": "address"
        },
        {
          "internalType": "uint256",
          "name": "",
          "type": "uint256"
        }
      ],
      "name": "_boolVoter",
      "outputs": [
        {
          "internalType": "bool",
          "name": "",
          "type": "bool"
        }
      ],
      "stateMutability": "view",
      "type": "function"
    },
    {
      "inputs": [
        {
          "internalType": "uint64",
          "name": "",
          "type": "uint64"
        }
      ],
      "name": "_openedOnce",
      "outputs": [
        {
          "internalType": "bool",
          "name": "",
          "type": "bool"
        }
      ],
      "stateMutability": "view",
      "type": "function"
    },
    {
      "inputs": [
        {
          "internalType": "address",
          "name": "",
          "type": "address"
        }
      ],
      "name": "_registry",
      "outputs": [
        {
          "internalType": "bool",
          "name": "",
          "type": "bool"
        }
      ],
      "stateMutability": "view",
      "type": "function"
    },
    {
      "inputs": [],
      "name": "_totalVotes",
      "outputs": [
        {
          "internalType": "uint256",
          "name": "",
          "type": "uint256"
        }
      ],
      "stateMutability": "view",
      "type": "function"
    },
    {
      "inputs": [],
      "name": "_voterCount",
      "outputs": [
        {
          "internalType": "uint64",
          "name": "",
          "type": "uint64"
        }
      ],
      "stateMutability": "view",
      "type": "function"
    },
    {
      "inputs": [
        {
          "internalType": "uint64",
          "name": "_catId",
          "type": "uint64"
        },
        {
          "internalType": "uint8",
          "name": "_canId",
          "type": "uint8"
        }
      ],
      "name": "castVote",
      "outputs": [
        {
          "internalType": "bool",
          "name": "",
          "type": "bool"
        }
      ],
      "stateMutability": "nonpayable",
      "type": "function"
    },
    {
      "inputs": [
        {
          "internalType": "uint256",
          "name": "",
          "type": "uint256"
        }
      ],
      "name": "categories",
      "outputs": [
        {
          "internalType": "string",
          "name": "name",
          "type": "string"
        },
        {
          "internalType": "bool",
          "name": "open",
          "type": "bool"
        },
        {
          "internalType": "uint64",
          "name": "catId",
          "type": "uint64"
        }
      ],
      "stateMutability": "view",
      "type": "function"
    },
    {
      "inputs": [
        {
          "internalType": "uint64",
          "name": "_catId",
          "type": "uint64"
        }
      ],
      "name": "closeCategory",
      "outputs": [],
      "stateMutability": "nonpayable",
      "type": "function"
    },
    {
      "inputs": [
        {
          "internalType": "uint64",
          "name": "_catId",
          "type": "uint64"
        }
      ],
      "name": "getCategoryVotes",
      "outputs": [
        {
          "internalType": "uint256",
          "name": "",
          "type": "uint256"
        }
      ],
      "stateMutability": "view",
      "type": "function"
    },
    {
      "inputs": [
        {
          "internalType": "uint64",
          "name": "_catId",
          "type": "uint64"
        }
      ],
      "name": "openCategory",
      "outputs": [],
      "stateMutability": "nonpayable",
      "type": "function"
    },
    {
      "inputs": [],
      "name": "owner",
      "outputs": [
        {
          "internalType": "address",
          "name": "",
          "type": "address"
        }
      ],
      "stateMutability": "view",
      "type": "function"
    },
    {
      "inputs": [],
      "name": "pause",
      "outputs": [],
      "stateMutability": "nonpayable",
      "type": "function"
    },
    {
      "inputs": [],
      "name": "paused",
      "outputs": [
        {
          "internalType": "bool",
          "name": "",
          "type": "bool"
        }
      ],
      "stateMutability": "view",
      "type": "function"
    },
    {
      "inputs": [],
      "name": "register",
      "outputs": [],
      "stateMutability": "nonpayable",
      "type": "function"
    },
    {
      "inputs": [],
      "name": "renounceOwnership",
      "outputs": [],
      "stateMutability": "nonpayable",
      "type": "function"
    },
    {
      "inputs": [
        {
          "internalType": "string",
          "name": "_category",
          "type": "string"
        },
        {
          "internalType": "string[]",
          "name": "_candidates",
          "type": "string[]"
        }
      ],
      "name": "setCategory",
      "outputs": [
        {
          "internalType": "uint64",
          "name": "",
          "type": "uint64"
        }
      ],
      "stateMutability": "nonpayable",
      "type": "function"
    },
    {
      "inputs": [
        {
          "internalType": "address",
          "name": "newOwner",
          "type": "address"
        }
      ],
      "name": "transferOwnership",
      "outputs": [],
      "stateMutability": "nonpayable",
      "type": "function"
    },
    {
      "inputs": [],
      "name": "unpause",
      "outputs": [],
      "stateMutability": "nonpayable",
      "type": "function"
    },
    {
      "inputs": [],
      "name": "withdraw",
      "outputs": [],
      "stateMutability": "nonpayable",
      "type": "function"
    }
  ],
  "bytecode": "0x60806040526000600260006101000a81548167ffffffffffffffff021916908367ffffffffffffffff1602179055503480156200003b57600080fd5b506200005c620000506200007c60201b60201c565b6200008460201b60201c565b60008060146101000a81548160ff02191690831515021790555062000148565b600033905090565b60008060009054906101000a900473ffffffffffffffffffffffffffffffffffffffff169050816000806101000a81548173ffffffffffffffffffffffffffffffffffffffff021916908373ffffffffffffffffffffffffffffffffffffffff1602179055508173ffffffffffffffffffffffffffffffffffffffff168173ffffffffffffffffffffffffffffffffffffffff167f8be0079c531659141344cd1fd0a4f28419497f9722a3daafe3b4186f6b6457e060405160405180910390a35050565b61260180620001586000396000f3fe608060405234801561001057600080fd5b50600436106101215760003560e01c80636d93d0d8116100ad578063aa89921411610071578063aa899214146102aa578063c6cdbe5e146102da578063ce4ec0481461030c578063eb77c40f1461032a578063f2fde38b1461035a57610121565b80636d93d0d81461022c578063715018a61461024857806380417bfb146102525780638456cb59146102825780638da5cb5b1461028c57610121565b8063317cc82d116100f4578063317cc82d146101ac578063359af5ae146101ca5780633ccfd60b146101fa5780633f4ba83a146102045780635c975abb1461020e57610121565b806302c3307d1461012657806308e67038146101425780631aa3a008146101725780631ddbcbb11461017c575b600080fd5b610140600480360381019061013b9190611cd5565b610376565b005b61015c60048036038101906101579190611bdb565b61055a565b60405161016991906120a2565b60405180910390f35b61017a61057a565b005b61019660048036038101906101919190611cd5565b6106b5565b6040516101a391906120a2565b60405180910390f35b6101b46106d5565b6040516101c19190612236565b60405180910390f35b6101e460048036038101906101df9190611c40565b6106ef565b6040516101f19190612236565b60405180910390f35b610202610ca9565b005b61020c610db1565b005b610216610e37565b60405161022391906120a2565b60405180910390f35b61024660048036038101906102419190611cd5565b610e4d565b005b610250610fad565b005b61026c60048036038101906102679190611cd5565b611035565b604051610279919061221b565b60405180910390f35b61028a6111dc565b005b610294611262565b6040516102a19190612087565b60405180910390f35b6102c460048036038101906102bf9190611cfe565b61128b565b6040516102d191906120a2565b60405180910390f35b6102f460048036038101906102ef9190611cac565b6115d5565b604051610303939291906120bd565b60405180910390f35b6103146116b8565b604051610321919061221b565b60405180910390f35b610344600480360381019061033f9190611c04565b6116be565b60405161035191906120a2565b60405180910390f35b610374600480360381019061036f9190611bdb565b6116ed565b005b61037e6117e5565b73ffffffffffffffffffffffffffffffffffffffff1661039c611262565b73ffffffffffffffffffffffffffffffffffffffff16146103f2576040517f08c379a00000000000000000000000000000000000000000000000000000000081526004016103e99061219b565b60405180910390fd5b6000151560018267ffffffffffffffff168154811061043a577f4e487b7100000000000000000000000000000000000000000000000000000000600052603260045260246000fd5b906000526020600020906003020160020160009054906101000a900460ff1615151461046557600080fd5b60001515600560008367ffffffffffffffff1667ffffffffffffffff16815260200190815260200160002060009054906101000a900460ff161515146104aa57600080fd5b6001600560008367ffffffffffffffff1667ffffffffffffffff16815260200190815260200160002060006101000a81548160ff0219169083151502179055506001808267ffffffffffffffff168154811061052f577f4e487b7100000000000000000000000000000000000000000000000000000000600052603260045260246000fd5b906000526020600020906003020160020160006101000a81548160ff02191690831515021790555050565b60036020528060005260406000206000915054906101000a900460ff1681565b60011515600360003373ffffffffffffffffffffffffffffffffffffffff1673ffffffffffffffffffffffffffffffffffffffff16815260200190815260200160002060009054906101000a900460ff161515141561060e576040517f08c379a00000000000000000000000000000000000000000000000000000000081526004016106059061215b565b60405180910390fd5b6001600360003373ffffffffffffffffffffffffffffffffffffffff1673ffffffffffffffffffffffffffffffffffffffff16815260200190815260200160002060006101000a81548160ff0219169083151502179055506006600081819054906101000a900467ffffffffffffffff168092919061068c90612476565b91906101000a81548167ffffffffffffffff021916908367ffffffffffffffff16021790555050565b60056020528060005260406000206000915054906101000a900460ff1681565b600660009054906101000a900467ffffffffffffffff1681565b60006106f96117e5565b73ffffffffffffffffffffffffffffffffffffffff16610717611262565b73ffffffffffffffffffffffffffffffffffffffff161461076d576040517f08c379a00000000000000000000000000000000000000000000000000000000081526004016107649061219b565b60405180910390fd5b6101008251106107b2576040517f08c379a00000000000000000000000000000000000000000000000000000000081526004016107a9906121db565b60405180910390fd5b6001808160018154018082558091505003906000526020600020905050826001600260009054906101000a900467ffffffffffffffff1667ffffffffffffffff168154811061082a577f4e487b7100000000000000000000000000000000000000000000000000000000600052603260045260246000fd5b9060005260206000209060030201600001908051906020019061084e9291906119f5565b50600260009054906101000a900467ffffffffffffffff166001600260009054906101000a900467ffffffffffffffff1667ffffffffffffffff16815481106108c0577f4e487b7100000000000000000000000000000000000000000000000000000000600052603260045260246000fd5b906000526020600020906003020160020160016101000a81548167ffffffffffffffff021916908367ffffffffffffffff1602179055506001600260009054906101000a900467ffffffffffffffff1667ffffffffffffffff1681548110610951577f4e487b7100000000000000000000000000000000000000000000000000000000600052603260045260246000fd5b90600052602060002090600302016001016001816001815401808255809150500390600052602060002090505060005b82518160ff161015610c3c57828160ff16815181106109c9577f4e487b7100000000000000000000000000000000000000000000000000000000600052603260045260246000fd5b60200260200101516001600260009054906101000a900467ffffffffffffffff1667ffffffffffffffff1681548110610a2b577f4e487b7100000000000000000000000000000000000000000000000000000000600052603260045260246000fd5b90600052602060002090600302016001018260ff1681548110610a77577f4e487b7100000000000000000000000000000000000000000000000000000000600052603260045260246000fd5b90600052602060002090600302016000019080519060200190610a9b9291906119f5565b5060006001600260009054906101000a900467ffffffffffffffff1667ffffffffffffffff1681548110610af8577f4e487b7100000000000000000000000000000000000000000000000000000000600052603260045260246000fd5b90600052602060002090600302016001018260ff1681548110610b44577f4e487b7100000000000000000000000000000000000000000000000000000000600052603260045260246000fd5b906000526020600020906003020160010181905550806001600260009054906101000a900467ffffffffffffffff1667ffffffffffffffff1681548110610bb4577f4e487b7100000000000000000000000000000000000000000000000000000000600052603260045260246000fd5b90600052602060002090600302016001018260ff1681548110610c00577f4e487b7100000000000000000000000000000000000000000000000000000000600052603260045260246000fd5b906000526020600020906003020160020160006101000a81548160ff021916908360ff1602179055508080610c34906124a7565b915050610981565b506002600081819054906101000a900467ffffffffffffffff1680929190610c6390612476565b91906101000a81548167ffffffffffffffff021916908367ffffffffffffffff16021790555050600260009054906101000a900467ffffffffffffffff16905092915050565b610cb16117e5565b73ffffffffffffffffffffffffffffffffffffffff16610ccf611262565b73ffffffffffffffffffffffffffffffffffffffff1614610d25576040517f08c379a0000000000000000000000000000000000000000000000000000000008152600401610d1c9061219b565b60405180910390fd5b60004711610d68576040517f08c379a0000000000000000000000000000000000000000000000000000000008152600401610d5f906121fb565b60405180910390fd5b3373ffffffffffffffffffffffffffffffffffffffff166108fc479081150290604051600060405180830381858888f19350505050158015610dae573d6000803e3d6000fd5b50565b610db96117e5565b73ffffffffffffffffffffffffffffffffffffffff16610dd7611262565b73ffffffffffffffffffffffffffffffffffffffff1614610e2d576040517f08c379a0000000000000000000000000000000000000000000000000000000008152600401610e249061219b565b60405180910390fd5b610e356117ed565b565b60008060149054906101000a900460ff16905090565b610e556117e5565b73ffffffffffffffffffffffffffffffffffffffff16610e73611262565b73ffffffffffffffffffffffffffffffffffffffff1614610ec9576040517f08c379a0000000000000000000000000000000000000000000000000000000008152600401610ec09061219b565b60405180910390fd5b6001151560018267ffffffffffffffff1681548110610f11577f4e487b7100000000000000000000000000000000000000000000000000000000600052603260045260246000fd5b906000526020600020906003020160020160009054906101000a900460ff16151514610f3c57600080fd5b600060018267ffffffffffffffff1681548110610f82577f4e487b7100000000000000000000000000000000000000000000000000000000600052603260045260246000fd5b906000526020600020906003020160020160006101000a81548160ff02191690831515021790555050565b610fb56117e5565b73ffffffffffffffffffffffffffffffffffffffff16610fd3611262565b73ffffffffffffffffffffffffffffffffffffffff1614611029576040517f08c379a00000000000000000000000000000000000000000000000000000000081526004016110209061219b565b60405180910390fd5b611033600061188e565b565b600080151560018367ffffffffffffffff168154811061107e577f4e487b7100000000000000000000000000000000000000000000000000000000600052603260045260246000fd5b906000526020600020906003020160020160009054906101000a900460ff161515146110a957600080fd5b6000805b60018467ffffffffffffffff16815481106110f1577f4e487b7100000000000000000000000000000000000000000000000000000000600052603260045260246000fd5b9060005260206000209060030201600101805490508160ff1610156111d25760018467ffffffffffffffff1681548110611154577f4e487b7100000000000000000000000000000000000000000000000000000000600052603260045260246000fd5b90600052602060002090600302016001018160ff16815481106111a0577f4e487b7100000000000000000000000000000000000000000000000000000000600052603260045260246000fd5b906000526020600020906003020160010154826111bd91906122fa565b915080806111ca906124a7565b9150506110ad565b5080915050919050565b6111e46117e5565b73ffffffffffffffffffffffffffffffffffffffff16611202611262565b73ffffffffffffffffffffffffffffffffffffffff1614611258576040517f08c379a000000000000000000000000000000000000000000000000000000000815260040161124f9061219b565b60405180910390fd5b611260611952565b565b60008060009054906101000a900473ffffffffffffffffffffffffffffffffffffffff16905090565b600060011515600360003373ffffffffffffffffffffffffffffffffffffffff1673ffffffffffffffffffffffffffffffffffffffff16815260200190815260200160002060009054906101000a900460ff161515146112ea57600080fd5b6112f2610e37565b15611332576040517f08c379a00000000000000000000000000000000000000000000000000000000081526004016113299061217b565b60405180910390fd5b6001151560018467ffffffffffffffff168154811061137a577f4e487b7100000000000000000000000000000000000000000000000000000000600052603260045260246000fd5b906000526020600020906003020160020160009054906101000a900460ff161515146113db576040517f08c379a00000000000000000000000000000000000000000000000000000000081526004016113d2906121bb565b60405180910390fd5b60001515600460003373ffffffffffffffffffffffffffffffffffffffff1673ffffffffffffffffffffffffffffffffffffffff16815260200190815260200160002060008567ffffffffffffffff16815260200190815260200160002060009054906101000a900460ff16151514611489576040517f08c379a00000000000000000000000000000000000000000000000000000000081526004016114809061213b565b60405180910390fd5b6001600460003373ffffffffffffffffffffffffffffffffffffffff1673ffffffffffffffffffffffffffffffffffffffff16815260200190815260200160002060008567ffffffffffffffff16815260200190815260200160002060006101000a81548160ff02191690831515021790555060018367ffffffffffffffff1681548110611540577f4e487b7100000000000000000000000000000000000000000000000000000000600052603260045260246000fd5b90600052602060002090600302016001018260ff168154811061158c577f4e487b7100000000000000000000000000000000000000000000000000000000600052603260045260246000fd5b906000526020600020906003020160010160008154809291906115ae9061242d565b9190505550600760008154809291906115c69061242d565b91905055506001905092915050565b600181815481106115e557600080fd5b9060005260206000209060030201600091509050806000018054611608906123fb565b80601f0160208091040260200160405190810160405280929190818152602001828054611634906123fb565b80156116815780601f1061165657610100808354040283529160200191611681565b820191906000526020600020905b81548152906001019060200180831161166457829003601f168201915b5050505050908060020160009054906101000a900460ff16908060020160019054906101000a900467ffffffffffffffff16905083565b60075481565b60046020528160005260406000206020528060005260406000206000915091509054906101000a900460ff1681565b6116f56117e5565b73ffffffffffffffffffffffffffffffffffffffff16611713611262565b73ffffffffffffffffffffffffffffffffffffffff1614611769576040517f08c379a00000000000000000000000000000000000000000000000000000000081526004016117609061219b565b60405180910390fd5b600073ffffffffffffffffffffffffffffffffffffffff168173ffffffffffffffffffffffffffffffffffffffff1614156117d9576040517f08c379a00000000000000000000000000000000000000000000000000000000081526004016117d09061211b565b60405180910390fd5b6117e28161188e565b50565b600033905090565b6117f5610e37565b611834576040517f08c379a000000000000000000000000000000000000000000000000000000000815260040161182b906120fb565b60405180910390fd5b60008060146101000a81548160ff0219169083151502179055507f5db9ee0a495bf2e6ff9c91a7834c1ba4fdd244a5e8aa4e537bd38aeae4b073aa6118776117e5565b6040516118849190612087565b60405180910390a1565b60008060009054906101000a900473ffffffffffffffffffffffffffffffffffffffff169050816000806101000a81548173ffffffffffffffffffffffffffffffffffffffff021916908373ffffffffffffffffffffffffffffffffffffffff1602179055508173ffffffffffffffffffffffffffffffffffffffff168173ffffffffffffffffffffffffffffffffffffffff167f8be0079c531659141344cd1fd0a4f28419497f9722a3daafe3b4186f6b6457e060405160405180910390a35050565b61195a610e37565b1561199a576040517f08c379a00000000000000000000000000000000000000000000000000000000081526004016119919061217b565b60405180910390fd5b6001600060146101000a81548160ff0219169083151502179055507f62e78cea01bee320cd4e420270b5ea74000d11b0c9f74754ebdbfc544b05a2586119de6117e5565b6040516119eb9190612087565b60405180910390a1565b828054611a01906123fb565b90600052602060002090601f016020900481019282611a235760008555611a6a565b82601f10611a3c57805160ff1916838001178555611a6a565b82800160010185558215611a6a579182015b82811115611a69578251825591602001919060010190611a4e565b5b509050611a779190611a7b565b5090565b5b80821115611a94576000816000905550600101611a7c565b5090565b6000611aab611aa684612282565b612251565b9050808382526020820190508260005b85811015611aeb5781358501611ad18882611b72565b845260208401935060208301925050600181019050611abb565b5050509392505050565b6000611b08611b03846122ae565b612251565b905082815260208101848484011115611b2057600080fd5b611b2b8482856123b9565b509392505050565b600081359050611b428161256f565b92915050565b600082601f830112611b5957600080fd5b8135611b69848260208601611a98565b91505092915050565b600082601f830112611b8357600080fd5b8135611b93848260208601611af5565b91505092915050565b600081359050611bab81612586565b92915050565b600081359050611bc08161259d565b92915050565b600081359050611bd5816125b4565b92915050565b600060208284031215611bed57600080fd5b6000611bfb84828501611b33565b91505092915050565b60008060408385031215611c1757600080fd5b6000611c2585828601611b33565b9250506020611c3685828601611b9c565b9150509250929050565b60008060408385031215611c5357600080fd5b600083013567ffffffffffffffff811115611c6d57600080fd5b611c7985828601611b72565b925050602083013567ffffffffffffffff811115611c9657600080fd5b611ca285828601611b48565b9150509250929050565b600060208284031215611cbe57600080fd5b6000611ccc84828501611b9c565b91505092915050565b600060208284031215611ce757600080fd5b6000611cf584828501611bb1565b91505092915050565b60008060408385031215611d1157600080fd5b6000611d1f85828601611bb1565b9250506020611d3085828601611bc6565b9150509250929050565b611d4381612350565b82525050565b611d5281612362565b82525050565b6000611d63826122de565b611d6d81856122e9565b9350611d7d8185602086016123c8565b611d868161255e565b840191505092915050565b6000611d9e6014836122e9565b91507f5061757361626c653a206e6f74207061757365640000000000000000000000006000830152602082019050919050565b6000611dde6026836122e9565b91507f4f776e61626c653a206e6577206f776e657220697320746865207a65726f206160008301527f64647265737300000000000000000000000000000000000000000000000000006020830152604082019050919050565b6000611e446027836122e9565b91507f596f75206861766520616c726561647920766f74656420696e2074686973206360008301527f617465676f7279000000000000000000000000000000000000000000000000006020830152604082019050919050565b6000611eaa6022836122e9565b91507f54686973206164647265737320697320616c726561647920726567697374657260008301527f65640000000000000000000000000000000000000000000000000000000000006020830152604082019050919050565b6000611f106010836122e9565b91507f5061757361626c653a20706175736564000000000000000000000000000000006000830152602082019050919050565b6000611f506020836122e9565b91507f4f776e61626c653a2063616c6c6572206973206e6f7420746865206f776e65726000830152602082019050919050565b6000611f906025836122e9565b91507f546869732063617465676f7279206973206e6f74206f70656e20666f7220766f60008301527f74696e672e0000000000000000000000000000000000000000000000000000006020830152604082019050919050565b6000611ff6601e836122e9565b91507f54686572652061726520746f6f206d616e792063616e646964617465732e00006000830152602082019050919050565b60006120366014836122e9565b91507f4e6f2066756e647320696e20636f6e74726163740000000000000000000000006000830152602082019050919050565b6120728161238e565b82525050565b61208181612398565b82525050565b600060208201905061209c6000830184611d3a565b92915050565b60006020820190506120b76000830184611d49565b92915050565b600060608201905081810360008301526120d78186611d58565b90506120e66020830185611d49565b6120f36040830184612078565b949350505050565b6000602082019050818103600083015261211481611d91565b9050919050565b6000602082019050818103600083015261213481611dd1565b9050919050565b6000602082019050818103600083015261215481611e37565b9050919050565b6000602082019050818103600083015261217481611e9d565b9050919050565b6000602082019050818103600083015261219481611f03565b9050919050565b600060208201905081810360008301526121b481611f43565b9050919050565b600060208201905081810360008301526121d481611f83565b9050919050565b600060208201905081810360008301526121f481611fe9565b9050919050565b6000602082019050818103600083015261221481612029565b9050919050565b60006020820190506122306000830184612069565b92915050565b600060208201905061224b6000830184612078565b92915050565b6000604051905081810181811067ffffffffffffffff821117156122785761227761252f565b5b8060405250919050565b600067ffffffffffffffff82111561229d5761229c61252f565b5b602082029050602081019050919050565b600067ffffffffffffffff8211156122c9576122c861252f565b5b601f19601f8301169050602081019050919050565b600081519050919050565b600082825260208201905092915050565b60006123058261238e565b91506123108361238e565b9250827fffffffffffffffffffffffffffffffffffffffffffffffffffffffffffffffff03821115612345576123446124d1565b5b828201905092915050565b600061235b8261236e565b9050919050565b60008115159050919050565b600073ffffffffffffffffffffffffffffffffffffffff82169050919050565b6000819050919050565b600067ffffffffffffffff82169050919050565b600060ff82169050919050565b82818337600083830152505050565b60005b838110156123e65780820151818401526020810190506123cb565b838111156123f5576000848401525b50505050565b6000600282049050600182168061241357607f821691505b6020821081141561242757612426612500565b5b50919050565b60006124388261238e565b91507fffffffffffffffffffffffffffffffffffffffffffffffffffffffffffffffff82141561246b5761246a6124d1565b5b600182019050919050565b600061248182612398565b915067ffffffffffffffff82141561249c5761249b6124d1565b5b600182019050919050565b60006124b2826123ac565b915060ff8214156124c6576124c56124d1565b5b600182019050919050565b7f4e487b7100000000000000000000000000000000000000000000000000000000600052601160045260246000fd5b7f4e487b7100000000000000000000000000000000000000000000000000000000600052602260045260246000fd5b7f4e487b7100000000000000000000000000000000000000000000000000000000600052604160045260246000fd5b6000601f19601f8301169050919050565b61257881612350565b811461258357600080fd5b50565b61258f8161238e565b811461259a57600080fd5b50565b6125a681612398565b81146125b157600080fd5b50565b6125bd816123ac565b81146125c857600080fd5b5056fea2646970667358221220d143e710534e27c2354c2753b73246803f63316f3f80c0ba4c1cf4a6bac1a41164736f6c63430008000033",
  "linkReferences": {},
  "deployedLinkReferences": {}
}