{
  "_format": "hh-sol-artifact-1",
  "contractName": "VotingBooth",
  "sourceName": "contracts/Voting_Booth.sol",
  "abi": [
    {
      "anonymous": false,
      "inputs": [
        {
          "indexed": true,
          "internalType": "address",
          "name": "previousOwner",
          "type": "address"
        },
        {
          "indexed": true,
          "internalType": "address",
          "name": "newOwner",
          "type": "address"
        }
      ],
      "name": "OwnershipTransferred",
      "type": "event"
    },
    {
      "anonymous": false,
      "inputs": [
        {
          "indexed": false,
          "internalType": "address",
          "name": "account",
          "type": "address"
        }
      ],
      "name": "Paused",
      "type": "event"
    },
    {
      "anonymous": false,
      "inputs": [
        {
          "indexed": false,
          "internalType": "address",
          "name": "account",
          "type": "address"
        }
      ],
      "name": "Unpaused",
      "type": "event"
    },
    {
      "inputs": [
        {
          "internalType": "address",
          "name": "",
          "type": "address"
        },
        {
          "internalType": "uint256",
          "name": "",
          "type": "uint256"
        }
      ],
      "name": "_boolVoter",
      "outputs": [
        {
          "internalType": "bool",
          "name": "",
          "type": "bool"
        }
      ],
      "stateMutability": "view",
      "type": "function"
    },
    {
      "inputs": [
        {
          "internalType": "address",
          "name": "",
          "type": "address"
        }
      ],
      "name": "_registry",
      "outputs": [
        {
          "internalType": "bool",
          "name": "",
          "type": "bool"
        }
      ],
      "stateMutability": "view",
      "type": "function"
    },
    {
      "inputs": [],
      "name": "_totalVotes",
      "outputs": [
        {
          "internalType": "uint256",
          "name": "",
          "type": "uint256"
        }
      ],
      "stateMutability": "view",
      "type": "function"
    },
    {
      "inputs": [],
      "name": "_voterCount",
      "outputs": [
        {
          "internalType": "uint64",
          "name": "",
          "type": "uint64"
        }
      ],
      "stateMutability": "view",
      "type": "function"
    },
    {
      "inputs": [
        {
          "internalType": "uint64",
          "name": "_catId",
          "type": "uint64"
        },
        {
          "internalType": "uint8",
          "name": "_canId",
          "type": "uint8"
        }
      ],
      "name": "castVote",
      "outputs": [
        {
          "internalType": "bool",
          "name": "",
          "type": "bool"
        }
      ],
      "stateMutability": "nonpayable",
      "type": "function"
    },
    {
      "inputs": [
        {
          "internalType": "uint256",
          "name": "",
          "type": "uint256"
        }
      ],
      "name": "categories",
      "outputs": [
        {
          "internalType": "string",
          "name": "name",
          "type": "string"
        },
        {
          "internalType": "bool",
          "name": "open",
          "type": "bool"
        },
        {
          "internalType": "uint64",
          "name": "catId",
          "type": "uint64"
        }
      ],
      "stateMutability": "view",
      "type": "function"
    },
    {
      "inputs": [
        {
          "internalType": "uint64",
          "name": "_catId",
          "type": "uint64"
        }
      ],
      "name": "closeCategory",
      "outputs": [
        {
          "internalType": "bool",
          "name": "",
          "type": "bool"
        }
      ],
      "stateMutability": "nonpayable",
      "type": "function"
    },
    {
      "inputs": [
        {
          "internalType": "uint64",
          "name": "_catId",
          "type": "uint64"
        },
        {
          "internalType": "uint8",
          "name": "_canId",
          "type": "uint8"
        }
      ],
      "name": "getCandidate",
      "outputs": [
        {
          "internalType": "string",
          "name": "",
          "type": "string"
        }
      ],
      "stateMutability": "view",
      "type": "function"
    },
    {
      "inputs": [
        {
          "internalType": "uint64",
          "name": "_catId",
          "type": "uint64"
        },
        {
          "internalType": "uint8",
          "name": "_canId",
          "type": "uint8"
        }
      ],
      "name": "getCandidateVotes",
      "outputs": [
        {
          "internalType": "uint256",
          "name": "",
          "type": "uint256"
        }
      ],
      "stateMutability": "view",
      "type": "function"
    },
    {
      "inputs": [
        {
          "internalType": "uint64",
          "name": "_catId",
          "type": "uint64"
        }
      ],
      "name": "getCategoryName",
      "outputs": [
        {
          "internalType": "string",
          "name": "",
          "type": "string"
        }
      ],
      "stateMutability": "view",
      "type": "function"
    },
    {
      "inputs": [
        {
          "internalType": "uint64",
          "name": "_catId",
          "type": "uint64"
        }
      ],
      "name": "getCategoryOpen",
      "outputs": [
        {
          "internalType": "bool",
          "name": "",
          "type": "bool"
        }
      ],
      "stateMutability": "view",
      "type": "function"
    },
    {
      "inputs": [
        {
          "internalType": "uint64",
          "name": "_catId",
          "type": "uint64"
        }
      ],
      "name": "getCategoryVotes",
      "outputs": [
        {
          "internalType": "uint256",
          "name": "",
          "type": "uint256"
        }
      ],
      "stateMutability": "view",
      "type": "function"
    },
    {
      "inputs": [
        {
          "internalType": "uint64",
          "name": "_catId",
          "type": "uint64"
        }
      ],
      "name": "openCategory",
      "outputs": [
        {
          "internalType": "bool",
          "name": "",
          "type": "bool"
        }
      ],
      "stateMutability": "nonpayable",
      "type": "function"
    },
    {
      "inputs": [],
      "name": "owner",
      "outputs": [
        {
          "internalType": "address",
          "name": "",
          "type": "address"
        }
      ],
      "stateMutability": "view",
      "type": "function"
    },
    {
      "inputs": [],
      "name": "pause",
      "outputs": [],
      "stateMutability": "nonpayable",
      "type": "function"
    },
    {
      "inputs": [],
      "name": "paused",
      "outputs": [
        {
          "internalType": "bool",
          "name": "",
          "type": "bool"
        }
      ],
      "stateMutability": "view",
      "type": "function"
    },
    {
      "inputs": [],
      "name": "register",
      "outputs": [],
      "stateMutability": "nonpayable",
      "type": "function"
    },
    {
      "inputs": [],
      "name": "renounceOwnership",
      "outputs": [],
      "stateMutability": "nonpayable",
      "type": "function"
    },
    {
      "inputs": [
        {
          "internalType": "string",
          "name": "_category",
          "type": "string"
        },
        {
          "internalType": "string[]",
          "name": "_candidates",
          "type": "string[]"
        }
      ],
      "name": "setCategory",
      "outputs": [
        {
          "internalType": "uint64",
          "name": "",
          "type": "uint64"
        }
      ],
      "stateMutability": "nonpayable",
      "type": "function"
    },
    {
      "inputs": [
        {
          "internalType": "address",
          "name": "newOwner",
          "type": "address"
        }
      ],
      "name": "transferOwnership",
      "outputs": [],
      "stateMutability": "nonpayable",
      "type": "function"
    },
    {
      "inputs": [],
      "name": "unpause",
      "outputs": [],
      "stateMutability": "nonpayable",
      "type": "function"
    },
    {
      "inputs": [],
      "name": "withdraw",
      "outputs": [],
      "stateMutability": "nonpayable",
      "type": "function"
    }
  ],
  "bytecode": "0x60806040523480156200001157600080fd5b5062000032620000266200005260201b60201c565b6200005a60201b60201c565b60008060146101000a81548160ff0219169083151502179055506200011e565b600033905090565b60008060009054906101000a900473ffffffffffffffffffffffffffffffffffffffff169050816000806101000a81548173ffffffffffffffffffffffffffffffffffffffff021916908373ffffffffffffffffffffffffffffffffffffffff1602179055508173ffffffffffffffffffffffffffffffffffffffff168173ffffffffffffffffffffffffffffffffffffffff167f8be0079c531659141344cd1fd0a4f28419497f9722a3daafe3b4186f6b6457e060405160405180910390a35050565b6127ac806200012e6000396000f3fe608060405234801561001057600080fd5b50600436106101415760003560e01c80636bda58f9116100b85780638da5cb5b1161007c5780638da5cb5b14610364578063aa89921414610382578063c6cdbe5e146103b2578063ce4ec048146103e4578063eb77c40f14610402578063f2fde38b1461043257610141565b80636bda58f9146102c05780636d93d0d8146102f0578063715018a61461032057806380417bfb1461032a5780638456cb591461035a57610141565b8063359af5ae1161010a578063359af5ae146101fe5780633ccfd60b1461022e5780633f4ba83a146102385780635133342b146102425780635c975abb14610272578063662efa431461029057610141565b80624554691461014657806302c3307d1461017657806308e67038146101a65780631aa3a008146101d6578063317cc82d146101e0575b600080fd5b610160600480360381019061015b9190611e87565b61044e565b60405161016d9190612246565b60405180910390f35b610190600480360381019061018b9190611e5e565b610582565b60405161019d919061222b565b60405180910390f35b6101c060048036038101906101bb9190611d64565b6106e9565b6040516101cd919061222b565b60405180910390f35b6101de610709565b005b6101e861088c565b6040516101f591906123e1565b60405180910390f35b61021860048036038101906102139190611dc9565b6108a6565b60405161022591906123e1565b60405180910390f35b610236610c2b565b005b610240610d33565b005b61025c60048036038101906102579190611e5e565b610db9565b6040516102699190612246565b60405180910390f35b61027a610ea0565b604051610287919061222b565b60405180910390f35b6102aa60048036038101906102a59190611e5e565b610eb6565b6040516102b7919061222b565b60405180910390f35b6102da60048036038101906102d59190611e87565b610f22565b6040516102e791906123c6565b60405180910390f35b61030a60048036038101906103059190611e5e565b610fce565b604051610317919061222b565b60405180910390f35b610328611136565b005b610344600480360381019061033f9190611e5e565b6111be565b60405161035191906123c6565b60405180910390f35b610362611365565b005b61036c6113eb565b6040516103799190612210565b60405180910390f35b61039c60048036038101906103979190611e87565b611414565b6040516103a9919061222b565b60405180910390f35b6103cc60048036038101906103c79190611e35565b61175e565b6040516103db93929190612268565b60405180910390f35b6103ec611841565b6040516103f991906123c6565b60405180910390f35b61041c60048036038101906104179190611d8d565b611847565b604051610429919061222b565b60405180910390f35b61044c60048036038101906104479190611d64565b611876565b005b606060018367ffffffffffffffff1681548110610494577f4e487b7100000000000000000000000000000000000000000000000000000000600052603260045260246000fd5b90600052602060002090600302016001018260ff16815481106104e0577f4e487b7100000000000000000000000000000000000000000000000000000000600052603260045260246000fd5b906000526020600020906003020160000180546104fc906125a6565b80601f0160208091040260200160405190810160405280929190818152602001828054610528906125a6565b80156105755780601f1061054a57610100808354040283529160200191610575565b820191906000526020600020905b81548152906001019060200180831161055857829003601f168201915b5050505050905092915050565b600061058c61196e565b73ffffffffffffffffffffffffffffffffffffffff166105aa6113eb565b73ffffffffffffffffffffffffffffffffffffffff1614610600576040517f08c379a00000000000000000000000000000000000000000000000000000000081526004016105f790612346565b60405180910390fd5b6000151560018367ffffffffffffffff1681548110610648577f4e487b7100000000000000000000000000000000000000000000000000000000600052603260045260246000fd5b906000526020600020906003020160020160009054906101000a900460ff1615151461067357600080fd5b6001808367ffffffffffffffff16815481106106b8577f4e487b7100000000000000000000000000000000000000000000000000000000600052603260045260246000fd5b906000526020600020906003020160020160006101000a81548160ff02191690831515021790555060019050919050565b60036020528060005260406000206000915054906101000a900460ff1681565b610711610ea0565b15610751576040517f08c379a000000000000000000000000000000000000000000000000000000000815260040161074890612326565b60405180910390fd5b60011515600360003373ffffffffffffffffffffffffffffffffffffffff1673ffffffffffffffffffffffffffffffffffffffff16815260200190815260200160002060009054906101000a900460ff16151514156107e5576040517f08c379a00000000000000000000000000000000000000000000000000000000081526004016107dc90612306565b60405180910390fd5b6001600360003373ffffffffffffffffffffffffffffffffffffffff1673ffffffffffffffffffffffffffffffffffffffff16815260200190815260200160002060006101000a81548160ff0219169083151502179055506005600081819054906101000a900467ffffffffffffffff168092919061086390612621565b91906101000a81548167ffffffffffffffff021916908367ffffffffffffffff16021790555050565b600560009054906101000a900467ffffffffffffffff1681565b60006108b061196e565b73ffffffffffffffffffffffffffffffffffffffff166108ce6113eb565b73ffffffffffffffffffffffffffffffffffffffff1614610924576040517f08c379a000000000000000000000000000000000000000000000000000000000815260040161091b90612346565b60405180910390fd5b610100825110610969576040517f08c379a000000000000000000000000000000000000000000000000000000000815260040161096090612386565b60405180910390fd5b6000600260009054906101000a900467ffffffffffffffff16905060018081600181540180825580915050039060005260206000209050508360018267ffffffffffffffff16815481106109e6577f4e487b7100000000000000000000000000000000000000000000000000000000600052603260045260246000fd5b90600052602060002090600302016000019080519060200190610a0a929190611b7e565b508060018267ffffffffffffffff1681548110610a50577f4e487b7100000000000000000000000000000000000000000000000000000000600052603260045260246000fd5b906000526020600020906003020160020160016101000a81548167ffffffffffffffff021916908367ffffffffffffffff16021790555060005b83518160ff161015610bd35760018267ffffffffffffffff1681548110610ada577f4e487b7100000000000000000000000000000000000000000000000000000000600052603260045260246000fd5b90600052602060002090600302016001016040518060600160405280868460ff1681518110610b32577f4e487b7100000000000000000000000000000000000000000000000000000000600052603260045260246000fd5b60200260200101518152602001600081526020018360ff1681525090806001815401808255809150506001900390600052602060002090600302016000909190919091506000820151816000019080519060200190610b92929190611b7e565b506020820151816001015560408201518160020160006101000a81548160ff021916908360ff16021790555050508080610bcb90612652565b915050610a8a565b506002600081819054906101000a900467ffffffffffffffff1680929190610bfa90612621565b91906101000a81548167ffffffffffffffff021916908367ffffffffffffffff160217905550508091505092915050565b610c3361196e565b73ffffffffffffffffffffffffffffffffffffffff16610c516113eb565b73ffffffffffffffffffffffffffffffffffffffff1614610ca7576040517f08c379a0000000000000000000000000000000000000000000000000000000008152600401610c9e90612346565b60405180910390fd5b60004711610cea576040517f08c379a0000000000000000000000000000000000000000000000000000000008152600401610ce1906123a6565b60405180910390fd5b3373ffffffffffffffffffffffffffffffffffffffff166108fc479081150290604051600060405180830381858888f19350505050158015610d30573d6000803e3d6000fd5b50565b610d3b61196e565b73ffffffffffffffffffffffffffffffffffffffff16610d596113eb565b73ffffffffffffffffffffffffffffffffffffffff1614610daf576040517f08c379a0000000000000000000000000000000000000000000000000000000008152600401610da690612346565b60405180910390fd5b610db7611976565b565b606060018267ffffffffffffffff1681548110610dff577f4e487b7100000000000000000000000000000000000000000000000000000000600052603260045260246000fd5b90600052602060002090600302016000018054610e1b906125a6565b80601f0160208091040260200160405190810160405280929190818152602001828054610e47906125a6565b8015610e945780601f10610e6957610100808354040283529160200191610e94565b820191906000526020600020905b815481529060010190602001808311610e7757829003601f168201915b50505050509050919050565b60008060149054906101000a900460ff16905090565b600060018267ffffffffffffffff1681548110610efc577f4e487b7100000000000000000000000000000000000000000000000000000000600052603260045260246000fd5b906000526020600020906003020160020160009054906101000a900460ff169050919050565b600060018367ffffffffffffffff1681548110610f68577f4e487b7100000000000000000000000000000000000000000000000000000000600052603260045260246000fd5b90600052602060002090600302016001018260ff1681548110610fb4577f4e487b7100000000000000000000000000000000000000000000000000000000600052603260045260246000fd5b906000526020600020906003020160010154905092915050565b6000610fd861196e565b73ffffffffffffffffffffffffffffffffffffffff16610ff66113eb565b73ffffffffffffffffffffffffffffffffffffffff161461104c576040517f08c379a000000000000000000000000000000000000000000000000000000000815260040161104390612346565b60405180910390fd5b6001151560018367ffffffffffffffff1681548110611094577f4e487b7100000000000000000000000000000000000000000000000000000000600052603260045260246000fd5b906000526020600020906003020160020160009054906101000a900460ff161515146110bf57600080fd5b600060018367ffffffffffffffff1681548110611105577f4e487b7100000000000000000000000000000000000000000000000000000000600052603260045260246000fd5b906000526020600020906003020160020160006101000a81548160ff02191690831515021790555060019050919050565b61113e61196e565b73ffffffffffffffffffffffffffffffffffffffff1661115c6113eb565b73ffffffffffffffffffffffffffffffffffffffff16146111b2576040517f08c379a00000000000000000000000000000000000000000000000000000000081526004016111a990612346565b60405180910390fd5b6111bc6000611a17565b565b600080151560018367ffffffffffffffff1681548110611207577f4e487b7100000000000000000000000000000000000000000000000000000000600052603260045260246000fd5b906000526020600020906003020160020160009054906101000a900460ff1615151461123257600080fd5b6000805b60018467ffffffffffffffff168154811061127a577f4e487b7100000000000000000000000000000000000000000000000000000000600052603260045260246000fd5b9060005260206000209060030201600101805490508160ff16101561135b5760018467ffffffffffffffff16815481106112dd577f4e487b7100000000000000000000000000000000000000000000000000000000600052603260045260246000fd5b90600052602060002090600302016001018160ff1681548110611329577f4e487b7100000000000000000000000000000000000000000000000000000000600052603260045260246000fd5b9060005260206000209060030201600101548261134691906124a5565b9150808061135390612652565b915050611236565b5080915050919050565b61136d61196e565b73ffffffffffffffffffffffffffffffffffffffff1661138b6113eb565b73ffffffffffffffffffffffffffffffffffffffff16146113e1576040517f08c379a00000000000000000000000000000000000000000000000000000000081526004016113d890612346565b60405180910390fd5b6113e9611adb565b565b60008060009054906101000a900473ffffffffffffffffffffffffffffffffffffffff16905090565b600060011515600360003373ffffffffffffffffffffffffffffffffffffffff1673ffffffffffffffffffffffffffffffffffffffff16815260200190815260200160002060009054906101000a900460ff1615151461147357600080fd5b61147b610ea0565b156114bb576040517f08c379a00000000000000000000000000000000000000000000000000000000081526004016114b290612326565b60405180910390fd5b6001151560018467ffffffffffffffff1681548110611503577f4e487b7100000000000000000000000000000000000000000000000000000000600052603260045260246000fd5b906000526020600020906003020160020160009054906101000a900460ff16151514611564576040517f08c379a000000000000000000000000000000000000000000000000000000000815260040161155b90612366565b60405180910390fd5b60001515600460003373ffffffffffffffffffffffffffffffffffffffff1673ffffffffffffffffffffffffffffffffffffffff16815260200190815260200160002060008567ffffffffffffffff16815260200190815260200160002060009054906101000a900460ff16151514611612576040517f08c379a0000000000000000000000000000000000000000000000000000000008152600401611609906122e6565b60405180910390fd5b6001600460003373ffffffffffffffffffffffffffffffffffffffff1673ffffffffffffffffffffffffffffffffffffffff16815260200190815260200160002060008567ffffffffffffffff16815260200190815260200160002060006101000a81548160ff02191690831515021790555060018367ffffffffffffffff16815481106116c9577f4e487b7100000000000000000000000000000000000000000000000000000000600052603260045260246000fd5b90600052602060002090600302016001018260ff1681548110611715577f4e487b7100000000000000000000000000000000000000000000000000000000600052603260045260246000fd5b90600052602060002090600302016001016000815480929190611737906125d8565b91905055506006600081548092919061174f906125d8565b91905055506001905092915050565b6001818154811061176e57600080fd5b9060005260206000209060030201600091509050806000018054611791906125a6565b80601f01602080910402602001604051908101604052809291908181526020018280546117bd906125a6565b801561180a5780601f106117df5761010080835404028352916020019161180a565b820191906000526020600020905b8154815290600101906020018083116117ed57829003601f168201915b5050505050908060020160009054906101000a900460ff16908060020160019054906101000a900467ffffffffffffffff16905083565b60065481565b60046020528160005260406000206020528060005260406000206000915091509054906101000a900460ff1681565b61187e61196e565b73ffffffffffffffffffffffffffffffffffffffff1661189c6113eb565b73ffffffffffffffffffffffffffffffffffffffff16146118f2576040517f08c379a00000000000000000000000000000000000000000000000000000000081526004016118e990612346565b60405180910390fd5b600073ffffffffffffffffffffffffffffffffffffffff168173ffffffffffffffffffffffffffffffffffffffff161415611962576040517f08c379a0000000000000000000000000000000000000000000000000000000008152600401611959906122c6565b60405180910390fd5b61196b81611a17565b50565b600033905090565b61197e610ea0565b6119bd576040517f08c379a00000000000000000000000000000000000000000000000000000000081526004016119b4906122a6565b60405180910390fd5b60008060146101000a81548160ff0219169083151502179055507f5db9ee0a495bf2e6ff9c91a7834c1ba4fdd244a5e8aa4e537bd38aeae4b073aa611a0061196e565b604051611a0d9190612210565b60405180910390a1565b60008060009054906101000a900473ffffffffffffffffffffffffffffffffffffffff169050816000806101000a81548173ffffffffffffffffffffffffffffffffffffffff021916908373ffffffffffffffffffffffffffffffffffffffff1602179055508173ffffffffffffffffffffffffffffffffffffffff168173ffffffffffffffffffffffffffffffffffffffff167f8be0079c531659141344cd1fd0a4f28419497f9722a3daafe3b4186f6b6457e060405160405180910390a35050565b611ae3610ea0565b15611b23576040517f08c379a0000000000000000000000000000000000000000000000000000000008152600401611b1a90612326565b60405180910390fd5b6001600060146101000a81548160ff0219169083151502179055507f62e78cea01bee320cd4e420270b5ea74000d11b0c9f74754ebdbfc544b05a258611b6761196e565b604051611b749190612210565b60405180910390a1565b828054611b8a906125a6565b90600052602060002090601f016020900481019282611bac5760008555611bf3565b82601f10611bc557805160ff1916838001178555611bf3565b82800160010185558215611bf3579182015b82811115611bf2578251825591602001919060010190611bd7565b5b509050611c009190611c04565b5090565b5b80821115611c1d576000816000905550600101611c05565b5090565b6000611c34611c2f8461242d565b6123fc565b9050808382526020820190508260005b85811015611c745781358501611c5a8882611cfb565b845260208401935060208301925050600181019050611c44565b5050509392505050565b6000611c91611c8c84612459565b6123fc565b905082815260208101848484011115611ca957600080fd5b611cb4848285612564565b509392505050565b600081359050611ccb8161271a565b92915050565b600082601f830112611ce257600080fd5b8135611cf2848260208601611c21565b91505092915050565b600082601f830112611d0c57600080fd5b8135611d1c848260208601611c7e565b91505092915050565b600081359050611d3481612731565b92915050565b600081359050611d4981612748565b92915050565b600081359050611d5e8161275f565b92915050565b600060208284031215611d7657600080fd5b6000611d8484828501611cbc565b91505092915050565b60008060408385031215611da057600080fd5b6000611dae85828601611cbc565b9250506020611dbf85828601611d25565b9150509250929050565b60008060408385031215611ddc57600080fd5b600083013567ffffffffffffffff811115611df657600080fd5b611e0285828601611cfb565b925050602083013567ffffffffffffffff811115611e1f57600080fd5b611e2b85828601611cd1565b9150509250929050565b600060208284031215611e4757600080fd5b6000611e5584828501611d25565b91505092915050565b600060208284031215611e7057600080fd5b6000611e7e84828501611d3a565b91505092915050565b60008060408385031215611e9a57600080fd5b6000611ea885828601611d3a565b9250506020611eb985828601611d4f565b9150509250929050565b611ecc816124fb565b82525050565b611edb8161250d565b82525050565b6000611eec82612489565b611ef68185612494565b9350611f06818560208601612573565b611f0f81612709565b840191505092915050565b6000611f27601483612494565b91507f5061757361626c653a206e6f74207061757365640000000000000000000000006000830152602082019050919050565b6000611f67602683612494565b91507f4f776e61626c653a206e6577206f776e657220697320746865207a65726f206160008301527f64647265737300000000000000000000000000000000000000000000000000006020830152604082019050919050565b6000611fcd602783612494565b91507f596f75206861766520616c726561647920766f74656420696e2074686973206360008301527f617465676f7279000000000000000000000000000000000000000000000000006020830152604082019050919050565b6000612033602283612494565b91507f54686973206164647265737320697320616c726561647920726567697374657260008301527f65640000000000000000000000000000000000000000000000000000000000006020830152604082019050919050565b6000612099601083612494565b91507f5061757361626c653a20706175736564000000000000000000000000000000006000830152602082019050919050565b60006120d9602083612494565b91507f4f776e61626c653a2063616c6c6572206973206e6f7420746865206f776e65726000830152602082019050919050565b6000612119602583612494565b91507f546869732063617465676f7279206973206e6f74206f70656e20666f7220766f60008301527f74696e672e0000000000000000000000000000000000000000000000000000006020830152604082019050919050565b600061217f601e83612494565b91507f54686572652061726520746f6f206d616e792063616e646964617465732e00006000830152602082019050919050565b60006121bf601483612494565b91507f4e6f2066756e647320696e20636f6e74726163740000000000000000000000006000830152602082019050919050565b6121fb81612539565b82525050565b61220a81612543565b82525050565b60006020820190506122256000830184611ec3565b92915050565b60006020820190506122406000830184611ed2565b92915050565b600060208201905081810360008301526122608184611ee1565b905092915050565b600060608201905081810360008301526122828186611ee1565b90506122916020830185611ed2565b61229e6040830184612201565b949350505050565b600060208201905081810360008301526122bf81611f1a565b9050919050565b600060208201905081810360008301526122df81611f5a565b9050919050565b600060208201905081810360008301526122ff81611fc0565b9050919050565b6000602082019050818103600083015261231f81612026565b9050919050565b6000602082019050818103600083015261233f8161208c565b9050919050565b6000602082019050818103600083015261235f816120cc565b9050919050565b6000602082019050818103600083015261237f8161210c565b9050919050565b6000602082019050818103600083015261239f81612172565b9050919050565b600060208201905081810360008301526123bf816121b2565b9050919050565b60006020820190506123db60008301846121f2565b92915050565b60006020820190506123f66000830184612201565b92915050565b6000604051905081810181811067ffffffffffffffff82111715612423576124226126da565b5b8060405250919050565b600067ffffffffffffffff821115612448576124476126da565b5b602082029050602081019050919050565b600067ffffffffffffffff821115612474576124736126da565b5b601f19601f8301169050602081019050919050565b600081519050919050565b600082825260208201905092915050565b60006124b082612539565b91506124bb83612539565b9250827fffffffffffffffffffffffffffffffffffffffffffffffffffffffffffffffff038211156124f0576124ef61267c565b5b828201905092915050565b600061250682612519565b9050919050565b60008115159050919050565b600073ffffffffffffffffffffffffffffffffffffffff82169050919050565b6000819050919050565b600067ffffffffffffffff82169050919050565b600060ff82169050919050565b82818337600083830152505050565b60005b83811015612591578082015181840152602081019050612576565b838111156125a0576000848401525b50505050565b600060028204905060018216806125be57607f821691505b602082108114156125d2576125d16126ab565b5b50919050565b60006125e382612539565b91507fffffffffffffffffffffffffffffffffffffffffffffffffffffffffffffffff8214156126165761261561267c565b5b600182019050919050565b600061262c82612543565b915067ffffffffffffffff8214156126475761264661267c565b5b600182019050919050565b600061265d82612557565b915060ff8214156126715761267061267c565b5b600182019050919050565b7f4e487b7100000000000000000000000000000000000000000000000000000000600052601160045260246000fd5b7f4e487b7100000000000000000000000000000000000000000000000000000000600052602260045260246000fd5b7f4e487b7100000000000000000000000000000000000000000000000000000000600052604160045260246000fd5b6000601f19601f8301169050919050565b612723816124fb565b811461272e57600080fd5b50565b61273a81612539565b811461274557600080fd5b50565b61275181612543565b811461275c57600080fd5b50565b61276881612557565b811461277357600080fd5b5056fea2646970667358221220051e7822a8767864b066d740c13077dd6c499fc3776e541bd7fccbcc2a4eba1964736f6c63430008000033",
  "linkReferences": {},
  "deployedLinkReferences": {}
}