{
  "_format": "hh-sol-artifact-1",
  "contractName": "VotingBooth",
  "sourceName": "contracts/Voting_Booth.sol",
  "abi": [
    {
      "anonymous": false,
      "inputs": [
        {
          "indexed": true,
          "internalType": "address",
          "name": "previousOwner",
          "type": "address"
        },
        {
          "indexed": true,
          "internalType": "address",
          "name": "newOwner",
          "type": "address"
        }
      ],
      "name": "OwnershipTransferred",
      "type": "event"
    },
    {
      "anonymous": false,
      "inputs": [
        {
          "indexed": false,
          "internalType": "address",
          "name": "account",
          "type": "address"
        }
      ],
      "name": "Paused",
      "type": "event"
    },
    {
      "anonymous": false,
      "inputs": [
        {
          "indexed": false,
          "internalType": "address",
          "name": "account",
          "type": "address"
        }
      ],
      "name": "Unpaused",
      "type": "event"
    },
    {
      "anonymous": false,
      "inputs": [
        {
          "indexed": false,
          "internalType": "bytes32",
          "name": "_func",
          "type": "bytes32"
        },
        {
          "indexed": false,
          "internalType": "bytes32",
          "name": "_categoryName",
          "type": "bytes32"
        },
        {
          "indexed": false,
          "internalType": "bytes32[]",
          "name": "_candidateNames",
          "type": "bytes32[]"
        },
        {
          "indexed": false,
          "internalType": "address",
          "name": "_from",
          "type": "address"
        }
      ],
      "name": "categorySet",
      "type": "event"
    },
    {
      "anonymous": false,
      "inputs": [
        {
          "indexed": false,
          "internalType": "bytes32",
          "name": "_func",
          "type": "bytes32"
        },
        {
          "indexed": false,
          "internalType": "bytes32",
          "name": "_categoryName",
          "type": "bytes32"
        },
        {
          "indexed": false,
          "internalType": "bytes32",
          "name": "_winner",
          "type": "bytes32"
        },
        {
          "indexed": false,
          "internalType": "address",
          "name": "_from",
          "type": "address"
        }
      ],
      "name": "categoryStatusChange",
      "type": "event"
    },
    {
      "anonymous": false,
      "inputs": [
        {
          "indexed": false,
          "internalType": "address",
          "name": "_donator",
          "type": "address"
        },
        {
          "indexed": false,
          "internalType": "uint256",
          "name": "_amount",
          "type": "uint256"
        }
      ],
      "name": "donationReceived",
      "type": "event"
    },
    {
      "inputs": [
        {
          "internalType": "address",
          "name": "",
          "type": "address"
        }
      ],
      "name": "_addressboolStorage",
      "outputs": [
        {
          "internalType": "bool",
          "name": "",
          "type": "bool"
        }
      ],
      "stateMutability": "view",
      "type": "function"
    },
    {
      "inputs": [
        {
          "internalType": "address",
          "name": "",
          "type": "address"
        }
      ],
      "name": "_addressuintStorage",
      "outputs": [
        {
          "internalType": "uint64",
          "name": "",
          "type": "uint64"
        }
      ],
      "stateMutability": "view",
      "type": "function"
    },
    {
      "inputs": [
        {
          "internalType": "address",
          "name": "",
          "type": "address"
        },
        {
          "internalType": "uint256",
          "name": "",
          "type": "uint256"
        }
      ],
      "name": "_boolVoter",
      "outputs": [
        {
          "internalType": "bool",
          "name": "",
          "type": "bool"
        }
      ],
      "stateMutability": "view",
      "type": "function"
    },
    {
      "inputs": [],
      "name": "_catCounter",
      "outputs": [
        {
          "internalType": "uint64",
          "name": "",
          "type": "uint64"
        }
      ],
      "stateMutability": "view",
      "type": "function"
    },
    {
      "inputs": [
        {
          "internalType": "uint64",
          "name": "",
          "type": "uint64"
        }
      ],
      "name": "_openedOnce",
      "outputs": [
        {
          "internalType": "bool",
          "name": "",
          "type": "bool"
        }
      ],
      "stateMutability": "view",
      "type": "function"
    },
    {
      "inputs": [
        {
          "internalType": "address",
          "name": "",
          "type": "address"
        }
      ],
      "name": "_registry",
      "outputs": [
        {
          "internalType": "bool",
          "name": "",
          "type": "bool"
        }
      ],
      "stateMutability": "view",
      "type": "function"
    },
    {
      "inputs": [],
      "name": "_totalVotes",
      "outputs": [
        {
          "internalType": "uint256",
          "name": "",
          "type": "uint256"
        }
      ],
      "stateMutability": "view",
      "type": "function"
    },
    {
      "inputs": [
        {
          "internalType": "uint64",
          "name": "",
          "type": "uint64"
        }
      ],
      "name": "_uintboolStorage",
      "outputs": [
        {
          "internalType": "bool",
          "name": "",
          "type": "bool"
        }
      ],
      "stateMutability": "view",
      "type": "function"
    },
    {
      "inputs": [],
      "name": "_voterCount",
      "outputs": [
        {
          "internalType": "uint64",
          "name": "",
          "type": "uint64"
        }
      ],
      "stateMutability": "view",
      "type": "function"
    },
    {
      "inputs": [
        {
          "internalType": "uint64",
          "name": "_catId",
          "type": "uint64"
        },
        {
          "internalType": "uint8",
          "name": "_canId",
          "type": "uint8"
        }
      ],
      "name": "castVote",
      "outputs": [],
      "stateMutability": "nonpayable",
      "type": "function"
    },
    {
      "inputs": [
        {
          "internalType": "uint256",
          "name": "",
          "type": "uint256"
        }
      ],
      "name": "categories",
      "outputs": [
        {
          "internalType": "bytes32",
          "name": "name",
          "type": "bytes32"
        },
        {
          "internalType": "bool",
          "name": "open",
          "type": "bool"
        },
        {
          "internalType": "uint64",
          "name": "catId",
          "type": "uint64"
        }
      ],
      "stateMutability": "view",
      "type": "function"
    },
    {
      "inputs": [
        {
          "internalType": "uint64",
          "name": "_catId",
          "type": "uint64"
        }
      ],
      "name": "closeCategory",
      "outputs": [
        {
          "internalType": "bytes32",
          "name": "",
          "type": "bytes32"
        }
      ],
      "stateMutability": "nonpayable",
      "type": "function"
    },
    {
      "inputs": [],
      "name": "currentFuncAddress",
      "outputs": [
        {
          "internalType": "address",
          "name": "",
          "type": "address"
        }
      ],
      "stateMutability": "view",
      "type": "function"
    },
    {
      "inputs": [
        {
          "internalType": "uint64",
          "name": "_catId",
          "type": "uint64"
        },
        {
          "internalType": "uint8",
          "name": "_canId",
          "type": "uint8"
        }
      ],
      "name": "getCandidate",
      "outputs": [
        {
          "internalType": "bytes32",
          "name": "",
          "type": "bytes32"
        }
      ],
      "stateMutability": "view",
      "type": "function"
    },
    {
      "inputs": [
        {
          "internalType": "uint64",
          "name": "_catId",
          "type": "uint64"
        },
        {
          "internalType": "uint8",
          "name": "_canId",
          "type": "uint8"
        }
      ],
      "name": "getCandidateVotes",
      "outputs": [
        {
          "internalType": "uint256",
          "name": "",
          "type": "uint256"
        }
      ],
      "stateMutability": "view",
      "type": "function"
    },
    {
      "inputs": [
        {
          "internalType": "uint64",
          "name": "_catId",
          "type": "uint64"
        }
      ],
      "name": "getCategoryName",
      "outputs": [
        {
          "internalType": "bytes32",
          "name": "",
          "type": "bytes32"
        }
      ],
      "stateMutability": "view",
      "type": "function"
    },
    {
      "inputs": [
        {
          "internalType": "uint64",
          "name": "_catId",
          "type": "uint64"
        }
      ],
      "name": "getCategoryOpen",
      "outputs": [
        {
          "internalType": "bool",
          "name": "",
          "type": "bool"
        }
      ],
      "stateMutability": "view",
      "type": "function"
    },
    {
      "inputs": [
        {
          "internalType": "uint64",
          "name": "_catId",
          "type": "uint64"
        }
      ],
      "name": "getCategoryVotes",
      "outputs": [
        {
          "internalType": "uint256",
          "name": "",
          "type": "uint256"
        }
      ],
      "stateMutability": "view",
      "type": "function"
    },
    {
      "inputs": [
        {
          "internalType": "uint64",
          "name": "_catId",
          "type": "uint64"
        }
      ],
      "name": "openCategory",
      "outputs": [],
      "stateMutability": "nonpayable",
      "type": "function"
    },
    {
      "inputs": [],
      "name": "owner",
      "outputs": [
        {
          "internalType": "address",
          "name": "",
          "type": "address"
        }
      ],
      "stateMutability": "view",
      "type": "function"
    },
    {
      "inputs": [],
      "name": "pause",
      "outputs": [],
      "stateMutability": "nonpayable",
      "type": "function"
    },
    {
      "inputs": [],
      "name": "paused",
      "outputs": [
        {
          "internalType": "bool",
          "name": "",
          "type": "bool"
        }
      ],
      "stateMutability": "view",
      "type": "function"
    },
    {
      "inputs": [],
      "name": "register",
      "outputs": [],
      "stateMutability": "nonpayable",
      "type": "function"
    },
    {
      "inputs": [],
      "name": "renounceOwnership",
      "outputs": [],
      "stateMutability": "nonpayable",
      "type": "function"
    },
    {
      "inputs": [
        {
          "internalType": "bytes32",
          "name": "_category",
          "type": "bytes32"
        },
        {
          "internalType": "bytes32[]",
          "name": "_candidates",
          "type": "bytes32[]"
        }
      ],
      "name": "setCategory",
      "outputs": [
        {
          "internalType": "uint64",
          "name": "",
          "type": "uint64"
        }
      ],
      "stateMutability": "nonpayable",
      "type": "function"
    },
    {
      "inputs": [
        {
          "internalType": "address",
          "name": "newOwner",
          "type": "address"
        }
      ],
      "name": "transferOwnership",
      "outputs": [],
      "stateMutability": "nonpayable",
      "type": "function"
    },
    {
      "inputs": [],
      "name": "uintStorage1",
      "outputs": [
        {
          "internalType": "uint256",
          "name": "",
          "type": "uint256"
        }
      ],
      "stateMutability": "view",
      "type": "function"
    },
    {
      "inputs": [],
      "name": "uintStorage2",
      "outputs": [
        {
          "internalType": "uint256",
          "name": "",
          "type": "uint256"
        }
      ],
      "stateMutability": "view",
      "type": "function"
    },
    {
      "inputs": [],
      "name": "uintStorage3",
      "outputs": [
        {
          "internalType": "uint256",
          "name": "",
          "type": "uint256"
        }
      ],
      "stateMutability": "view",
      "type": "function"
    },
    {
      "inputs": [],
      "name": "unpause",
      "outputs": [],
      "stateMutability": "nonpayable",
      "type": "function"
    },
    {
      "inputs": [],
      "name": "withdraw",
      "outputs": [],
      "stateMutability": "nonpayable",
      "type": "function"
    },
    {
      "stateMutability": "payable",
      "type": "receive"
    }
  ],
  "bytecode": "0x60806040523480156200001157600080fd5b5062000032620000266200005260201b60201c565b6200005a60201b60201c565b60008060146101000a81548160ff0219169083151502179055506200011e565b600033905090565b60008060009054906101000a900473ffffffffffffffffffffffffffffffffffffffff169050816000806101000a81548173ffffffffffffffffffffffffffffffffffffffff021916908373ffffffffffffffffffffffffffffffffffffffff1602179055508173ffffffffffffffffffffffffffffffffffffffff168173ffffffffffffffffffffffffffffffffffffffff167f8be0079c531659141344cd1fd0a4f28419497f9722a3daafe3b4186f6b6457e060405160405180910390a35050565b61311a806200012e6000396000f3fe6080604052600436106101db5760003560e01c80636d93d0d811610102578063aa89921411610095578063d42f3fbc11610064578063d42f3fbc1461071b578063eb77c40f14610758578063f2fde38b14610795578063f3e672eb146107be5761021b565b8063aa8992141461065d578063c6cdbe5e14610686578063cb0a8211146106c5578063ce4ec048146106f05761021b565b80638456cb59116100d15780638456cb59146105b35780638da5cb5b146105ca57806396875a3c146105f557806399ef6ccb146106205761021b565b80636d93d0d8146104e5578063715018a6146105225780637c8fee461461053957806380417bfb146105765761021b565b8063317cc82d1161017a578063519e22fb11610149578063519e22fb146104035780635c975abb14610440578063662efa431461046b5780636bda58f9146104a85761021b565b8063317cc82d1461036d5780633ccfd60b146103985780633f4ba83a146103af5780635133342b146103c65761021b565b80631aa3a008116101b65780631aa3a008146102c35780631af5fd02146102da5780631ddbcbb1146103055780632e0d7573146103425761021b565b80624554691461022057806302c3307d1461025d57806308e67038146102865761021b565b3661021b577fe2639ef551ad89950da1145fe1fd600e818336d6e8aa88426efe387c49accebb3334604051610211929190612ae5565b60405180910390a1005b600080fd5b34801561022c57600080fd5b506102476004803603810190610242919061253b565b6107e9565b6040516102549190612b29565b60405180910390f35b34801561026957600080fd5b50610284600480360381019061027f9190612512565b610895565b005b34801561029257600080fd5b506102ad60048036038101906102a89190612430565b610b76565b6040516102ba9190612b0e565b60405180910390f35b3480156102cf57600080fd5b506102d8610b96565b005b3480156102e657600080fd5b506102ef610d19565b6040516102fc9190612aca565b60405180910390f35b34801561031157600080fd5b5061032c60048036038101906103279190612512565b610d3f565b6040516103399190612b0e565b60405180910390f35b34801561034e57600080fd5b50610357610d5f565b6040516103649190612de4565b60405180910390f35b34801561037957600080fd5b50610382610d79565b60405161038f9190612de4565b60405180910390f35b3480156103a457600080fd5b506103ad610d93565b005b3480156103bb57600080fd5b506103c4610e9b565b005b3480156103d257600080fd5b506103ed60048036038101906103e89190612512565b610f21565b6040516103fa9190612b29565b60405180910390f35b34801561040f57600080fd5b5061042a60048036038101906104259190612430565b610f80565b6040516104379190612de4565b60405180910390f35b34801561044c57600080fd5b50610455610fa7565b6040516104629190612b0e565b60405180910390f35b34801561047757600080fd5b50610492600480360381019061048d9190612512565b610fbd565b60405161049f9190612b0e565b60405180910390f35b3480156104b457600080fd5b506104cf60048036038101906104ca919061253b565b611029565b6040516104dc9190612dc9565b60405180910390f35b3480156104f157600080fd5b5061050c60048036038101906105079190612512565b611180565b6040516105199190612b29565b60405180910390f35b34801561052e57600080fd5b506105376113bd565b005b34801561054557600080fd5b50610560600480360381019061055b9190612512565b611445565b60405161056d9190612b0e565b60405180910390f35b34801561058257600080fd5b5061059d60048036038101906105989190612512565b611465565b6040516105aa9190612dc9565b60405180910390f35b3480156105bf57600080fd5b506105c861159e565b005b3480156105d657600080fd5b506105df611624565b6040516105ec9190612aca565b60405180910390f35b34801561060157600080fd5b5061060a61164d565b6040516106179190612dc9565b60405180910390f35b34801561062c57600080fd5b5061064760048036038101906106429190612495565b611653565b6040516106549190612de4565b60405180910390f35b34801561066957600080fd5b50610684600480360381019061067f919061253b565b6119f1565b005b34801561069257600080fd5b506106ad60048036038101906106a891906124e9565b611d6b565b6040516106bc93929190612b44565b60405180910390f35b3480156106d157600080fd5b506106da611dc6565b6040516106e79190612dc9565b60405180910390f35b3480156106fc57600080fd5b50610705611dcc565b6040516107129190612dc9565b60405180910390f35b34801561072757600080fd5b50610742600480360381019061073d9190612430565b611dd2565b60405161074f9190612b0e565b60405180910390f35b34801561076457600080fd5b5061077f600480360381019061077a9190612459565b611df2565b60405161078c9190612b0e565b60405180910390f35b3480156107a157600080fd5b506107bc60048036038101906107b79190612430565b611e21565b005b3480156107ca57600080fd5b506107d3611f19565b6040516107e09190612dc9565b60405180910390f35b600060028367ffffffffffffffff168154811061082f577f4e487b7100000000000000000000000000000000000000000000000000000000600052603260045260246000fd5b90600052602060002090600302016001018260ff168154811061087b577f4e487b7100000000000000000000000000000000000000000000000000000000600052603260045260246000fd5b906000526020600020906003020160000154905092915050565b61089d611f1f565b73ffffffffffffffffffffffffffffffffffffffff166108bb611624565b73ffffffffffffffffffffffffffffffffffffffff1614610911576040517f08c379a000000000000000000000000000000000000000000000000000000000815260040161090890612d29565b60405180910390fd5b806000151560028267ffffffffffffffff168154811061095a577f4e487b7100000000000000000000000000000000000000000000000000000000600052603260045260246000fd5b906000526020600020906003020160020160009054906101000a900460ff161515146109bb576040517f08c379a00000000000000000000000000000000000000000000000000000000081526004016109b290612d49565b60405180910390fd5b60001515600660008467ffffffffffffffff1667ffffffffffffffff16815260200190815260200160002060009054906101000a900460ff16151514610a36576040517f08c379a0000000000000000000000000000000000000000000000000000000008152600401610a2d90612c48565b60405180910390fd5b6001600660008467ffffffffffffffff1667ffffffffffffffff16815260200190815260200160002060006101000a81548160ff021916908315150217905550600160028367ffffffffffffffff1681548110610abc577f4e487b7100000000000000000000000000000000000000000000000000000000600052603260045260246000fd5b906000526020600020906003020160020160006101000a81548160ff0219169083151502179055507f638b96e82cfc7a197bd6be5c176bc949aba7a20600a5d03c74c59cb51355f47a60028367ffffffffffffffff1681548110610b49577f4e487b7100000000000000000000000000000000000000000000000000000000600052603260045260246000fd5b90600052602060002090600302016000015433604051610b6a929190612cc8565b60405180910390a15050565b60046020528060005260406000206000915054906101000a900460ff1681565b610b9e610fa7565b15610bde576040517f08c379a0000000000000000000000000000000000000000000000000000000008152600401610bd590612d09565b60405180910390fd5b60011515600460003373ffffffffffffffffffffffffffffffffffffffff1673ffffffffffffffffffffffffffffffffffffffff16815260200190815260200160002060009054906101000a900460ff1615151415610c72576040517f08c379a0000000000000000000000000000000000000000000000000000000008152600401610c6990612c88565b60405180910390fd5b6001600460003373ffffffffffffffffffffffffffffffffffffffff1673ffffffffffffffffffffffffffffffffffffffff16815260200190815260200160002060006101000a81548160ff0219169083151502179055506007600081819054906101000a900467ffffffffffffffff1680929190610cf090612fb8565b91906101000a81548167ffffffffffffffff021916908367ffffffffffffffff16021790555050565b600160009054906101000a900473ffffffffffffffffffffffffffffffffffffffff1681565b60066020528060005260406000206000915054906101000a900460ff1681565b600360009054906101000a900467ffffffffffffffff1681565b600760009054906101000a900467ffffffffffffffff1681565b610d9b611f1f565b73ffffffffffffffffffffffffffffffffffffffff16610db9611624565b73ffffffffffffffffffffffffffffffffffffffff1614610e0f576040517f08c379a0000000000000000000000000000000000000000000000000000000008152600401610e0690612d29565b60405180910390fd5b60004711610e52576040517f08c379a0000000000000000000000000000000000000000000000000000000008152600401610e4990612da9565b60405180910390fd5b3373ffffffffffffffffffffffffffffffffffffffff166108fc479081150290604051600060405180830381858888f19350505050158015610e98573d6000803e3d6000fd5b50565b610ea3611f1f565b73ffffffffffffffffffffffffffffffffffffffff16610ec1611624565b73ffffffffffffffffffffffffffffffffffffffff1614610f17576040517f08c379a0000000000000000000000000000000000000000000000000000000008152600401610f0e90612d29565b60405180910390fd5b610f1f611f27565b565b600060028267ffffffffffffffff1681548110610f67577f4e487b7100000000000000000000000000000000000000000000000000000000600052603260045260246000fd5b9060005260206000209060030201600001549050919050565b600b6020528060005260406000206000915054906101000a900467ffffffffffffffff1681565b60008060149054906101000a900460ff16905090565b600060028267ffffffffffffffff1681548110611003577f4e487b7100000000000000000000000000000000000000000000000000000000600052603260045260246000fd5b906000526020600020906003020160020160009054906101000a900460ff169050919050565b6000826000151560028267ffffffffffffffff1681548110611074577f4e487b7100000000000000000000000000000000000000000000000000000000600052603260045260246000fd5b906000526020600020906003020160020160009054906101000a900460ff161515146110d5576040517f08c379a00000000000000000000000000000000000000000000000000000000081526004016110cc90612d49565b60405180910390fd5b60028467ffffffffffffffff1681548110611119577f4e487b7100000000000000000000000000000000000000000000000000000000600052603260045260246000fd5b90600052602060002090600302016001018360ff1681548110611165577f4e487b7100000000000000000000000000000000000000000000000000000000600052603260045260246000fd5b90600052602060002090600302016001015491505092915050565b600061118a611f1f565b73ffffffffffffffffffffffffffffffffffffffff166111a8611624565b73ffffffffffffffffffffffffffffffffffffffff16146111fe576040517f08c379a00000000000000000000000000000000000000000000000000000000081526004016111f590612d29565b60405180910390fd5b816001151560028267ffffffffffffffff1681548110611247577f4e487b7100000000000000000000000000000000000000000000000000000000600052603260045260246000fd5b906000526020600020906003020160020160009054906101000a900460ff161515146112a8576040517f08c379a000000000000000000000000000000000000000000000000000000000815260040161129f90612ca8565b60405180910390fd5b600060028467ffffffffffffffff16815481106112ee577f4e487b7100000000000000000000000000000000000000000000000000000000600052603260045260246000fd5b906000526020600020906003020160020160006101000a81548160ff021916908315150217905550600061132184611fc8565b90507f638b96e82cfc7a197bd6be5c176bc949aba7a20600a5d03c74c59cb51355f47a60028567ffffffffffffffff1681548110611388577f4e487b7100000000000000000000000000000000000000000000000000000000600052603260045260246000fd5b90600052602060002090600302016000015482336040516113ab93929190612be5565b60405180910390a18092505050919050565b6113c5611f1f565b73ffffffffffffffffffffffffffffffffffffffff166113e3611624565b73ffffffffffffffffffffffffffffffffffffffff1614611439576040517f08c379a000000000000000000000000000000000000000000000000000000000815260040161143090612d29565b60405180910390fd5b61144360006121ca565b565b60096020528060005260406000206000915054906101000a900460ff1681565b6000806000905060005b60028467ffffffffffffffff16815481106114b3577f4e487b7100000000000000000000000000000000000000000000000000000000600052603260045260246000fd5b9060005260206000209060030201600101805490508160ff1610156115945760028467ffffffffffffffff1681548110611516577f4e487b7100000000000000000000000000000000000000000000000000000000600052603260045260246000fd5b90600052602060002090600302016001018160ff1681548110611562577f4e487b7100000000000000000000000000000000000000000000000000000000600052603260045260246000fd5b9060005260206000209060030201600101548261157f9190612ea6565b9150808061158c90612fe9565b91505061146f565b5080915050919050565b6115a6611f1f565b73ffffffffffffffffffffffffffffffffffffffff166115c4611624565b73ffffffffffffffffffffffffffffffffffffffff161461161a576040517f08c379a000000000000000000000000000000000000000000000000000000000815260040161161190612d29565b60405180910390fd5b61162261228e565b565b60008060009054906101000a900473ffffffffffffffffffffffffffffffffffffffff16905090565b600c5481565b600061165d611f1f565b73ffffffffffffffffffffffffffffffffffffffff1661167b611624565b73ffffffffffffffffffffffffffffffffffffffff16146116d1576040517f08c379a00000000000000000000000000000000000000000000000000000000081526004016116c890612d29565b60405180910390fd5b610100825110611716576040517f08c379a000000000000000000000000000000000000000000000000000000000815260040161170d90612d69565b60405180910390fd5b6000600360009054906101000a900467ffffffffffffffff1690506003600081819054906101000a900467ffffffffffffffff168092919061175790612fb8565b91906101000a81548167ffffffffffffffff021916908367ffffffffffffffff160217905550506002600181600181540180825580915050039060005260206000209050508360028267ffffffffffffffff16815481106117e1577f4e487b7100000000000000000000000000000000000000000000000000000000600052603260045260246000fd5b9060005260206000209060030201600001819055508060028267ffffffffffffffff168154811061183b577f4e487b7100000000000000000000000000000000000000000000000000000000600052603260045260246000fd5b906000526020600020906003020160020160016101000a81548167ffffffffffffffff021916908367ffffffffffffffff16021790555060005b83518160ff1610156119ab5760028267ffffffffffffffff16815481106118c5577f4e487b7100000000000000000000000000000000000000000000000000000000600052603260045260246000fd5b90600052602060002090600302016001016040518060600160405280868460ff168151811061191d577f4e487b7100000000000000000000000000000000000000000000000000000000600052603260045260246000fd5b60200260200101518152602001600081526020018360ff168152509080600181540180825580915050600190039060005260206000209060030201600090919091909150600082015181600001556020820151816001015560408201518160020160006101000a81548160ff021916908360ff160217905550505080806119a390612fe9565b915050611875565b507fdfb27e2960411d7056c80fb74fb8d21b563bad1e11dd0ce71150ec5c28efcefa8484336040516119df93929190612b7b565b60405180910390a18091505092915050565b60011515600460003373ffffffffffffffffffffffffffffffffffffffff1673ffffffffffffffffffffffffffffffffffffffff16815260200190815260200160002060009054906101000a900460ff16151514611a84576040517f08c379a0000000000000000000000000000000000000000000000000000000008152600401611a7b90612d89565b60405180910390fd5b611a8c610fa7565b15611acc576040517f08c379a0000000000000000000000000000000000000000000000000000000008152600401611ac390612d09565b60405180910390fd5b816001151560028267ffffffffffffffff1681548110611b15577f4e487b7100000000000000000000000000000000000000000000000000000000600052603260045260246000fd5b906000526020600020906003020160020160009054906101000a900460ff16151514611b76576040517f08c379a0000000000000000000000000000000000000000000000000000000008152600401611b6d90612ca8565b60405180910390fd5b60001515600560003373ffffffffffffffffffffffffffffffffffffffff1673ffffffffffffffffffffffffffffffffffffffff16815260200190815260200160002060008567ffffffffffffffff16815260200190815260200160002060009054906101000a900460ff16151514611c24576040517f08c379a0000000000000000000000000000000000000000000000000000000008152600401611c1b90612c68565b60405180910390fd5b6001600560003373ffffffffffffffffffffffffffffffffffffffff1673ffffffffffffffffffffffffffffffffffffffff16815260200190815260200160002060008567ffffffffffffffff16815260200190815260200160002060006101000a81548160ff02191690831515021790555060028367ffffffffffffffff1681548110611cdb577f4e487b7100000000000000000000000000000000000000000000000000000000600052603260045260246000fd5b90600052602060002090600302016001018260ff1681548110611d27577f4e487b7100000000000000000000000000000000000000000000000000000000600052603260045260246000fd5b90600052602060002090600302016001016000815480929190611d4990612f6f565b919050555060086000815480929190611d6190612f6f565b9190505550505050565b60028181548110611d7b57600080fd5b90600052602060002090600302016000915090508060000154908060020160009054906101000a900460ff16908060020160019054906101000a900467ffffffffffffffff16905083565b600d5481565b60085481565b600a6020528060005260406000206000915054906101000a900460ff1681565b60056020528160005260406000206020528060005260406000206000915091509054906101000a900460ff1681565b611e29611f1f565b73ffffffffffffffffffffffffffffffffffffffff16611e47611624565b73ffffffffffffffffffffffffffffffffffffffff1614611e9d576040517f08c379a0000000000000000000000000000000000000000000000000000000008152600401611e9490612d29565b60405180910390fd5b600073ffffffffffffffffffffffffffffffffffffffff168173ffffffffffffffffffffffffffffffffffffffff161415611f0d576040517f08c379a0000000000000000000000000000000000000000000000000000000008152600401611f0490612c28565b60405180910390fd5b611f16816121ca565b50565b600e5481565b600033905090565b611f2f610fa7565b611f6e576040517f08c379a0000000000000000000000000000000000000000000000000000000008152600401611f6590612bc5565b60405180910390fd5b60008060146101000a81548160ff0219169083151502179055507f5db9ee0a495bf2e6ff9c91a7834c1ba4fdd244a5e8aa4e537bd38aeae4b073aa611fb1611f1f565b604051611fbe9190612aca565b60405180910390a1565b6000807f6e6f2077696e6e6572000000000000000000000000000000000000000000000090506000805b60028567ffffffffffffffff1681548110612036577f4e487b7100000000000000000000000000000000000000000000000000000000600052603260045260246000fd5b9060005260206000209060030201600101805490508160ff1610156121bf57600060028667ffffffffffffffff168154811061209b577f4e487b7100000000000000000000000000000000000000000000000000000000600052603260045260246000fd5b90600052602060002090600302016001018260ff16815481106120e7577f4e487b7100000000000000000000000000000000000000000000000000000000600052603260045260246000fd5b9060005260206000209060030201600101549050828111156121ab5760028667ffffffffffffffff1681548110612147577f4e487b7100000000000000000000000000000000000000000000000000000000600052603260045260246000fd5b90600052602060002090600302016001018260ff1681548110612193577f4e487b7100000000000000000000000000000000000000000000000000000000600052603260045260246000fd5b90600052602060002090600302016000015493508092505b5080806121b790612fe9565b915050611ff2565b508192505050919050565b60008060009054906101000a900473ffffffffffffffffffffffffffffffffffffffff169050816000806101000a81548173ffffffffffffffffffffffffffffffffffffffff021916908373ffffffffffffffffffffffffffffffffffffffff1602179055508173ffffffffffffffffffffffffffffffffffffffff168173ffffffffffffffffffffffffffffffffffffffff167f8be0079c531659141344cd1fd0a4f28419497f9722a3daafe3b4186f6b6457e060405160405180910390a35050565b612296610fa7565b156122d6576040517f08c379a00000000000000000000000000000000000000000000000000000000081526004016122cd90612d09565b60405180910390fd5b6001600060146101000a81548160ff0219169083151502179055507f62e78cea01bee320cd4e420270b5ea74000d11b0c9f74754ebdbfc544b05a25861231a611f1f565b6040516123279190612aca565b60405180910390a1565b600061234461233f84612e30565b612dff565b9050808382526020820190508285602086028201111561236357600080fd5b60005b85811015612393578161237988826123dc565b845260208401935060208301925050600181019050612366565b5050509392505050565b6000813590506123ac81613071565b92915050565b600082601f8301126123c357600080fd5b81356123d3848260208601612331565b91505092915050565b6000813590506123eb81613088565b92915050565b6000813590506124008161309f565b92915050565b600081359050612415816130b6565b92915050565b60008135905061242a816130cd565b92915050565b60006020828403121561244257600080fd5b60006124508482850161239d565b91505092915050565b6000806040838503121561246c57600080fd5b600061247a8582860161239d565b925050602061248b858286016123f1565b9150509250929050565b600080604083850312156124a857600080fd5b60006124b6858286016123dc565b925050602083013567ffffffffffffffff8111156124d357600080fd5b6124df858286016123b2565b9150509250929050565b6000602082840312156124fb57600080fd5b6000612509848285016123f1565b91505092915050565b60006020828403121561252457600080fd5b600061253284828501612406565b91505092915050565b6000806040838503121561254e57600080fd5b600061255c85828601612406565b925050602061256d8582860161241b565b9150509250929050565b6000612583838361260b565b60208301905092915050565b61259881612efc565b82525050565b60006125a982612e6c565b6125b38185612e84565b93506125be83612e5c565b8060005b838110156125ef5781516125d68882612577565b97506125e183612e77565b9250506001810190506125c2565b5085935050505092915050565b61260581612f0e565b82525050565b61261481612f1a565b82525050565b61262381612f1a565b82525050565b7f4e65772043617465676f72790000000000000000000000000000000000000000815250565b600061265c601483612e95565b91507f5061757361626c653a206e6f74207061757365640000000000000000000000006000830152602082019050919050565b7f43617465676f727920436c6f7365640000000000000000000000000000000000815250565b60006126c2602683612e95565b91507f4f776e61626c653a206e6577206f776e657220697320746865207a65726f206160008301527f64647265737300000000000000000000000000000000000000000000000000006020830152604082019050919050565b6000612728602483612e95565b91507f546869732063617465676f72792063616e6e6f74206265206f70656e6564206160008301527f6761696e000000000000000000000000000000000000000000000000000000006020830152604082019050919050565b600061278e602783612e95565b91507f596f75206861766520616c726561647920766f74656420696e2074686973206360008301527f617465676f7279000000000000000000000000000000000000000000000000006020830152604082019050919050565b60006127f4602283612e95565b91507f54686973206164647265737320697320616c726561647920726567697374657260008301527f65640000000000000000000000000000000000000000000000000000000000006020830152604082019050919050565b600061285a603b83612e95565b91507f5468697320616374696f6e2063616e6e6f7420626520706572666f726d65642060008301527f7768656e207468652063617465676f727920697320636c6f73656400000000006020830152604082019050919050565b7f43617465676f7279204f70656e65640000000000000000000000000000000000815250565b60006128e6601083612e95565b91507f5061757361626c653a20706175736564000000000000000000000000000000006000830152602082019050919050565b6000612926602083612e95565b91507f4f776e61626c653a2063616c6c6572206973206e6f7420746865206f776e65726000830152602082019050919050565b6000612966603983612e95565b91507f5468697320616374696f6e2063616e6e6f7420626520706572666f726d65642060008301527f7768656e207468652063617465676f7279206973206f70656e000000000000006020830152604082019050919050565b60006129cc601e83612e95565b91507f54686572652061726520746f6f206d616e792063616e646964617465732e00006000830152602082019050919050565b6000612a0c602983612e95565b91507f546869732077616c6c65742061646472657373206973206e6f7420796574207260008301527f65676973746572656400000000000000000000000000000000000000000000006020830152604082019050919050565b6000815250565b6000612a79601483612e95565b91507f4e6f2066756e647320696e20636f6e74726163740000000000000000000000006000830152602082019050919050565b612ab581612f44565b82525050565b612ac481612f4e565b82525050565b6000602082019050612adf600083018461258f565b92915050565b6000604082019050612afa600083018561258f565b612b076020830184612aac565b9392505050565b6000602082019050612b2360008301846125fc565b92915050565b6000602082019050612b3e600083018461261a565b92915050565b6000606082019050612b59600083018661261a565b612b6660208301856125fc565b612b736040830184612abb565b949350505050565b6000608082019050612b8f60008301612629565b612b9c602083018661261a565b8181036040830152612bae818561259e565b9050612bbd606083018461258f565b949350505050565b60006020820190508181036000830152612bde8161264f565b9050919050565b6000608082019050612bf96000830161268f565b612c06602083018661261a565b612c13604083018561261a565b612c20606083018461258f565b949350505050565b60006020820190508181036000830152612c41816126b5565b9050919050565b60006020820190508181036000830152612c618161271b565b9050919050565b60006020820190508181036000830152612c8181612781565b9050919050565b60006020820190508181036000830152612ca1816127e7565b9050919050565b60006020820190508181036000830152612cc18161284d565b9050919050565b6000608082019050612cdc600083016128b3565b612ce9602083018561261a565b612cf560408301612a65565b612d02606083018461258f565b9392505050565b60006020820190508181036000830152612d22816128d9565b9050919050565b60006020820190508181036000830152612d4281612919565b9050919050565b60006020820190508181036000830152612d6281612959565b9050919050565b60006020820190508181036000830152612d82816129bf565b9050919050565b60006020820190508181036000830152612da2816129ff565b9050919050565b60006020820190508181036000830152612dc281612a6c565b9050919050565b6000602082019050612dde6000830184612aac565b92915050565b6000602082019050612df96000830184612abb565b92915050565b6000604051905081810181811067ffffffffffffffff82111715612e2657612e25613042565b5b8060405250919050565b600067ffffffffffffffff821115612e4b57612e4a613042565b5b602082029050602081019050919050565b6000819050602082019050919050565b600081519050919050565b6000602082019050919050565b600082825260208201905092915050565b600082825260208201905092915050565b6000612eb182612f44565b9150612ebc83612f44565b9250827fffffffffffffffffffffffffffffffffffffffffffffffffffffffffffffffff03821115612ef157612ef0613013565b5b828201905092915050565b6000612f0782612f24565b9050919050565b60008115159050919050565b6000819050919050565b600073ffffffffffffffffffffffffffffffffffffffff82169050919050565b6000819050919050565b600067ffffffffffffffff82169050919050565b600060ff82169050919050565b6000612f7a82612f44565b91507fffffffffffffffffffffffffffffffffffffffffffffffffffffffffffffffff821415612fad57612fac613013565b5b600182019050919050565b6000612fc382612f4e565b915067ffffffffffffffff821415612fde57612fdd613013565b5b600182019050919050565b6000612ff482612f62565b915060ff82141561300857613007613013565b5b600182019050919050565b7f4e487b7100000000000000000000000000000000000000000000000000000000600052601160045260246000fd5b7f4e487b7100000000000000000000000000000000000000000000000000000000600052604160045260246000fd5b61307a81612efc565b811461308557600080fd5b50565b61309181612f1a565b811461309c57600080fd5b50565b6130a881612f44565b81146130b357600080fd5b50565b6130bf81612f4e565b81146130ca57600080fd5b50565b6130d681612f62565b81146130e157600080fd5b5056fea2646970667358221220a46f727fcbf05e3a011715be5b39374dc9a6386563095f4460498a1cd486e49464736f6c63430008000033",
  "linkReferences": {},
  "deployedLinkReferences": {}
}