{
  "_format": "hh-sol-artifact-1",
  "contractName": "VotingBooth",
  "sourceName": "contracts/Voting_Booth.sol",
  "abi": [
    {
      "anonymous": false,
      "inputs": [
        {
          "indexed": true,
          "internalType": "address",
          "name": "previousOwner",
          "type": "address"
        },
        {
          "indexed": true,
          "internalType": "address",
          "name": "newOwner",
          "type": "address"
        }
      ],
      "name": "OwnershipTransferred",
      "type": "event"
    },
    {
      "anonymous": false,
      "inputs": [
        {
          "indexed": false,
          "internalType": "address",
          "name": "account",
          "type": "address"
        }
      ],
      "name": "Paused",
      "type": "event"
    },
    {
      "anonymous": false,
      "inputs": [
        {
          "indexed": false,
          "internalType": "address",
          "name": "account",
          "type": "address"
        }
      ],
      "name": "Unpaused",
      "type": "event"
    },
    {
      "anonymous": false,
      "inputs": [
        {
          "indexed": false,
          "internalType": "bytes32",
          "name": "_func",
          "type": "bytes32"
        },
        {
          "indexed": false,
          "internalType": "bytes32",
          "name": "_categoryName",
          "type": "bytes32"
        },
        {
          "indexed": false,
          "internalType": "bytes32[]",
          "name": "_candidateNames",
          "type": "bytes32[]"
        },
        {
          "indexed": false,
          "internalType": "address",
          "name": "_from",
          "type": "address"
        }
      ],
      "name": "categorySet",
      "type": "event"
    },
    {
      "anonymous": false,
      "inputs": [
        {
          "indexed": false,
          "internalType": "bytes32",
          "name": "_func",
          "type": "bytes32"
        },
        {
          "indexed": false,
          "internalType": "bytes32",
          "name": "_categoryName",
          "type": "bytes32"
        },
        {
          "indexed": false,
          "internalType": "bytes32",
          "name": "_winner",
          "type": "bytes32"
        },
        {
          "indexed": false,
          "internalType": "address",
          "name": "_from",
          "type": "address"
        }
      ],
      "name": "categoryStatusChange",
      "type": "event"
    },
    {
      "anonymous": false,
      "inputs": [
        {
          "indexed": false,
          "internalType": "address",
          "name": "_donator",
          "type": "address"
        },
        {
          "indexed": false,
          "internalType": "uint256",
          "name": "_amount",
          "type": "uint256"
        }
      ],
      "name": "donationReceived",
      "type": "event"
    },
    {
      "inputs": [
        {
          "internalType": "address",
          "name": "",
          "type": "address"
        },
        {
          "internalType": "uint256",
          "name": "",
          "type": "uint256"
        }
      ],
      "name": "_boolVoter",
      "outputs": [
        {
          "internalType": "bool",
          "name": "",
          "type": "bool"
        }
      ],
      "stateMutability": "view",
      "type": "function"
    },
    {
      "inputs": [
        {
          "internalType": "uint64",
          "name": "",
          "type": "uint64"
        }
      ],
      "name": "_openedOnce",
      "outputs": [
        {
          "internalType": "bool",
          "name": "",
          "type": "bool"
        }
      ],
      "stateMutability": "view",
      "type": "function"
    },
    {
      "inputs": [
        {
          "internalType": "address",
          "name": "",
          "type": "address"
        }
      ],
      "name": "_registry",
      "outputs": [
        {
          "internalType": "bool",
          "name": "",
          "type": "bool"
        }
      ],
      "stateMutability": "view",
      "type": "function"
    },
    {
      "inputs": [],
      "name": "_totalVotes",
      "outputs": [
        {
          "internalType": "uint256",
          "name": "",
          "type": "uint256"
        }
      ],
      "stateMutability": "view",
      "type": "function"
    },
    {
      "inputs": [],
      "name": "_voterCount",
      "outputs": [
        {
          "internalType": "uint64",
          "name": "",
          "type": "uint64"
        }
      ],
      "stateMutability": "view",
      "type": "function"
    },
    {
      "inputs": [
        {
          "internalType": "uint64",
          "name": "_catId",
          "type": "uint64"
        },
        {
          "internalType": "uint8",
          "name": "_canId",
          "type": "uint8"
        }
      ],
      "name": "castVote",
      "outputs": [],
      "stateMutability": "nonpayable",
      "type": "function"
    },
    {
      "inputs": [
        {
          "internalType": "uint256",
          "name": "",
          "type": "uint256"
        }
      ],
      "name": "categories",
      "outputs": [
        {
          "internalType": "bytes32",
          "name": "name",
          "type": "bytes32"
        },
        {
          "internalType": "bool",
          "name": "open",
          "type": "bool"
        },
        {
          "internalType": "uint64",
          "name": "catId",
          "type": "uint64"
        }
      ],
      "stateMutability": "view",
      "type": "function"
    },
    {
      "inputs": [
        {
          "internalType": "uint64",
          "name": "_catId",
          "type": "uint64"
        }
      ],
      "name": "closeCategory",
      "outputs": [
        {
          "internalType": "bytes32",
          "name": "",
          "type": "bytes32"
        }
      ],
      "stateMutability": "nonpayable",
      "type": "function"
    },
    {
      "inputs": [],
      "name": "currentFuncAddress",
      "outputs": [
        {
          "internalType": "address",
          "name": "",
          "type": "address"
        }
      ],
      "stateMutability": "view",
      "type": "function"
    },
    {
      "inputs": [
        {
          "internalType": "uint64",
          "name": "_catId",
          "type": "uint64"
        },
        {
          "internalType": "uint8",
          "name": "_canId",
          "type": "uint8"
        }
      ],
      "name": "getCandidate",
      "outputs": [
        {
          "internalType": "bytes32",
          "name": "",
          "type": "bytes32"
        }
      ],
      "stateMutability": "view",
      "type": "function"
    },
    {
      "inputs": [
        {
          "internalType": "uint64",
          "name": "_catId",
          "type": "uint64"
        },
        {
          "internalType": "uint8",
          "name": "_canId",
          "type": "uint8"
        }
      ],
      "name": "getCandidateVotes",
      "outputs": [
        {
          "internalType": "uint256",
          "name": "",
          "type": "uint256"
        }
      ],
      "stateMutability": "view",
      "type": "function"
    },
    {
      "inputs": [
        {
          "internalType": "uint64",
          "name": "_catId",
          "type": "uint64"
        }
      ],
      "name": "getCategoryName",
      "outputs": [
        {
          "internalType": "bytes32",
          "name": "",
          "type": "bytes32"
        }
      ],
      "stateMutability": "view",
      "type": "function"
    },
    {
      "inputs": [
        {
          "internalType": "uint64",
          "name": "_catId",
          "type": "uint64"
        }
      ],
      "name": "getCategoryOpen",
      "outputs": [
        {
          "internalType": "bool",
          "name": "",
          "type": "bool"
        }
      ],
      "stateMutability": "view",
      "type": "function"
    },
    {
      "inputs": [
        {
          "internalType": "uint64",
          "name": "_catId",
          "type": "uint64"
        }
      ],
      "name": "getCategoryVotes",
      "outputs": [
        {
          "internalType": "uint256",
          "name": "",
          "type": "uint256"
        }
      ],
      "stateMutability": "view",
      "type": "function"
    },
    {
      "inputs": [
        {
          "internalType": "uint64",
          "name": "_catId",
          "type": "uint64"
        }
      ],
      "name": "openCategory",
      "outputs": [],
      "stateMutability": "nonpayable",
      "type": "function"
    },
    {
      "inputs": [],
      "name": "owner",
      "outputs": [
        {
          "internalType": "address",
          "name": "",
          "type": "address"
        }
      ],
      "stateMutability": "view",
      "type": "function"
    },
    {
      "inputs": [],
      "name": "pause",
      "outputs": [],
      "stateMutability": "nonpayable",
      "type": "function"
    },
    {
      "inputs": [],
      "name": "paused",
      "outputs": [
        {
          "internalType": "bool",
          "name": "",
          "type": "bool"
        }
      ],
      "stateMutability": "view",
      "type": "function"
    },
    {
      "inputs": [],
      "name": "register",
      "outputs": [],
      "stateMutability": "nonpayable",
      "type": "function"
    },
    {
      "inputs": [],
      "name": "renounceOwnership",
      "outputs": [],
      "stateMutability": "nonpayable",
      "type": "function"
    },
    {
      "inputs": [
        {
          "internalType": "bytes32",
          "name": "_category",
          "type": "bytes32"
        },
        {
          "internalType": "bytes32[]",
          "name": "_candidates",
          "type": "bytes32[]"
        }
      ],
      "name": "setCategory",
      "outputs": [
        {
          "internalType": "uint64",
          "name": "",
          "type": "uint64"
        }
      ],
      "stateMutability": "nonpayable",
      "type": "function"
    },
    {
      "inputs": [
        {
          "internalType": "address",
          "name": "newOwner",
          "type": "address"
        }
      ],
      "name": "transferOwnership",
      "outputs": [],
      "stateMutability": "nonpayable",
      "type": "function"
    },
    {
      "inputs": [],
      "name": "unpause",
      "outputs": [],
      "stateMutability": "nonpayable",
      "type": "function"
    },
    {
      "inputs": [],
      "name": "withdraw",
      "outputs": [],
      "stateMutability": "nonpayable",
      "type": "function"
    },
    {
      "stateMutability": "payable",
      "type": "receive"
    }
  ],
  "bytecode": "0x60806040523480156200001157600080fd5b5062000032620000266200005260201b60201c565b6200005a60201b60201c565b60008060146101000a81548160ff0219169083151502179055506200011e565b600033905090565b60008060009054906101000a900473ffffffffffffffffffffffffffffffffffffffff169050816000806101000a81548173ffffffffffffffffffffffffffffffffffffffff021916908373ffffffffffffffffffffffffffffffffffffffff1602179055508173ffffffffffffffffffffffffffffffffffffffff168173ffffffffffffffffffffffffffffffffffffffff167f8be0079c531659141344cd1fd0a4f28419497f9722a3daafe3b4186f6b6457e060405160405180910390a35050565b612e97806200012e6000396000f3fe60806040526004361061014e5760003560e01c80636bda58f9116100b657806399ef6ccb1161006f57806399ef6ccb146104c3578063aa89921414610500578063c6cdbe5e14610529578063ce4ec04814610568578063eb77c40f14610593578063f2fde38b146105d05761018e565b80636bda58f9146103b35780636d93d0d8146103f0578063715018a61461042d57806380417bfb146104445780638456cb59146104815780638da5cb5b146104985761018e565b8063317cc82d11610108578063317cc82d146102b55780633ccfd60b146102e05780633f4ba83a146102f75780635133342b1461030e5780635c975abb1461034b578063662efa43146103765761018e565b80624554691461019357806302c3307d146101d057806308e67038146101f95780631aa3a008146102365780631af5fd021461024d5780631ddbcbb1146102785761018e565b3661018e577fe2639ef551ad89950da1145fe1fd600e818336d6e8aa88426efe387c49accebb3334604051610184929190612862565b60405180910390a1005b600080fd5b34801561019f57600080fd5b506101ba60048036038101906101b591906122b8565b6105f9565b6040516101c791906128a6565b60405180910390f35b3480156101dc57600080fd5b506101f760048036038101906101f2919061228f565b6106a5565b005b34801561020557600080fd5b50610220600480360381019061021b91906121ad565b610986565b60405161022d919061288b565b60405180910390f35b34801561024257600080fd5b5061024b6109a6565b005b34801561025957600080fd5b50610262610b29565b60405161026f9190612847565b60405180910390f35b34801561028457600080fd5b5061029f600480360381019061029a919061228f565b610b4f565b6040516102ac919061288b565b60405180910390f35b3480156102c157600080fd5b506102ca610b6f565b6040516102d79190612b61565b60405180910390f35b3480156102ec57600080fd5b506102f5610b89565b005b34801561030357600080fd5b5061030c610c91565b005b34801561031a57600080fd5b506103356004803603810190610330919061228f565b610d17565b60405161034291906128a6565b60405180910390f35b34801561035757600080fd5b50610360610d76565b60405161036d919061288b565b60405180910390f35b34801561038257600080fd5b5061039d6004803603810190610398919061228f565b610d8c565b6040516103aa919061288b565b60405180910390f35b3480156103bf57600080fd5b506103da60048036038101906103d591906122b8565b610df8565b6040516103e79190612b46565b60405180910390f35b3480156103fc57600080fd5b506104176004803603810190610412919061228f565b610f4f565b60405161042491906128a6565b60405180910390f35b34801561043957600080fd5b5061044261118c565b005b34801561045057600080fd5b5061046b6004803603810190610466919061228f565b611214565b6040516104789190612b46565b60405180910390f35b34801561048d57600080fd5b5061049661134d565b005b3480156104a457600080fd5b506104ad6113d3565b6040516104ba9190612847565b60405180910390f35b3480156104cf57600080fd5b506104ea60048036038101906104e59190612212565b6113fc565b6040516104f79190612b61565b60405180910390f35b34801561050c57600080fd5b50610527600480360381019061052291906122b8565b61179a565b005b34801561053557600080fd5b50610550600480360381019061054b9190612266565b611b14565b60405161055f939291906128c1565b60405180910390f35b34801561057457600080fd5b5061057d611b6f565b60405161058a9190612b46565b60405180910390f35b34801561059f57600080fd5b506105ba60048036038101906105b591906121d6565b611b75565b6040516105c7919061288b565b60405180910390f35b3480156105dc57600080fd5b506105f760048036038101906105f291906121ad565b611ba4565b005b600060028367ffffffffffffffff168154811061063f577f4e487b7100000000000000000000000000000000000000000000000000000000600052603260045260246000fd5b90600052602060002090600302016001018260ff168154811061068b577f4e487b7100000000000000000000000000000000000000000000000000000000600052603260045260246000fd5b906000526020600020906003020160000154905092915050565b6106ad611c9c565b73ffffffffffffffffffffffffffffffffffffffff166106cb6113d3565b73ffffffffffffffffffffffffffffffffffffffff1614610721576040517f08c379a000000000000000000000000000000000000000000000000000000000815260040161071890612aa6565b60405180910390fd5b806000151560028267ffffffffffffffff168154811061076a577f4e487b7100000000000000000000000000000000000000000000000000000000600052603260045260246000fd5b906000526020600020906003020160020160009054906101000a900460ff161515146107cb576040517f08c379a00000000000000000000000000000000000000000000000000000000081526004016107c290612ac6565b60405180910390fd5b60001515600660008467ffffffffffffffff1667ffffffffffffffff16815260200190815260200160002060009054906101000a900460ff16151514610846576040517f08c379a000000000000000000000000000000000000000000000000000000000815260040161083d906129c5565b60405180910390fd5b6001600660008467ffffffffffffffff1667ffffffffffffffff16815260200190815260200160002060006101000a81548160ff021916908315150217905550600160028367ffffffffffffffff16815481106108cc577f4e487b7100000000000000000000000000000000000000000000000000000000600052603260045260246000fd5b906000526020600020906003020160020160006101000a81548160ff0219169083151502179055507f638b96e82cfc7a197bd6be5c176bc949aba7a20600a5d03c74c59cb51355f47a60028367ffffffffffffffff1681548110610959577f4e487b7100000000000000000000000000000000000000000000000000000000600052603260045260246000fd5b9060005260206000209060030201600001543360405161097a929190612a45565b60405180910390a15050565b60046020528060005260406000206000915054906101000a900460ff1681565b6109ae610d76565b156109ee576040517f08c379a00000000000000000000000000000000000000000000000000000000081526004016109e590612a86565b60405180910390fd5b60011515600460003373ffffffffffffffffffffffffffffffffffffffff1673ffffffffffffffffffffffffffffffffffffffff16815260200190815260200160002060009054906101000a900460ff1615151415610a82576040517f08c379a0000000000000000000000000000000000000000000000000000000008152600401610a7990612a05565b60405180910390fd5b6001600460003373ffffffffffffffffffffffffffffffffffffffff1673ffffffffffffffffffffffffffffffffffffffff16815260200190815260200160002060006101000a81548160ff0219169083151502179055506007600081819054906101000a900467ffffffffffffffff1680929190610b0090612d35565b91906101000a81548167ffffffffffffffff021916908367ffffffffffffffff16021790555050565b600160009054906101000a900473ffffffffffffffffffffffffffffffffffffffff1681565b60066020528060005260406000206000915054906101000a900460ff1681565b600760009054906101000a900467ffffffffffffffff1681565b610b91611c9c565b73ffffffffffffffffffffffffffffffffffffffff16610baf6113d3565b73ffffffffffffffffffffffffffffffffffffffff1614610c05576040517f08c379a0000000000000000000000000000000000000000000000000000000008152600401610bfc90612aa6565b60405180910390fd5b60004711610c48576040517f08c379a0000000000000000000000000000000000000000000000000000000008152600401610c3f90612b26565b60405180910390fd5b3373ffffffffffffffffffffffffffffffffffffffff166108fc479081150290604051600060405180830381858888f19350505050158015610c8e573d6000803e3d6000fd5b50565b610c99611c9c565b73ffffffffffffffffffffffffffffffffffffffff16610cb76113d3565b73ffffffffffffffffffffffffffffffffffffffff1614610d0d576040517f08c379a0000000000000000000000000000000000000000000000000000000008152600401610d0490612aa6565b60405180910390fd5b610d15611ca4565b565b600060028267ffffffffffffffff1681548110610d5d577f4e487b7100000000000000000000000000000000000000000000000000000000600052603260045260246000fd5b9060005260206000209060030201600001549050919050565b60008060149054906101000a900460ff16905090565b600060028267ffffffffffffffff1681548110610dd2577f4e487b7100000000000000000000000000000000000000000000000000000000600052603260045260246000fd5b906000526020600020906003020160020160009054906101000a900460ff169050919050565b6000826000151560028267ffffffffffffffff1681548110610e43577f4e487b7100000000000000000000000000000000000000000000000000000000600052603260045260246000fd5b906000526020600020906003020160020160009054906101000a900460ff16151514610ea4576040517f08c379a0000000000000000000000000000000000000000000000000000000008152600401610e9b90612ac6565b60405180910390fd5b60028467ffffffffffffffff1681548110610ee8577f4e487b7100000000000000000000000000000000000000000000000000000000600052603260045260246000fd5b90600052602060002090600302016001018360ff1681548110610f34577f4e487b7100000000000000000000000000000000000000000000000000000000600052603260045260246000fd5b90600052602060002090600302016001015491505092915050565b6000610f59611c9c565b73ffffffffffffffffffffffffffffffffffffffff16610f776113d3565b73ffffffffffffffffffffffffffffffffffffffff1614610fcd576040517f08c379a0000000000000000000000000000000000000000000000000000000008152600401610fc490612aa6565b60405180910390fd5b816001151560028267ffffffffffffffff1681548110611016577f4e487b7100000000000000000000000000000000000000000000000000000000600052603260045260246000fd5b906000526020600020906003020160020160009054906101000a900460ff16151514611077576040517f08c379a000000000000000000000000000000000000000000000000000000000815260040161106e90612a25565b60405180910390fd5b600060028467ffffffffffffffff16815481106110bd577f4e487b7100000000000000000000000000000000000000000000000000000000600052603260045260246000fd5b906000526020600020906003020160020160006101000a81548160ff02191690831515021790555060006110f084611d45565b90507f638b96e82cfc7a197bd6be5c176bc949aba7a20600a5d03c74c59cb51355f47a60028567ffffffffffffffff1681548110611157577f4e487b7100000000000000000000000000000000000000000000000000000000600052603260045260246000fd5b906000526020600020906003020160000154823360405161117a93929190612962565b60405180910390a18092505050919050565b611194611c9c565b73ffffffffffffffffffffffffffffffffffffffff166111b26113d3565b73ffffffffffffffffffffffffffffffffffffffff1614611208576040517f08c379a00000000000000000000000000000000000000000000000000000000081526004016111ff90612aa6565b60405180910390fd5b6112126000611f47565b565b6000806000905060005b60028467ffffffffffffffff1681548110611262577f4e487b7100000000000000000000000000000000000000000000000000000000600052603260045260246000fd5b9060005260206000209060030201600101805490508160ff1610156113435760028467ffffffffffffffff16815481106112c5577f4e487b7100000000000000000000000000000000000000000000000000000000600052603260045260246000fd5b90600052602060002090600302016001018160ff1681548110611311577f4e487b7100000000000000000000000000000000000000000000000000000000600052603260045260246000fd5b9060005260206000209060030201600101548261132e9190612c23565b9150808061133b90612d66565b91505061121e565b5080915050919050565b611355611c9c565b73ffffffffffffffffffffffffffffffffffffffff166113736113d3565b73ffffffffffffffffffffffffffffffffffffffff16146113c9576040517f08c379a00000000000000000000000000000000000000000000000000000000081526004016113c090612aa6565b60405180910390fd5b6113d161200b565b565b60008060009054906101000a900473ffffffffffffffffffffffffffffffffffffffff16905090565b6000611406611c9c565b73ffffffffffffffffffffffffffffffffffffffff166114246113d3565b73ffffffffffffffffffffffffffffffffffffffff161461147a576040517f08c379a000000000000000000000000000000000000000000000000000000000815260040161147190612aa6565b60405180910390fd5b6101008251106114bf576040517f08c379a00000000000000000000000000000000000000000000000000000000081526004016114b690612ae6565b60405180910390fd5b6000600360009054906101000a900467ffffffffffffffff1690506003600081819054906101000a900467ffffffffffffffff168092919061150090612d35565b91906101000a81548167ffffffffffffffff021916908367ffffffffffffffff160217905550506002600181600181540180825580915050039060005260206000209050508360028267ffffffffffffffff168154811061158a577f4e487b7100000000000000000000000000000000000000000000000000000000600052603260045260246000fd5b9060005260206000209060030201600001819055508060028267ffffffffffffffff16815481106115e4577f4e487b7100000000000000000000000000000000000000000000000000000000600052603260045260246000fd5b906000526020600020906003020160020160016101000a81548167ffffffffffffffff021916908367ffffffffffffffff16021790555060005b83518160ff1610156117545760028267ffffffffffffffff168154811061166e577f4e487b7100000000000000000000000000000000000000000000000000000000600052603260045260246000fd5b90600052602060002090600302016001016040518060600160405280868460ff16815181106116c6577f4e487b7100000000000000000000000000000000000000000000000000000000600052603260045260246000fd5b60200260200101518152602001600081526020018360ff168152509080600181540180825580915050600190039060005260206000209060030201600090919091909150600082015181600001556020820151816001015560408201518160020160006101000a81548160ff021916908360ff1602179055505050808061174c90612d66565b91505061161e565b507fdfb27e2960411d7056c80fb74fb8d21b563bad1e11dd0ce71150ec5c28efcefa848433604051611788939291906128f8565b60405180910390a18091505092915050565b60011515600460003373ffffffffffffffffffffffffffffffffffffffff1673ffffffffffffffffffffffffffffffffffffffff16815260200190815260200160002060009054906101000a900460ff1615151461182d576040517f08c379a000000000000000000000000000000000000000000000000000000000815260040161182490612b06565b60405180910390fd5b611835610d76565b15611875576040517f08c379a000000000000000000000000000000000000000000000000000000000815260040161186c90612a86565b60405180910390fd5b816001151560028267ffffffffffffffff16815481106118be577f4e487b7100000000000000000000000000000000000000000000000000000000600052603260045260246000fd5b906000526020600020906003020160020160009054906101000a900460ff1615151461191f576040517f08c379a000000000000000000000000000000000000000000000000000000000815260040161191690612a25565b60405180910390fd5b60001515600560003373ffffffffffffffffffffffffffffffffffffffff1673ffffffffffffffffffffffffffffffffffffffff16815260200190815260200160002060008567ffffffffffffffff16815260200190815260200160002060009054906101000a900460ff161515146119cd576040517f08c379a00000000000000000000000000000000000000000000000000000000081526004016119c4906129e5565b60405180910390fd5b6001600560003373ffffffffffffffffffffffffffffffffffffffff1673ffffffffffffffffffffffffffffffffffffffff16815260200190815260200160002060008567ffffffffffffffff16815260200190815260200160002060006101000a81548160ff02191690831515021790555060028367ffffffffffffffff1681548110611a84577f4e487b7100000000000000000000000000000000000000000000000000000000600052603260045260246000fd5b90600052602060002090600302016001018260ff1681548110611ad0577f4e487b7100000000000000000000000000000000000000000000000000000000600052603260045260246000fd5b90600052602060002090600302016001016000815480929190611af290612cec565b919050555060086000815480929190611b0a90612cec565b9190505550505050565b60028181548110611b2457600080fd5b90600052602060002090600302016000915090508060000154908060020160009054906101000a900460ff16908060020160019054906101000a900467ffffffffffffffff16905083565b60085481565b60056020528160005260406000206020528060005260406000206000915091509054906101000a900460ff1681565b611bac611c9c565b73ffffffffffffffffffffffffffffffffffffffff16611bca6113d3565b73ffffffffffffffffffffffffffffffffffffffff1614611c20576040517f08c379a0000000000000000000000000000000000000000000000000000000008152600401611c1790612aa6565b60405180910390fd5b600073ffffffffffffffffffffffffffffffffffffffff168173ffffffffffffffffffffffffffffffffffffffff161415611c90576040517f08c379a0000000000000000000000000000000000000000000000000000000008152600401611c87906129a5565b60405180910390fd5b611c9981611f47565b50565b600033905090565b611cac610d76565b611ceb576040517f08c379a0000000000000000000000000000000000000000000000000000000008152600401611ce290612942565b60405180910390fd5b60008060146101000a81548160ff0219169083151502179055507f5db9ee0a495bf2e6ff9c91a7834c1ba4fdd244a5e8aa4e537bd38aeae4b073aa611d2e611c9c565b604051611d3b9190612847565b60405180910390a1565b6000807f6e6f2077696e6e6572000000000000000000000000000000000000000000000090506000805b60028567ffffffffffffffff1681548110611db3577f4e487b7100000000000000000000000000000000000000000000000000000000600052603260045260246000fd5b9060005260206000209060030201600101805490508160ff161015611f3c57600060028667ffffffffffffffff1681548110611e18577f4e487b7100000000000000000000000000000000000000000000000000000000600052603260045260246000fd5b90600052602060002090600302016001018260ff1681548110611e64577f4e487b7100000000000000000000000000000000000000000000000000000000600052603260045260246000fd5b906000526020600020906003020160010154905082811115611f285760028667ffffffffffffffff1681548110611ec4577f4e487b7100000000000000000000000000000000000000000000000000000000600052603260045260246000fd5b90600052602060002090600302016001018260ff1681548110611f10577f4e487b7100000000000000000000000000000000000000000000000000000000600052603260045260246000fd5b90600052602060002090600302016000015493508092505b508080611f3490612d66565b915050611d6f565b508192505050919050565b60008060009054906101000a900473ffffffffffffffffffffffffffffffffffffffff169050816000806101000a81548173ffffffffffffffffffffffffffffffffffffffff021916908373ffffffffffffffffffffffffffffffffffffffff1602179055508173ffffffffffffffffffffffffffffffffffffffff168173ffffffffffffffffffffffffffffffffffffffff167f8be0079c531659141344cd1fd0a4f28419497f9722a3daafe3b4186f6b6457e060405160405180910390a35050565b612013610d76565b15612053576040517f08c379a000000000000000000000000000000000000000000000000000000000815260040161204a90612a86565b60405180910390fd5b6001600060146101000a81548160ff0219169083151502179055507f62e78cea01bee320cd4e420270b5ea74000d11b0c9f74754ebdbfc544b05a258612097611c9c565b6040516120a49190612847565b60405180910390a1565b60006120c16120bc84612bad565b612b7c565b905080838252602082019050828560208602820111156120e057600080fd5b60005b8581101561211057816120f68882612159565b8452602084019350602083019250506001810190506120e3565b5050509392505050565b60008135905061212981612dee565b92915050565b600082601f83011261214057600080fd5b81356121508482602086016120ae565b91505092915050565b60008135905061216881612e05565b92915050565b60008135905061217d81612e1c565b92915050565b60008135905061219281612e33565b92915050565b6000813590506121a781612e4a565b92915050565b6000602082840312156121bf57600080fd5b60006121cd8482850161211a565b91505092915050565b600080604083850312156121e957600080fd5b60006121f78582860161211a565b92505060206122088582860161216e565b9150509250929050565b6000806040838503121561222557600080fd5b600061223385828601612159565b925050602083013567ffffffffffffffff81111561225057600080fd5b61225c8582860161212f565b9150509250929050565b60006020828403121561227857600080fd5b60006122868482850161216e565b91505092915050565b6000602082840312156122a157600080fd5b60006122af84828501612183565b91505092915050565b600080604083850312156122cb57600080fd5b60006122d985828601612183565b92505060206122ea85828601612198565b9150509250929050565b60006123008383612388565b60208301905092915050565b61231581612c79565b82525050565b600061232682612be9565b6123308185612c01565b935061233b83612bd9565b8060005b8381101561236c57815161235388826122f4565b975061235e83612bf4565b92505060018101905061233f565b5085935050505092915050565b61238281612c8b565b82525050565b61239181612c97565b82525050565b6123a081612c97565b82525050565b7f4e65772043617465676f72790000000000000000000000000000000000000000815250565b60006123d9601483612c12565b91507f5061757361626c653a206e6f74207061757365640000000000000000000000006000830152602082019050919050565b7f43617465676f727920436c6f7365640000000000000000000000000000000000815250565b600061243f602683612c12565b91507f4f776e61626c653a206e6577206f776e657220697320746865207a65726f206160008301527f64647265737300000000000000000000000000000000000000000000000000006020830152604082019050919050565b60006124a5602483612c12565b91507f546869732063617465676f72792063616e6e6f74206265206f70656e6564206160008301527f6761696e000000000000000000000000000000000000000000000000000000006020830152604082019050919050565b600061250b602783612c12565b91507f596f75206861766520616c726561647920766f74656420696e2074686973206360008301527f617465676f7279000000000000000000000000000000000000000000000000006020830152604082019050919050565b6000612571602283612c12565b91507f54686973206164647265737320697320616c726561647920726567697374657260008301527f65640000000000000000000000000000000000000000000000000000000000006020830152604082019050919050565b60006125d7603b83612c12565b91507f5468697320616374696f6e2063616e6e6f7420626520706572666f726d65642060008301527f7768656e207468652063617465676f727920697320636c6f73656400000000006020830152604082019050919050565b7f43617465676f7279204f70656e65640000000000000000000000000000000000815250565b6000612663601083612c12565b91507f5061757361626c653a20706175736564000000000000000000000000000000006000830152602082019050919050565b60006126a3602083612c12565b91507f4f776e61626c653a2063616c6c6572206973206e6f7420746865206f776e65726000830152602082019050919050565b60006126e3603983612c12565b91507f5468697320616374696f6e2063616e6e6f7420626520706572666f726d65642060008301527f7768656e207468652063617465676f7279206973206f70656e000000000000006020830152604082019050919050565b6000612749601e83612c12565b91507f54686572652061726520746f6f206d616e792063616e646964617465732e00006000830152602082019050919050565b6000612789602983612c12565b91507f546869732077616c6c65742061646472657373206973206e6f7420796574207260008301527f65676973746572656400000000000000000000000000000000000000000000006020830152604082019050919050565b6000815250565b60006127f6601483612c12565b91507f4e6f2066756e647320696e20636f6e74726163740000000000000000000000006000830152602082019050919050565b61283281612cc1565b82525050565b61284181612ccb565b82525050565b600060208201905061285c600083018461230c565b92915050565b6000604082019050612877600083018561230c565b6128846020830184612829565b9392505050565b60006020820190506128a06000830184612379565b92915050565b60006020820190506128bb6000830184612397565b92915050565b60006060820190506128d66000830186612397565b6128e36020830185612379565b6128f06040830184612838565b949350505050565b600060808201905061290c600083016123a6565b6129196020830186612397565b818103604083015261292b818561231b565b905061293a606083018461230c565b949350505050565b6000602082019050818103600083015261295b816123cc565b9050919050565b60006080820190506129766000830161240c565b6129836020830186612397565b6129906040830185612397565b61299d606083018461230c565b949350505050565b600060208201905081810360008301526129be81612432565b9050919050565b600060208201905081810360008301526129de81612498565b9050919050565b600060208201905081810360008301526129fe816124fe565b9050919050565b60006020820190508181036000830152612a1e81612564565b9050919050565b60006020820190508181036000830152612a3e816125ca565b9050919050565b6000608082019050612a5960008301612630565b612a666020830185612397565b612a72604083016127e2565b612a7f606083018461230c565b9392505050565b60006020820190508181036000830152612a9f81612656565b9050919050565b60006020820190508181036000830152612abf81612696565b9050919050565b60006020820190508181036000830152612adf816126d6565b9050919050565b60006020820190508181036000830152612aff8161273c565b9050919050565b60006020820190508181036000830152612b1f8161277c565b9050919050565b60006020820190508181036000830152612b3f816127e9565b9050919050565b6000602082019050612b5b6000830184612829565b92915050565b6000602082019050612b766000830184612838565b92915050565b6000604051905081810181811067ffffffffffffffff82111715612ba357612ba2612dbf565b5b8060405250919050565b600067ffffffffffffffff821115612bc857612bc7612dbf565b5b602082029050602081019050919050565b6000819050602082019050919050565b600081519050919050565b6000602082019050919050565b600082825260208201905092915050565b600082825260208201905092915050565b6000612c2e82612cc1565b9150612c3983612cc1565b9250827fffffffffffffffffffffffffffffffffffffffffffffffffffffffffffffffff03821115612c6e57612c6d612d90565b5b828201905092915050565b6000612c8482612ca1565b9050919050565b60008115159050919050565b6000819050919050565b600073ffffffffffffffffffffffffffffffffffffffff82169050919050565b6000819050919050565b600067ffffffffffffffff82169050919050565b600060ff82169050919050565b6000612cf782612cc1565b91507fffffffffffffffffffffffffffffffffffffffffffffffffffffffffffffffff821415612d2a57612d29612d90565b5b600182019050919050565b6000612d4082612ccb565b915067ffffffffffffffff821415612d5b57612d5a612d90565b5b600182019050919050565b6000612d7182612cdf565b915060ff821415612d8557612d84612d90565b5b600182019050919050565b7f4e487b7100000000000000000000000000000000000000000000000000000000600052601160045260246000fd5b7f4e487b7100000000000000000000000000000000000000000000000000000000600052604160045260246000fd5b612df781612c79565b8114612e0257600080fd5b50565b612e0e81612c97565b8114612e1957600080fd5b50565b612e2581612cc1565b8114612e3057600080fd5b50565b612e3c81612ccb565b8114612e4757600080fd5b50565b612e5381612cdf565b8114612e5e57600080fd5b5056fea26469706673582212208a86cb3d09bb996a426d1768f592c40b30aae2b124b0fea47f5df539305d73ea64736f6c63430008000033",
  "linkReferences": {},
  "deployedLinkReferences": {}
}