{
  "_format": "hh-sol-artifact-1",
  "contractName": "VotingBooth",
  "sourceName": "contracts/Voting_Booth.sol",
  "abi": [
    {
      "anonymous": false,
      "inputs": [
        {
          "indexed": true,
          "internalType": "address",
          "name": "previousOwner",
          "type": "address"
        },
        {
          "indexed": true,
          "internalType": "address",
          "name": "newOwner",
          "type": "address"
        }
      ],
      "name": "OwnershipTransferred",
      "type": "event"
    },
    {
      "anonymous": false,
      "inputs": [
        {
          "indexed": false,
          "internalType": "address",
          "name": "account",
          "type": "address"
        }
      ],
      "name": "Paused",
      "type": "event"
    },
    {
      "anonymous": false,
      "inputs": [
        {
          "indexed": false,
          "internalType": "address",
          "name": "account",
          "type": "address"
        }
      ],
      "name": "Unpaused",
      "type": "event"
    },
    {
      "anonymous": false,
      "inputs": [
        {
          "indexed": false,
          "internalType": "string",
          "name": "_func",
          "type": "string"
        },
        {
          "indexed": false,
          "internalType": "string",
          "name": "_categoryName",
          "type": "string"
        },
        {
          "indexed": false,
          "internalType": "string[]",
          "name": "_candidateNames",
          "type": "string[]"
        },
        {
          "indexed": false,
          "internalType": "address",
          "name": "_from",
          "type": "address"
        }
      ],
      "name": "categorySet",
      "type": "event"
    },
    {
      "anonymous": false,
      "inputs": [
        {
          "indexed": false,
          "internalType": "string",
          "name": "_func",
          "type": "string"
        },
        {
          "indexed": false,
          "internalType": "string",
          "name": "_categoryName",
          "type": "string"
        },
        {
          "indexed": false,
          "internalType": "string",
          "name": "_winner",
          "type": "string"
        },
        {
          "indexed": false,
          "internalType": "address",
          "name": "_from",
          "type": "address"
        }
      ],
      "name": "categoryStatusChange",
      "type": "event"
    },
    {
      "inputs": [
        {
          "internalType": "address",
          "name": "",
          "type": "address"
        },
        {
          "internalType": "uint256",
          "name": "",
          "type": "uint256"
        }
      ],
      "name": "_boolVoter",
      "outputs": [
        {
          "internalType": "bool",
          "name": "",
          "type": "bool"
        }
      ],
      "stateMutability": "view",
      "type": "function"
    },
    {
      "inputs": [
        {
          "internalType": "uint64",
          "name": "",
          "type": "uint64"
        }
      ],
      "name": "_openedOnce",
      "outputs": [
        {
          "internalType": "bool",
          "name": "",
          "type": "bool"
        }
      ],
      "stateMutability": "view",
      "type": "function"
    },
    {
      "inputs": [
        {
          "internalType": "address",
          "name": "",
          "type": "address"
        }
      ],
      "name": "_registry",
      "outputs": [
        {
          "internalType": "bool",
          "name": "",
          "type": "bool"
        }
      ],
      "stateMutability": "view",
      "type": "function"
    },
    {
      "inputs": [],
      "name": "_totalVotes",
      "outputs": [
        {
          "internalType": "uint256",
          "name": "",
          "type": "uint256"
        }
      ],
      "stateMutability": "view",
      "type": "function"
    },
    {
      "inputs": [],
      "name": "_voterCount",
      "outputs": [
        {
          "internalType": "uint64",
          "name": "",
          "type": "uint64"
        }
      ],
      "stateMutability": "view",
      "type": "function"
    },
    {
      "inputs": [
        {
          "internalType": "uint64",
          "name": "_catId",
          "type": "uint64"
        },
        {
          "internalType": "uint8",
          "name": "_canId",
          "type": "uint8"
        }
      ],
      "name": "castVote",
      "outputs": [
        {
          "internalType": "bool",
          "name": "",
          "type": "bool"
        }
      ],
      "stateMutability": "nonpayable",
      "type": "function"
    },
    {
      "inputs": [
        {
          "internalType": "uint256",
          "name": "",
          "type": "uint256"
        }
      ],
      "name": "categories",
      "outputs": [
        {
          "internalType": "string",
          "name": "name",
          "type": "string"
        },
        {
          "internalType": "bool",
          "name": "open",
          "type": "bool"
        },
        {
          "internalType": "uint64",
          "name": "catId",
          "type": "uint64"
        }
      ],
      "stateMutability": "view",
      "type": "function"
    },
    {
      "inputs": [
        {
          "internalType": "uint64",
          "name": "_catId",
          "type": "uint64"
        }
      ],
      "name": "closeCategory",
      "outputs": [
        {
          "internalType": "string",
          "name": "",
          "type": "string"
        }
      ],
      "stateMutability": "nonpayable",
      "type": "function"
    },
    {
      "inputs": [
        {
          "internalType": "uint64",
          "name": "_catId",
          "type": "uint64"
        },
        {
          "internalType": "uint8",
          "name": "_canId",
          "type": "uint8"
        }
      ],
      "name": "getCandidate",
      "outputs": [
        {
          "internalType": "string",
          "name": "",
          "type": "string"
        }
      ],
      "stateMutability": "view",
      "type": "function"
    },
    {
      "inputs": [
        {
          "internalType": "uint64",
          "name": "_catId",
          "type": "uint64"
        },
        {
          "internalType": "uint8",
          "name": "_canId",
          "type": "uint8"
        }
      ],
      "name": "getCandidateVotes",
      "outputs": [
        {
          "internalType": "uint256",
          "name": "",
          "type": "uint256"
        }
      ],
      "stateMutability": "view",
      "type": "function"
    },
    {
      "inputs": [
        {
          "internalType": "uint64",
          "name": "_catId",
          "type": "uint64"
        }
      ],
      "name": "getCategoryName",
      "outputs": [
        {
          "internalType": "string",
          "name": "",
          "type": "string"
        }
      ],
      "stateMutability": "view",
      "type": "function"
    },
    {
      "inputs": [
        {
          "internalType": "uint64",
          "name": "_catId",
          "type": "uint64"
        }
      ],
      "name": "getCategoryOpen",
      "outputs": [
        {
          "internalType": "bool",
          "name": "",
          "type": "bool"
        }
      ],
      "stateMutability": "view",
      "type": "function"
    },
    {
      "inputs": [
        {
          "internalType": "uint64",
          "name": "_catId",
          "type": "uint64"
        }
      ],
      "name": "openCategory",
      "outputs": [
        {
          "internalType": "bool",
          "name": "",
          "type": "bool"
        }
      ],
      "stateMutability": "nonpayable",
      "type": "function"
    },
    {
      "inputs": [],
      "name": "owner",
      "outputs": [
        {
          "internalType": "address",
          "name": "",
          "type": "address"
        }
      ],
      "stateMutability": "view",
      "type": "function"
    },
    {
      "inputs": [],
      "name": "pause",
      "outputs": [],
      "stateMutability": "nonpayable",
      "type": "function"
    },
    {
      "inputs": [],
      "name": "paused",
      "outputs": [
        {
          "internalType": "bool",
          "name": "",
          "type": "bool"
        }
      ],
      "stateMutability": "view",
      "type": "function"
    },
    {
      "inputs": [],
      "name": "register",
      "outputs": [],
      "stateMutability": "nonpayable",
      "type": "function"
    },
    {
      "inputs": [],
      "name": "renounceOwnership",
      "outputs": [],
      "stateMutability": "nonpayable",
      "type": "function"
    },
    {
      "inputs": [
        {
          "internalType": "string",
          "name": "_category",
          "type": "string"
        },
        {
          "internalType": "string[]",
          "name": "_candidates",
          "type": "string[]"
        }
      ],
      "name": "setCategory",
      "outputs": [
        {
          "internalType": "uint64",
          "name": "",
          "type": "uint64"
        }
      ],
      "stateMutability": "nonpayable",
      "type": "function"
    },
    {
      "inputs": [
        {
          "internalType": "address",
          "name": "newOwner",
          "type": "address"
        }
      ],
      "name": "transferOwnership",
      "outputs": [],
      "stateMutability": "nonpayable",
      "type": "function"
    },
    {
      "inputs": [],
      "name": "unpause",
      "outputs": [],
      "stateMutability": "nonpayable",
      "type": "function"
    },
    {
      "inputs": [],
      "name": "withdraw",
      "outputs": [],
      "stateMutability": "nonpayable",
      "type": "function"
    }
  ],
  "bytecode": "0x60806040523480156200001157600080fd5b5062000032620000266200005260201b60201c565b6200005a60201b60201c565b60008060146101000a81548160ff0219169083151502179055506200011e565b600033905090565b60008060009054906101000a900473ffffffffffffffffffffffffffffffffffffffff169050816000806101000a81548173ffffffffffffffffffffffffffffffffffffffff021916908373ffffffffffffffffffffffffffffffffffffffff1602179055508173ffffffffffffffffffffffffffffffffffffffff168173ffffffffffffffffffffffffffffffffffffffff167f8be0079c531659141344cd1fd0a4f28419497f9722a3daafe3b4186f6b6457e060405160405180910390a35050565b613038806200012e6000396000f3fe608060405234801561001057600080fd5b50600436106101415760003560e01c8063662efa43116100b85780638da5cb5b1161007c5780638da5cb5b14610364578063aa89921414610382578063c6cdbe5e146103b2578063ce4ec048146103e4578063eb77c40f14610402578063f2fde38b1461043257610141565b8063662efa43146102c05780636bda58f9146102f05780636d93d0d814610320578063715018a6146103505780638456cb591461035a57610141565b8063317cc82d1161010a578063317cc82d14610210578063359af5ae1461022e5780633ccfd60b1461025e5780633f4ba83a146102685780635133342b146102725780635c975abb146102a257610141565b80624554691461014657806302c3307d1461017657806308e67038146101a65780631aa3a008146101d65780631ddbcbb1146101e0575b600080fd5b610160600480360381019061015b91906122dc565b61044e565b60405161016d9190612983565b60405180910390f35b610190600480360381019061018b91906122b3565b610582565b60405161019d9190612968565b60405180910390f35b6101c060048036038101906101bb91906121b9565b610833565b6040516101cd9190612968565b60405180910390f35b6101de610853565b005b6101fa60048036038101906101f591906122b3565b6109d6565b6040516102079190612968565b60405180910390f35b6102186109f6565b6040516102259190612c64565b60405180910390f35b6102486004803603810190610243919061221e565b610a10565b6040516102559190612c64565b60405180910390f35b610266610dd0565b005b610270610ed8565b005b61028c600480360381019061028791906122b3565b610f5e565b6040516102999190612983565b60405180910390f35b6102aa611045565b6040516102b79190612968565b60405180910390f35b6102da60048036038101906102d591906122b3565b61105b565b6040516102e79190612968565b60405180910390f35b61030a600480360381019061030591906122dc565b6110c7565b6040516103179190612c49565b60405180910390f35b61033a600480360381019061033591906122b3565b611173565b6040516103479190612983565b60405180910390f35b6103586113af565b005b610362611437565b005b61036c6114bd565b604051610379919061294d565b60405180910390f35b61039c600480360381019061039791906122dc565b6114e6565b6040516103a99190612968565b60405180910390f35b6103cc60048036038101906103c7919061228a565b611868565b6040516103db939291906129a5565b60405180910390f35b6103ec61194b565b6040516103f99190612c49565b60405180910390f35b61041c600480360381019061041791906121e2565b611951565b6040516104299190612968565b60405180910390f35b61044c600480360381019061044791906121b9565b611980565b005b606060018367ffffffffffffffff1681548110610494577f4e487b7100000000000000000000000000000000000000000000000000000000600052603260045260246000fd5b90600052602060002090600302016001018260ff16815481106104e0577f4e487b7100000000000000000000000000000000000000000000000000000000600052603260045260246000fd5b906000526020600020906003020160000180546104fc90612e32565b80601f016020809104026020016040519081016040528092919081815260200182805461052890612e32565b80156105755780601f1061054a57610100808354040283529160200191610575565b820191906000526020600020905b81548152906001019060200180831161055857829003601f168201915b5050505050905092915050565b600061058c611a78565b73ffffffffffffffffffffffffffffffffffffffff166105aa6114bd565b73ffffffffffffffffffffffffffffffffffffffff1614610600576040517f08c379a00000000000000000000000000000000000000000000000000000000081526004016105f790612ba9565b60405180910390fd5b816000151560018267ffffffffffffffff1681548110610649577f4e487b7100000000000000000000000000000000000000000000000000000000600052603260045260246000fd5b906000526020600020906003020160020160009054906101000a900460ff161515146106aa576040517f08c379a00000000000000000000000000000000000000000000000000000000081526004016106a190612bc9565b60405180910390fd5b60001515600560008567ffffffffffffffff1667ffffffffffffffff16815260200190815260200160002060009054906101000a900460ff161515146106ef57600080fd5b6001600560008567ffffffffffffffff1667ffffffffffffffff16815260200190815260200160002060006101000a81548160ff0219169083151502179055506001808467ffffffffffffffff1681548110610774577f4e487b7100000000000000000000000000000000000000000000000000000000600052603260045260246000fd5b906000526020600020906003020160020160006101000a81548160ff0219169083151502179055507f4a8b947d4d93ed9ff4e2e725e22f540cb3ee6ddc0884ed548edf1c4039bd55ec60018467ffffffffffffffff1681548110610801577f4e487b7100000000000000000000000000000000000000000000000000000000600052603260045260246000fd5b906000526020600020906003020160000133604051610821929190612b33565b60405180910390a16001915050919050565b60036020528060005260406000206000915054906101000a900460ff1681565b61085b611045565b1561089b576040517f08c379a000000000000000000000000000000000000000000000000000000000815260040161089290612b89565b60405180910390fd5b60011515600360003373ffffffffffffffffffffffffffffffffffffffff1673ffffffffffffffffffffffffffffffffffffffff16815260200190815260200160002060009054906101000a900460ff161515141561092f576040517f08c379a000000000000000000000000000000000000000000000000000000000815260040161092690612af3565b60405180910390fd5b6001600360003373ffffffffffffffffffffffffffffffffffffffff1673ffffffffffffffffffffffffffffffffffffffff16815260200190815260200160002060006101000a81548160ff0219169083151502179055506006600081819054906101000a900467ffffffffffffffff16809291906109ad90612ead565b91906101000a81548167ffffffffffffffff021916908367ffffffffffffffff16021790555050565b60056020528060005260406000206000915054906101000a900460ff1681565b600660009054906101000a900467ffffffffffffffff1681565b6000610a1a611a78565b73ffffffffffffffffffffffffffffffffffffffff16610a386114bd565b73ffffffffffffffffffffffffffffffffffffffff1614610a8e576040517f08c379a0000000000000000000000000000000000000000000000000000000008152600401610a8590612ba9565b60405180910390fd5b610100825110610ad3576040517f08c379a0000000000000000000000000000000000000000000000000000000008152600401610aca90612be9565b60405180910390fd5b6000600260009054906101000a900467ffffffffffffffff16905060018081600181540180825580915050039060005260206000209050508360018267ffffffffffffffff1681548110610b50577f4e487b7100000000000000000000000000000000000000000000000000000000600052603260045260246000fd5b90600052602060002090600302016000019080519060200190610b74929190611fd3565b508060018267ffffffffffffffff1681548110610bba577f4e487b7100000000000000000000000000000000000000000000000000000000600052603260045260246000fd5b906000526020600020906003020160020160016101000a81548167ffffffffffffffff021916908367ffffffffffffffff16021790555060005b83518160ff161015610d3d5760018267ffffffffffffffff1681548110610c44577f4e487b7100000000000000000000000000000000000000000000000000000000600052603260045260246000fd5b90600052602060002090600302016001016040518060600160405280868460ff1681518110610c9c577f4e487b7100000000000000000000000000000000000000000000000000000000600052603260045260246000fd5b60200260200101518152602001600081526020018360ff1681525090806001815401808255809150506001900390600052602060002090600302016000909190919091506000820151816000019080519060200190610cfc929190611fd3565b506020820151816001015560408201518160020160006101000a81548160ff021916908360ff16021790555050508080610d3590612ede565b915050610bf4565b507f95709a98954762a4234e7456a42fa48279556f5ab3caf8c87a2413958be32855848433604051610d71939291906129e3565b60405180910390a16002600081819054906101000a900467ffffffffffffffff1680929190610d9f90612ead565b91906101000a81548167ffffffffffffffff021916908367ffffffffffffffff160217905550508091505092915050565b610dd8611a78565b73ffffffffffffffffffffffffffffffffffffffff16610df66114bd565b73ffffffffffffffffffffffffffffffffffffffff1614610e4c576040517f08c379a0000000000000000000000000000000000000000000000000000000008152600401610e4390612ba9565b60405180910390fd5b60004711610e8f576040517f08c379a0000000000000000000000000000000000000000000000000000000008152600401610e8690612c29565b60405180910390fd5b3373ffffffffffffffffffffffffffffffffffffffff166108fc479081150290604051600060405180830381858888f19350505050158015610ed5573d6000803e3d6000fd5b50565b610ee0611a78565b73ffffffffffffffffffffffffffffffffffffffff16610efe6114bd565b73ffffffffffffffffffffffffffffffffffffffff1614610f54576040517f08c379a0000000000000000000000000000000000000000000000000000000008152600401610f4b90612ba9565b60405180910390fd5b610f5c611a80565b565b606060018267ffffffffffffffff1681548110610fa4577f4e487b7100000000000000000000000000000000000000000000000000000000600052603260045260246000fd5b90600052602060002090600302016000018054610fc090612e32565b80601f0160208091040260200160405190810160405280929190818152602001828054610fec90612e32565b80156110395780601f1061100e57610100808354040283529160200191611039565b820191906000526020600020905b81548152906001019060200180831161101c57829003601f168201915b50505050509050919050565b60008060149054906101000a900460ff16905090565b600060018267ffffffffffffffff16815481106110a1577f4e487b7100000000000000000000000000000000000000000000000000000000600052603260045260246000fd5b906000526020600020906003020160020160009054906101000a900460ff169050919050565b600060018367ffffffffffffffff168154811061110d577f4e487b7100000000000000000000000000000000000000000000000000000000600052603260045260246000fd5b90600052602060002090600302016001018260ff1681548110611159577f4e487b7100000000000000000000000000000000000000000000000000000000600052603260045260246000fd5b906000526020600020906003020160010154905092915050565b606061117d611a78565b73ffffffffffffffffffffffffffffffffffffffff1661119b6114bd565b73ffffffffffffffffffffffffffffffffffffffff16146111f1576040517f08c379a00000000000000000000000000000000000000000000000000000000081526004016111e890612ba9565b60405180910390fd5b816001151560018267ffffffffffffffff168154811061123a577f4e487b7100000000000000000000000000000000000000000000000000000000600052603260045260246000fd5b906000526020600020906003020160020160009054906101000a900460ff1615151461129b576040517f08c379a000000000000000000000000000000000000000000000000000000000815260040161129290612b13565b60405180910390fd5b600060018467ffffffffffffffff16815481106112e1577f4e487b7100000000000000000000000000000000000000000000000000000000600052603260045260246000fd5b906000526020600020906003020160020160006101000a81548160ff021916908315150217905550600061131484611b21565b90507f4a8b947d4d93ed9ff4e2e725e22f540cb3ee6ddc0884ed548edf1c4039bd55ec60018567ffffffffffffffff168154811061137b577f4e487b7100000000000000000000000000000000000000000000000000000000600052603260045260246000fd5b9060005260206000209060030201600001823360405161139d93929190612a5b565b60405180910390a18092505050919050565b6113b7611a78565b73ffffffffffffffffffffffffffffffffffffffff166113d56114bd565b73ffffffffffffffffffffffffffffffffffffffff161461142b576040517f08c379a000000000000000000000000000000000000000000000000000000000815260040161142290612ba9565b60405180910390fd5b6114356000611e6c565b565b61143f611a78565b73ffffffffffffffffffffffffffffffffffffffff1661145d6114bd565b73ffffffffffffffffffffffffffffffffffffffff16146114b3576040517f08c379a00000000000000000000000000000000000000000000000000000000081526004016114aa90612ba9565b60405180910390fd5b6114bb611f30565b565b60008060009054906101000a900473ffffffffffffffffffffffffffffffffffffffff16905090565b600060011515600360003373ffffffffffffffffffffffffffffffffffffffff1673ffffffffffffffffffffffffffffffffffffffff16815260200190815260200160002060009054906101000a900460ff1615151461157b576040517f08c379a000000000000000000000000000000000000000000000000000000000815260040161157290612c09565b60405180910390fd5b611583611045565b156115c3576040517f08c379a00000000000000000000000000000000000000000000000000000000081526004016115ba90612b89565b60405180910390fd5b826001151560018267ffffffffffffffff168154811061160c577f4e487b7100000000000000000000000000000000000000000000000000000000600052603260045260246000fd5b906000526020600020906003020160020160009054906101000a900460ff1615151461166d576040517f08c379a000000000000000000000000000000000000000000000000000000000815260040161166490612b13565b60405180910390fd5b60001515600460003373ffffffffffffffffffffffffffffffffffffffff1673ffffffffffffffffffffffffffffffffffffffff16815260200190815260200160002060008667ffffffffffffffff16815260200190815260200160002060009054906101000a900460ff1615151461171b576040517f08c379a000000000000000000000000000000000000000000000000000000000815260040161171290612ad3565b60405180910390fd5b6001600460003373ffffffffffffffffffffffffffffffffffffffff1673ffffffffffffffffffffffffffffffffffffffff16815260200190815260200160002060008667ffffffffffffffff16815260200190815260200160002060006101000a81548160ff02191690831515021790555060018467ffffffffffffffff16815481106117d2577f4e487b7100000000000000000000000000000000000000000000000000000000600052603260045260246000fd5b90600052602060002090600302016001018360ff168154811061181e577f4e487b7100000000000000000000000000000000000000000000000000000000600052603260045260246000fd5b9060005260206000209060030201600101600081548092919061184090612e64565b91905055506007600081548092919061185890612e64565b9190505550600191505092915050565b6001818154811061187857600080fd5b906000526020600020906003020160009150905080600001805461189b90612e32565b80601f01602080910402602001604051908101604052809291908181526020018280546118c790612e32565b80156119145780601f106118e957610100808354040283529160200191611914565b820191906000526020600020905b8154815290600101906020018083116118f757829003601f168201915b5050505050908060020160009054906101000a900460ff16908060020160019054906101000a900467ffffffffffffffff16905083565b60075481565b60046020528160005260406000206020528060005260406000206000915091509054906101000a900460ff1681565b611988611a78565b73ffffffffffffffffffffffffffffffffffffffff166119a66114bd565b73ffffffffffffffffffffffffffffffffffffffff16146119fc576040517f08c379a00000000000000000000000000000000000000000000000000000000081526004016119f390612ba9565b60405180910390fd5b600073ffffffffffffffffffffffffffffffffffffffff168173ffffffffffffffffffffffffffffffffffffffff161415611a6c576040517f08c379a0000000000000000000000000000000000000000000000000000000008152600401611a6390612ab3565b60405180910390fd5b611a7581611e6c565b50565b600033905090565b611a88611045565b611ac7576040517f08c379a0000000000000000000000000000000000000000000000000000000008152600401611abe90612a3b565b60405180910390fd5b60008060146101000a81548160ff0219169083151502179055507f5db9ee0a495bf2e6ff9c91a7834c1ba4fdd244a5e8aa4e537bd38aeae4b073aa611b0a611a78565b604051611b17919061294d565b60405180910390a1565b6060816000151560018267ffffffffffffffff1681548110611b6c577f4e487b7100000000000000000000000000000000000000000000000000000000600052603260045260246000fd5b906000526020600020906003020160020160009054906101000a900460ff16151514611bcd576040517f08c379a0000000000000000000000000000000000000000000000000000000008152600401611bc490612bc9565b60405180910390fd5b60006040518060400160405280600981526020017f6e6f2077696e6e6572000000000000000000000000000000000000000000000081525090506000805b60018667ffffffffffffffff1681548110611c4f577f4e487b7100000000000000000000000000000000000000000000000000000000600052603260045260246000fd5b9060005260206000209060030201600101805490508160ff161015611e6057600060018767ffffffffffffffff1681548110611cb4577f4e487b7100000000000000000000000000000000000000000000000000000000600052603260045260246000fd5b90600052602060002090600302016001018260ff1681548110611d00577f4e487b7100000000000000000000000000000000000000000000000000000000600052603260045260246000fd5b906000526020600020906003020160010154905082811115611e4c5760018767ffffffffffffffff1681548110611d60577f4e487b7100000000000000000000000000000000000000000000000000000000600052603260045260246000fd5b90600052602060002090600302016001018260ff1681548110611dac577f4e487b7100000000000000000000000000000000000000000000000000000000600052603260045260246000fd5b90600052602060002090600302016000018054611dc890612e32565b80601f0160208091040260200160405190810160405280929190818152602001828054611df490612e32565b8015611e415780601f10611e1657610100808354040283529160200191611e41565b820191906000526020600020905b815481529060010190602001808311611e2457829003601f168201915b505050505093508092505b508080611e5890612ede565b915050611c0b565b50819350505050919050565b60008060009054906101000a900473ffffffffffffffffffffffffffffffffffffffff169050816000806101000a81548173ffffffffffffffffffffffffffffffffffffffff021916908373ffffffffffffffffffffffffffffffffffffffff1602179055508173ffffffffffffffffffffffffffffffffffffffff168173ffffffffffffffffffffffffffffffffffffffff167f8be0079c531659141344cd1fd0a4f28419497f9722a3daafe3b4186f6b6457e060405160405180910390a35050565b611f38611045565b15611f78576040517f08c379a0000000000000000000000000000000000000000000000000000000008152600401611f6f90612b89565b60405180910390fd5b6001600060146101000a81548160ff0219169083151502179055507f62e78cea01bee320cd4e420270b5ea74000d11b0c9f74754ebdbfc544b05a258611fbc611a78565b604051611fc9919061294d565b60405180910390a1565b828054611fdf90612e32565b90600052602060002090601f0160209004810192826120015760008555612048565b82601f1061201a57805160ff1916838001178555612048565b82800160010185558215612048579182015b8281111561204757825182559160200191906001019061202c565b5b5090506120559190612059565b5090565b5b8082111561207257600081600090555060010161205a565b5090565b600061208961208484612cb0565b612c7f565b9050808382526020820190508260005b858110156120c957813585016120af8882612150565b845260208401935060208301925050600181019050612099565b5050509392505050565b60006120e66120e184612cdc565b612c7f565b9050828152602081018484840111156120fe57600080fd5b612109848285612df0565b509392505050565b60008135905061212081612fa6565b92915050565b600082601f83011261213757600080fd5b8135612147848260208601612076565b91505092915050565b600082601f83011261216157600080fd5b81356121718482602086016120d3565b91505092915050565b60008135905061218981612fbd565b92915050565b60008135905061219e81612fd4565b92915050565b6000813590506121b381612feb565b92915050565b6000602082840312156121cb57600080fd5b60006121d984828501612111565b91505092915050565b600080604083850312156121f557600080fd5b600061220385828601612111565b92505060206122148582860161217a565b9150509250929050565b6000806040838503121561223157600080fd5b600083013567ffffffffffffffff81111561224b57600080fd5b61225785828601612150565b925050602083013567ffffffffffffffff81111561227457600080fd5b61228085828601612126565b9150509250929050565b60006020828403121561229c57600080fd5b60006122aa8482850161217a565b91505092915050565b6000602082840312156122c557600080fd5b60006122d38482850161218f565b91505092915050565b600080604083850312156122ef57600080fd5b60006122fd8582860161218f565b925050602061230e858286016121a4565b9150509250929050565b600061232483836123bf565b905092915050565b61233581612d87565b82525050565b600061234682612d31565b6123508185612d54565b93508360208202850161236285612d0c565b8060005b8581101561239e578484038952815161237f8582612318565b945061238a83612d47565b925060208a01995050600181019050612366565b50829750879550505050505092915050565b6123b981612d99565b82525050565b60006123ca82612d3c565b6123d48185612d65565b93506123e4818560208601612dff565b6123ed81612f95565b840191505092915050565b600061240382612d3c565b61240d8185612d76565b935061241d818560208601612dff565b61242681612f95565b840191505092915050565b6000815461243e81612e32565b6124488186612d76565b945060018216600081146124635760018114612475576124a8565b60ff19831686526020860193506124a8565b61247e85612d1c565b60005b838110156124a057815481890152600182019150602081019050612481565b808801955050505b50505092915050565b60006124be600c83612d76565b91507f4e65772043617465676f727900000000000000000000000000000000000000006000830152602082019050919050565b60006124fe601483612d76565b91507f5061757361626c653a206e6f74207061757365640000000000000000000000006000830152602082019050919050565b600061253e600f83612d76565b91507f43617465676f727920436c6f73656400000000000000000000000000000000006000830152602082019050919050565b600061257e602683612d76565b91507f4f776e61626c653a206e6577206f776e657220697320746865207a65726f206160008301527f64647265737300000000000000000000000000000000000000000000000000006020830152604082019050919050565b60006125e4602783612d76565b91507f596f75206861766520616c726561647920766f74656420696e2074686973206360008301527f617465676f7279000000000000000000000000000000000000000000000000006020830152604082019050919050565b600061264a602283612d76565b91507f54686973206164647265737320697320616c726561647920726567697374657260008301527f65640000000000000000000000000000000000000000000000000000000000006020830152604082019050919050565b60006126b0603b83612d76565b91507f5468697320616374696f6e2063616e6e6f7420626520706572666f726d65642060008301527f7768656e207468652063617465676f727920697320636c6f73656400000000006020830152604082019050919050565b6000612716600f83612d76565b91507f43617465676f7279204f70656e656400000000000000000000000000000000006000830152602082019050919050565b6000612756601083612d76565b91507f5061757361626c653a20706175736564000000000000000000000000000000006000830152602082019050919050565b6000612796602083612d76565b91507f4f776e61626c653a2063616c6c6572206973206e6f7420746865206f776e65726000830152602082019050919050565b60006127d6603983612d76565b91507f5468697320616374696f6e2063616e6e6f7420626520706572666f726d65642060008301527f7768656e207468652063617465676f7279206973206f70656e000000000000006020830152604082019050919050565b600061283c601e83612d76565b91507f54686572652061726520746f6f206d616e792063616e646964617465732e00006000830152602082019050919050565b600061287c602983612d76565b91507f546869732077616c6c65742061646472657373206973206e6f7420796574207260008301527f65676973746572656400000000000000000000000000000000000000000000006020830152604082019050919050565b60006128e2600083612d76565b9150600082019050919050565b60006128fc601483612d76565b91507f4e6f2066756e647320696e20636f6e74726163740000000000000000000000006000830152602082019050919050565b61293881612dc5565b82525050565b61294781612dcf565b82525050565b6000602082019050612962600083018461232c565b92915050565b600060208201905061297d60008301846123b0565b92915050565b6000602082019050818103600083015261299d81846123f8565b905092915050565b600060608201905081810360008301526129bf81866123f8565b90506129ce60208301856123b0565b6129db604083018461293e565b949350505050565b600060808201905081810360008301526129fc816124b1565b90508181036020830152612a1081866123f8565b90508181036040830152612a24818561233b565b9050612a33606083018461232c565b949350505050565b60006020820190508181036000830152612a54816124f1565b9050919050565b60006080820190508181036000830152612a7481612531565b90508181036020830152612a888186612431565b90508181036040830152612a9c81856123f8565b9050612aab606083018461232c565b949350505050565b60006020820190508181036000830152612acc81612571565b9050919050565b60006020820190508181036000830152612aec816125d7565b9050919050565b60006020820190508181036000830152612b0c8161263d565b9050919050565b60006020820190508181036000830152612b2c816126a3565b9050919050565b60006080820190508181036000830152612b4c81612709565b90508181036020830152612b608185612431565b90508181036040830152612b73816128d5565b9050612b82606083018461232c565b9392505050565b60006020820190508181036000830152612ba281612749565b9050919050565b60006020820190508181036000830152612bc281612789565b9050919050565b60006020820190508181036000830152612be2816127c9565b9050919050565b60006020820190508181036000830152612c028161282f565b9050919050565b60006020820190508181036000830152612c228161286f565b9050919050565b60006020820190508181036000830152612c42816128ef565b9050919050565b6000602082019050612c5e600083018461292f565b92915050565b6000602082019050612c79600083018461293e565b92915050565b6000604051905081810181811067ffffffffffffffff82111715612ca657612ca5612f66565b5b8060405250919050565b600067ffffffffffffffff821115612ccb57612cca612f66565b5b602082029050602081019050919050565b600067ffffffffffffffff821115612cf757612cf6612f66565b5b601f19601f8301169050602081019050919050565b6000819050602082019050919050565b60008190508160005260206000209050919050565b600081519050919050565b600081519050919050565b6000602082019050919050565b600082825260208201905092915050565b600082825260208201905092915050565b600082825260208201905092915050565b6000612d9282612da5565b9050919050565b60008115159050919050565b600073ffffffffffffffffffffffffffffffffffffffff82169050919050565b6000819050919050565b600067ffffffffffffffff82169050919050565b600060ff82169050919050565b82818337600083830152505050565b60005b83811015612e1d578082015181840152602081019050612e02565b83811115612e2c576000848401525b50505050565b60006002820490506001821680612e4a57607f821691505b60208210811415612e5e57612e5d612f37565b5b50919050565b6000612e6f82612dc5565b91507fffffffffffffffffffffffffffffffffffffffffffffffffffffffffffffffff821415612ea257612ea1612f08565b5b600182019050919050565b6000612eb882612dcf565b915067ffffffffffffffff821415612ed357612ed2612f08565b5b600182019050919050565b6000612ee982612de3565b915060ff821415612efd57612efc612f08565b5b600182019050919050565b7f4e487b7100000000000000000000000000000000000000000000000000000000600052601160045260246000fd5b7f4e487b7100000000000000000000000000000000000000000000000000000000600052602260045260246000fd5b7f4e487b7100000000000000000000000000000000000000000000000000000000600052604160045260246000fd5b6000601f19601f8301169050919050565b612faf81612d87565b8114612fba57600080fd5b50565b612fc681612dc5565b8114612fd157600080fd5b50565b612fdd81612dcf565b8114612fe857600080fd5b50565b612ff481612de3565b8114612fff57600080fd5b5056fea264697066735822122040c62c56fd97b99c84156bc65a4c69f07742546ddbdc6a35d8fe9ddbdf4605ad64736f6c63430008000033",
  "linkReferences": {},
  "deployedLinkReferences": {}
}