{
  "_format": "hh-sol-artifact-1",
  "contractName": "VotingBooth",
  "sourceName": "contracts/Voting_Booth.sol",
  "abi": [
    {
      "anonymous": false,
      "inputs": [
        {
          "indexed": true,
          "internalType": "address",
          "name": "previousOwner",
          "type": "address"
        },
        {
          "indexed": true,
          "internalType": "address",
          "name": "newOwner",
          "type": "address"
        }
      ],
      "name": "OwnershipTransferred",
      "type": "event"
    },
    {
      "inputs": [
        {
          "internalType": "uint256",
          "name": "",
          "type": "uint256"
        }
      ],
      "name": "Categories",
      "outputs": [
        {
          "internalType": "string",
          "name": "category",
          "type": "string"
        },
        {
          "internalType": "bool",
          "name": "open",
          "type": "bool"
        },
        {
          "internalType": "uint64",
          "name": "catId",
          "type": "uint64"
        }
      ],
      "stateMutability": "view",
      "type": "function"
    },
    {
      "inputs": [
        {
          "internalType": "address",
          "name": "",
          "type": "address"
        },
        {
          "internalType": "uint256",
          "name": "",
          "type": "uint256"
        }
      ],
      "name": "_boolVoter",
      "outputs": [
        {
          "internalType": "bool",
          "name": "",
          "type": "bool"
        }
      ],
      "stateMutability": "view",
      "type": "function"
    },
    {
      "inputs": [
        {
          "internalType": "uint64",
          "name": "",
          "type": "uint64"
        }
      ],
      "name": "_openedOnce",
      "outputs": [
        {
          "internalType": "bool",
          "name": "",
          "type": "bool"
        }
      ],
      "stateMutability": "view",
      "type": "function"
    },
    {
      "inputs": [
        {
          "internalType": "address",
          "name": "",
          "type": "address"
        }
      ],
      "name": "_registry",
      "outputs": [
        {
          "internalType": "bool",
          "name": "",
          "type": "bool"
        }
      ],
      "stateMutability": "view",
      "type": "function"
    },
    {
      "inputs": [],
      "name": "_totalVotes",
      "outputs": [
        {
          "internalType": "uint64",
          "name": "",
          "type": "uint64"
        }
      ],
      "stateMutability": "view",
      "type": "function"
    },
    {
      "inputs": [],
      "name": "_voterCount",
      "outputs": [
        {
          "internalType": "uint64",
          "name": "",
          "type": "uint64"
        }
      ],
      "stateMutability": "view",
      "type": "function"
    },
    {
      "inputs": [
        {
          "internalType": "uint64",
          "name": "_catId",
          "type": "uint64"
        },
        {
          "internalType": "uint8",
          "name": "_canId",
          "type": "uint8"
        }
      ],
      "name": "castVote",
      "outputs": [],
      "stateMutability": "nonpayable",
      "type": "function"
    },
    {
      "inputs": [
        {
          "internalType": "uint64",
          "name": "_catId",
          "type": "uint64"
        }
      ],
      "name": "closeCategory",
      "outputs": [],
      "stateMutability": "nonpayable",
      "type": "function"
    },
    {
      "inputs": [
        {
          "internalType": "uint64",
          "name": "_catId",
          "type": "uint64"
        }
      ],
      "name": "getCategoryVotes",
      "outputs": [
        {
          "internalType": "uint256",
          "name": "",
          "type": "uint256"
        }
      ],
      "stateMutability": "view",
      "type": "function"
    },
    {
      "inputs": [],
      "name": "getTotalVotes",
      "outputs": [
        {
          "internalType": "uint256",
          "name": "",
          "type": "uint256"
        }
      ],
      "stateMutability": "view",
      "type": "function"
    },
    {
      "inputs": [
        {
          "internalType": "uint64",
          "name": "_catId",
          "type": "uint64"
        }
      ],
      "name": "openCategory",
      "outputs": [],
      "stateMutability": "nonpayable",
      "type": "function"
    },
    {
      "inputs": [],
      "name": "owner",
      "outputs": [
        {
          "internalType": "address",
          "name": "",
          "type": "address"
        }
      ],
      "stateMutability": "view",
      "type": "function"
    },
    {
      "inputs": [],
      "name": "register",
      "outputs": [],
      "stateMutability": "nonpayable",
      "type": "function"
    },
    {
      "inputs": [],
      "name": "renounceOwnership",
      "outputs": [],
      "stateMutability": "nonpayable",
      "type": "function"
    },
    {
      "inputs": [
        {
          "internalType": "string",
          "name": "_category",
          "type": "string"
        },
        {
          "internalType": "string[]",
          "name": "_candidates",
          "type": "string[]"
        }
      ],
      "name": "setCategory",
      "outputs": [
        {
          "internalType": "uint64",
          "name": "",
          "type": "uint64"
        }
      ],
      "stateMutability": "nonpayable",
      "type": "function"
    },
    {
      "inputs": [
        {
          "internalType": "address",
          "name": "newOwner",
          "type": "address"
        }
      ],
      "name": "transferOwnership",
      "outputs": [],
      "stateMutability": "nonpayable",
      "type": "function"
    }
  ],
  "bytecode": "0x60806040526000600260006101000a81548167ffffffffffffffff021916908367ffffffffffffffff16021790555034801561003a57600080fd5b5061005761004c61005c60201b60201c565b61006460201b60201c565b610128565b600033905090565b60008060009054906101000a900473ffffffffffffffffffffffffffffffffffffffff169050816000806101000a81548173ffffffffffffffffffffffffffffffffffffffff021916908373ffffffffffffffffffffffffffffffffffffffff1602179055508173ffffffffffffffffffffffffffffffffffffffff168173ffffffffffffffffffffffffffffffffffffffff167f8be0079c531659141344cd1fd0a4f28419497f9722a3daafe3b4186f6b6457e060405160405180910390a35050565b6120f080620001386000396000f3fe608060405234801561001057600080fd5b50600436106101005760003560e01c8063715018a611610097578063aa89921411610066578063aa8992141461029d578063ce4ec048146102b9578063eb77c40f146102d7578063f2fde38b1461030757610100565b8063715018a61461022757806380417bfb146102315780638da5cb5b146102615780639a0e7d661461027f57610100565b8063317cc82d116100d3578063317cc82d1461018b578063359af5ae146101a957806369677af3146101d95780636d93d0d81461020b57610100565b806302c3307d1461010557806308e67038146101215780631aa3a008146101515780631ddbcbb11461015b575b600080fd5b61011f600480360381019061011a91906118b0565b610323565b005b61013b600480360381019061013691906117b6565b610507565b6040516101489190611bbd565b60405180910390f35b610159610527565b005b610175600480360381019061017091906118b0565b610662565b6040516101829190611bbd565b60405180910390f35b610193610682565b6040516101a09190611cf1565b60405180910390f35b6101c360048036038101906101be919061181b565b61069c565b6040516101d09190611cf1565b60405180910390f35b6101f360048036038101906101ee9190611887565b610bbe565b60405161020293929190611bd8565b60405180910390f35b610225600480360381019061022091906118b0565b610ca1565b005b61022f610e01565b005b61024b600480360381019061024691906118b0565b610e89565b6040516102589190611cd6565b60405180910390f35b61026961102d565b6040516102769190611ba2565b60405180910390f35b610287611056565b6040516102949190611cd6565b60405180910390f35b6102b760048036038101906102b291906118d9565b61107e565b005b6102c16113ad565b6040516102ce9190611cf1565b60405180910390f35b6102f160048036038101906102ec91906117df565b6113c7565b6040516102fe9190611bbd565b60405180910390f35b610321600480360381019061031c91906117b6565b6113f6565b005b61032b6114ee565b73ffffffffffffffffffffffffffffffffffffffff1661034961102d565b73ffffffffffffffffffffffffffffffffffffffff161461039f576040517f08c379a000000000000000000000000000000000000000000000000000000000815260040161039690611c76565b60405180910390fd5b6000151560018267ffffffffffffffff16815481106103e7577f4e487b7100000000000000000000000000000000000000000000000000000000600052603260045260246000fd5b906000526020600020906003020160020160009054906101000a900460ff1615151461041257600080fd5b60001515600560008367ffffffffffffffff1667ffffffffffffffff16815260200190815260200160002060009054906101000a900460ff1615151461045757600080fd5b6001600560008367ffffffffffffffff1667ffffffffffffffff16815260200190815260200160002060006101000a81548160ff0219169083151502179055506001808267ffffffffffffffff16815481106104dc577f4e487b7100000000000000000000000000000000000000000000000000000000600052603260045260246000fd5b906000526020600020906003020160020160006101000a81548160ff02191690831515021790555050565b60036020528060005260406000206000915054906101000a900460ff1681565b60011515600360003373ffffffffffffffffffffffffffffffffffffffff1673ffffffffffffffffffffffffffffffffffffffff16815260200190815260200160002060009054906101000a900460ff16151514156105bb576040517f08c379a00000000000000000000000000000000000000000000000000000000081526004016105b290611c56565b60405180910390fd5b6001600360003373ffffffffffffffffffffffffffffffffffffffff1673ffffffffffffffffffffffffffffffffffffffff16815260200190815260200160002060006101000a81548160ff0219169083151502179055506006600081819054906101000a900467ffffffffffffffff168092919061063990611f65565b91906101000a81548167ffffffffffffffff021916908367ffffffffffffffff16021790555050565b60056020528060005260406000206000915054906101000a900460ff1681565b600660009054906101000a900467ffffffffffffffff1681565b60006106a66114ee565b73ffffffffffffffffffffffffffffffffffffffff166106c461102d565b73ffffffffffffffffffffffffffffffffffffffff161461071a576040517f08c379a000000000000000000000000000000000000000000000000000000000815260040161071190611c76565b60405180910390fd5b61010082511061075f576040517f08c379a000000000000000000000000000000000000000000000000000000000815260040161075690611cb6565b60405180910390fd5b826001600260009054906101000a900467ffffffffffffffff1667ffffffffffffffff16815481106107ba577f4e487b7100000000000000000000000000000000000000000000000000000000600052603260045260246000fd5b906000526020600020906003020160000190805190602001906107de9291906115d0565b50600260009054906101000a900467ffffffffffffffff166001600260009054906101000a900467ffffffffffffffff1667ffffffffffffffff1681548110610850577f4e487b7100000000000000000000000000000000000000000000000000000000600052603260045260246000fd5b906000526020600020906003020160020160016101000a81548167ffffffffffffffff021916908367ffffffffffffffff16021790555060005b82518160ff161015610b4557828160ff16815181106108d2577f4e487b7100000000000000000000000000000000000000000000000000000000600052603260045260246000fd5b60200260200101516001600260009054906101000a900467ffffffffffffffff1667ffffffffffffffff1681548110610934577f4e487b7100000000000000000000000000000000000000000000000000000000600052603260045260246000fd5b90600052602060002090600302016001018260ff1681548110610980577f4e487b7100000000000000000000000000000000000000000000000000000000600052603260045260246000fd5b906000526020600020906003020160000190805190602001906109a49291906115d0565b5060006001600260009054906101000a900467ffffffffffffffff1667ffffffffffffffff1681548110610a01577f4e487b7100000000000000000000000000000000000000000000000000000000600052603260045260246000fd5b90600052602060002090600302016001018260ff1681548110610a4d577f4e487b7100000000000000000000000000000000000000000000000000000000600052603260045260246000fd5b906000526020600020906003020160010181905550806001600260009054906101000a900467ffffffffffffffff1667ffffffffffffffff1681548110610abd577f4e487b7100000000000000000000000000000000000000000000000000000000600052603260045260246000fd5b90600052602060002090600302016001018260ff1681548110610b09577f4e487b7100000000000000000000000000000000000000000000000000000000600052603260045260246000fd5b906000526020600020906003020160020160006101000a81548160ff021916908360ff1602179055508080610b3d90611f96565b91505061088a565b506002600081819054906101000a900467ffffffffffffffff1680929190610b6c90611f65565b91906101000a81548167ffffffffffffffff021916908367ffffffffffffffff160217905550506001600260009054906101000a900467ffffffffffffffff16610bb69190611e0b565b905092915050565b60018181548110610bce57600080fd5b9060005260206000209060030201600091509050806000018054610bf190611eea565b80601f0160208091040260200160405190810160405280929190818152602001828054610c1d90611eea565b8015610c6a5780601f10610c3f57610100808354040283529160200191610c6a565b820191906000526020600020905b815481529060010190602001808311610c4d57829003601f168201915b5050505050908060020160009054906101000a900460ff16908060020160019054906101000a900467ffffffffffffffff16905083565b610ca96114ee565b73ffffffffffffffffffffffffffffffffffffffff16610cc761102d565b73ffffffffffffffffffffffffffffffffffffffff1614610d1d576040517f08c379a0000000000000000000000000000000000000000000000000000000008152600401610d1490611c76565b60405180910390fd5b6001151560018267ffffffffffffffff1681548110610d65577f4e487b7100000000000000000000000000000000000000000000000000000000600052603260045260246000fd5b906000526020600020906003020160020160009054906101000a900460ff16151514610d9057600080fd5b600060018267ffffffffffffffff1681548110610dd6577f4e487b7100000000000000000000000000000000000000000000000000000000600052603260045260246000fd5b906000526020600020906003020160020160006101000a81548160ff02191690831515021790555050565b610e096114ee565b73ffffffffffffffffffffffffffffffffffffffff16610e2761102d565b73ffffffffffffffffffffffffffffffffffffffff1614610e7d576040517f08c379a0000000000000000000000000000000000000000000000000000000008152600401610e7490611c76565b60405180910390fd5b610e8760006114f6565b565b600080151560018367ffffffffffffffff1681548110610ed2577f4e487b7100000000000000000000000000000000000000000000000000000000600052603260045260246000fd5b906000526020600020906003020160020160009054906101000a900460ff16151514610efd57600080fd5b6000805b60018467ffffffffffffffff1681548110610f45577f4e487b7100000000000000000000000000000000000000000000000000000000600052603260045260246000fd5b9060005260206000209060030201600101805490508160ff1610156110235761100f8260018667ffffffffffffffff1681548110610fac577f4e487b7100000000000000000000000000000000000000000000000000000000600052603260045260246000fd5b90600052602060002090600302016001018360ff1681548110610ff8577f4e487b7100000000000000000000000000000000000000000000000000000000600052603260045260246000fd5b9060005260206000209060030201600101546115ba565b50808061101b90611f96565b915050610f01565b5080915050919050565b60008060009054906101000a900473ffffffffffffffffffffffffffffffffffffffff16905090565b6000600660089054906101000a900467ffffffffffffffff1667ffffffffffffffff16905090565b60011515600360003373ffffffffffffffffffffffffffffffffffffffff1673ffffffffffffffffffffffffffffffffffffffff16815260200190815260200160002060009054906101000a900460ff161515146110db57600080fd5b6001151560018367ffffffffffffffff1681548110611123577f4e487b7100000000000000000000000000000000000000000000000000000000600052603260045260246000fd5b906000526020600020906003020160020160009054906101000a900460ff16151514611184576040517f08c379a000000000000000000000000000000000000000000000000000000000815260040161117b90611c96565b60405180910390fd5b60001515600460003373ffffffffffffffffffffffffffffffffffffffff1673ffffffffffffffffffffffffffffffffffffffff16815260200190815260200160002060008467ffffffffffffffff16815260200190815260200160002060009054906101000a900460ff16151514611232576040517f08c379a000000000000000000000000000000000000000000000000000000000815260040161122990611c36565b60405180910390fd5b6001600460003373ffffffffffffffffffffffffffffffffffffffff1673ffffffffffffffffffffffffffffffffffffffff16815260200190815260200160002060008467ffffffffffffffff16815260200190815260200160002060006101000a81548160ff02191690831515021790555060018267ffffffffffffffff16815481106112e9577f4e487b7100000000000000000000000000000000000000000000000000000000600052603260045260246000fd5b90600052602060002090600302016001018160ff1681548110611335577f4e487b7100000000000000000000000000000000000000000000000000000000600052603260045260246000fd5b9060005260206000209060030201600101600081548092919061135790611f1c565b91905055506006600881819054906101000a900467ffffffffffffffff168092919061138290611f65565b91906101000a81548167ffffffffffffffff021916908367ffffffffffffffff160217905550505050565b600660089054906101000a900467ffffffffffffffff1681565b60046020528160005260406000206020528060005260406000206000915091509054906101000a900460ff1681565b6113fe6114ee565b73ffffffffffffffffffffffffffffffffffffffff1661141c61102d565b73ffffffffffffffffffffffffffffffffffffffff1614611472576040517f08c379a000000000000000000000000000000000000000000000000000000000815260040161146990611c76565b60405180910390fd5b600073ffffffffffffffffffffffffffffffffffffffff168173ffffffffffffffffffffffffffffffffffffffff1614156114e2576040517f08c379a00000000000000000000000000000000000000000000000000000000081526004016114d990611c16565b60405180910390fd5b6114eb816114f6565b50565b600033905090565b60008060009054906101000a900473ffffffffffffffffffffffffffffffffffffffff169050816000806101000a81548173ffffffffffffffffffffffffffffffffffffffff021916908373ffffffffffffffffffffffffffffffffffffffff1602179055508173ffffffffffffffffffffffffffffffffffffffff168173ffffffffffffffffffffffffffffffffffffffff167f8be0079c531659141344cd1fd0a4f28419497f9722a3daafe3b4186f6b6457e060405160405180910390a35050565b600081836115c89190611db5565b905092915050565b8280546115dc90611eea565b90600052602060002090601f0160209004810192826115fe5760008555611645565b82601f1061161757805160ff1916838001178555611645565b82800160010185558215611645579182015b82811115611644578251825591602001919060010190611629565b5b5090506116529190611656565b5090565b5b8082111561166f576000816000905550600101611657565b5090565b600061168661168184611d3d565b611d0c565b9050808382526020820190508260005b858110156116c657813585016116ac888261174d565b845260208401935060208301925050600181019050611696565b5050509392505050565b60006116e36116de84611d69565b611d0c565b9050828152602081018484840111156116fb57600080fd5b611706848285611ea8565b509392505050565b60008135905061171d8161205e565b92915050565b600082601f83011261173457600080fd5b8135611744848260208601611673565b91505092915050565b600082601f83011261175e57600080fd5b813561176e8482602086016116d0565b91505092915050565b60008135905061178681612075565b92915050565b60008135905061179b8161208c565b92915050565b6000813590506117b0816120a3565b92915050565b6000602082840312156117c857600080fd5b60006117d68482850161170e565b91505092915050565b600080604083850312156117f257600080fd5b60006118008582860161170e565b925050602061181185828601611777565b9150509250929050565b6000806040838503121561182e57600080fd5b600083013567ffffffffffffffff81111561184857600080fd5b6118548582860161174d565b925050602083013567ffffffffffffffff81111561187157600080fd5b61187d85828601611723565b9150509250929050565b60006020828403121561189957600080fd5b60006118a784828501611777565b91505092915050565b6000602082840312156118c257600080fd5b60006118d08482850161178c565b91505092915050565b600080604083850312156118ec57600080fd5b60006118fa8582860161178c565b925050602061190b858286016117a1565b9150509250929050565b61191e81611e3f565b82525050565b61192d81611e51565b82525050565b600061193e82611d99565b6119488185611da4565b9350611958818560208601611eb7565b6119618161204d565b840191505092915050565b6000611979602683611da4565b91507f4f776e61626c653a206e6577206f776e657220697320746865207a65726f206160008301527f64647265737300000000000000000000000000000000000000000000000000006020830152604082019050919050565b60006119df602783611da4565b91507f596f75206861766520616c726561647920766f74656420696e2074686973206360008301527f617465676f7279000000000000000000000000000000000000000000000000006020830152604082019050919050565b6000611a45602283611da4565b91507f54686973206164647265737320697320616c726561647920726567697374657260008301527f65640000000000000000000000000000000000000000000000000000000000006020830152604082019050919050565b6000611aab602083611da4565b91507f4f776e61626c653a2063616c6c6572206973206e6f7420746865206f776e65726000830152602082019050919050565b6000611aeb602583611da4565b91507f546869732063617465676f7279206973206e6f74206f70656e20666f7220766f60008301527f74696e672e0000000000000000000000000000000000000000000000000000006020830152604082019050919050565b6000611b51601e83611da4565b91507f54686572652061726520746f6f206d616e792063616e646964617465732e00006000830152602082019050919050565b611b8d81611e7d565b82525050565b611b9c81611e87565b82525050565b6000602082019050611bb76000830184611915565b92915050565b6000602082019050611bd26000830184611924565b92915050565b60006060820190508181036000830152611bf28186611933565b9050611c016020830185611924565b611c0e6040830184611b93565b949350505050565b60006020820190508181036000830152611c2f8161196c565b9050919050565b60006020820190508181036000830152611c4f816119d2565b9050919050565b60006020820190508181036000830152611c6f81611a38565b9050919050565b60006020820190508181036000830152611c8f81611a9e565b9050919050565b60006020820190508181036000830152611caf81611ade565b9050919050565b60006020820190508181036000830152611ccf81611b44565b9050919050565b6000602082019050611ceb6000830184611b84565b92915050565b6000602082019050611d066000830184611b93565b92915050565b6000604051905081810181811067ffffffffffffffff82111715611d3357611d3261201e565b5b8060405250919050565b600067ffffffffffffffff821115611d5857611d5761201e565b5b602082029050602081019050919050565b600067ffffffffffffffff821115611d8457611d8361201e565b5b601f19601f8301169050602081019050919050565b600081519050919050565b600082825260208201905092915050565b6000611dc082611e7d565b9150611dcb83611e7d565b9250827fffffffffffffffffffffffffffffffffffffffffffffffffffffffffffffffff03821115611e0057611dff611fc0565b5b828201905092915050565b6000611e1682611e87565b9150611e2183611e87565b925082821015611e3457611e33611fc0565b5b828203905092915050565b6000611e4a82611e5d565b9050919050565b60008115159050919050565b600073ffffffffffffffffffffffffffffffffffffffff82169050919050565b6000819050919050565b600067ffffffffffffffff82169050919050565b600060ff82169050919050565b82818337600083830152505050565b60005b83811015611ed5578082015181840152602081019050611eba565b83811115611ee4576000848401525b50505050565b60006002820490506001821680611f0257607f821691505b60208210811415611f1657611f15611fef565b5b50919050565b6000611f2782611e7d565b91507fffffffffffffffffffffffffffffffffffffffffffffffffffffffffffffffff821415611f5a57611f59611fc0565b5b600182019050919050565b6000611f7082611e87565b915067ffffffffffffffff821415611f8b57611f8a611fc0565b5b600182019050919050565b6000611fa182611e9b565b915060ff821415611fb557611fb4611fc0565b5b600182019050919050565b7f4e487b7100000000000000000000000000000000000000000000000000000000600052601160045260246000fd5b7f4e487b7100000000000000000000000000000000000000000000000000000000600052602260045260246000fd5b7f4e487b7100000000000000000000000000000000000000000000000000000000600052604160045260246000fd5b6000601f19601f8301169050919050565b61206781611e3f565b811461207257600080fd5b50565b61207e81611e7d565b811461208957600080fd5b50565b61209581611e87565b81146120a057600080fd5b50565b6120ac81611e9b565b81146120b757600080fd5b5056fea26469706673582212203d9b891fa52b812d4ad7c1a68ad7fcee72e4ca9ec8f2fd40d0f571459d66bf6964736f6c63430008000033",
  "linkReferences": {},
  "deployedLinkReferences": {}
}