{
  "_format": "hh-sol-artifact-1",
  "contractName": "VotingBooth",
  "sourceName": "contracts/Voting_Booth.sol",
  "abi": [
    {
      "anonymous": false,
      "inputs": [
        {
          "indexed": true,
          "internalType": "address",
          "name": "previousOwner",
          "type": "address"
        },
        {
          "indexed": true,
          "internalType": "address",
          "name": "newOwner",
          "type": "address"
        }
      ],
      "name": "OwnershipTransferred",
      "type": "event"
    },
    {
      "anonymous": false,
      "inputs": [
        {
          "indexed": false,
          "internalType": "address",
          "name": "account",
          "type": "address"
        }
      ],
      "name": "Paused",
      "type": "event"
    },
    {
      "anonymous": false,
      "inputs": [
        {
          "indexed": false,
          "internalType": "address",
          "name": "account",
          "type": "address"
        }
      ],
      "name": "Unpaused",
      "type": "event"
    },
    {
      "anonymous": false,
      "inputs": [
        {
          "indexed": false,
          "internalType": "bytes32",
          "name": "_func",
          "type": "bytes32"
        },
        {
          "indexed": false,
          "internalType": "bytes32",
          "name": "_categoryName",
          "type": "bytes32"
        },
        {
          "indexed": false,
          "internalType": "bytes32[]",
          "name": "_candidateNames",
          "type": "bytes32[]"
        },
        {
          "indexed": false,
          "internalType": "address",
          "name": "_from",
          "type": "address"
        }
      ],
      "name": "categorySet",
      "type": "event"
    },
    {
      "anonymous": false,
      "inputs": [
        {
          "indexed": false,
          "internalType": "bytes32",
          "name": "_func",
          "type": "bytes32"
        },
        {
          "indexed": false,
          "internalType": "bytes32",
          "name": "_categoryName",
          "type": "bytes32"
        },
        {
          "indexed": false,
          "internalType": "bytes32",
          "name": "_winner",
          "type": "bytes32"
        },
        {
          "indexed": false,
          "internalType": "address",
          "name": "_from",
          "type": "address"
        }
      ],
      "name": "categoryStatusChange",
      "type": "event"
    },
    {
      "anonymous": false,
      "inputs": [
        {
          "indexed": false,
          "internalType": "address",
          "name": "_donator",
          "type": "address"
        },
        {
          "indexed": false,
          "internalType": "uint256",
          "name": "_amount",
          "type": "uint256"
        }
      ],
      "name": "donationReceived",
      "type": "event"
    },
    {
      "inputs": [
        {
          "internalType": "address",
          "name": "",
          "type": "address"
        },
        {
          "internalType": "uint256",
          "name": "",
          "type": "uint256"
        }
      ],
      "name": "_boolVoter",
      "outputs": [
        {
          "internalType": "bool",
          "name": "",
          "type": "bool"
        }
      ],
      "stateMutability": "view",
      "type": "function"
    },
    {
      "inputs": [],
      "name": "_catCounter",
      "outputs": [
        {
          "internalType": "uint128",
          "name": "",
          "type": "uint128"
        }
      ],
      "stateMutability": "view",
      "type": "function"
    },
    {
      "inputs": [
        {
          "internalType": "uint256",
          "name": "",
          "type": "uint256"
        }
      ],
      "name": "_openedOnce",
      "outputs": [
        {
          "internalType": "bool",
          "name": "",
          "type": "bool"
        }
      ],
      "stateMutability": "view",
      "type": "function"
    },
    {
      "inputs": [
        {
          "internalType": "address",
          "name": "",
          "type": "address"
        }
      ],
      "name": "_registry",
      "outputs": [
        {
          "internalType": "bool",
          "name": "",
          "type": "bool"
        }
      ],
      "stateMutability": "view",
      "type": "function"
    },
    {
      "inputs": [],
      "name": "_totalVotes",
      "outputs": [
        {
          "internalType": "uint256",
          "name": "",
          "type": "uint256"
        }
      ],
      "stateMutability": "view",
      "type": "function"
    },
    {
      "inputs": [],
      "name": "_voterCount",
      "outputs": [
        {
          "internalType": "uint128",
          "name": "",
          "type": "uint128"
        }
      ],
      "stateMutability": "view",
      "type": "function"
    },
    {
      "inputs": [
        {
          "internalType": "uint256",
          "name": "_catId",
          "type": "uint256"
        },
        {
          "internalType": "uint8",
          "name": "_canId",
          "type": "uint8"
        }
      ],
      "name": "castVote",
      "outputs": [],
      "stateMutability": "nonpayable",
      "type": "function"
    },
    {
      "inputs": [
        {
          "internalType": "uint256",
          "name": "",
          "type": "uint256"
        }
      ],
      "name": "categories",
      "outputs": [
        {
          "internalType": "bytes32",
          "name": "name",
          "type": "bytes32"
        },
        {
          "internalType": "bool",
          "name": "open",
          "type": "bool"
        },
        {
          "internalType": "uint256",
          "name": "catId",
          "type": "uint256"
        }
      ],
      "stateMutability": "view",
      "type": "function"
    },
    {
      "inputs": [
        {
          "internalType": "uint256",
          "name": "_catId",
          "type": "uint256"
        }
      ],
      "name": "closeCategory",
      "outputs": [
        {
          "internalType": "bytes32",
          "name": "",
          "type": "bytes32"
        }
      ],
      "stateMutability": "nonpayable",
      "type": "function"
    },
    {
      "inputs": [],
      "name": "currentFuncAddress",
      "outputs": [
        {
          "internalType": "address",
          "name": "",
          "type": "address"
        }
      ],
      "stateMutability": "view",
      "type": "function"
    },
    {
      "inputs": [
        {
          "internalType": "uint256",
          "name": "_catId",
          "type": "uint256"
        },
        {
          "internalType": "uint8",
          "name": "_canId",
          "type": "uint8"
        }
      ],
      "name": "getCandidate",
      "outputs": [
        {
          "internalType": "bytes32",
          "name": "",
          "type": "bytes32"
        }
      ],
      "stateMutability": "view",
      "type": "function"
    },
    {
      "inputs": [
        {
          "internalType": "uint256",
          "name": "_catId",
          "type": "uint256"
        },
        {
          "internalType": "uint8",
          "name": "_canId",
          "type": "uint8"
        }
      ],
      "name": "getCandidateVotes",
      "outputs": [
        {
          "internalType": "uint256",
          "name": "",
          "type": "uint256"
        }
      ],
      "stateMutability": "view",
      "type": "function"
    },
    {
      "inputs": [
        {
          "internalType": "uint256",
          "name": "_catId",
          "type": "uint256"
        }
      ],
      "name": "getCategoryName",
      "outputs": [
        {
          "internalType": "bytes32",
          "name": "",
          "type": "bytes32"
        }
      ],
      "stateMutability": "view",
      "type": "function"
    },
    {
      "inputs": [
        {
          "internalType": "uint256",
          "name": "_catId",
          "type": "uint256"
        }
      ],
      "name": "getCategoryOpen",
      "outputs": [
        {
          "internalType": "bool",
          "name": "",
          "type": "bool"
        }
      ],
      "stateMutability": "view",
      "type": "function"
    },
    {
      "inputs": [
        {
          "internalType": "uint256",
          "name": "_catId",
          "type": "uint256"
        }
      ],
      "name": "getCategoryVotes",
      "outputs": [
        {
          "internalType": "uint256",
          "name": "",
          "type": "uint256"
        }
      ],
      "stateMutability": "view",
      "type": "function"
    },
    {
      "inputs": [
        {
          "internalType": "uint256",
          "name": "_catId",
          "type": "uint256"
        }
      ],
      "name": "openCategory",
      "outputs": [],
      "stateMutability": "nonpayable",
      "type": "function"
    },
    {
      "inputs": [],
      "name": "owner",
      "outputs": [
        {
          "internalType": "address",
          "name": "",
          "type": "address"
        }
      ],
      "stateMutability": "view",
      "type": "function"
    },
    {
      "inputs": [],
      "name": "pause",
      "outputs": [],
      "stateMutability": "nonpayable",
      "type": "function"
    },
    {
      "inputs": [],
      "name": "paused",
      "outputs": [
        {
          "internalType": "bool",
          "name": "",
          "type": "bool"
        }
      ],
      "stateMutability": "view",
      "type": "function"
    },
    {
      "inputs": [],
      "name": "register",
      "outputs": [],
      "stateMutability": "nonpayable",
      "type": "function"
    },
    {
      "inputs": [],
      "name": "renounceOwnership",
      "outputs": [],
      "stateMutability": "nonpayable",
      "type": "function"
    },
    {
      "inputs": [
        {
          "internalType": "bytes32",
          "name": "_category",
          "type": "bytes32"
        },
        {
          "internalType": "bytes32[]",
          "name": "_candidates",
          "type": "bytes32[]"
        }
      ],
      "name": "setCategory",
      "outputs": [
        {
          "internalType": "uint128",
          "name": "",
          "type": "uint128"
        }
      ],
      "stateMutability": "nonpayable",
      "type": "function"
    },
    {
      "inputs": [
        {
          "internalType": "address",
          "name": "newOwner",
          "type": "address"
        }
      ],
      "name": "transferOwnership",
      "outputs": [],
      "stateMutability": "nonpayable",
      "type": "function"
    },
    {
      "inputs": [],
      "name": "unpause",
      "outputs": [],
      "stateMutability": "nonpayable",
      "type": "function"
    },
    {
      "inputs": [],
      "name": "withdraw",
      "outputs": [],
      "stateMutability": "nonpayable",
      "type": "function"
    },
    {
      "stateMutability": "payable",
      "type": "receive"
    }
  ],
  "bytecode": "0x60806040523480156200001157600080fd5b5062000032620000266200005260201b60201c565b6200005a60201b60201c565b60008060146101000a81548160ff0219169083151502179055506200011e565b600033905090565b60008060009054906101000a900473ffffffffffffffffffffffffffffffffffffffff169050816000806101000a81548173ffffffffffffffffffffffffffffffffffffffff021916908373ffffffffffffffffffffffffffffffffffffffff1602179055508173ffffffffffffffffffffffffffffffffffffffff168173ffffffffffffffffffffffffffffffffffffffff167f8be0079c531659141344cd1fd0a4f28419497f9722a3daafe3b4186f6b6457e060405160405180910390a35050565b61310a806200012e6000396000f3fe60806040526004361061016a5760003560e01c806356781388116100d1578063b312a7c11161008a578063ce4ec04811610064578063ce4ec04814610572578063d1656c171461059d578063eb77c40f146105da578063f2fde38b14610617576101aa565b8063b312a7c1146104b9578063bada2464146104f6578063c6cdbe5e14610533576101aa565b806356781388146103cf5780635c975abb146103f8578063715018a6146104235780638456cb591461043a5780638da5cb5b1461045157806399ef6ccb1461047c576101aa565b806327d0e5df1161012357806327d0e5df146102d15780632e0d75731461030e578063317cc82d146103395780633ccfd60b146103645780633f4ba83a1461037b578063560a0a5b14610392576101aa565b8063038eef63146101af57806308e67038146101ec5780630de38c3114610229578063161c6f19146102525780631aa3a0081461028f5780631af5fd02146102a6576101aa565b366101aa577fe2639ef551ad89950da1145fe1fd600e818336d6e8aa88426efe387c49accebb33346040516101a092919061273d565b60405180910390a1005b600080fd5b3480156101bb57600080fd5b506101d660048036038101906101d191906123d0565b610640565b6040516101e39190612766565b60405180910390f35b3480156101f857600080fd5b50610213600480360381019061020e9190612317565b610660565b6040516102209190612766565b60405180910390f35b34801561023557600080fd5b50610250600480360381019061024b91906123d0565b610680565b005b34801561025e57600080fd5b50610279600480360381019061027491906123d0565b61091b565b6040516102869190612766565b60405180910390f35b34801561029b57600080fd5b506102a461097d565b005b3480156102b257600080fd5b506102bb610b18565b6040516102c89190612722565b60405180910390f35b3480156102dd57600080fd5b506102f860048036038101906102f391906123d0565b610b3e565b6040516103059190612a3c565b60405180910390f35b34801561031a57600080fd5b50610323610caf565b6040516103309190612a21565b60405180910390f35b34801561034557600080fd5b5061034e610cd1565b60405161035b9190612a21565b60405180910390f35b34801561037057600080fd5b50610379610cf3565b005b34801561038757600080fd5b50610390610dfb565b005b34801561039e57600080fd5b506103b960048036038101906103b491906123f9565b610e81565b6040516103c69190612781565b60405180910390f35b3480156103db57600080fd5b506103f660048036038101906103f191906123f9565b610f23565b005b34801561040457600080fd5b5061040d6112ef565b60405161041a9190612766565b60405180910390f35b34801561042f57600080fd5b50610438611305565b005b34801561044657600080fd5b5061044f61138d565b005b34801561045d57600080fd5b50610466611413565b6040516104739190612722565b60405180910390f35b34801561048857600080fd5b506104a3600480360381019061049e919061237c565b61143c565b6040516104b09190612a21565b60405180910390f35b3480156104c557600080fd5b506104e060048036038101906104db91906123f9565b611876565b6040516104ed9190612a3c565b60405180910390f35b34801561050257600080fd5b5061051d600480360381019061051891906123d0565b611a05565b60405161052a9190612781565b60405180910390f35b34801561053f57600080fd5b5061055a600480360381019061055591906123d0565b611c24565b6040516105699392919061279c565b60405180910390f35b34801561057e57600080fd5b50610587611c6b565b6040516105949190612a3c565b60405180910390f35b3480156105a957600080fd5b506105c460048036038101906105bf91906123d0565b611c71565b6040516105d19190612781565b60405180910390f35b3480156105e657600080fd5b5061060160048036038101906105fc9190612340565b611cc6565b60405161060e9190612766565b60405180910390f35b34801561062357600080fd5b5061063e60048036038101906106399190612317565b611cf5565b005b60076020528060005260406000206000915054906101000a900460ff1681565b60056020528060005260406000206000915054906101000a900460ff1681565b610688611ded565b73ffffffffffffffffffffffffffffffffffffffff166106a6611413565b73ffffffffffffffffffffffffffffffffffffffff16146106fc576040517f08c379a00000000000000000000000000000000000000000000000000000000081526004016106f390612981565b60405180910390fd5b80600015156002828154811061073b577f4e487b7100000000000000000000000000000000000000000000000000000000600052603260045260246000fd5b906000526020600020906004020160020160009054906101000a900460ff1615151461079c576040517f08c379a0000000000000000000000000000000000000000000000000000000008152600401610793906129a1565b60405180910390fd5b600015156007600084815260200190815260200160002060009054906101000a900460ff16151514610803576040517f08c379a00000000000000000000000000000000000000000000000000000000081526004016107fa906128a0565b60405180910390fd5b60016007600084815260200190815260200160002060006101000a81548160ff02191690831515021790555060016002838154811061086b577f4e487b7100000000000000000000000000000000000000000000000000000000600052603260045260246000fd5b906000526020600020906004020160020160006101000a81548160ff0219169083151502179055507f638b96e82cfc7a197bd6be5c176bc949aba7a20600a5d03c74c59cb51355f47a600283815481106108ee577f4e487b7100000000000000000000000000000000000000000000000000000000600052603260045260246000fd5b9060005260206000209060040201600001543360405161090f929190612920565b60405180910390a15050565b600060028281548110610957577f4e487b7100000000000000000000000000000000000000000000000000000000600052603260045260246000fd5b906000526020600020906004020160020160009054906101000a900460ff169050919050565b6109856112ef565b156109c5576040517f08c379a00000000000000000000000000000000000000000000000000000000081526004016109bc90612961565b60405180910390fd5b60011515600560003373ffffffffffffffffffffffffffffffffffffffff1673ffffffffffffffffffffffffffffffffffffffff16815260200190815260200160002060009054906101000a900460ff1615151415610a59576040517f08c379a0000000000000000000000000000000000000000000000000000000008152600401610a50906128e0565b60405180910390fd5b6001600560003373ffffffffffffffffffffffffffffffffffffffff1673ffffffffffffffffffffffffffffffffffffffff16815260200190815260200160002060006101000a81548160ff0219169083151502179055506003601081819054906101000a90046fffffffffffffffffffffffffffffffff1680929190610adf90612c1f565b91906101000a8154816fffffffffffffffffffffffffffffffff02191690836fffffffffffffffffffffffffffffffff16021790555050565b600160009054906101000a900473ffffffffffffffffffffffffffffffffffffffff1681565b6000806000905060005b60028481548110610b82577f4e487b7100000000000000000000000000000000000000000000000000000000600052603260045260246000fd5b9060005260206000209060040201600101805490508160ff161015610ca55760028481548110610bdb577f4e487b7100000000000000000000000000000000000000000000000000000000600052603260045260246000fd5b90600052602060002090600402016001018160ff1681548110610c27577f4e487b7100000000000000000000000000000000000000000000000000000000600052603260045260246000fd5b906000526020600020906002020160010160009054906101000a90047effffffffffffffffffffffffffffffffffffffffffffffffffffffffffffff167effffffffffffffffffffffffffffffffffffffffffffffffffffffffffffff1682610c909190612af2565b91508080610c9d90612ce9565b915050610b48565b5080915050919050565b600360009054906101000a90046fffffffffffffffffffffffffffffffff1681565b600360109054906101000a90046fffffffffffffffffffffffffffffffff1681565b610cfb611ded565b73ffffffffffffffffffffffffffffffffffffffff16610d19611413565b73ffffffffffffffffffffffffffffffffffffffff1614610d6f576040517f08c379a0000000000000000000000000000000000000000000000000000000008152600401610d6690612981565b60405180910390fd5b60004711610db2576040517f08c379a0000000000000000000000000000000000000000000000000000000008152600401610da990612a01565b60405180910390fd5b3373ffffffffffffffffffffffffffffffffffffffff166108fc479081150290604051600060405180830381858888f19350505050158015610df8573d6000803e3d6000fd5b50565b610e03611ded565b73ffffffffffffffffffffffffffffffffffffffff16610e21611413565b73ffffffffffffffffffffffffffffffffffffffff1614610e77576040517f08c379a0000000000000000000000000000000000000000000000000000000008152600401610e6e90612981565b60405180910390fd5b610e7f611df5565b565b600060028381548110610ebd577f4e487b7100000000000000000000000000000000000000000000000000000000600052603260045260246000fd5b90600052602060002090600402016001018260ff1681548110610f09577f4e487b7100000000000000000000000000000000000000000000000000000000600052603260045260246000fd5b906000526020600020906002020160000154905092915050565b60011515600560003373ffffffffffffffffffffffffffffffffffffffff1673ffffffffffffffffffffffffffffffffffffffff16815260200190815260200160002060009054906101000a900460ff16151514610fb6576040517f08c379a0000000000000000000000000000000000000000000000000000000008152600401610fad906129e1565b60405180910390fd5b610fbe6112ef565b15610ffe576040517f08c379a0000000000000000000000000000000000000000000000000000000008152600401610ff590612961565b60405180910390fd5b81600115156002828154811061103d577f4e487b7100000000000000000000000000000000000000000000000000000000600052603260045260246000fd5b906000526020600020906004020160020160009054906101000a900460ff1615151461109e576040517f08c379a000000000000000000000000000000000000000000000000000000000815260040161109590612900565b60405180910390fd5b60001515600660003373ffffffffffffffffffffffffffffffffffffffff1673ffffffffffffffffffffffffffffffffffffffff168152602001908152602001600020600085815260200190815260200160002060009054906101000a900460ff16151514611142576040517f08c379a0000000000000000000000000000000000000000000000000000000008152600401611139906128c0565b60405180910390fd5b6001600660003373ffffffffffffffffffffffffffffffffffffffff1673ffffffffffffffffffffffffffffffffffffffff168152602001908152602001600020600085815260200190815260200160002060006101000a81548160ff021916908315150217905550600283815481106111e5577f4e487b7100000000000000000000000000000000000000000000000000000000600052603260045260246000fd5b90600052602060002090600402016001018260ff1681548110611231577f4e487b7100000000000000000000000000000000000000000000000000000000600052603260045260246000fd5b9060005260206000209060020201600101600081819054906101000a90047effffffffffffffffffffffffffffffffffffffffffffffffffffffffffffff168092919061127d90612c58565b91906101000a8154817effffffffffffffffffffffffffffffffffffffffffffffffffffffffffffff02191690837effffffffffffffffffffffffffffffffffffffffffffffffffffffffffffff16021790555050600460008154809291906112e590612ca0565b9190505550505050565b60008060149054906101000a900460ff16905090565b61130d611ded565b73ffffffffffffffffffffffffffffffffffffffff1661132b611413565b73ffffffffffffffffffffffffffffffffffffffff1614611381576040517f08c379a000000000000000000000000000000000000000000000000000000000815260040161137890612981565b60405180910390fd5b61138b6000611e96565b565b611395611ded565b73ffffffffffffffffffffffffffffffffffffffff166113b3611413565b73ffffffffffffffffffffffffffffffffffffffff1614611409576040517f08c379a000000000000000000000000000000000000000000000000000000000815260040161140090612981565b60405180910390fd5b611411611f5a565b565b60008060009054906101000a900473ffffffffffffffffffffffffffffffffffffffff16905090565b6000611446611ded565b73ffffffffffffffffffffffffffffffffffffffff16611464611413565b73ffffffffffffffffffffffffffffffffffffffff16146114ba576040517f08c379a00000000000000000000000000000000000000000000000000000000081526004016114b190612981565b60405180910390fd5b6101008251106114ff576040517f08c379a00000000000000000000000000000000000000000000000000000000081526004016114f6906129c1565b60405180910390fd5b6000600360009054906101000a90046fffffffffffffffffffffffffffffffff1690506003600081819054906101000a90046fffffffffffffffffffffffffffffffff168092919061155090612c1f565b91906101000a8154816fffffffffffffffffffffffffffffffff02191690836fffffffffffffffffffffffffffffffff16021790555050600260018160018154018082558091505003906000526020600020905050836002826fffffffffffffffffffffffffffffffff16815481106115f2577f4e487b7100000000000000000000000000000000000000000000000000000000600052603260045260246000fd5b906000526020600020906004020160000181905550806fffffffffffffffffffffffffffffffff166002826fffffffffffffffffffffffffffffffff1681548110611666577f4e487b7100000000000000000000000000000000000000000000000000000000600052603260045260246000fd5b90600052602060002090600402016003018190555060005b83518160ff161015611830576002826fffffffffffffffffffffffffffffffff16815481106116d6577f4e487b7100000000000000000000000000000000000000000000000000000000600052603260045260246000fd5b90600052602060002090600402016001016040518060600160405280868460ff168151811061172e577f4e487b7100000000000000000000000000000000000000000000000000000000600052603260045260246000fd5b6020026020010151815260200160007effffffffffffffffffffffffffffffffffffffffffffffffffffffffffffff1681526020018360ff1681525090806001815401808255809150506001900390600052602060002090600202016000909190919091506000820151816000015560208201518160010160006101000a8154817effffffffffffffffffffffffffffffffffffffffffffffffffffffffffffff02191690837effffffffffffffffffffffffffffffffffffffffffffffffffffffffffffff160217905550604082015181600101601f6101000a81548160ff021916908360ff1602179055505050808061182890612ce9565b91505061167e565b507fdfb27e2960411d7056c80fb74fb8d21b563bad1e11dd0ce71150ec5c28efcefa848433604051611864939291906127d3565b60405180910390a18091505092915050565b60008260001515600282815481106118b7577f4e487b7100000000000000000000000000000000000000000000000000000000600052603260045260246000fd5b906000526020600020906004020160020160009054906101000a900460ff16151514611918576040517f08c379a000000000000000000000000000000000000000000000000000000000815260040161190f906129a1565b60405180910390fd5b60028481548110611952577f4e487b7100000000000000000000000000000000000000000000000000000000600052603260045260246000fd5b90600052602060002090600402016001018360ff168154811061199e577f4e487b7100000000000000000000000000000000000000000000000000000000600052603260045260246000fd5b906000526020600020906002020160010160009054906101000a90047effffffffffffffffffffffffffffffffffffffffffffffffffffffffffffff167effffffffffffffffffffffffffffffffffffffffffffffffffffffffffffff1691505092915050565b6000611a0f611ded565b73ffffffffffffffffffffffffffffffffffffffff16611a2d611413565b73ffffffffffffffffffffffffffffffffffffffff1614611a83576040517f08c379a0000000000000000000000000000000000000000000000000000000008152600401611a7a90612981565b60405180910390fd5b816001151560028281548110611ac2577f4e487b7100000000000000000000000000000000000000000000000000000000600052603260045260246000fd5b906000526020600020906004020160020160009054906101000a900460ff16151514611b23576040517f08c379a0000000000000000000000000000000000000000000000000000000008152600401611b1a90612900565b60405180910390fd5b600060028481548110611b5f577f4e487b7100000000000000000000000000000000000000000000000000000000600052603260045260246000fd5b906000526020600020906004020160020160006101000a81548160ff0219169083151502179055506000611b9284611ffd565b90507f638b96e82cfc7a197bd6be5c176bc949aba7a20600a5d03c74c59cb51355f47a60028581548110611bef577f4e487b7100000000000000000000000000000000000000000000000000000000600052603260045260246000fd5b9060005260206000209060040201600001548233604051611c129392919061283d565b60405180910390a18092505050919050565b60028181548110611c3457600080fd5b90600052602060002090600402016000915090508060000154908060020160009054906101000a900460ff16908060030154905083565b60045481565b600060028281548110611cad577f4e487b7100000000000000000000000000000000000000000000000000000000600052603260045260246000fd5b9060005260206000209060040201600001549050919050565b60066020528160005260406000206020528060005260406000206000915091509054906101000a900460ff1681565b611cfd611ded565b73ffffffffffffffffffffffffffffffffffffffff16611d1b611413565b73ffffffffffffffffffffffffffffffffffffffff1614611d71576040517f08c379a0000000000000000000000000000000000000000000000000000000008152600401611d6890612981565b60405180910390fd5b600073ffffffffffffffffffffffffffffffffffffffff168173ffffffffffffffffffffffffffffffffffffffff161415611de1576040517f08c379a0000000000000000000000000000000000000000000000000000000008152600401611dd890612880565b60405180910390fd5b611dea81611e96565b50565b600033905090565b611dfd6112ef565b611e3c576040517f08c379a0000000000000000000000000000000000000000000000000000000008152600401611e339061281d565b60405180910390fd5b60008060146101000a81548160ff0219169083151502179055507f5db9ee0a495bf2e6ff9c91a7834c1ba4fdd244a5e8aa4e537bd38aeae4b073aa611e7f611ded565b604051611e8c9190612722565b60405180910390a1565b60008060009054906101000a900473ffffffffffffffffffffffffffffffffffffffff169050816000806101000a81548173ffffffffffffffffffffffffffffffffffffffff021916908373ffffffffffffffffffffffffffffffffffffffff1602179055508173ffffffffffffffffffffffffffffffffffffffff168173ffffffffffffffffffffffffffffffffffffffff167f8be0079c531659141344cd1fd0a4f28419497f9722a3daafe3b4186f6b6457e060405160405180910390a35050565b611f626112ef565b15611fa2576040517f08c379a0000000000000000000000000000000000000000000000000000000008152600401611f9990612961565b60405180910390fd5b6001600060146101000a81548160ff0219169083151502179055507f62e78cea01bee320cd4e420270b5ea74000d11b0c9f74754ebdbfc544b05a258611fe6611ded565b604051611ff39190612722565b60405180910390a1565b6000807f6e6f2077696e6e6572000000000000000000000000000000000000000000000090506000805b60028581548110612061577f4e487b7100000000000000000000000000000000000000000000000000000000600052603260045260246000fd5b9060005260206000209060040201600101805490508160ff161015612222576000600286815481106120bc577f4e487b7100000000000000000000000000000000000000000000000000000000600052603260045260246000fd5b90600052602060002090600402016001018260ff1681548110612108577f4e487b7100000000000000000000000000000000000000000000000000000000600052603260045260246000fd5b906000526020600020906002020160010160009054906101000a90047effffffffffffffffffffffffffffffffffffffffffffffffffffffffffffff167effffffffffffffffffffffffffffffffffffffffffffffffffffffffffffff1690508281111561220e57600286815481106121aa577f4e487b7100000000000000000000000000000000000000000000000000000000600052603260045260246000fd5b90600052602060002090600402016001018260ff16815481106121f6577f4e487b7100000000000000000000000000000000000000000000000000000000600052603260045260246000fd5b90600052602060002090600202016000015493508092505b50808061221a90612ce9565b915050612027565b508192505050919050565b600061224061223b84612a7c565b612a57565b9050808382526020820190508285602086028201111561225f57600080fd5b60005b8581101561228f578161227588826122d8565b845260208401935060208301925050600181019050612262565b5050509392505050565b6000813590506122a881613078565b92915050565b600082601f8301126122bf57600080fd5b81356122cf84826020860161222d565b91505092915050565b6000813590506122e78161308f565b92915050565b6000813590506122fc816130a6565b92915050565b600081359050612311816130bd565b92915050565b60006020828403121561232957600080fd5b600061233784828501612299565b91505092915050565b6000806040838503121561235357600080fd5b600061236185828601612299565b9250506020612372858286016122ed565b9150509250929050565b6000806040838503121561238f57600080fd5b600061239d858286016122d8565b925050602083013567ffffffffffffffff8111156123ba57600080fd5b6123c6858286016122ae565b9150509250929050565b6000602082840312156123e257600080fd5b60006123f0848285016122ed565b91505092915050565b6000806040838503121561240c57600080fd5b600061241a858286016122ed565b925050602061242b85828601612302565b9150509250929050565b600061244183836124c9565b60208301905092915050565b61245681612b48565b82525050565b600061246782612ab8565b6124718185612ad0565b935061247c83612aa8565b8060005b838110156124ad5781516124948882612435565b975061249f83612ac3565b925050600181019050612480565b5085935050505092915050565b6124c381612b5a565b82525050565b6124d281612b66565b82525050565b6124e181612b66565b82525050565b7f4e65772043617465676f72790000000000000000000000000000000000000000815250565b600061251a601483612ae1565b915061252582612d82565b602082019050919050565b7f43617465676f727920436c6f7365640000000000000000000000000000000000815250565b6000612563602683612ae1565b915061256e82612dab565b604082019050919050565b6000612586602483612ae1565b915061259182612dfa565b604082019050919050565b60006125a9602783612ae1565b91506125b482612e49565b604082019050919050565b60006125cc602283612ae1565b91506125d782612e98565b604082019050919050565b60006125ef603b83612ae1565b91506125fa82612ee7565b604082019050919050565b7f43617465676f7279204f70656e65640000000000000000000000000000000000815250565b6000612638601083612ae1565b915061264382612f36565b602082019050919050565b600061265b602083612ae1565b915061266682612f5f565b602082019050919050565b600061267e603983612ae1565b915061268982612f88565b604082019050919050565b60006126a1601e83612ae1565b91506126ac82612fd7565b602082019050919050565b60006126c4602983612ae1565b91506126cf82613000565b604082019050919050565b6000815250565b60006126ee601483612ae1565b91506126f98261304f565b602082019050919050565b61270d81612b70565b82525050565b61271c81612bd7565b82525050565b6000602082019050612737600083018461244d565b92915050565b6000604082019050612752600083018561244d565b61275f6020830184612713565b9392505050565b600060208201905061277b60008301846124ba565b92915050565b600060208201905061279660008301846124d8565b92915050565b60006060820190506127b160008301866124d8565b6127be60208301856124ba565b6127cb6040830184612713565b949350505050565b60006080820190506127e7600083016124e7565b6127f460208301866124d8565b8181036040830152612806818561245c565b9050612815606083018461244d565b949350505050565b600060208201905081810360008301526128368161250d565b9050919050565b600060808201905061285160008301612530565b61285e60208301866124d8565b61286b60408301856124d8565b612878606083018461244d565b949350505050565b6000602082019050818103600083015261289981612556565b9050919050565b600060208201905081810360008301526128b981612579565b9050919050565b600060208201905081810360008301526128d98161259c565b9050919050565b600060208201905081810360008301526128f9816125bf565b9050919050565b60006020820190508181036000830152612919816125e2565b9050919050565b600060808201905061293460008301612605565b61294160208301856124d8565b61294d604083016126da565b61295a606083018461244d565b9392505050565b6000602082019050818103600083015261297a8161262b565b9050919050565b6000602082019050818103600083015261299a8161264e565b9050919050565b600060208201905081810360008301526129ba81612671565b9050919050565b600060208201905081810360008301526129da81612694565b9050919050565b600060208201905081810360008301526129fa816126b7565b9050919050565b60006020820190508181036000830152612a1a816126e1565b9050919050565b6000602082019050612a366000830184612704565b92915050565b6000602082019050612a516000830184612713565b92915050565b6000612a61612a72565b9050612a6d8282612bee565b919050565b6000604051905090565b600067ffffffffffffffff821115612a9757612a96612d42565b5b602082029050602081019050919050565b6000819050602082019050919050565b600081519050919050565b6000602082019050919050565b600082825260208201905092915050565b600082825260208201905092915050565b6000612afd82612bd7565b9150612b0883612bd7565b9250827fffffffffffffffffffffffffffffffffffffffffffffffffffffffffffffffff03821115612b3d57612b3c612d13565b5b828201905092915050565b6000612b5382612b8c565b9050919050565b60008115159050919050565b6000819050919050565b60006fffffffffffffffffffffffffffffffff82169050919050565b600073ffffffffffffffffffffffffffffffffffffffff82169050919050565b60007effffffffffffffffffffffffffffffffffffffffffffffffffffffffffffff82169050919050565b6000819050919050565b600060ff82169050919050565b612bf782612d71565b810181811067ffffffffffffffff82111715612c1657612c15612d42565b5b80604052505050565b6000612c2a82612b70565b91506fffffffffffffffffffffffffffffffff821415612c4d57612c4c612d13565b5b600182019050919050565b6000612c6382612bac565b91507effffffffffffffffffffffffffffffffffffffffffffffffffffffffffffff821415612c9557612c94612d13565b5b600182019050919050565b6000612cab82612bd7565b91507fffffffffffffffffffffffffffffffffffffffffffffffffffffffffffffffff821415612cde57612cdd612d13565b5b600182019050919050565b6000612cf482612be1565b915060ff821415612d0857612d07612d13565b5b600182019050919050565b7f4e487b7100000000000000000000000000000000000000000000000000000000600052601160045260246000fd5b7f4e487b7100000000000000000000000000000000000000000000000000000000600052604160045260246000fd5b6000601f19601f8301169050919050565b7f5061757361626c653a206e6f7420706175736564000000000000000000000000600082015250565b7f4f776e61626c653a206e6577206f776e657220697320746865207a65726f206160008201527f6464726573730000000000000000000000000000000000000000000000000000602082015250565b7f546869732063617465676f72792063616e6e6f74206265206f70656e6564206160008201527f6761696e00000000000000000000000000000000000000000000000000000000602082015250565b7f596f75206861766520616c726561647920766f74656420696e2074686973206360008201527f617465676f727900000000000000000000000000000000000000000000000000602082015250565b7f54686973206164647265737320697320616c726561647920726567697374657260008201527f6564000000000000000000000000000000000000000000000000000000000000602082015250565b7f5468697320616374696f6e2063616e6e6f7420626520706572666f726d65642060008201527f7768656e207468652063617465676f727920697320636c6f7365640000000000602082015250565b7f5061757361626c653a2070617573656400000000000000000000000000000000600082015250565b7f4f776e61626c653a2063616c6c6572206973206e6f7420746865206f776e6572600082015250565b7f5468697320616374696f6e2063616e6e6f7420626520706572666f726d65642060008201527f7768656e207468652063617465676f7279206973206f70656e00000000000000602082015250565b7f54686572652061726520746f6f206d616e792063616e646964617465732e0000600082015250565b7f546869732077616c6c65742061646472657373206973206e6f7420796574207260008201527f6567697374657265640000000000000000000000000000000000000000000000602082015250565b7f4e6f2066756e647320696e20636f6e7472616374000000000000000000000000600082015250565b61308181612b48565b811461308c57600080fd5b50565b61309881612b66565b81146130a357600080fd5b50565b6130af81612bd7565b81146130ba57600080fd5b50565b6130c681612be1565b81146130d157600080fd5b5056fea2646970667358221220bbff208cc0d37eefbf8e346d47674962e48e39ead38de0c780f77d8683ebfc5764736f6c63430008040033",
  "linkReferences": {},
  "deployedLinkReferences": {}
}