{
  "_format": "hh-sol-artifact-1",
  "contractName": "VotingProxy",
  "sourceName": "contracts/Voting_Proxy.sol",
  "abi": [
    {
      "inputs": [
        {
          "internalType": "address",
          "name": "_currentFuncAddress",
          "type": "address"
        }
      ],
      "stateMutability": "nonpayable",
      "type": "constructor"
    },
    {
      "anonymous": false,
      "inputs": [
        {
          "indexed": true,
          "internalType": "address",
          "name": "previousOwner",
          "type": "address"
        },
        {
          "indexed": true,
          "internalType": "address",
          "name": "newOwner",
          "type": "address"
        }
      ],
      "name": "OwnershipTransferred",
      "type": "event"
    },
    {
      "anonymous": false,
      "inputs": [
        {
          "indexed": false,
          "internalType": "address",
          "name": "account",
          "type": "address"
        }
      ],
      "name": "Paused",
      "type": "event"
    },
    {
      "anonymous": false,
      "inputs": [
        {
          "indexed": false,
          "internalType": "address",
          "name": "account",
          "type": "address"
        }
      ],
      "name": "Unpaused",
      "type": "event"
    },
    {
      "stateMutability": "payable",
      "type": "fallback"
    },
    {
      "inputs": [
        {
          "internalType": "address",
          "name": "",
          "type": "address"
        },
        {
          "internalType": "uint256",
          "name": "",
          "type": "uint256"
        }
      ],
      "name": "_boolVoter",
      "outputs": [
        {
          "internalType": "bool",
          "name": "",
          "type": "bool"
        }
      ],
      "stateMutability": "view",
      "type": "function"
    },
    {
      "inputs": [
        {
          "internalType": "uint64",
          "name": "",
          "type": "uint64"
        }
      ],
      "name": "_openedOnce",
      "outputs": [
        {
          "internalType": "bool",
          "name": "",
          "type": "bool"
        }
      ],
      "stateMutability": "view",
      "type": "function"
    },
    {
      "inputs": [
        {
          "internalType": "address",
          "name": "",
          "type": "address"
        }
      ],
      "name": "_registry",
      "outputs": [
        {
          "internalType": "bool",
          "name": "",
          "type": "bool"
        }
      ],
      "stateMutability": "view",
      "type": "function"
    },
    {
      "inputs": [],
      "name": "_totalVotes",
      "outputs": [
        {
          "internalType": "uint256",
          "name": "",
          "type": "uint256"
        }
      ],
      "stateMutability": "view",
      "type": "function"
    },
    {
      "inputs": [],
      "name": "_voterCount",
      "outputs": [
        {
          "internalType": "uint64",
          "name": "",
          "type": "uint64"
        }
      ],
      "stateMutability": "view",
      "type": "function"
    },
    {
      "inputs": [
        {
          "internalType": "uint256",
          "name": "",
          "type": "uint256"
        }
      ],
      "name": "categories",
      "outputs": [
        {
          "internalType": "string",
          "name": "name",
          "type": "string"
        },
        {
          "internalType": "bool",
          "name": "open",
          "type": "bool"
        },
        {
          "internalType": "uint64",
          "name": "catId",
          "type": "uint64"
        }
      ],
      "stateMutability": "view",
      "type": "function"
    },
    {
      "inputs": [],
      "name": "owner",
      "outputs": [
        {
          "internalType": "address",
          "name": "",
          "type": "address"
        }
      ],
      "stateMutability": "view",
      "type": "function"
    },
    {
      "inputs": [],
      "name": "paused",
      "outputs": [
        {
          "internalType": "bool",
          "name": "",
          "type": "bool"
        }
      ],
      "stateMutability": "view",
      "type": "function"
    },
    {
      "inputs": [],
      "name": "renounceOwnership",
      "outputs": [],
      "stateMutability": "nonpayable",
      "type": "function"
    },
    {
      "inputs": [
        {
          "internalType": "address",
          "name": "newOwner",
          "type": "address"
        }
      ],
      "name": "transferOwnership",
      "outputs": [],
      "stateMutability": "nonpayable",
      "type": "function"
    },
    {
      "inputs": [
        {
          "internalType": "address",
          "name": "_newFuncAddress",
          "type": "address"
        }
      ],
      "name": "upgrade",
      "outputs": [],
      "stateMutability": "nonpayable",
      "type": "function"
    },
    {
      "inputs": [],
      "name": "register",
      "outputs": [],
      "stateMutability": "nonpayable",
      "type": "function"
    },
    {
      "inputs": [
        {
          "internalType": "string",
          "name": "_category",
          "type": "string"
        },
        {
          "internalType": "string[]",
          "name": "_candidates",
          "type": "string[]"
        }
      ],
      "name": "setCategory",
      "outputs": [
        {
          "internalType": "uint64",
          "name": "",
          "type": "uint64"
        }
      ],
      "stateMutability": "nonpayable",
      "type": "function"
    },
    {
      "inputs": [
        {
          "internalType": "uint64",
          "name": "_catId",
          "type": "uint64"
        }
      ],
      "name": "getCategoryName",
      "outputs": [
        {
          "internalType": "string",
          "name": "",
          "type": "string"
        }
      ],
      "stateMutability": "view",
      "type": "function"
    },
    {
      "inputs": [],
      "name": "pause",
      "outputs": [],
      "stateMutability": "nonpayable",
      "type": "function"
    },
    {
      "inputs": [],
      "name": "unpause",
      "outputs": [],
      "stateMutability": "nonpayable",
      "type": "function"
    },
    {
      "inputs": [
        {
          "internalType": "uint64",
          "name": "_catId",
          "type": "uint64"
        },
        {
          "internalType": "uint8",
          "name": "_canId",
          "type": "uint8"
        }
      ],
      "name": "castVote",
      "outputs": [
        {
          "internalType": "bool",
          "name": "",
          "type": "bool"
        }
      ],
      "stateMutability": "nonpayable",
      "type": "function"
    },
    {
      "inputs": [
        {
          "internalType": "uint64",
          "name": "_catId",
          "type": "uint64"
        }
      ],
      "name": "openCategory",
      "outputs": [
        {
          "internalType": "bool",
          "name": "",
          "type": "bool"
        }
      ],
      "stateMutability": "nonpayable",
      "type": "function"
    },
    {
      "inputs": [],
      "name": "withdraw",
      "outputs": [],
      "stateMutability": "nonpayable",
      "type": "function"
    },
    {
      "inputs": [
        {
          "internalType": "uint64",
          "name": "_catId",
          "type": "uint64"
        }
      ],
      "name": "getCategoryOpen",
      "outputs": [
        {
          "internalType": "bool",
          "name": "",
          "type": "bool"
        }
      ],
      "stateMutability": "view",
      "type": "function"
    },
    {
      "inputs": [
        {
          "internalType": "uint64",
          "name": "_catId",
          "type": "uint64"
        },
        {
          "internalType": "uint8",
          "name": "_canId",
          "type": "uint8"
        }
      ],
      "name": "getCandidateVotes",
      "outputs": [
        {
          "internalType": "uint256",
          "name": "",
          "type": "uint256"
        }
      ],
      "stateMutability": "view",
      "type": "function"
    },
    {
      "inputs": [
        {
          "internalType": "uint64",
          "name": "_catId",
          "type": "uint64"
        },
        {
          "internalType": "uint8",
          "name": "_canId",
          "type": "uint8"
        }
      ],
      "name": "getCandidate",
      "outputs": [
        {
          "internalType": "string",
          "name": "",
          "type": "string"
        }
      ],
      "stateMutability": "view",
      "type": "function"
    },
    {
      "inputs": [
        {
          "internalType": "uint64",
          "name": "_catId",
          "type": "uint64"
        }
      ],
      "name": "closeCategory",
      "outputs": [
        {
          "internalType": "string",
          "name": "",
          "type": "string"
        }
      ],
      "stateMutability": "nonpayable",
      "type": "function"
    }
  ],
  "bytecode": "0x608060405234801561001057600080fd5b5060405162000fa938038062000fa983398181016040528101906100349190610192565b6100506100456100b160201b60201c565b6100b960201b60201c565b60008060146101000a81548160ff02191690831515021790555080600160006101000a81548173ffffffffffffffffffffffffffffffffffffffff021916908373ffffffffffffffffffffffffffffffffffffffff16021790555050610204565b600033905090565b60008060009054906101000a900473ffffffffffffffffffffffffffffffffffffffff169050816000806101000a81548173ffffffffffffffffffffffffffffffffffffffff021916908373ffffffffffffffffffffffffffffffffffffffff1602179055508173ffffffffffffffffffffffffffffffffffffffff168173ffffffffffffffffffffffffffffffffffffffff167f8be0079c531659141344cd1fd0a4f28419497f9722a3daafe3b4186f6b6457e060405160405180910390a35050565b60008151905061018c816101ed565b92915050565b6000602082840312156101a457600080fd5b60006101b28482850161017d565b91505092915050565b60006101c6826101cd565b9050919050565b600073ffffffffffffffffffffffffffffffffffffffff82169050919050565b6101f6816101bb565b811461020157600080fd5b50565b610d9580620002146000396000f3fe6080604052600436106100a05760003560e01c8063715018a611610064578063715018a61461028c5780638da5cb5b146102a3578063c6cdbe5e146102ce578063ce4ec0481461030d578063eb77c40f14610338578063f2fde38b14610375576100a1565b806308e67038146101935780630900f010146101d05780631ddbcbb1146101f9578063317cc82d146102365780635c975abb14610261576100a1565b5b6000600160009054906101000a900473ffffffffffffffffffffffffffffffffffffffff169050600073ffffffffffffffffffffffffffffffffffffffff16600160009054906101000a900473ffffffffffffffffffffffffffffffffffffffff1673ffffffffffffffffffffffffffffffffffffffff16141561012457600080fd5b600080368080601f016020809104026020016040519081016040528093929190818152602001838380828437600081840152601f19601f820116905080830192505050505050509050600080825160208401855af43d604051816000823e826000811461018f578282f35b8282fd5b34801561019f57600080fd5b506101ba60048036038101906101b591906108e1565b61039e565b6040516101c79190610b0e565b60405180910390f35b3480156101dc57600080fd5b506101f760048036038101906101f291906108e1565b6103be565b005b34801561020557600080fd5b50610220600480360381019061021b919061096f565b6104c5565b60405161022d9190610b0e565b60405180910390f35b34801561024257600080fd5b5061024b6104e5565b6040516102589190610be2565b60405180910390f35b34801561026d57600080fd5b506102766104ff565b6040516102839190610b0e565b60405180910390f35b34801561029857600080fd5b506102a1610515565b005b3480156102af57600080fd5b506102b861059d565b6040516102c59190610af3565b60405180910390f35b3480156102da57600080fd5b506102f560048036038101906102f09190610946565b6105c6565b60405161030493929190610b29565b60405180910390f35b34801561031957600080fd5b506103226106a9565b60405161032f9190610bc7565b60405180910390f35b34801561034457600080fd5b5061035f600480360381019061035a919061090a565b6106af565b60405161036c9190610b0e565b60405180910390f35b34801561038157600080fd5b5061039c600480360381019061039791906108e1565b6106de565b005b60046020528060005260406000206000915054906101000a900460ff1681565b6103c66107d6565b73ffffffffffffffffffffffffffffffffffffffff166103e461059d565b73ffffffffffffffffffffffffffffffffffffffff161461043a576040517f08c379a000000000000000000000000000000000000000000000000000000000815260040161043190610ba7565b60405180910390fd5b6104426104ff565b610481576040517f08c379a000000000000000000000000000000000000000000000000000000000815260040161047890610b67565b60405180910390fd5b80600160006101000a81548173ffffffffffffffffffffffffffffffffffffffff021916908373ffffffffffffffffffffffffffffffffffffffff16021790555050565b60066020528060005260406000206000915054906101000a900460ff1681565b600760009054906101000a900467ffffffffffffffff1681565b60008060149054906101000a900460ff16905090565b61051d6107d6565b73ffffffffffffffffffffffffffffffffffffffff1661053b61059d565b73ffffffffffffffffffffffffffffffffffffffff1614610591576040517f08c379a000000000000000000000000000000000000000000000000000000000815260040161058890610ba7565b60405180910390fd5b61059b60006107de565b565b60008060009054906101000a900473ffffffffffffffffffffffffffffffffffffffff16905090565b600281815481106105d657600080fd5b90600052602060002090600302016000915090508060000180546105f990610ca8565b80601f016020809104026020016040519081016040528092919081815260200182805461062590610ca8565b80156106725780601f1061064757610100808354040283529160200191610672565b820191906000526020600020905b81548152906001019060200180831161065557829003601f168201915b5050505050908060020160009054906101000a900460ff16908060020160019054906101000a900467ffffffffffffffff16905083565b60085481565b60056020528160005260406000206020528060005260406000206000915091509054906101000a900460ff1681565b6106e66107d6565b73ffffffffffffffffffffffffffffffffffffffff1661070461059d565b73ffffffffffffffffffffffffffffffffffffffff161461075a576040517f08c379a000000000000000000000000000000000000000000000000000000000815260040161075190610ba7565b60405180910390fd5b600073ffffffffffffffffffffffffffffffffffffffff168173ffffffffffffffffffffffffffffffffffffffff1614156107ca576040517f08c379a00000000000000000000000000000000000000000000000000000000081526004016107c190610b87565b60405180910390fd5b6107d3816107de565b50565b600033905090565b60008060009054906101000a900473ffffffffffffffffffffffffffffffffffffffff169050816000806101000a81548173ffffffffffffffffffffffffffffffffffffffff021916908373ffffffffffffffffffffffffffffffffffffffff1602179055508173ffffffffffffffffffffffffffffffffffffffff168173ffffffffffffffffffffffffffffffffffffffff167f8be0079c531659141344cd1fd0a4f28419497f9722a3daafe3b4186f6b6457e060405160405180910390a35050565b6000813590506108b181610d1a565b92915050565b6000813590506108c681610d31565b92915050565b6000813590506108db81610d48565b92915050565b6000602082840312156108f357600080fd5b6000610901848285016108a2565b91505092915050565b6000806040838503121561091d57600080fd5b600061092b858286016108a2565b925050602061093c858286016108b7565b9150509250929050565b60006020828403121561095857600080fd5b6000610966848285016108b7565b91505092915050565b60006020828403121561098157600080fd5b600061098f848285016108cc565b91505092915050565b6109a181610c19565b82525050565b6109b081610c2b565b82525050565b60006109c182610bfd565b6109cb8185610c08565b93506109db818560208601610c75565b6109e481610d09565b840191505092915050565b60006109fc601483610c08565b91507f5061757361626c653a206e6f74207061757365640000000000000000000000006000830152602082019050919050565b6000610a3c602683610c08565b91507f4f776e61626c653a206e6577206f776e657220697320746865207a65726f206160008301527f64647265737300000000000000000000000000000000000000000000000000006020830152604082019050919050565b6000610aa2602083610c08565b91507f4f776e61626c653a2063616c6c6572206973206e6f7420746865206f776e65726000830152602082019050919050565b610ade81610c57565b82525050565b610aed81610c61565b82525050565b6000602082019050610b086000830184610998565b92915050565b6000602082019050610b2360008301846109a7565b92915050565b60006060820190508181036000830152610b4381866109b6565b9050610b5260208301856109a7565b610b5f6040830184610ae4565b949350505050565b60006020820190508181036000830152610b80816109ef565b9050919050565b60006020820190508181036000830152610ba081610a2f565b9050919050565b60006020820190508181036000830152610bc081610a95565b9050919050565b6000602082019050610bdc6000830184610ad5565b92915050565b6000602082019050610bf76000830184610ae4565b92915050565b600081519050919050565b600082825260208201905092915050565b6000610c2482610c37565b9050919050565b60008115159050919050565b600073ffffffffffffffffffffffffffffffffffffffff82169050919050565b6000819050919050565b600067ffffffffffffffff82169050919050565b60005b83811015610c93578082015181840152602081019050610c78565b83811115610ca2576000848401525b50505050565b60006002820490506001821680610cc057607f821691505b60208210811415610cd457610cd3610cda565b5b50919050565b7f4e487b7100000000000000000000000000000000000000000000000000000000600052602260045260246000fd5b6000601f19601f8301169050919050565b610d2381610c19565b8114610d2e57600080fd5b50565b610d3a81610c57565b8114610d4557600080fd5b50565b610d5181610c61565b8114610d5c57600080fd5b5056fea2646970667358221220ff157fce9dd85f387ab78203acbc7fe345354ec637ffac6064d52bce50e0565e64736f6c63430008000033",
  "linkReferences": {},
  "deployedLinkReferences": {}
}