{
  "_format": "hh-sol-artifact-1",
  "contractName": "VotingProxy",
  "sourceName": "contracts/Voting_Proxy.sol",
  "abi": [
    {
      "inputs": [
        {
          "internalType": "address",
          "name": "_currentFuncAddress",
          "type": "address"
        }
      ],
      "stateMutability": "nonpayable",
      "type": "constructor"
    },
    {
      "anonymous": false,
      "inputs": [
        {
          "indexed": true,
          "internalType": "address",
          "name": "previousOwner",
          "type": "address"
        },
        {
          "indexed": true,
          "internalType": "address",
          "name": "newOwner",
          "type": "address"
        }
      ],
      "name": "OwnershipTransferred",
      "type": "event"
    },
    {
      "anonymous": false,
      "inputs": [
        {
          "indexed": false,
          "internalType": "address",
          "name": "account",
          "type": "address"
        }
      ],
      "name": "Paused",
      "type": "event"
    },
    {
      "anonymous": false,
      "inputs": [
        {
          "indexed": false,
          "internalType": "address",
          "name": "account",
          "type": "address"
        }
      ],
      "name": "Unpaused",
      "type": "event"
    },
    {
      "stateMutability": "payable",
      "type": "fallback"
    },
    {
      "inputs": [
        {
          "internalType": "address",
          "name": "",
          "type": "address"
        }
      ],
      "name": "_addressboolStorage",
      "outputs": [
        {
          "internalType": "bool",
          "name": "",
          "type": "bool"
        }
      ],
      "stateMutability": "view",
      "type": "function"
    },
    {
      "inputs": [
        {
          "internalType": "address",
          "name": "",
          "type": "address"
        }
      ],
      "name": "_addressuintStorage",
      "outputs": [
        {
          "internalType": "uint64",
          "name": "",
          "type": "uint64"
        }
      ],
      "stateMutability": "view",
      "type": "function"
    },
    {
      "inputs": [
        {
          "internalType": "address",
          "name": "",
          "type": "address"
        },
        {
          "internalType": "uint256",
          "name": "",
          "type": "uint256"
        }
      ],
      "name": "_boolVoter",
      "outputs": [
        {
          "internalType": "bool",
          "name": "",
          "type": "bool"
        }
      ],
      "stateMutability": "view",
      "type": "function"
    },
    {
      "inputs": [],
      "name": "_catCounter",
      "outputs": [
        {
          "internalType": "uint64",
          "name": "",
          "type": "uint64"
        }
      ],
      "stateMutability": "view",
      "type": "function"
    },
    {
      "inputs": [
        {
          "internalType": "uint64",
          "name": "",
          "type": "uint64"
        }
      ],
      "name": "_openedOnce",
      "outputs": [
        {
          "internalType": "bool",
          "name": "",
          "type": "bool"
        }
      ],
      "stateMutability": "view",
      "type": "function"
    },
    {
      "inputs": [
        {
          "internalType": "address",
          "name": "",
          "type": "address"
        }
      ],
      "name": "_registry",
      "outputs": [
        {
          "internalType": "bool",
          "name": "",
          "type": "bool"
        }
      ],
      "stateMutability": "view",
      "type": "function"
    },
    {
      "inputs": [],
      "name": "_totalVotes",
      "outputs": [
        {
          "internalType": "uint256",
          "name": "",
          "type": "uint256"
        }
      ],
      "stateMutability": "view",
      "type": "function"
    },
    {
      "inputs": [
        {
          "internalType": "uint64",
          "name": "",
          "type": "uint64"
        }
      ],
      "name": "_uintboolStorage",
      "outputs": [
        {
          "internalType": "bool",
          "name": "",
          "type": "bool"
        }
      ],
      "stateMutability": "view",
      "type": "function"
    },
    {
      "inputs": [],
      "name": "_voterCount",
      "outputs": [
        {
          "internalType": "uint64",
          "name": "",
          "type": "uint64"
        }
      ],
      "stateMutability": "view",
      "type": "function"
    },
    {
      "inputs": [
        {
          "internalType": "uint256",
          "name": "",
          "type": "uint256"
        }
      ],
      "name": "categories",
      "outputs": [
        {
          "internalType": "bytes32",
          "name": "name",
          "type": "bytes32"
        },
        {
          "internalType": "bool",
          "name": "open",
          "type": "bool"
        },
        {
          "internalType": "uint64",
          "name": "catId",
          "type": "uint64"
        }
      ],
      "stateMutability": "view",
      "type": "function"
    },
    {
      "inputs": [],
      "name": "currentFuncAddress",
      "outputs": [
        {
          "internalType": "address",
          "name": "",
          "type": "address"
        }
      ],
      "stateMutability": "view",
      "type": "function"
    },
    {
      "inputs": [],
      "name": "owner",
      "outputs": [
        {
          "internalType": "address",
          "name": "",
          "type": "address"
        }
      ],
      "stateMutability": "view",
      "type": "function"
    },
    {
      "inputs": [],
      "name": "paused",
      "outputs": [
        {
          "internalType": "bool",
          "name": "",
          "type": "bool"
        }
      ],
      "stateMutability": "view",
      "type": "function"
    },
    {
      "inputs": [],
      "name": "renounceOwnership",
      "outputs": [],
      "stateMutability": "nonpayable",
      "type": "function"
    },
    {
      "inputs": [
        {
          "internalType": "address",
          "name": "newOwner",
          "type": "address"
        }
      ],
      "name": "transferOwnership",
      "outputs": [],
      "stateMutability": "nonpayable",
      "type": "function"
    },
    {
      "inputs": [],
      "name": "uintStorage1",
      "outputs": [
        {
          "internalType": "uint256",
          "name": "",
          "type": "uint256"
        }
      ],
      "stateMutability": "view",
      "type": "function"
    },
    {
      "inputs": [],
      "name": "uintStorage2",
      "outputs": [
        {
          "internalType": "uint256",
          "name": "",
          "type": "uint256"
        }
      ],
      "stateMutability": "view",
      "type": "function"
    },
    {
      "inputs": [],
      "name": "uintStorage3",
      "outputs": [
        {
          "internalType": "uint256",
          "name": "",
          "type": "uint256"
        }
      ],
      "stateMutability": "view",
      "type": "function"
    },
    {
      "inputs": [
        {
          "internalType": "address",
          "name": "_newFuncAddress",
          "type": "address"
        }
      ],
      "name": "upgrade",
      "outputs": [],
      "stateMutability": "nonpayable",
      "type": "function"
    },
    {
      "inputs": [
        {
          "internalType": "uint64",
          "name": "_catId",
          "type": "uint64"
        },
        {
          "internalType": "uint8",
          "name": "_canId",
          "type": "uint8"
        }
      ],
      "name": "castVote",
      "outputs": [],
      "stateMutability": "nonpayable",
      "type": "function"
    },
    {
      "inputs": [
        {
          "internalType": "uint64",
          "name": "_catId",
          "type": "uint64"
        }
      ],
      "name": "closeCategory",
      "outputs": [
        {
          "internalType": "bytes32",
          "name": "",
          "type": "bytes32"
        }
      ],
      "stateMutability": "nonpayable",
      "type": "function"
    },
    {
      "inputs": [
        {
          "internalType": "uint64",
          "name": "_catId",
          "type": "uint64"
        },
        {
          "internalType": "uint8",
          "name": "_canId",
          "type": "uint8"
        }
      ],
      "name": "getCandidate",
      "outputs": [
        {
          "internalType": "bytes32",
          "name": "",
          "type": "bytes32"
        }
      ],
      "stateMutability": "view",
      "type": "function"
    },
    {
      "inputs": [
        {
          "internalType": "uint64",
          "name": "_catId",
          "type": "uint64"
        },
        {
          "internalType": "uint8",
          "name": "_canId",
          "type": "uint8"
        }
      ],
      "name": "getCandidateVotes",
      "outputs": [
        {
          "internalType": "uint256",
          "name": "",
          "type": "uint256"
        }
      ],
      "stateMutability": "view",
      "type": "function"
    },
    {
      "inputs": [
        {
          "internalType": "uint64",
          "name": "_catId",
          "type": "uint64"
        }
      ],
      "name": "getCategoryName",
      "outputs": [
        {
          "internalType": "bytes32",
          "name": "",
          "type": "bytes32"
        }
      ],
      "stateMutability": "view",
      "type": "function"
    },
    {
      "inputs": [
        {
          "internalType": "uint64",
          "name": "_catId",
          "type": "uint64"
        }
      ],
      "name": "getCategoryOpen",
      "outputs": [
        {
          "internalType": "bool",
          "name": "",
          "type": "bool"
        }
      ],
      "stateMutability": "view",
      "type": "function"
    },
    {
      "inputs": [
        {
          "internalType": "uint64",
          "name": "_catId",
          "type": "uint64"
        }
      ],
      "name": "getCategoryVotes",
      "outputs": [
        {
          "internalType": "uint256",
          "name": "",
          "type": "uint256"
        }
      ],
      "stateMutability": "view",
      "type": "function"
    },
    {
      "inputs": [
        {
          "internalType": "uint64",
          "name": "_catId",
          "type": "uint64"
        }
      ],
      "name": "openCategory",
      "outputs": [],
      "stateMutability": "nonpayable",
      "type": "function"
    },
    {
      "inputs": [],
      "name": "pause",
      "outputs": [],
      "stateMutability": "nonpayable",
      "type": "function"
    },
    {
      "inputs": [],
      "name": "register",
      "outputs": [],
      "stateMutability": "nonpayable",
      "type": "function"
    },
    {
      "inputs": [
        {
          "internalType": "bytes32",
          "name": "_category",
          "type": "bytes32"
        },
        {
          "internalType": "bytes32[]",
          "name": "_candidates",
          "type": "bytes32[]"
        }
      ],
      "name": "setCategory",
      "outputs": [
        {
          "internalType": "uint64",
          "name": "",
          "type": "uint64"
        }
      ],
      "stateMutability": "nonpayable",
      "type": "function"
    },
    {
      "inputs": [],
      "name": "unpause",
      "outputs": [],
      "stateMutability": "nonpayable",
      "type": "function"
    },
    {
      "inputs": [],
      "name": "withdraw",
      "outputs": [],
      "stateMutability": "nonpayable",
      "type": "function"
    }
  ],
  "bytecode": "0x60806040523480156200001157600080fd5b506040516200111b3803806200111b83398181016040528101906200003791906200019c565b620000576200004b620000b960201b60201c565b620000c160201b60201c565b60008060146101000a81548160ff02191690831515021790555080600160006101000a81548173ffffffffffffffffffffffffffffffffffffffff021916908373ffffffffffffffffffffffffffffffffffffffff1602179055505062000216565b600033905090565b60008060009054906101000a900473ffffffffffffffffffffffffffffffffffffffff169050816000806101000a81548173ffffffffffffffffffffffffffffffffffffffff021916908373ffffffffffffffffffffffffffffffffffffffff1602179055508173ffffffffffffffffffffffffffffffffffffffff168173ffffffffffffffffffffffffffffffffffffffff167f8be0079c531659141344cd1fd0a4f28419497f9722a3daafe3b4186f6b6457e060405160405180910390a35050565b6000815190506200019681620001fc565b92915050565b600060208284031215620001af57600080fd5b6000620001bf8482850162000185565b91505092915050565b6000620001d582620001dc565b9050919050565b600073ffffffffffffffffffffffffffffffffffffffff82169050919050565b6200020781620001c8565b81146200021357600080fd5b50565b610ef580620002266000396000f3fe6080604052600436106101185760003560e01c80637c8fee46116100a0578063ce4ec04811610064578063ce4ec048146104ab578063d42f3fbc146104d6578063eb77c40f14610513578063f2fde38b14610550578063f3e672eb1461057957610119565b80637c8fee46146103ae5780638da5cb5b146103eb57806396875a3c14610416578063c6cdbe5e14610441578063cb0a82111461048057610119565b80632e0d7573116100e75780632e0d7573146102d9578063317cc82d14610304578063519e22fb1461032f5780635c975abb1461036c578063715018a61461039757610119565b806308e670381461020b5780630900f010146102485780631af5fd02146102715780631ddbcbb11461029c57610119565b5b6000600160009054906101000a900473ffffffffffffffffffffffffffffffffffffffff169050600073ffffffffffffffffffffffffffffffffffffffff16600160009054906101000a900473ffffffffffffffffffffffffffffffffffffffff1673ffffffffffffffffffffffffffffffffffffffff16141561019c57600080fd5b600080368080601f016020809104026020016040519081016040528093929190818152602001838380828437600081840152601f19601f820116905080830192505050505050509050600080825160208401855af43d604051816000823e8260008114610207578282f35b8282fd5b34801561021757600080fd5b50610232600480360381019061022d9190610b18565b6105a4565b60405161023f9190610d1b565b60405180910390f35b34801561025457600080fd5b5061026f600480360381019061026a9190610b18565b6105c4565b005b34801561027d57600080fd5b506102866106cb565b6040516102939190610d00565b60405180910390f35b3480156102a857600080fd5b506102c360048036038101906102be9190610ba6565b6106f1565b6040516102d09190610d1b565b60405180910390f35b3480156102e557600080fd5b506102ee610711565b6040516102fb9190610de8565b60405180910390f35b34801561031057600080fd5b5061031961072b565b6040516103269190610de8565b60405180910390f35b34801561033b57600080fd5b5061035660048036038101906103519190610b18565b610745565b6040516103639190610de8565b60405180910390f35b34801561037857600080fd5b5061038161076c565b60405161038e9190610d1b565b60405180910390f35b3480156103a357600080fd5b506103ac610782565b005b3480156103ba57600080fd5b506103d560048036038101906103d09190610ba6565b61080a565b6040516103e29190610d1b565b60405180910390f35b3480156103f757600080fd5b5061040061082a565b60405161040d9190610d00565b60405180910390f35b34801561042257600080fd5b5061042b610853565b6040516104389190610dcd565b60405180910390f35b34801561044d57600080fd5b5061046860048036038101906104639190610b7d565b610859565b60405161047793929190610d36565b60405180910390f35b34801561048c57600080fd5b506104956108b4565b6040516104a29190610dcd565b60405180910390f35b3480156104b757600080fd5b506104c06108ba565b6040516104cd9190610dcd565b60405180910390f35b3480156104e257600080fd5b506104fd60048036038101906104f89190610b18565b6108c0565b60405161050a9190610d1b565b60405180910390f35b34801561051f57600080fd5b5061053a60048036038101906105359190610b41565b6108e0565b6040516105479190610d1b565b60405180910390f35b34801561055c57600080fd5b5061057760048036038101906105729190610b18565b61090f565b005b34801561058557600080fd5b5061058e610a07565b60405161059b9190610dcd565b60405180910390f35b60046020528060005260406000206000915054906101000a900460ff1681565b6105cc610a0d565b73ffffffffffffffffffffffffffffffffffffffff166105ea61082a565b73ffffffffffffffffffffffffffffffffffffffff1614610640576040517f08c379a000000000000000000000000000000000000000000000000000000000815260040161063790610dad565b60405180910390fd5b61064861076c565b610687576040517f08c379a000000000000000000000000000000000000000000000000000000000815260040161067e90610d6d565b60405180910390fd5b80600160006101000a81548173ffffffffffffffffffffffffffffffffffffffff021916908373ffffffffffffffffffffffffffffffffffffffff16021790555050565b600160009054906101000a900473ffffffffffffffffffffffffffffffffffffffff1681565b60066020528060005260406000206000915054906101000a900460ff1681565b600360009054906101000a900467ffffffffffffffff1681565b600760009054906101000a900467ffffffffffffffff1681565b600b6020528060005260406000206000915054906101000a900467ffffffffffffffff1681565b60008060149054906101000a900460ff16905090565b61078a610a0d565b73ffffffffffffffffffffffffffffffffffffffff166107a861082a565b73ffffffffffffffffffffffffffffffffffffffff16146107fe576040517f08c379a00000000000000000000000000000000000000000000000000000000081526004016107f590610dad565b60405180910390fd5b6108086000610a15565b565b60096020528060005260406000206000915054906101000a900460ff1681565b60008060009054906101000a900473ffffffffffffffffffffffffffffffffffffffff16905090565b600c5481565b6002818154811061086957600080fd5b90600052602060002090600302016000915090508060000154908060020160009054906101000a900460ff16908060020160019054906101000a900467ffffffffffffffff16905083565b600d5481565b60085481565b600a6020528060005260406000206000915054906101000a900460ff1681565b60056020528160005260406000206020528060005260406000206000915091509054906101000a900460ff1681565b610917610a0d565b73ffffffffffffffffffffffffffffffffffffffff1661093561082a565b73ffffffffffffffffffffffffffffffffffffffff161461098b576040517f08c379a000000000000000000000000000000000000000000000000000000000815260040161098290610dad565b60405180910390fd5b600073ffffffffffffffffffffffffffffffffffffffff168173ffffffffffffffffffffffffffffffffffffffff1614156109fb576040517f08c379a00000000000000000000000000000000000000000000000000000000081526004016109f290610d8d565b60405180910390fd5b610a0481610a15565b50565b600e5481565b600033905090565b60008060009054906101000a900473ffffffffffffffffffffffffffffffffffffffff169050816000806101000a81548173ffffffffffffffffffffffffffffffffffffffff021916908373ffffffffffffffffffffffffffffffffffffffff1602179055508173ffffffffffffffffffffffffffffffffffffffff168173ffffffffffffffffffffffffffffffffffffffff167f8be0079c531659141344cd1fd0a4f28419497f9722a3daafe3b4186f6b6457e060405160405180910390a35050565b600081359050610ae881610e7a565b92915050565b600081359050610afd81610e91565b92915050565b600081359050610b1281610ea8565b92915050565b600060208284031215610b2a57600080fd5b6000610b3884828501610ad9565b91505092915050565b60008060408385031215610b5457600080fd5b6000610b6285828601610ad9565b9250506020610b7385828601610aee565b9150509250929050565b600060208284031215610b8f57600080fd5b6000610b9d84828501610aee565b91505092915050565b600060208284031215610bb857600080fd5b6000610bc684828501610b03565b91505092915050565b610bd881610e14565b82525050565b610be781610e26565b82525050565b610bf681610e32565b82525050565b6000610c09601483610e03565b91507f5061757361626c653a206e6f74207061757365640000000000000000000000006000830152602082019050919050565b6000610c49602683610e03565b91507f4f776e61626c653a206e6577206f776e657220697320746865207a65726f206160008301527f64647265737300000000000000000000000000000000000000000000000000006020830152604082019050919050565b6000610caf602083610e03565b91507f4f776e61626c653a2063616c6c6572206973206e6f7420746865206f776e65726000830152602082019050919050565b610ceb81610e5c565b82525050565b610cfa81610e66565b82525050565b6000602082019050610d156000830184610bcf565b92915050565b6000602082019050610d306000830184610bde565b92915050565b6000606082019050610d4b6000830186610bed565b610d586020830185610bde565b610d656040830184610cf1565b949350505050565b60006020820190508181036000830152610d8681610bfc565b9050919050565b60006020820190508181036000830152610da681610c3c565b9050919050565b60006020820190508181036000830152610dc681610ca2565b9050919050565b6000602082019050610de26000830184610ce2565b92915050565b6000602082019050610dfd6000830184610cf1565b92915050565b600082825260208201905092915050565b6000610e1f82610e3c565b9050919050565b60008115159050919050565b6000819050919050565b600073ffffffffffffffffffffffffffffffffffffffff82169050919050565b6000819050919050565b600067ffffffffffffffff82169050919050565b610e8381610e14565b8114610e8e57600080fd5b50565b610e9a81610e5c565b8114610ea557600080fd5b50565b610eb181610e66565b8114610ebc57600080fd5b5056fea2646970667358221220f14facf4771b228fd43158cc6e30d1f34e9b0f763fea82975c7e5c5281386cbc64736f6c63430008000033",
  "linkReferences": {},
  "deployedLinkReferences": {}
}