{
  "_format": "hh-sol-artifact-1",
  "contractName": "VotingProxy",
  "sourceName": "contracts/Voting_Proxy.sol",
  "abi": [
    {
      "inputs": [
        {
          "internalType": "address",
          "name": "_currentFuncAddress",
          "type": "address"
        }
      ],
      "stateMutability": "nonpayable",
      "type": "constructor"
    },
    {
      "anonymous": false,
      "inputs": [
        {
          "indexed": true,
          "internalType": "address",
          "name": "previousOwner",
          "type": "address"
        },
        {
          "indexed": true,
          "internalType": "address",
          "name": "newOwner",
          "type": "address"
        }
      ],
      "name": "OwnershipTransferred",
      "type": "event"
    },
    {
      "stateMutability": "payable",
      "type": "fallback"
    },
    {
      "inputs": [
        {
          "internalType": "uint256",
          "name": "",
          "type": "uint256"
        }
      ],
      "name": "Categories",
      "outputs": [
        {
          "internalType": "string",
          "name": "category",
          "type": "string"
        },
        {
          "internalType": "bool",
          "name": "open",
          "type": "bool"
        },
        {
          "internalType": "uint64",
          "name": "catId",
          "type": "uint64"
        }
      ],
      "stateMutability": "view",
      "type": "function"
    },
    {
      "inputs": [
        {
          "internalType": "address",
          "name": "",
          "type": "address"
        },
        {
          "internalType": "uint256",
          "name": "",
          "type": "uint256"
        }
      ],
      "name": "_boolVoter",
      "outputs": [
        {
          "internalType": "bool",
          "name": "",
          "type": "bool"
        }
      ],
      "stateMutability": "view",
      "type": "function"
    },
    {
      "inputs": [
        {
          "internalType": "uint64",
          "name": "",
          "type": "uint64"
        }
      ],
      "name": "_openedOnce",
      "outputs": [
        {
          "internalType": "bool",
          "name": "",
          "type": "bool"
        }
      ],
      "stateMutability": "view",
      "type": "function"
    },
    {
      "inputs": [
        {
          "internalType": "address",
          "name": "",
          "type": "address"
        }
      ],
      "name": "_registry",
      "outputs": [
        {
          "internalType": "bool",
          "name": "",
          "type": "bool"
        }
      ],
      "stateMutability": "view",
      "type": "function"
    },
    {
      "inputs": [],
      "name": "_totalVotes",
      "outputs": [
        {
          "internalType": "uint64",
          "name": "",
          "type": "uint64"
        }
      ],
      "stateMutability": "view",
      "type": "function"
    },
    {
      "inputs": [],
      "name": "_voterCount",
      "outputs": [
        {
          "internalType": "uint64",
          "name": "",
          "type": "uint64"
        }
      ],
      "stateMutability": "view",
      "type": "function"
    },
    {
      "inputs": [],
      "name": "owner",
      "outputs": [
        {
          "internalType": "address",
          "name": "",
          "type": "address"
        }
      ],
      "stateMutability": "view",
      "type": "function"
    },
    {
      "inputs": [],
      "name": "renounceOwnership",
      "outputs": [],
      "stateMutability": "nonpayable",
      "type": "function"
    },
    {
      "inputs": [
        {
          "internalType": "address",
          "name": "newOwner",
          "type": "address"
        }
      ],
      "name": "transferOwnership",
      "outputs": [],
      "stateMutability": "nonpayable",
      "type": "function"
    },
    {
      "inputs": [
        {
          "internalType": "address",
          "name": "_newFuncAddress",
          "type": "address"
        }
      ],
      "name": "upgrade",
      "outputs": [],
      "stateMutability": "nonpayable",
      "type": "function"
    }
  ],
  "bytecode": "0x60806040526000600260006101000a81548167ffffffffffffffff021916908367ffffffffffffffff16021790555034801561003a57600080fd5b50604051610ead380380610ead833981810160405281019061005c91906101a0565b61007861006d6100bf60201b60201c565b6100c760201b60201c565b80600760006101000a81548173ffffffffffffffffffffffffffffffffffffffff021916908373ffffffffffffffffffffffffffffffffffffffff16021790555050610212565b600033905090565b60008060009054906101000a900473ffffffffffffffffffffffffffffffffffffffff169050816000806101000a81548173ffffffffffffffffffffffffffffffffffffffff021916908373ffffffffffffffffffffffffffffffffffffffff1602179055508173ffffffffffffffffffffffffffffffffffffffff168173ffffffffffffffffffffffffffffffffffffffff167f8be0079c531659141344cd1fd0a4f28419497f9722a3daafe3b4186f6b6457e060405160405180910390a35050565b60008151905061019a816101fb565b92915050565b6000602082840312156101b257600080fd5b60006101c08482850161018b565b91505092915050565b60006101d4826101db565b9050919050565b600073ffffffffffffffffffffffffffffffffffffffff82169050919050565b610204816101c9565b811461020f57600080fd5b50565b610c8c806102216000396000f3fe6080604052600436106100955760003560e01c8063715018a611610059578063715018a6146102955780638da5cb5b146102ac578063ce4ec048146102d7578063eb77c40f14610302578063f2fde38b1461033f57610096565b806308e67038146101885780630900f010146101c55780631ddbcbb1146101ee578063317cc82d1461022b57806369677af31461025657610096565b5b6000600760009054906101000a900473ffffffffffffffffffffffffffffffffffffffff169050600073ffffffffffffffffffffffffffffffffffffffff16600760009054906101000a900473ffffffffffffffffffffffffffffffffffffffff1673ffffffffffffffffffffffffffffffffffffffff16141561011957600080fd5b600080368080601f016020809104026020016040519081016040528093929190818152602001838380828437600081840152601f19601f820116905080830192505050505050509050600080825160208401855af43d604051816000823e8260008114610184578282f35b8282fd5b34801561019457600080fd5b506101af60048036038101906101aa9190610862565b610368565b6040516101bc9190610a40565b60405180910390f35b3480156101d157600080fd5b506101ec60048036038101906101e79190610862565b610388565b005b3480156101fa57600080fd5b50610215600480360381019061021091906108f0565b610448565b6040516102229190610a40565b60405180910390f35b34801561023757600080fd5b50610240610468565b60405161024d9190610ad9565b60405180910390f35b34801561026257600080fd5b5061027d600480360381019061027891906108c7565b610482565b60405161028c93929190610a5b565b60405180910390f35b3480156102a157600080fd5b506102aa610565565b005b3480156102b857600080fd5b506102c16105ed565b6040516102ce9190610a25565b60405180910390f35b3480156102e357600080fd5b506102ec610616565b6040516102f99190610ad9565b60405180910390f35b34801561030e57600080fd5b506103296004803603810190610324919061088b565b610630565b6040516103369190610a40565b60405180910390f35b34801561034b57600080fd5b5061036660048036038101906103619190610862565b61065f565b005b60036020528060005260406000206000915054906101000a900460ff1681565b610390610757565b73ffffffffffffffffffffffffffffffffffffffff166103ae6105ed565b73ffffffffffffffffffffffffffffffffffffffff1614610404576040517f08c379a00000000000000000000000000000000000000000000000000000000081526004016103fb90610ab9565b60405180910390fd5b80600760006101000a81548173ffffffffffffffffffffffffffffffffffffffff021916908373ffffffffffffffffffffffffffffffffffffffff16021790555050565b60056020528060005260406000206000915054906101000a900460ff1681565b600660009054906101000a900467ffffffffffffffff1681565b6001818154811061049257600080fd5b90600052602060002090600302016000915090508060000180546104b590610b9f565b80601f01602080910402602001604051908101604052809291908181526020018280546104e190610b9f565b801561052e5780601f106105035761010080835404028352916020019161052e565b820191906000526020600020905b81548152906001019060200180831161051157829003601f168201915b5050505050908060020160009054906101000a900460ff16908060020160019054906101000a900467ffffffffffffffff16905083565b61056d610757565b73ffffffffffffffffffffffffffffffffffffffff1661058b6105ed565b73ffffffffffffffffffffffffffffffffffffffff16146105e1576040517f08c379a00000000000000000000000000000000000000000000000000000000081526004016105d890610ab9565b60405180910390fd5b6105eb600061075f565b565b60008060009054906101000a900473ffffffffffffffffffffffffffffffffffffffff16905090565b600660089054906101000a900467ffffffffffffffff1681565b60046020528160005260406000206020528060005260406000206000915091509054906101000a900460ff1681565b610667610757565b73ffffffffffffffffffffffffffffffffffffffff166106856105ed565b73ffffffffffffffffffffffffffffffffffffffff16146106db576040517f08c379a00000000000000000000000000000000000000000000000000000000081526004016106d290610ab9565b60405180910390fd5b600073ffffffffffffffffffffffffffffffffffffffff168173ffffffffffffffffffffffffffffffffffffffff16141561074b576040517f08c379a000000000000000000000000000000000000000000000000000000000815260040161074290610a99565b60405180910390fd5b6107548161075f565b50565b600033905090565b60008060009054906101000a900473ffffffffffffffffffffffffffffffffffffffff169050816000806101000a81548173ffffffffffffffffffffffffffffffffffffffff021916908373ffffffffffffffffffffffffffffffffffffffff1602179055508173ffffffffffffffffffffffffffffffffffffffff168173ffffffffffffffffffffffffffffffffffffffff167f8be0079c531659141344cd1fd0a4f28419497f9722a3daafe3b4186f6b6457e060405160405180910390a35050565b60008135905061083281610c11565b92915050565b60008135905061084781610c28565b92915050565b60008135905061085c81610c3f565b92915050565b60006020828403121561087457600080fd5b600061088284828501610823565b91505092915050565b6000806040838503121561089e57600080fd5b60006108ac85828601610823565b92505060206108bd85828601610838565b9150509250929050565b6000602082840312156108d957600080fd5b60006108e784828501610838565b91505092915050565b60006020828403121561090257600080fd5b60006109108482850161084d565b91505092915050565b61092281610b10565b82525050565b61093181610b22565b82525050565b600061094282610af4565b61094c8185610aff565b935061095c818560208601610b6c565b61096581610c00565b840191505092915050565b600061097d602683610aff565b91507f4f776e61626c653a206e6577206f776e657220697320746865207a65726f206160008301527f64647265737300000000000000000000000000000000000000000000000000006020830152604082019050919050565b60006109e3602083610aff565b91507f4f776e61626c653a2063616c6c6572206973206e6f7420746865206f776e65726000830152602082019050919050565b610a1f81610b58565b82525050565b6000602082019050610a3a6000830184610919565b92915050565b6000602082019050610a556000830184610928565b92915050565b60006060820190508181036000830152610a758186610937565b9050610a846020830185610928565b610a916040830184610a16565b949350505050565b60006020820190508181036000830152610ab281610970565b9050919050565b60006020820190508181036000830152610ad2816109d6565b9050919050565b6000602082019050610aee6000830184610a16565b92915050565b600081519050919050565b600082825260208201905092915050565b6000610b1b82610b2e565b9050919050565b60008115159050919050565b600073ffffffffffffffffffffffffffffffffffffffff82169050919050565b6000819050919050565b600067ffffffffffffffff82169050919050565b60005b83811015610b8a578082015181840152602081019050610b6f565b83811115610b99576000848401525b50505050565b60006002820490506001821680610bb757607f821691505b60208210811415610bcb57610bca610bd1565b5b50919050565b7f4e487b7100000000000000000000000000000000000000000000000000000000600052602260045260246000fd5b6000601f19601f8301169050919050565b610c1a81610b10565b8114610c2557600080fd5b50565b610c3181610b4e565b8114610c3c57600080fd5b50565b610c4881610b58565b8114610c5357600080fd5b5056fea2646970667358221220fa9067beedba2c72e25913700d64834758eeca7df1f42c9399f101ce9a92972c64736f6c63430008000033",
  "linkReferences": {},
  "deployedLinkReferences": {}
}