{
  "_format": "hh-sol-artifact-1",
  "contractName": "VotingProxy",
  "sourceName": "contracts/Voting_Proxy.sol",
  "abi": [
    {
      "inputs": [
        {
          "internalType": "address",
          "name": "_currentFuncAddress",
          "type": "address"
        }
      ],
      "stateMutability": "nonpayable",
      "type": "constructor"
    },
    {
      "anonymous": false,
      "inputs": [
        {
          "indexed": true,
          "internalType": "address",
          "name": "previousOwner",
          "type": "address"
        },
        {
          "indexed": true,
          "internalType": "address",
          "name": "newOwner",
          "type": "address"
        }
      ],
      "name": "OwnershipTransferred",
      "type": "event"
    },
    {
      "anonymous": false,
      "inputs": [
        {
          "indexed": false,
          "internalType": "address",
          "name": "account",
          "type": "address"
        }
      ],
      "name": "Paused",
      "type": "event"
    },
    {
      "anonymous": false,
      "inputs": [
        {
          "indexed": false,
          "internalType": "address",
          "name": "account",
          "type": "address"
        }
      ],
      "name": "Unpaused",
      "type": "event"
    },
    {
      "stateMutability": "payable",
      "type": "fallback"
    },
    {
      "inputs": [
        {
          "internalType": "address",
          "name": "",
          "type": "address"
        },
        {
          "internalType": "uint256",
          "name": "",
          "type": "uint256"
        }
      ],
      "name": "_boolVoter",
      "outputs": [
        {
          "internalType": "bool",
          "name": "",
          "type": "bool"
        }
      ],
      "stateMutability": "view",
      "type": "function"
    },
    {
      "inputs": [
        {
          "internalType": "address",
          "name": "",
          "type": "address"
        }
      ],
      "name": "_registry",
      "outputs": [
        {
          "internalType": "bool",
          "name": "",
          "type": "bool"
        }
      ],
      "stateMutability": "view",
      "type": "function"
    },
    {
      "inputs": [],
      "name": "_totalVotes",
      "outputs": [
        {
          "internalType": "uint256",
          "name": "",
          "type": "uint256"
        }
      ],
      "stateMutability": "view",
      "type": "function"
    },
    {
      "inputs": [],
      "name": "_voterCount",
      "outputs": [
        {
          "internalType": "uint64",
          "name": "",
          "type": "uint64"
        }
      ],
      "stateMutability": "view",
      "type": "function"
    },
    {
      "inputs": [
        {
          "internalType": "uint256",
          "name": "",
          "type": "uint256"
        }
      ],
      "name": "categories",
      "outputs": [
        {
          "internalType": "string",
          "name": "name",
          "type": "string"
        },
        {
          "internalType": "bool",
          "name": "open",
          "type": "bool"
        },
        {
          "internalType": "uint64",
          "name": "catId",
          "type": "uint64"
        }
      ],
      "stateMutability": "view",
      "type": "function"
    },
    {
      "inputs": [],
      "name": "owner",
      "outputs": [
        {
          "internalType": "address",
          "name": "",
          "type": "address"
        }
      ],
      "stateMutability": "view",
      "type": "function"
    },
    {
      "inputs": [],
      "name": "paused",
      "outputs": [
        {
          "internalType": "bool",
          "name": "",
          "type": "bool"
        }
      ],
      "stateMutability": "view",
      "type": "function"
    },
    {
      "inputs": [],
      "name": "renounceOwnership",
      "outputs": [],
      "stateMutability": "nonpayable",
      "type": "function"
    },
    {
      "inputs": [
        {
          "internalType": "address",
          "name": "newOwner",
          "type": "address"
        }
      ],
      "name": "transferOwnership",
      "outputs": [],
      "stateMutability": "nonpayable",
      "type": "function"
    },
    {
      "inputs": [
        {
          "internalType": "address",
          "name": "_newFuncAddress",
          "type": "address"
        }
      ],
      "name": "upgrade",
      "outputs": [],
      "stateMutability": "nonpayable",
      "type": "function"
    }
  ],
  "bytecode": "0x608060405234801561001057600080fd5b50604051610ee9380380610ee983398181016040528101906100329190610190565b61004e6100436100af60201b60201c565b6100b760201b60201c565b60008060146101000a81548160ff02191690831515021790555080600760006101000a81548173ffffffffffffffffffffffffffffffffffffffff021916908373ffffffffffffffffffffffffffffffffffffffff16021790555050610202565b600033905090565b60008060009054906101000a900473ffffffffffffffffffffffffffffffffffffffff169050816000806101000a81548173ffffffffffffffffffffffffffffffffffffffff021916908373ffffffffffffffffffffffffffffffffffffffff1602179055508173ffffffffffffffffffffffffffffffffffffffff168173ffffffffffffffffffffffffffffffffffffffff167f8be0079c531659141344cd1fd0a4f28419497f9722a3daafe3b4186f6b6457e060405160405180910390a35050565b60008151905061018a816101eb565b92915050565b6000602082840312156101a257600080fd5b60006101b08482850161017b565b91505092915050565b60006101c4826101cb565b9050919050565b600073ffffffffffffffffffffffffffffffffffffffff82169050919050565b6101f4816101b9565b81146101ff57600080fd5b50565b610cd8806102116000396000f3fe6080604052600436106100955760003560e01c80638da5cb5b116100595780638da5cb5b1461025b578063c6cdbe5e14610286578063ce4ec048146102c5578063eb77c40f146102f0578063f2fde38b1461032d57610096565b806308e67038146101885780630900f010146101c5578063317cc82d146101ee5780635c975abb14610219578063715018a61461024457610096565b5b6000600760009054906101000a900473ffffffffffffffffffffffffffffffffffffffff169050600073ffffffffffffffffffffffffffffffffffffffff16600760009054906101000a900473ffffffffffffffffffffffffffffffffffffffff1673ffffffffffffffffffffffffffffffffffffffff16141561011957600080fd5b600080368080601f016020809104026020016040519081016040528093929190818152602001838380828437600081840152601f19601f820116905080830192505050505050509050600080825160208401855af43d604051816000823e8260008114610184578282f35b8282fd5b34801561019457600080fd5b506101af60048036038101906101aa9190610864565b610356565b6040516101bc9190610a68565b60405180910390f35b3480156101d157600080fd5b506101ec60048036038101906101e79190610864565b610376565b005b3480156101fa57600080fd5b5061020361047d565b6040516102109190610b3c565b60405180910390f35b34801561022557600080fd5b5061022e610497565b60405161023b9190610a68565b60405180910390f35b34801561025057600080fd5b506102596104ad565b005b34801561026757600080fd5b50610270610535565b60405161027d9190610a4d565b60405180910390f35b34801561029257600080fd5b506102ad60048036038101906102a891906108c9565b61055e565b6040516102bc93929190610a83565b60405180910390f35b3480156102d157600080fd5b506102da610641565b6040516102e79190610b21565b60405180910390f35b3480156102fc57600080fd5b506103176004803603810190610312919061088d565b610647565b6040516103249190610a68565b60405180910390f35b34801561033957600080fd5b50610354600480360381019061034f9190610864565b610676565b005b60036020528060005260406000206000915054906101000a900460ff1681565b61037e61076e565b73ffffffffffffffffffffffffffffffffffffffff1661039c610535565b73ffffffffffffffffffffffffffffffffffffffff16146103f2576040517f08c379a00000000000000000000000000000000000000000000000000000000081526004016103e990610b01565b60405180910390fd5b6103fa610497565b610439576040517f08c379a000000000000000000000000000000000000000000000000000000000815260040161043090610ac1565b60405180910390fd5b80600760006101000a81548173ffffffffffffffffffffffffffffffffffffffff021916908373ffffffffffffffffffffffffffffffffffffffff16021790555050565b600560009054906101000a900467ffffffffffffffff1681565b60008060149054906101000a900460ff16905090565b6104b561076e565b73ffffffffffffffffffffffffffffffffffffffff166104d3610535565b73ffffffffffffffffffffffffffffffffffffffff1614610529576040517f08c379a000000000000000000000000000000000000000000000000000000000815260040161052090610b01565b60405180910390fd5b6105336000610776565b565b60008060009054906101000a900473ffffffffffffffffffffffffffffffffffffffff16905090565b6001818154811061056e57600080fd5b906000526020600020906003020160009150905080600001805461059190610c02565b80601f01602080910402602001604051908101604052809291908181526020018280546105bd90610c02565b801561060a5780601f106105df5761010080835404028352916020019161060a565b820191906000526020600020905b8154815290600101906020018083116105ed57829003601f168201915b5050505050908060020160009054906101000a900460ff16908060020160019054906101000a900467ffffffffffffffff16905083565b60065481565b60046020528160005260406000206020528060005260406000206000915091509054906101000a900460ff1681565b61067e61076e565b73ffffffffffffffffffffffffffffffffffffffff1661069c610535565b73ffffffffffffffffffffffffffffffffffffffff16146106f2576040517f08c379a00000000000000000000000000000000000000000000000000000000081526004016106e990610b01565b60405180910390fd5b600073ffffffffffffffffffffffffffffffffffffffff168173ffffffffffffffffffffffffffffffffffffffff161415610762576040517f08c379a000000000000000000000000000000000000000000000000000000000815260040161075990610ae1565b60405180910390fd5b61076b81610776565b50565b600033905090565b60008060009054906101000a900473ffffffffffffffffffffffffffffffffffffffff169050816000806101000a81548173ffffffffffffffffffffffffffffffffffffffff021916908373ffffffffffffffffffffffffffffffffffffffff1602179055508173ffffffffffffffffffffffffffffffffffffffff168173ffffffffffffffffffffffffffffffffffffffff167f8be0079c531659141344cd1fd0a4f28419497f9722a3daafe3b4186f6b6457e060405160405180910390a35050565b60008135905061084981610c74565b92915050565b60008135905061085e81610c8b565b92915050565b60006020828403121561087657600080fd5b60006108848482850161083a565b91505092915050565b600080604083850312156108a057600080fd5b60006108ae8582860161083a565b92505060206108bf8582860161084f565b9150509250929050565b6000602082840312156108db57600080fd5b60006108e98482850161084f565b91505092915050565b6108fb81610b73565b82525050565b61090a81610b85565b82525050565b600061091b82610b57565b6109258185610b62565b9350610935818560208601610bcf565b61093e81610c63565b840191505092915050565b6000610956601483610b62565b91507f5061757361626c653a206e6f74207061757365640000000000000000000000006000830152602082019050919050565b6000610996602683610b62565b91507f4f776e61626c653a206e6577206f776e657220697320746865207a65726f206160008301527f64647265737300000000000000000000000000000000000000000000000000006020830152604082019050919050565b60006109fc602083610b62565b91507f4f776e61626c653a2063616c6c6572206973206e6f7420746865206f776e65726000830152602082019050919050565b610a3881610bb1565b82525050565b610a4781610bbb565b82525050565b6000602082019050610a6260008301846108f2565b92915050565b6000602082019050610a7d6000830184610901565b92915050565b60006060820190508181036000830152610a9d8186610910565b9050610aac6020830185610901565b610ab96040830184610a3e565b949350505050565b60006020820190508181036000830152610ada81610949565b9050919050565b60006020820190508181036000830152610afa81610989565b9050919050565b60006020820190508181036000830152610b1a816109ef565b9050919050565b6000602082019050610b366000830184610a2f565b92915050565b6000602082019050610b516000830184610a3e565b92915050565b600081519050919050565b600082825260208201905092915050565b6000610b7e82610b91565b9050919050565b60008115159050919050565b600073ffffffffffffffffffffffffffffffffffffffff82169050919050565b6000819050919050565b600067ffffffffffffffff82169050919050565b60005b83811015610bed578082015181840152602081019050610bd2565b83811115610bfc576000848401525b50505050565b60006002820490506001821680610c1a57607f821691505b60208210811415610c2e57610c2d610c34565b5b50919050565b7f4e487b7100000000000000000000000000000000000000000000000000000000600052602260045260246000fd5b6000601f19601f8301169050919050565b610c7d81610b73565b8114610c8857600080fd5b50565b610c9481610bb1565b8114610c9f57600080fd5b5056fea26469706673582212202ce41f790284f8cc1d932ad8d9170b8b3cd13f19d1422dcf0046a12960d7330064736f6c63430008000033",
  "linkReferences": {},
  "deployedLinkReferences": {}
}